{
	"contracts/1_registerUser_flit.sol": {
		"NewClient": {
			"abi": [
				{
					"inputs": [
						{
							"internalType": "string",
							"name": "_username",
							"type": "string"
						}
					],
					"name": "CreateClient",
					"outputs": [
						{
							"internalType": "address",
							"name": "",
							"type": "address"
						}
					],
					"stateMutability": "nonpayable",
					"type": "function"
				},
				{
					"inputs": [
						{
							"internalType": "string",
							"name": "_username",
							"type": "string"
						}
					],
					"name": "GetClient",
					"outputs": [
						{
							"internalType": "uint256",
							"name": "",
							"type": "uint256"
						},
						{
							"internalType": "address",
							"name": "",
							"type": "address"
						},
						{
							"internalType": "string",
							"name": "",
							"type": "string"
						}
					],
					"stateMutability": "view",
					"type": "function"
				},
				{
					"inputs": [
						{
							"internalType": "address",
							"name": "_addr",
							"type": "address"
						}
					],
					"name": "GetWalletClient",
					"outputs": [
						{
							"internalType": "string",
							"name": "",
							"type": "string"
						},
						{
							"internalType": "address",
							"name": "",
							"type": "address"
						},
						{
							"internalType": "int128",
							"name": "",
							"type": "int128"
						},
						{
							"internalType": "int128",
							"name": "",
							"type": "int128"
						},
						{
							"internalType": "int128",
							"name": "",
							"type": "int128"
						},
						{
							"internalType": "uint8",
							"name": "",
							"type": "uint8"
						}
					],
					"stateMutability": "view",
					"type": "function"
				},
				{
					"inputs": [
						{
							"internalType": "address",
							"name": "_addr",
							"type": "address"
						},
						{
							"internalType": "int128",
							"name": "_value",
							"type": "int128"
						}
					],
					"name": "IncreaseBalance",
					"outputs": [],
					"stateMutability": "nonpayable",
					"type": "function"
				}
			],
			"devdoc": {
				"kind": "dev",
				"methods": {},
				"version": 1
			},
			"evm": {
				"assembly": "    /* \"contracts/1_registerUser_flit.sol\":62:1965  contract NewClient {... */\n  mstore(0x40, 0x80)\n  callvalue\n  dup1\n  iszero\n  tag_1\n  jumpi\n  0x00\n  dup1\n  revert\ntag_1:\n  pop\n  dataSize(sub_0)\n  dup1\n  dataOffset(sub_0)\n  0x00\n  codecopy\n  0x00\n  return\nstop\n\nsub_0: assembly {\n        /* \"contracts/1_registerUser_flit.sol\":62:1965  contract NewClient {... */\n      mstore(0x40, 0x80)\n      callvalue\n      dup1\n      iszero\n      tag_1\n      jumpi\n      0x00\n      dup1\n      revert\n    tag_1:\n      pop\n      jumpi(tag_2, lt(calldatasize, 0x04))\n      shr(0xe0, calldataload(0x00))\n      dup1\n      0x0e9262ac\n      eq\n      tag_3\n      jumpi\n      dup1\n      0x1a67b98b\n      eq\n      tag_4\n      jumpi\n      dup1\n      0x24e164f7\n      eq\n      tag_5\n      jumpi\n      dup1\n      0xd265a3f3\n      eq\n      tag_6\n      jumpi\n    tag_2:\n      0x00\n      dup1\n      revert\n        /* \"contracts/1_registerUser_flit.sol\":1802:1963  function IncreaseBalance(address _addr, int128 _value) public {... */\n    tag_3:\n      tag_7\n      0x04\n      dup1\n      calldatasize\n      sub\n      dup2\n      add\n      swap1\n      tag_8\n      swap2\n      swap1\n      tag_9\n      jump\t// in\n    tag_8:\n      tag_10\n      jump\t// in\n    tag_7:\n      stop\n        /* \"contracts/1_registerUser_flit.sol\":1306:1796  function GetWalletClient(address _addr) public view returns(string memory, address, int128, int128, int128, uint8) {... */\n    tag_4:\n      tag_11\n      0x04\n      dup1\n      calldatasize\n      sub\n      dup2\n      add\n      swap1\n      tag_12\n      swap2\n      swap1\n      tag_13\n      jump\t// in\n    tag_12:\n      tag_14\n      jump\t// in\n    tag_11:\n      mload(0x40)\n      tag_15\n      swap7\n      swap6\n      swap5\n      swap4\n      swap3\n      swap2\n      swap1\n      tag_16\n      jump\t// in\n    tag_15:\n      mload(0x40)\n      dup1\n      swap2\n      sub\n      swap1\n      return\n        /* \"contracts/1_registerUser_flit.sol\":901:1300  function GetClient(string calldata _username) public view returns(uint, address, string memory) {... */\n    tag_5:\n      tag_17\n      0x04\n      dup1\n      calldatasize\n      sub\n      dup2\n      add\n      swap1\n      tag_18\n      swap2\n      swap1\n      tag_19\n      jump\t// in\n    tag_18:\n      tag_20\n      jump\t// in\n    tag_17:\n      mload(0x40)\n      tag_21\n      swap4\n      swap3\n      swap2\n      swap1\n      tag_22\n      jump\t// in\n    tag_21:\n      mload(0x40)\n      dup1\n      swap2\n      sub\n      swap1\n      return\n        /* \"contracts/1_registerUser_flit.sol\":547:865  function CreateClient(string calldata _username) public returns(address) {... */\n    tag_6:\n      tag_23\n      0x04\n      dup1\n      calldatasize\n      sub\n      dup2\n      add\n      swap1\n      tag_24\n      swap2\n      swap1\n      tag_19\n      jump\t// in\n    tag_24:\n      tag_25\n      jump\t// in\n    tag_23:\n      mload(0x40)\n      tag_26\n      swap2\n      swap1\n      tag_27\n      jump\t// in\n    tag_26:\n      mload(0x40)\n      dup1\n      swap2\n      sub\n      swap1\n      return\n        /* \"contracts/1_registerUser_flit.sol\":1802:1963  function IncreaseBalance(address _addr, int128 _value) public {... */\n    tag_10:\n        /* \"contracts/1_registerUser_flit.sol\":1874:1887  uint idClient */\n      0x00\n        /* \"contracts/1_registerUser_flit.sol\":1890:1904  clientsAddress */\n      0x02\n        /* \"contracts/1_registerUser_flit.sol\":1890:1911  clientsAddress[_addr] */\n      0x00\n        /* \"contracts/1_registerUser_flit.sol\":1905:1910  _addr */\n      dup5\n        /* \"contracts/1_registerUser_flit.sol\":1890:1911  clientsAddress[_addr] */\n      0xffffffffffffffffffffffffffffffffffffffff\n      and\n      0xffffffffffffffffffffffffffffffffffffffff\n      and\n      dup2\n      mstore\n      0x20\n      add\n      swap1\n      dup2\n      mstore\n      0x20\n      add\n      0x00\n      keccak256\n      sload\n        /* \"contracts/1_registerUser_flit.sol\":1874:1911  uint idClient = clientsAddress[_addr] */\n      swap1\n      pop\n        /* \"contracts/1_registerUser_flit.sol\":1950:1956  _value */\n      dup2\n        /* \"contracts/1_registerUser_flit.sol\":1921:1928  clients */\n      0x01\n        /* \"contracts/1_registerUser_flit.sol\":1921:1938  clients[idClient] */\n      0x00\n        /* \"contracts/1_registerUser_flit.sol\":1929:1937  idClient */\n      dup4\n        /* \"contracts/1_registerUser_flit.sol\":1921:1938  clients[idClient] */\n      dup2\n      mstore\n      0x20\n      add\n      swap1\n      dup2\n      mstore\n      0x20\n      add\n      0x00\n      keccak256\n        /* \"contracts/1_registerUser_flit.sol\":1921:1946  clients[idClient].balance */\n      0x03\n      add\n      0x00\n        /* \"contracts/1_registerUser_flit.sol\":1921:1956  clients[idClient].balance += _value */\n      dup3\n      dup3\n      dup3\n      swap1\n      sload\n      swap1\n      0x0100\n      exp\n      swap1\n      div\n      0x0f\n      signextend\n      tag_29\n      swap2\n      swap1\n      tag_30\n      jump\t// in\n    tag_29:\n      swap3\n      pop\n      0x0100\n      exp\n      dup2\n      sload\n      dup2\n      0xffffffffffffffffffffffffffffffff\n      mul\n      not\n      and\n      swap1\n      dup4\n      0x0f\n      signextend\n      0xffffffffffffffffffffffffffffffff\n      and\n      mul\n      or\n      swap1\n      sstore\n      pop\n        /* \"contracts/1_registerUser_flit.sol\":1864:1963  {... */\n      pop\n        /* \"contracts/1_registerUser_flit.sol\":1802:1963  function IncreaseBalance(address _addr, int128 _value) public {... */\n      pop\n      pop\n      jump\t// out\n        /* \"contracts/1_registerUser_flit.sol\":1306:1796  function GetWalletClient(address _addr) public view returns(string memory, address, int128, int128, int128, uint8) {... */\n    tag_14:\n        /* \"contracts/1_registerUser_flit.sol\":1366:1379  string memory */\n      0x60\n        /* \"contracts/1_registerUser_flit.sol\":1381:1388  address */\n      0x00\n        /* \"contracts/1_registerUser_flit.sol\":1390:1396  int128 */\n      dup1\n        /* \"contracts/1_registerUser_flit.sol\":1398:1404  int128 */\n      0x00\n        /* \"contracts/1_registerUser_flit.sol\":1406:1412  int128 */\n      dup1\n        /* \"contracts/1_registerUser_flit.sol\":1414:1419  uint8 */\n      0x00\n        /* \"contracts/1_registerUser_flit.sol\":1435:1441  uint i */\n      dup1\n        /* \"contracts/1_registerUser_flit.sol\":1444:1445  0 */\n      0x00\n        /* \"contracts/1_registerUser_flit.sol\":1435:1445  uint i = 0 */\n      swap1\n      pop\n        /* \"contracts/1_registerUser_flit.sol\":1431:1754  for(uint i = 0; i < quantityShare; i++) {... */\n    tag_32:\n        /* \"contracts/1_registerUser_flit.sol\":1451:1464  quantityShare */\n      0x00\n      0x10\n      swap1\n      sload\n      swap1\n      0x0100\n      exp\n      swap1\n      div\n      0xff\n      and\n        /* \"contracts/1_registerUser_flit.sol\":1447:1464  i < quantityShare */\n      0xff\n      and\n        /* \"contracts/1_registerUser_flit.sol\":1447:1448  i */\n      dup2\n        /* \"contracts/1_registerUser_flit.sol\":1447:1464  i < quantityShare */\n      lt\n        /* \"contracts/1_registerUser_flit.sol\":1431:1754  for(uint i = 0; i < quantityShare; i++) {... */\n      iszero\n      tag_33\n      jumpi\n        /* \"contracts/1_registerUser_flit.sol\":1563:1568  _addr */\n      dup8\n        /* \"contracts/1_registerUser_flit.sol\":1546:1569  abi.encodePacked(_addr) */\n      add(0x20, mload(0x40))\n      tag_35\n      swap2\n      swap1\n      tag_36\n      jump\t// in\n    tag_35:\n      mload(0x40)\n      0x20\n      dup2\n      dup4\n      sub\n      sub\n      dup2\n      mstore\n      swap1\n      0x40\n      mstore\n        /* \"contracts/1_registerUser_flit.sol\":1536:1570  keccak256(abi.encodePacked(_addr)) */\n      dup1\n      mload\n      swap1\n      0x20\n      add\n      keccak256\n        /* \"contracts/1_registerUser_flit.sol\":1515:1522  clients */\n      0x01\n        /* \"contracts/1_registerUser_flit.sol\":1515:1525  clients[i] */\n      0x00\n        /* \"contracts/1_registerUser_flit.sol\":1523:1524  i */\n      dup4\n        /* \"contracts/1_registerUser_flit.sol\":1515:1525  clients[i] */\n      dup2\n      mstore\n      0x20\n      add\n      swap1\n      dup2\n      mstore\n      0x20\n      add\n      0x00\n      keccak256\n        /* \"contracts/1_registerUser_flit.sol\":1515:1530  clients[i].addr */\n      0x01\n      add\n      0x00\n      swap1\n      sload\n      swap1\n      0x0100\n      exp\n      swap1\n      div\n      0xffffffffffffffffffffffffffffffffffffffff\n      and\n        /* \"contracts/1_registerUser_flit.sol\":1498:1531  abi.encodePacked(clients[i].addr) */\n      add(0x20, mload(0x40))\n      tag_37\n      swap2\n      swap1\n      tag_36\n      jump\t// in\n    tag_37:\n      mload(0x40)\n      0x20\n      dup2\n      dup4\n      sub\n      sub\n      dup2\n      mstore\n      swap1\n      0x40\n      mstore\n        /* \"contracts/1_registerUser_flit.sol\":1488:1532  keccak256(abi.encodePacked(clients[i].addr)) */\n      dup1\n      mload\n      swap1\n      0x20\n      add\n      keccak256\n        /* \"contracts/1_registerUser_flit.sol\":1488:1570  keccak256(abi.encodePacked(clients[i].addr)) == keccak256(abi.encodePacked(_addr)) */\n      sub\n        /* \"contracts/1_registerUser_flit.sol\":1485:1744  if(keccak256(abi.encodePacked(clients[i].addr)) == keccak256(abi.encodePacked(_addr))) {... */\n      tag_38\n      jumpi\n        /* \"contracts/1_registerUser_flit.sol\":1598:1605  clients */\n      0x01\n        /* \"contracts/1_registerUser_flit.sol\":1598:1608  clients[i] */\n      0x00\n        /* \"contracts/1_registerUser_flit.sol\":1606:1607  i */\n      dup3\n        /* \"contracts/1_registerUser_flit.sol\":1598:1608  clients[i] */\n      dup2\n      mstore\n      0x20\n      add\n      swap1\n      dup2\n      mstore\n      0x20\n      add\n      0x00\n      keccak256\n        /* \"contracts/1_registerUser_flit.sol\":1598:1617  clients[i].username */\n      0x02\n      add\n        /* \"contracts/1_registerUser_flit.sol\":1619:1626  clients */\n      0x01\n        /* \"contracts/1_registerUser_flit.sol\":1619:1629  clients[i] */\n      0x00\n        /* \"contracts/1_registerUser_flit.sol\":1627:1628  i */\n      dup4\n        /* \"contracts/1_registerUser_flit.sol\":1619:1629  clients[i] */\n      dup2\n      mstore\n      0x20\n      add\n      swap1\n      dup2\n      mstore\n      0x20\n      add\n      0x00\n      keccak256\n        /* \"contracts/1_registerUser_flit.sol\":1619:1634  clients[i].addr */\n      0x01\n      add\n      0x00\n      swap1\n      sload\n      swap1\n      0x0100\n      exp\n      swap1\n      div\n      0xffffffffffffffffffffffffffffffffffffffff\n      and\n        /* \"contracts/1_registerUser_flit.sol\":1636:1643  clients */\n      0x01\n        /* \"contracts/1_registerUser_flit.sol\":1636:1646  clients[i] */\n      0x00\n        /* \"contracts/1_registerUser_flit.sol\":1644:1645  i */\n      dup5\n        /* \"contracts/1_registerUser_flit.sol\":1636:1646  clients[i] */\n      dup2\n      mstore\n      0x20\n      add\n      swap1\n      dup2\n      mstore\n      0x20\n      add\n      0x00\n      keccak256\n        /* \"contracts/1_registerUser_flit.sol\":1636:1654  clients[i].balance */\n      0x03\n      add\n      0x00\n      swap1\n      sload\n      swap1\n      0x0100\n      exp\n      swap1\n      div\n      0x0f\n      signextend\n        /* \"contracts/1_registerUser_flit.sol\":1656:1663  clients */\n      0x01\n        /* \"contracts/1_registerUser_flit.sol\":1656:1666  clients[i] */\n      0x00\n        /* \"contracts/1_registerUser_flit.sol\":1664:1665  i */\n      dup6\n        /* \"contracts/1_registerUser_flit.sol\":1656:1666  clients[i] */\n      dup2\n      mstore\n      0x20\n      add\n      swap1\n      dup2\n      mstore\n      0x20\n      add\n      0x00\n      keccak256\n        /* \"contracts/1_registerUser_flit.sol\":1656:1683  clients[i].availableBalance */\n      0x03\n      add\n      0x10\n      swap1\n      sload\n      swap1\n      0x0100\n      exp\n      swap1\n      div\n      0x0f\n      signextend\n        /* \"contracts/1_registerUser_flit.sol\":1685:1692  clients */\n      0x01\n        /* \"contracts/1_registerUser_flit.sol\":1685:1695  clients[i] */\n      0x00\n        /* \"contracts/1_registerUser_flit.sol\":1693:1694  i */\n      dup7\n        /* \"contracts/1_registerUser_flit.sol\":1685:1695  clients[i] */\n      dup2\n      mstore\n      0x20\n      add\n      swap1\n      dup2\n      mstore\n      0x20\n      add\n      0x00\n      keccak256\n        /* \"contracts/1_registerUser_flit.sol\":1685:1701  clients[i].found */\n      0x04\n      add\n      0x00\n      swap1\n      sload\n      swap1\n      0x0100\n      exp\n      swap1\n      div\n      0x0f\n      signextend\n        /* \"contracts/1_registerUser_flit.sol\":1703:1710  clients */\n      0x01\n        /* \"contracts/1_registerUser_flit.sol\":1703:1713  clients[i] */\n      0x00\n        /* \"contracts/1_registerUser_flit.sol\":1711:1712  i */\n      dup8\n        /* \"contracts/1_registerUser_flit.sol\":1703:1713  clients[i] */\n      dup2\n      mstore\n      0x20\n      add\n      swap1\n      dup2\n      mstore\n      0x20\n      add\n      0x00\n      keccak256\n        /* \"contracts/1_registerUser_flit.sol\":1703:1728  clients[i].quantityShares */\n      0x04\n      add\n      0x10\n      swap1\n      sload\n      swap1\n      0x0100\n      exp\n      swap1\n      div\n      0xff\n      and\n        /* \"contracts/1_registerUser_flit.sol\":1590:1729  return (clients[i].username, clients[i].addr, clients[i].balance, clients[i].availableBalance, clients[i].found, clients[i].quantityShares) */\n      dup6\n      dup1\n      sload\n      tag_39\n      swap1\n      tag_40\n      jump\t// in\n    tag_39:\n      dup1\n      0x1f\n      add\n      0x20\n      dup1\n      swap2\n      div\n      mul\n      0x20\n      add\n      mload(0x40)\n      swap1\n      dup2\n      add\n      0x40\n      mstore\n      dup1\n      swap3\n      swap2\n      swap1\n      dup2\n      dup2\n      mstore\n      0x20\n      add\n      dup3\n      dup1\n      sload\n      tag_41\n      swap1\n      tag_40\n      jump\t// in\n    tag_41:\n      dup1\n      iszero\n      tag_42\n      jumpi\n      dup1\n      0x1f\n      lt\n      tag_43\n      jumpi\n      0x0100\n      dup1\n      dup4\n      sload\n      div\n      mul\n      dup4\n      mstore\n      swap2\n      0x20\n      add\n      swap2\n      jump(tag_42)\n    tag_43:\n      dup3\n      add\n      swap2\n      swap1\n      0x00\n      mstore\n      keccak256(0x00, 0x20)\n      swap1\n    tag_44:\n      dup2\n      sload\n      dup2\n      mstore\n      swap1\n      0x01\n      add\n      swap1\n      0x20\n      add\n      dup1\n      dup4\n      gt\n      tag_44\n      jumpi\n      dup3\n      swap1\n      sub\n      0x1f\n      and\n      dup3\n      add\n      swap2\n    tag_42:\n      pop\n      pop\n      pop\n      pop\n      pop\n      swap6\n      pop\n      swap7\n      pop\n      swap7\n      pop\n      swap7\n      pop\n      swap7\n      pop\n      swap7\n      pop\n      swap7\n      pop\n      pop\n      jump(tag_31)\n        /* \"contracts/1_registerUser_flit.sol\":1485:1744  if(keccak256(abi.encodePacked(clients[i].addr)) == keccak256(abi.encodePacked(_addr))) {... */\n    tag_38:\n        /* \"contracts/1_registerUser_flit.sol\":1466:1469  i++ */\n      dup1\n      dup1\n      0x01\n      add\n      swap2\n      pop\n      pop\n        /* \"contracts/1_registerUser_flit.sol\":1431:1754  for(uint i = 0; i < quantityShare; i++) {... */\n      jump(tag_32)\n    tag_33:\n      pop\n        /* \"contracts/1_registerUser_flit.sol\":1763:1789  revert(\"Wallet not found\") */\n      mload(0x40)\n      0x08c379a000000000000000000000000000000000000000000000000000000000\n      dup2\n      mstore\n      0x04\n      add\n      tag_45\n      swap1\n      tag_46\n      jump\t// in\n    tag_45:\n      mload(0x40)\n      dup1\n      swap2\n      sub\n      swap1\n      revert\n        /* \"contracts/1_registerUser_flit.sol\":1306:1796  function GetWalletClient(address _addr) public view returns(string memory, address, int128, int128, int128, uint8) {... */\n    tag_31:\n      swap2\n      swap4\n      swap6\n      pop\n      swap2\n      swap4\n      swap6\n      jump\t// out\n        /* \"contracts/1_registerUser_flit.sol\":901:1300  function GetClient(string calldata _username) public view returns(uint, address, string memory) {... */\n    tag_20:\n        /* \"contracts/1_registerUser_flit.sol\":967:971  uint */\n      0x00\n        /* \"contracts/1_registerUser_flit.sol\":973:980  address */\n      dup1\n        /* \"contracts/1_registerUser_flit.sol\":982:995  string memory */\n      0x60\n        /* \"contracts/1_registerUser_flit.sol\":1011:1017  uint i */\n      0x00\n        /* \"contracts/1_registerUser_flit.sol\":1007:1260  for(uint i = 0; i < incrementValue; i++) {... */\n    tag_48:\n        /* \"contracts/1_registerUser_flit.sol\":1027:1041  incrementValue */\n      0x00\n      dup1\n      sload\n      swap1\n      0x0100\n      exp\n      swap1\n      div\n      0xffffffffffffffffffffffffffffffff\n      and\n        /* \"contracts/1_registerUser_flit.sol\":1023:1041  i < incrementValue */\n      0xffffffffffffffffffffffffffffffff\n      and\n        /* \"contracts/1_registerUser_flit.sol\":1023:1024  i */\n      dup2\n        /* \"contracts/1_registerUser_flit.sol\":1023:1041  i < incrementValue */\n      lt\n        /* \"contracts/1_registerUser_flit.sol\":1007:1260  for(uint i = 0; i < incrementValue; i++) {... */\n      iszero\n      tag_49\n      jumpi\n        /* \"contracts/1_registerUser_flit.sol\":1144:1153  _username */\n      dup6\n      dup6\n        /* \"contracts/1_registerUser_flit.sol\":1127:1154  abi.encodePacked(_username) */\n      add(0x20, mload(0x40))\n      tag_51\n      swap3\n      swap2\n      swap1\n      tag_52\n      jump\t// in\n    tag_51:\n      mload(0x40)\n      0x20\n      dup2\n      dup4\n      sub\n      sub\n      dup2\n      mstore\n      swap1\n      0x40\n      mstore\n        /* \"contracts/1_registerUser_flit.sol\":1117:1155  keccak256(abi.encodePacked(_username)) */\n      dup1\n      mload\n      swap1\n      0x20\n      add\n      keccak256\n        /* \"contracts/1_registerUser_flit.sol\":1092:1099  clients */\n      0x01\n        /* \"contracts/1_registerUser_flit.sol\":1092:1102  clients[i] */\n      0x00\n        /* \"contracts/1_registerUser_flit.sol\":1100:1101  i */\n      dup4\n        /* \"contracts/1_registerUser_flit.sol\":1092:1102  clients[i] */\n      dup2\n      mstore\n      0x20\n      add\n      swap1\n      dup2\n      mstore\n      0x20\n      add\n      0x00\n      keccak256\n        /* \"contracts/1_registerUser_flit.sol\":1092:1111  clients[i].username */\n      0x02\n      add\n        /* \"contracts/1_registerUser_flit.sol\":1075:1112  abi.encodePacked(clients[i].username) */\n      add(0x20, mload(0x40))\n      tag_53\n      swap2\n      swap1\n      tag_54\n      jump\t// in\n    tag_53:\n      mload(0x40)\n      0x20\n      dup2\n      dup4\n      sub\n      sub\n      dup2\n      mstore\n      swap1\n      0x40\n      mstore\n        /* \"contracts/1_registerUser_flit.sol\":1065:1113  keccak256(abi.encodePacked(clients[i].username)) */\n      dup1\n      mload\n      swap1\n      0x20\n      add\n      keccak256\n        /* \"contracts/1_registerUser_flit.sol\":1065:1155  keccak256(abi.encodePacked(clients[i].username)) == keccak256(abi.encodePacked(_username)) */\n      sub\n        /* \"contracts/1_registerUser_flit.sol\":1062:1250  if(keccak256(abi.encodePacked(clients[i].username)) == keccak256(abi.encodePacked(_username))) {... */\n      tag_55\n      jumpi\n        /* \"contracts/1_registerUser_flit.sol\":1183:1190  clients */\n      0x01\n        /* \"contracts/1_registerUser_flit.sol\":1183:1193  clients[i] */\n      0x00\n        /* \"contracts/1_registerUser_flit.sol\":1191:1192  i */\n      dup3\n        /* \"contracts/1_registerUser_flit.sol\":1183:1193  clients[i] */\n      dup2\n      mstore\n      0x20\n      add\n      swap1\n      dup2\n      mstore\n      0x20\n      add\n      0x00\n      keccak256\n        /* \"contracts/1_registerUser_flit.sol\":1183:1196  clients[i].id */\n      0x00\n      add\n      sload\n        /* \"contracts/1_registerUser_flit.sol\":1198:1205  clients */\n      0x01\n        /* \"contracts/1_registerUser_flit.sol\":1198:1208  clients[i] */\n      0x00\n        /* \"contracts/1_registerUser_flit.sol\":1206:1207  i */\n      dup4\n        /* \"contracts/1_registerUser_flit.sol\":1198:1208  clients[i] */\n      dup2\n      mstore\n      0x20\n      add\n      swap1\n      dup2\n      mstore\n      0x20\n      add\n      0x00\n      keccak256\n        /* \"contracts/1_registerUser_flit.sol\":1198:1213  clients[i].addr */\n      0x01\n      add\n      0x00\n      swap1\n      sload\n      swap1\n      0x0100\n      exp\n      swap1\n      div\n      0xffffffffffffffffffffffffffffffffffffffff\n      and\n        /* \"contracts/1_registerUser_flit.sol\":1215:1222  clients */\n      0x01\n        /* \"contracts/1_registerUser_flit.sol\":1215:1225  clients[i] */\n      0x00\n        /* \"contracts/1_registerUser_flit.sol\":1223:1224  i */\n      dup5\n        /* \"contracts/1_registerUser_flit.sol\":1215:1225  clients[i] */\n      dup2\n      mstore\n      0x20\n      add\n      swap1\n      dup2\n      mstore\n      0x20\n      add\n      0x00\n      keccak256\n        /* \"contracts/1_registerUser_flit.sol\":1215:1234  clients[i].username */\n      0x02\n      add\n        /* \"contracts/1_registerUser_flit.sol\":1175:1235  return (clients[i].id, clients[i].addr, clients[i].username) */\n      dup1\n      dup1\n      sload\n      tag_56\n      swap1\n      tag_40\n      jump\t// in\n    tag_56:\n      dup1\n      0x1f\n      add\n      0x20\n      dup1\n      swap2\n      div\n      mul\n      0x20\n      add\n      mload(0x40)\n      swap1\n      dup2\n      add\n      0x40\n      mstore\n      dup1\n      swap3\n      swap2\n      swap1\n      dup2\n      dup2\n      mstore\n      0x20\n      add\n      dup3\n      dup1\n      sload\n      tag_57\n      swap1\n      tag_40\n      jump\t// in\n    tag_57:\n      dup1\n      iszero\n      tag_58\n      jumpi\n      dup1\n      0x1f\n      lt\n      tag_59\n      jumpi\n      0x0100\n      dup1\n      dup4\n      sload\n      div\n      mul\n      dup4\n      mstore\n      swap2\n      0x20\n      add\n      swap2\n      jump(tag_58)\n    tag_59:\n      dup3\n      add\n      swap2\n      swap1\n      0x00\n      mstore\n      keccak256(0x00, 0x20)\n      swap1\n    tag_60:\n      dup2\n      sload\n      dup2\n      mstore\n      swap1\n      0x01\n      add\n      swap1\n      0x20\n      add\n      dup1\n      dup4\n      gt\n      tag_60\n      jumpi\n      dup3\n      swap1\n      sub\n      0x1f\n      and\n      dup3\n      add\n      swap2\n    tag_58:\n      pop\n      pop\n      pop\n      pop\n      pop\n      swap1\n      pop\n      swap4\n      pop\n      swap4\n      pop\n      swap4\n      pop\n      pop\n      jump(tag_47)\n        /* \"contracts/1_registerUser_flit.sol\":1062:1250  if(keccak256(abi.encodePacked(clients[i].username)) == keccak256(abi.encodePacked(_username))) {... */\n    tag_55:\n        /* \"contracts/1_registerUser_flit.sol\":1043:1046  i++ */\n      dup1\n      dup1\n      0x01\n      add\n      swap2\n      pop\n      pop\n        /* \"contracts/1_registerUser_flit.sol\":1007:1260  for(uint i = 0; i < incrementValue; i++) {... */\n      jump(tag_48)\n    tag_49:\n      pop\n        /* \"contracts/1_registerUser_flit.sol\":1269:1293  revert(\"User not found\") */\n      mload(0x40)\n      0x08c379a000000000000000000000000000000000000000000000000000000000\n      dup2\n      mstore\n      0x04\n      add\n      tag_61\n      swap1\n      tag_62\n      jump\t// in\n    tag_61:\n      mload(0x40)\n      dup1\n      swap2\n      sub\n      swap1\n      revert\n        /* \"contracts/1_registerUser_flit.sol\":901:1300  function GetClient(string calldata _username) public view returns(uint, address, string memory) {... */\n    tag_47:\n      swap3\n      pop\n      swap3\n      pop\n      swap3\n      jump\t// out\n        /* \"contracts/1_registerUser_flit.sol\":547:865  function CreateClient(string calldata _username) public returns(address) {... */\n    tag_25:\n        /* \"contracts/1_registerUser_flit.sol\":611:618  address */\n      0x00\n        /* \"contracts/1_registerUser_flit.sol\":656:725  Client(incrementValue, msg.sender, _username, 0, 0, 0, quantityShare) */\n      mload(0x40)\n      dup1\n      0xe0\n      add\n      0x40\n      mstore\n      dup1\n        /* \"contracts/1_registerUser_flit.sol\":663:677  incrementValue */\n      0x00\n      dup1\n      sload\n      swap1\n      0x0100\n      exp\n      swap1\n      div\n      0xffffffffffffffffffffffffffffffff\n      and\n        /* \"contracts/1_registerUser_flit.sol\":656:725  Client(incrementValue, msg.sender, _username, 0, 0, 0, quantityShare) */\n      0xffffffffffffffffffffffffffffffff\n      and\n      dup2\n      mstore\n      0x20\n      add\n        /* \"contracts/1_registerUser_flit.sol\":679:689  msg.sender */\n      caller\n        /* \"contracts/1_registerUser_flit.sol\":656:725  Client(incrementValue, msg.sender, _username, 0, 0, 0, quantityShare) */\n      0xffffffffffffffffffffffffffffffffffffffff\n      and\n      dup2\n      mstore\n      0x20\n      add\n        /* \"contracts/1_registerUser_flit.sol\":691:700  _username */\n      dup5\n      dup5\n        /* \"contracts/1_registerUser_flit.sol\":656:725  Client(incrementValue, msg.sender, _username, 0, 0, 0, quantityShare) */\n      dup1\n      dup1\n      0x1f\n      add\n      0x20\n      dup1\n      swap2\n      div\n      mul\n      0x20\n      add\n      mload(0x40)\n      swap1\n      dup2\n      add\n      0x40\n      mstore\n      dup1\n      swap4\n      swap3\n      swap2\n      swap1\n      dup2\n      dup2\n      mstore\n      0x20\n      add\n      dup4\n      dup4\n      dup1\n      dup3\n      dup5\n      calldatacopy\n      0x00\n      dup2\n      dup5\n      add\n      mstore\n      not(0x1f)\n      0x1f\n      dup3\n      add\n      and\n      swap1\n      pop\n      dup1\n      dup4\n      add\n      swap3\n      pop\n      pop\n      pop\n      pop\n      pop\n      pop\n      pop\n      dup2\n      mstore\n      0x20\n      add\n        /* \"contracts/1_registerUser_flit.sol\":702:703  0 */\n      0x00\n        /* \"contracts/1_registerUser_flit.sol\":656:725  Client(incrementValue, msg.sender, _username, 0, 0, 0, quantityShare) */\n      0x0f\n      signextend\n      dup2\n      mstore\n      0x20\n      add\n        /* \"contracts/1_registerUser_flit.sol\":705:706  0 */\n      0x00\n        /* \"contracts/1_registerUser_flit.sol\":656:725  Client(incrementValue, msg.sender, _username, 0, 0, 0, quantityShare) */\n      0x0f\n      signextend\n      dup2\n      mstore\n      0x20\n      add\n        /* \"contracts/1_registerUser_flit.sol\":708:709  0 */\n      0x00\n        /* \"contracts/1_registerUser_flit.sol\":656:725  Client(incrementValue, msg.sender, _username, 0, 0, 0, quantityShare) */\n      0x0f\n      signextend\n      dup2\n      mstore\n      0x20\n      add\n        /* \"contracts/1_registerUser_flit.sol\":711:724  quantityShare */\n      0x00\n      0x10\n      swap1\n      sload\n      swap1\n      0x0100\n      exp\n      swap1\n      div\n      0xff\n      and\n        /* \"contracts/1_registerUser_flit.sol\":656:725  Client(incrementValue, msg.sender, _username, 0, 0, 0, quantityShare) */\n      0xff\n      and\n      dup2\n      mstore\n      pop\n        /* \"contracts/1_registerUser_flit.sol\":630:637  clients */\n      0x01\n        /* \"contracts/1_registerUser_flit.sol\":630:653  clients[incrementValue] */\n      0x00\n        /* \"contracts/1_registerUser_flit.sol\":638:652  incrementValue */\n      dup1\n      0x00\n      swap1\n      sload\n      swap1\n      0x0100\n      exp\n      swap1\n      div\n      0xffffffffffffffffffffffffffffffff\n      and\n        /* \"contracts/1_registerUser_flit.sol\":630:653  clients[incrementValue] */\n      0xffffffffffffffffffffffffffffffff\n      and\n      dup2\n      mstore\n      0x20\n      add\n      swap1\n      dup2\n      mstore\n      0x20\n      add\n      0x00\n      keccak256\n        /* \"contracts/1_registerUser_flit.sol\":630:725  clients[incrementValue] = Client(incrementValue, msg.sender, _username, 0, 0, 0, quantityShare) */\n      0x00\n      dup3\n      add\n      mload\n      dup2\n      0x00\n      add\n      sstore\n      0x20\n      dup3\n      add\n      mload\n      dup2\n      0x01\n      add\n      exp(0x0100, 0x00)\n      dup2\n      sload\n      dup2\n      0xffffffffffffffffffffffffffffffffffffffff\n      mul\n      not\n      and\n      swap1\n      dup4\n      0xffffffffffffffffffffffffffffffffffffffff\n      and\n      mul\n      or\n      swap1\n      sstore\n      pop\n      0x40\n      dup3\n      add\n      mload\n      dup2\n      0x02\n      add\n      swap1\n      dup2\n      tag_64\n      swap2\n      swap1\n      tag_65\n      jump\t// in\n    tag_64:\n      pop\n      0x60\n      dup3\n      add\n      mload\n      dup2\n      0x03\n      add\n      exp(0x0100, 0x00)\n      dup2\n      sload\n      dup2\n      0xffffffffffffffffffffffffffffffff\n      mul\n      not\n      and\n      swap1\n      dup4\n      0x0f\n      signextend\n      0xffffffffffffffffffffffffffffffff\n      and\n      mul\n      or\n      swap1\n      sstore\n      pop\n      0x80\n      dup3\n      add\n      mload\n      dup2\n      0x03\n      add\n      exp(0x0100, 0x10)\n      dup2\n      sload\n      dup2\n      0xffffffffffffffffffffffffffffffff\n      mul\n      not\n      and\n      swap1\n      dup4\n      0x0f\n      signextend\n      0xffffffffffffffffffffffffffffffff\n      and\n      mul\n      or\n      swap1\n      sstore\n      pop\n      0xa0\n      dup3\n      add\n      mload\n      dup2\n      0x04\n      add\n      exp(0x0100, 0x00)\n      dup2\n      sload\n      dup2\n      0xffffffffffffffffffffffffffffffff\n      mul\n      not\n      and\n      swap1\n      dup4\n      0x0f\n      signextend\n      0xffffffffffffffffffffffffffffffff\n      and\n      mul\n      or\n      swap1\n      sstore\n      pop\n      0xc0\n      dup3\n      add\n      mload\n      dup2\n      0x04\n      add\n      exp(0x0100, 0x10)\n      dup2\n      sload\n      dup2\n      0xff\n      mul\n      not\n      and\n      swap1\n      dup4\n      0xff\n      and\n      mul\n      or\n      swap1\n      sstore\n      pop\n      swap1\n      pop\n      pop\n        /* \"contracts/1_registerUser_flit.sol\":764:778  incrementValue */\n      0x00\n      dup1\n      sload\n      swap1\n      0x0100\n      exp\n      swap1\n      div\n      0xffffffffffffffffffffffffffffffff\n      and\n        /* \"contracts/1_registerUser_flit.sol\":735:778  clientsAddress[msg.sender] = incrementValue */\n      0xffffffffffffffffffffffffffffffff\n      and\n        /* \"contracts/1_registerUser_flit.sol\":735:749  clientsAddress */\n      0x02\n        /* \"contracts/1_registerUser_flit.sol\":735:761  clientsAddress[msg.sender] */\n      0x00\n        /* \"contracts/1_registerUser_flit.sol\":750:760  msg.sender */\n      caller\n        /* \"contracts/1_registerUser_flit.sol\":735:761  clientsAddress[msg.sender] */\n      0xffffffffffffffffffffffffffffffffffffffff\n      and\n      0xffffffffffffffffffffffffffffffffffffffff\n      and\n      dup2\n      mstore\n      0x20\n      add\n      swap1\n      dup2\n      mstore\n      0x20\n      add\n      0x00\n      keccak256\n        /* \"contracts/1_registerUser_flit.sol\":735:778  clientsAddress[msg.sender] = incrementValue */\n      dup2\n      swap1\n      sstore\n      pop\n        /* \"contracts/1_registerUser_flit.sol\":788:802  incrementValue */\n      0x00\n      dup1\n        /* \"contracts/1_registerUser_flit.sol\":788:805  incrementValue ++ */\n      dup2\n      dup2\n      swap1\n      sload\n      swap1\n      0x0100\n      exp\n      swap1\n      div\n      0xffffffffffffffffffffffffffffffff\n      and\n      dup1\n      swap3\n      swap2\n      swap1\n      tag_66\n      swap1\n      tag_67\n      jump\t// in\n    tag_66:\n      swap2\n      swap1\n      0x0100\n      exp\n      dup2\n      sload\n      dup2\n      0xffffffffffffffffffffffffffffffff\n      mul\n      not\n      and\n      swap1\n      dup4\n      0xffffffffffffffffffffffffffffffff\n      and\n      mul\n      or\n      swap1\n      sstore\n      pop\n      pop\n        /* \"contracts/1_registerUser_flit.sol\":815:828  quantityShare */\n      0x00\n      0x10\n        /* \"contracts/1_registerUser_flit.sol\":815:831  quantityShare ++ */\n      dup2\n      dup2\n      swap1\n      sload\n      swap1\n      0x0100\n      exp\n      swap1\n      div\n      0xff\n      and\n      dup1\n      swap3\n      swap2\n      swap1\n      tag_68\n      swap1\n      tag_69\n      jump\t// in\n    tag_68:\n      swap2\n      swap1\n      0x0100\n      exp\n      dup2\n      sload\n      dup2\n      0xff\n      mul\n      not\n      and\n      swap1\n      dup4\n      0xff\n      and\n      mul\n      or\n      swap1\n      sstore\n      pop\n      pop\n        /* \"contracts/1_registerUser_flit.sol\":848:858  msg.sender */\n      caller\n        /* \"contracts/1_registerUser_flit.sol\":841:858  return msg.sender */\n      swap1\n      pop\n        /* \"contracts/1_registerUser_flit.sol\":547:865  function CreateClient(string calldata _username) public returns(address) {... */\n      swap3\n      swap2\n      pop\n      pop\n      jump\t// out\n        /* \"#utility.yul\":88:205   */\n    tag_71:\n        /* \"#utility.yul\":197:198   */\n      0x00\n        /* \"#utility.yul\":194:195   */\n      dup1\n        /* \"#utility.yul\":187:199   */\n      revert\n        /* \"#utility.yul\":211:328   */\n    tag_72:\n        /* \"#utility.yul\":320:321   */\n      0x00\n        /* \"#utility.yul\":317:318   */\n      dup1\n        /* \"#utility.yul\":310:322   */\n      revert\n        /* \"#utility.yul\":334:460   */\n    tag_73:\n        /* \"#utility.yul\":371:378   */\n      0x00\n        /* \"#utility.yul\":411:453   */\n      0xffffffffffffffffffffffffffffffffffffffff\n        /* \"#utility.yul\":404:409   */\n      dup3\n        /* \"#utility.yul\":400:454   */\n      and\n        /* \"#utility.yul\":389:454   */\n      swap1\n      pop\n        /* \"#utility.yul\":334:460   */\n      swap2\n      swap1\n      pop\n      jump\t// out\n        /* \"#utility.yul\":466:562   */\n    tag_74:\n        /* \"#utility.yul\":503:510   */\n      0x00\n        /* \"#utility.yul\":532:556   */\n      tag_132\n        /* \"#utility.yul\":550:555   */\n      dup3\n        /* \"#utility.yul\":532:556   */\n      tag_73\n      jump\t// in\n    tag_132:\n        /* \"#utility.yul\":521:556   */\n      swap1\n      pop\n        /* \"#utility.yul\":466:562   */\n      swap2\n      swap1\n      pop\n      jump\t// out\n        /* \"#utility.yul\":568:690   */\n    tag_75:\n        /* \"#utility.yul\":641:665   */\n      tag_134\n        /* \"#utility.yul\":659:664   */\n      dup2\n        /* \"#utility.yul\":641:665   */\n      tag_74\n      jump\t// in\n    tag_134:\n        /* \"#utility.yul\":634:639   */\n      dup2\n        /* \"#utility.yul\":631:666   */\n      eq\n        /* \"#utility.yul\":621:684   */\n      tag_135\n      jumpi\n        /* \"#utility.yul\":680:681   */\n      0x00\n        /* \"#utility.yul\":677:678   */\n      dup1\n        /* \"#utility.yul\":670:682   */\n      revert\n        /* \"#utility.yul\":621:684   */\n    tag_135:\n        /* \"#utility.yul\":568:690   */\n      pop\n      jump\t// out\n        /* \"#utility.yul\":696:835   */\n    tag_76:\n        /* \"#utility.yul\":742:747   */\n      0x00\n        /* \"#utility.yul\":780:786   */\n      dup2\n        /* \"#utility.yul\":767:787   */\n      calldataload\n        /* \"#utility.yul\":758:787   */\n      swap1\n      pop\n        /* \"#utility.yul\":796:829   */\n      tag_137\n        /* \"#utility.yul\":823:828   */\n      dup2\n        /* \"#utility.yul\":796:829   */\n      tag_75\n      jump\t// in\n    tag_137:\n        /* \"#utility.yul\":696:835   */\n      swap3\n      swap2\n      pop\n      pop\n      jump\t// out\n        /* \"#utility.yul\":841:933   */\n    tag_77:\n        /* \"#utility.yul\":877:884   */\n      0x00\n        /* \"#utility.yul\":921:926   */\n      dup2\n        /* \"#utility.yul\":917:919   */\n      0x0f\n        /* \"#utility.yul\":906:927   */\n      signextend\n        /* \"#utility.yul\":895:927   */\n      swap1\n      pop\n        /* \"#utility.yul\":841:933   */\n      swap2\n      swap1\n      pop\n      jump\t// out\n        /* \"#utility.yul\":939:1059   */\n    tag_78:\n        /* \"#utility.yul\":1011:1034   */\n      tag_140\n        /* \"#utility.yul\":1028:1033   */\n      dup2\n        /* \"#utility.yul\":1011:1034   */\n      tag_77\n      jump\t// in\n    tag_140:\n        /* \"#utility.yul\":1004:1009   */\n      dup2\n        /* \"#utility.yul\":1001:1035   */\n      eq\n        /* \"#utility.yul\":991:1053   */\n      tag_141\n      jumpi\n        /* \"#utility.yul\":1049:1050   */\n      0x00\n        /* \"#utility.yul\":1046:1047   */\n      dup1\n        /* \"#utility.yul\":1039:1051   */\n      revert\n        /* \"#utility.yul\":991:1053   */\n    tag_141:\n        /* \"#utility.yul\":939:1059   */\n      pop\n      jump\t// out\n        /* \"#utility.yul\":1065:1202   */\n    tag_79:\n        /* \"#utility.yul\":1110:1115   */\n      0x00\n        /* \"#utility.yul\":1148:1154   */\n      dup2\n        /* \"#utility.yul\":1135:1155   */\n      calldataload\n        /* \"#utility.yul\":1126:1155   */\n      swap1\n      pop\n        /* \"#utility.yul\":1164:1196   */\n      tag_143\n        /* \"#utility.yul\":1190:1195   */\n      dup2\n        /* \"#utility.yul\":1164:1196   */\n      tag_78\n      jump\t// in\n    tag_143:\n        /* \"#utility.yul\":1065:1202   */\n      swap3\n      swap2\n      pop\n      pop\n      jump\t// out\n        /* \"#utility.yul\":1208:1680   */\n    tag_9:\n        /* \"#utility.yul\":1275:1281   */\n      0x00\n        /* \"#utility.yul\":1283:1289   */\n      dup1\n        /* \"#utility.yul\":1332:1334   */\n      0x40\n        /* \"#utility.yul\":1320:1329   */\n      dup4\n        /* \"#utility.yul\":1311:1318   */\n      dup6\n        /* \"#utility.yul\":1307:1330   */\n      sub\n        /* \"#utility.yul\":1303:1335   */\n      slt\n        /* \"#utility.yul\":1300:1419   */\n      iszero\n      tag_145\n      jumpi\n        /* \"#utility.yul\":1338:1417   */\n      tag_146\n      tag_71\n      jump\t// in\n    tag_146:\n        /* \"#utility.yul\":1300:1419   */\n    tag_145:\n        /* \"#utility.yul\":1458:1459   */\n      0x00\n        /* \"#utility.yul\":1483:1536   */\n      tag_147\n        /* \"#utility.yul\":1528:1535   */\n      dup6\n        /* \"#utility.yul\":1519:1525   */\n      dup3\n        /* \"#utility.yul\":1508:1517   */\n      dup7\n        /* \"#utility.yul\":1504:1526   */\n      add\n        /* \"#utility.yul\":1483:1536   */\n      tag_76\n      jump\t// in\n    tag_147:\n        /* \"#utility.yul\":1473:1536   */\n      swap3\n      pop\n        /* \"#utility.yul\":1429:1546   */\n      pop\n        /* \"#utility.yul\":1585:1587   */\n      0x20\n        /* \"#utility.yul\":1611:1663   */\n      tag_148\n        /* \"#utility.yul\":1655:1662   */\n      dup6\n        /* \"#utility.yul\":1646:1652   */\n      dup3\n        /* \"#utility.yul\":1635:1644   */\n      dup7\n        /* \"#utility.yul\":1631:1653   */\n      add\n        /* \"#utility.yul\":1611:1663   */\n      tag_79\n      jump\t// in\n    tag_148:\n        /* \"#utility.yul\":1601:1663   */\n      swap2\n      pop\n        /* \"#utility.yul\":1556:1673   */\n      pop\n        /* \"#utility.yul\":1208:1680   */\n      swap3\n      pop\n      swap3\n      swap1\n      pop\n      jump\t// out\n        /* \"#utility.yul\":1686:2015   */\n    tag_13:\n        /* \"#utility.yul\":1745:1751   */\n      0x00\n        /* \"#utility.yul\":1794:1796   */\n      0x20\n        /* \"#utility.yul\":1782:1791   */\n      dup3\n        /* \"#utility.yul\":1773:1780   */\n      dup5\n        /* \"#utility.yul\":1769:1792   */\n      sub\n        /* \"#utility.yul\":1765:1797   */\n      slt\n        /* \"#utility.yul\":1762:1881   */\n      iszero\n      tag_150\n      jumpi\n        /* \"#utility.yul\":1800:1879   */\n      tag_151\n      tag_71\n      jump\t// in\n    tag_151:\n        /* \"#utility.yul\":1762:1881   */\n    tag_150:\n        /* \"#utility.yul\":1920:1921   */\n      0x00\n        /* \"#utility.yul\":1945:1998   */\n      tag_152\n        /* \"#utility.yul\":1990:1997   */\n      dup5\n        /* \"#utility.yul\":1981:1987   */\n      dup3\n        /* \"#utility.yul\":1970:1979   */\n      dup6\n        /* \"#utility.yul\":1966:1988   */\n      add\n        /* \"#utility.yul\":1945:1998   */\n      tag_76\n      jump\t// in\n    tag_152:\n        /* \"#utility.yul\":1935:1998   */\n      swap2\n      pop\n        /* \"#utility.yul\":1891:2008   */\n      pop\n        /* \"#utility.yul\":1686:2015   */\n      swap3\n      swap2\n      pop\n      pop\n      jump\t// out\n        /* \"#utility.yul\":2021:2120   */\n    tag_80:\n        /* \"#utility.yul\":2073:2079   */\n      0x00\n        /* \"#utility.yul\":2107:2112   */\n      dup2\n        /* \"#utility.yul\":2101:2113   */\n      mload\n        /* \"#utility.yul\":2091:2113   */\n      swap1\n      pop\n        /* \"#utility.yul\":2021:2120   */\n      swap2\n      swap1\n      pop\n      jump\t// out\n        /* \"#utility.yul\":2126:2295   */\n    tag_81:\n        /* \"#utility.yul\":2210:2221   */\n      0x00\n        /* \"#utility.yul\":2244:2250   */\n      dup3\n        /* \"#utility.yul\":2239:2242   */\n      dup3\n        /* \"#utility.yul\":2232:2251   */\n      mstore\n        /* \"#utility.yul\":2284:2288   */\n      0x20\n        /* \"#utility.yul\":2279:2282   */\n      dup3\n        /* \"#utility.yul\":2275:2289   */\n      add\n        /* \"#utility.yul\":2260:2289   */\n      swap1\n      pop\n        /* \"#utility.yul\":2126:2295   */\n      swap3\n      swap2\n      pop\n      pop\n      jump\t// out\n        /* \"#utility.yul\":2301:2547   */\n    tag_82:\n        /* \"#utility.yul\":2382:2383   */\n      0x00\n        /* \"#utility.yul\":2392:2505   */\n    tag_156:\n        /* \"#utility.yul\":2406:2412   */\n      dup4\n        /* \"#utility.yul\":2403:2404   */\n      dup2\n        /* \"#utility.yul\":2400:2413   */\n      lt\n        /* \"#utility.yul\":2392:2505   */\n      iszero\n      tag_158\n      jumpi\n        /* \"#utility.yul\":2491:2492   */\n      dup1\n        /* \"#utility.yul\":2486:2489   */\n      dup3\n        /* \"#utility.yul\":2482:2493   */\n      add\n        /* \"#utility.yul\":2476:2494   */\n      mload\n        /* \"#utility.yul\":2472:2473   */\n      dup2\n        /* \"#utility.yul\":2467:2470   */\n      dup5\n        /* \"#utility.yul\":2463:2474   */\n      add\n        /* \"#utility.yul\":2456:2495   */\n      mstore\n        /* \"#utility.yul\":2428:2430   */\n      0x20\n        /* \"#utility.yul\":2425:2426   */\n      dup2\n        /* \"#utility.yul\":2421:2431   */\n      add\n        /* \"#utility.yul\":2416:2431   */\n      swap1\n      pop\n        /* \"#utility.yul\":2392:2505   */\n      jump(tag_156)\n    tag_158:\n        /* \"#utility.yul\":2539:2540   */\n      0x00\n        /* \"#utility.yul\":2530:2536   */\n      dup5\n        /* \"#utility.yul\":2525:2528   */\n      dup5\n        /* \"#utility.yul\":2521:2537   */\n      add\n        /* \"#utility.yul\":2514:2541   */\n      mstore\n        /* \"#utility.yul\":2363:2547   */\n      pop\n        /* \"#utility.yul\":2301:2547   */\n      pop\n      pop\n      pop\n      jump\t// out\n        /* \"#utility.yul\":2553:2655   */\n    tag_83:\n        /* \"#utility.yul\":2594:2600   */\n      0x00\n        /* \"#utility.yul\":2645:2647   */\n      0x1f\n        /* \"#utility.yul\":2641:2648   */\n      not\n        /* \"#utility.yul\":2636:2638   */\n      0x1f\n        /* \"#utility.yul\":2629:2634   */\n      dup4\n        /* \"#utility.yul\":2625:2639   */\n      add\n        /* \"#utility.yul\":2621:2649   */\n      and\n        /* \"#utility.yul\":2611:2649   */\n      swap1\n      pop\n        /* \"#utility.yul\":2553:2655   */\n      swap2\n      swap1\n      pop\n      jump\t// out\n        /* \"#utility.yul\":2661:3038   */\n    tag_84:\n        /* \"#utility.yul\":2749:2752   */\n      0x00\n        /* \"#utility.yul\":2777:2816   */\n      tag_161\n        /* \"#utility.yul\":2810:2815   */\n      dup3\n        /* \"#utility.yul\":2777:2816   */\n      tag_80\n      jump\t// in\n    tag_161:\n        /* \"#utility.yul\":2832:2903   */\n      tag_162\n        /* \"#utility.yul\":2896:2902   */\n      dup2\n        /* \"#utility.yul\":2891:2894   */\n      dup6\n        /* \"#utility.yul\":2832:2903   */\n      tag_81\n      jump\t// in\n    tag_162:\n        /* \"#utility.yul\":2825:2903   */\n      swap4\n      pop\n        /* \"#utility.yul\":2912:2977   */\n      tag_163\n        /* \"#utility.yul\":2970:2976   */\n      dup2\n        /* \"#utility.yul\":2965:2968   */\n      dup6\n        /* \"#utility.yul\":2958:2962   */\n      0x20\n        /* \"#utility.yul\":2951:2956   */\n      dup7\n        /* \"#utility.yul\":2947:2963   */\n      add\n        /* \"#utility.yul\":2912:2977   */\n      tag_82\n      jump\t// in\n    tag_163:\n        /* \"#utility.yul\":3002:3031   */\n      tag_164\n        /* \"#utility.yul\":3024:3030   */\n      dup2\n        /* \"#utility.yul\":3002:3031   */\n      tag_83\n      jump\t// in\n    tag_164:\n        /* \"#utility.yul\":2997:3000   */\n      dup5\n        /* \"#utility.yul\":2993:3032   */\n      add\n        /* \"#utility.yul\":2986:3032   */\n      swap2\n      pop\n        /* \"#utility.yul\":2753:3038   */\n      pop\n        /* \"#utility.yul\":2661:3038   */\n      swap3\n      swap2\n      pop\n      pop\n      jump\t// out\n        /* \"#utility.yul\":3044:3162   */\n    tag_85:\n        /* \"#utility.yul\":3131:3155   */\n      tag_166\n        /* \"#utility.yul\":3149:3154   */\n      dup2\n        /* \"#utility.yul\":3131:3155   */\n      tag_74\n      jump\t// in\n    tag_166:\n        /* \"#utility.yul\":3126:3129   */\n      dup3\n        /* \"#utility.yul\":3119:3156   */\n      mstore\n        /* \"#utility.yul\":3044:3162   */\n      pop\n      pop\n      jump\t// out\n        /* \"#utility.yul\":3168:3283   */\n    tag_86:\n        /* \"#utility.yul\":3253:3276   */\n      tag_168\n        /* \"#utility.yul\":3270:3275   */\n      dup2\n        /* \"#utility.yul\":3253:3276   */\n      tag_77\n      jump\t// in\n    tag_168:\n        /* \"#utility.yul\":3248:3251   */\n      dup3\n        /* \"#utility.yul\":3241:3277   */\n      mstore\n        /* \"#utility.yul\":3168:3283   */\n      pop\n      pop\n      jump\t// out\n        /* \"#utility.yul\":3289:3375   */\n    tag_87:\n        /* \"#utility.yul\":3324:3331   */\n      0x00\n        /* \"#utility.yul\":3364:3368   */\n      0xff\n        /* \"#utility.yul\":3357:3362   */\n      dup3\n        /* \"#utility.yul\":3353:3369   */\n      and\n        /* \"#utility.yul\":3342:3369   */\n      swap1\n      pop\n        /* \"#utility.yul\":3289:3375   */\n      swap2\n      swap1\n      pop\n      jump\t// out\n        /* \"#utility.yul\":3381:3493   */\n    tag_88:\n        /* \"#utility.yul\":3464:3486   */\n      tag_171\n        /* \"#utility.yul\":3480:3485   */\n      dup2\n        /* \"#utility.yul\":3464:3486   */\n      tag_87\n      jump\t// in\n    tag_171:\n        /* \"#utility.yul\":3459:3462   */\n      dup3\n        /* \"#utility.yul\":3452:3487   */\n      mstore\n        /* \"#utility.yul\":3381:3493   */\n      pop\n      pop\n      jump\t// out\n        /* \"#utility.yul\":3499:4345   */\n    tag_16:\n        /* \"#utility.yul\":3742:3746   */\n      0x00\n        /* \"#utility.yul\":3780:3783   */\n      0xc0\n        /* \"#utility.yul\":3769:3778   */\n      dup3\n        /* \"#utility.yul\":3765:3784   */\n      add\n        /* \"#utility.yul\":3757:3784   */\n      swap1\n      pop\n        /* \"#utility.yul\":3830:3839   */\n      dup2\n        /* \"#utility.yul\":3824:3828   */\n      dup2\n        /* \"#utility.yul\":3820:3840   */\n      sub\n        /* \"#utility.yul\":3816:3817   */\n      0x00\n        /* \"#utility.yul\":3805:3814   */\n      dup4\n        /* \"#utility.yul\":3801:3818   */\n      add\n        /* \"#utility.yul\":3794:3841   */\n      mstore\n        /* \"#utility.yul\":3858:3936   */\n      tag_173\n        /* \"#utility.yul\":3931:3935   */\n      dup2\n        /* \"#utility.yul\":3922:3928   */\n      dup10\n        /* \"#utility.yul\":3858:3936   */\n      tag_84\n      jump\t// in\n    tag_173:\n        /* \"#utility.yul\":3850:3936   */\n      swap1\n      pop\n        /* \"#utility.yul\":3946:4018   */\n      tag_174\n        /* \"#utility.yul\":4014:4016   */\n      0x20\n        /* \"#utility.yul\":4003:4012   */\n      dup4\n        /* \"#utility.yul\":3999:4017   */\n      add\n        /* \"#utility.yul\":3990:3996   */\n      dup9\n        /* \"#utility.yul\":3946:4018   */\n      tag_85\n      jump\t// in\n    tag_174:\n        /* \"#utility.yul\":4028:4098   */\n      tag_175\n        /* \"#utility.yul\":4094:4096   */\n      0x40\n        /* \"#utility.yul\":4083:4092   */\n      dup4\n        /* \"#utility.yul\":4079:4097   */\n      add\n        /* \"#utility.yul\":4070:4076   */\n      dup8\n        /* \"#utility.yul\":4028:4098   */\n      tag_86\n      jump\t// in\n    tag_175:\n        /* \"#utility.yul\":4108:4178   */\n      tag_176\n        /* \"#utility.yul\":4174:4176   */\n      0x60\n        /* \"#utility.yul\":4163:4172   */\n      dup4\n        /* \"#utility.yul\":4159:4177   */\n      add\n        /* \"#utility.yul\":4150:4156   */\n      dup7\n        /* \"#utility.yul\":4108:4178   */\n      tag_86\n      jump\t// in\n    tag_176:\n        /* \"#utility.yul\":4188:4259   */\n      tag_177\n        /* \"#utility.yul\":4254:4257   */\n      0x80\n        /* \"#utility.yul\":4243:4252   */\n      dup4\n        /* \"#utility.yul\":4239:4258   */\n      add\n        /* \"#utility.yul\":4230:4236   */\n      dup6\n        /* \"#utility.yul\":4188:4259   */\n      tag_86\n      jump\t// in\n    tag_177:\n        /* \"#utility.yul\":4269:4338   */\n      tag_178\n        /* \"#utility.yul\":4333:4336   */\n      0xa0\n        /* \"#utility.yul\":4322:4331   */\n      dup4\n        /* \"#utility.yul\":4318:4337   */\n      add\n        /* \"#utility.yul\":4309:4315   */\n      dup5\n        /* \"#utility.yul\":4269:4338   */\n      tag_88\n      jump\t// in\n    tag_178:\n        /* \"#utility.yul\":3499:4345   */\n      swap8\n      swap7\n      pop\n      pop\n      pop\n      pop\n      pop\n      pop\n      pop\n      jump\t// out\n        /* \"#utility.yul\":4351:4468   */\n    tag_89:\n        /* \"#utility.yul\":4460:4461   */\n      0x00\n        /* \"#utility.yul\":4457:4458   */\n      dup1\n        /* \"#utility.yul\":4450:4462   */\n      revert\n        /* \"#utility.yul\":4474:4591   */\n    tag_90:\n        /* \"#utility.yul\":4583:4584   */\n      0x00\n        /* \"#utility.yul\":4580:4581   */\n      dup1\n        /* \"#utility.yul\":4573:4585   */\n      revert\n        /* \"#utility.yul\":4597:4714   */\n    tag_91:\n        /* \"#utility.yul\":4706:4707   */\n      0x00\n        /* \"#utility.yul\":4703:4704   */\n      dup1\n        /* \"#utility.yul\":4696:4708   */\n      revert\n        /* \"#utility.yul\":4734:5287   */\n    tag_92:\n        /* \"#utility.yul\":4792:4800   */\n      0x00\n        /* \"#utility.yul\":4802:4808   */\n      dup1\n        /* \"#utility.yul\":4852:4855   */\n      dup4\n        /* \"#utility.yul\":4845:4849   */\n      0x1f\n        /* \"#utility.yul\":4837:4843   */\n      dup5\n        /* \"#utility.yul\":4833:4850   */\n      add\n        /* \"#utility.yul\":4829:4856   */\n      slt\n        /* \"#utility.yul\":4819:4941   */\n      tag_183\n      jumpi\n        /* \"#utility.yul\":4860:4939   */\n      tag_184\n      tag_89\n      jump\t// in\n    tag_184:\n        /* \"#utility.yul\":4819:4941   */\n    tag_183:\n        /* \"#utility.yul\":4973:4979   */\n      dup3\n        /* \"#utility.yul\":4960:4980   */\n      calldataload\n        /* \"#utility.yul\":4950:4980   */\n      swap1\n      pop\n        /* \"#utility.yul\":5003:5021   */\n      0xffffffffffffffff\n        /* \"#utility.yul\":4995:5001   */\n      dup2\n        /* \"#utility.yul\":4992:5022   */\n      gt\n        /* \"#utility.yul\":4989:5106   */\n      iszero\n      tag_185\n      jumpi\n        /* \"#utility.yul\":5025:5104   */\n      tag_186\n      tag_90\n      jump\t// in\n    tag_186:\n        /* \"#utility.yul\":4989:5106   */\n    tag_185:\n        /* \"#utility.yul\":5139:5143   */\n      0x20\n        /* \"#utility.yul\":5131:5137   */\n      dup4\n        /* \"#utility.yul\":5127:5144   */\n      add\n        /* \"#utility.yul\":5115:5144   */\n      swap2\n      pop\n        /* \"#utility.yul\":5193:5196   */\n      dup4\n        /* \"#utility.yul\":5185:5189   */\n      0x01\n        /* \"#utility.yul\":5177:5183   */\n      dup3\n        /* \"#utility.yul\":5173:5190   */\n      mul\n        /* \"#utility.yul\":5163:5171   */\n      dup4\n        /* \"#utility.yul\":5159:5191   */\n      add\n        /* \"#utility.yul\":5156:5197   */\n      gt\n        /* \"#utility.yul\":5153:5281   */\n      iszero\n      tag_187\n      jumpi\n        /* \"#utility.yul\":5200:5279   */\n      tag_188\n      tag_91\n      jump\t// in\n    tag_188:\n        /* \"#utility.yul\":5153:5281   */\n    tag_187:\n        /* \"#utility.yul\":4734:5287   */\n      swap3\n      pop\n      swap3\n      swap1\n      pop\n      jump\t// out\n        /* \"#utility.yul\":5293:5822   */\n    tag_19:\n        /* \"#utility.yul\":5364:5370   */\n      0x00\n        /* \"#utility.yul\":5372:5378   */\n      dup1\n        /* \"#utility.yul\":5421:5423   */\n      0x20\n        /* \"#utility.yul\":5409:5418   */\n      dup4\n        /* \"#utility.yul\":5400:5407   */\n      dup6\n        /* \"#utility.yul\":5396:5419   */\n      sub\n        /* \"#utility.yul\":5392:5424   */\n      slt\n        /* \"#utility.yul\":5389:5508   */\n      iszero\n      tag_190\n      jumpi\n        /* \"#utility.yul\":5427:5506   */\n      tag_191\n      tag_71\n      jump\t// in\n    tag_191:\n        /* \"#utility.yul\":5389:5508   */\n    tag_190:\n        /* \"#utility.yul\":5575:5576   */\n      0x00\n        /* \"#utility.yul\":5564:5573   */\n      dup4\n        /* \"#utility.yul\":5560:5577   */\n      add\n        /* \"#utility.yul\":5547:5578   */\n      calldataload\n        /* \"#utility.yul\":5605:5623   */\n      0xffffffffffffffff\n        /* \"#utility.yul\":5597:5603   */\n      dup2\n        /* \"#utility.yul\":5594:5624   */\n      gt\n        /* \"#utility.yul\":5591:5708   */\n      iszero\n      tag_192\n      jumpi\n        /* \"#utility.yul\":5627:5706   */\n      tag_193\n      tag_72\n      jump\t// in\n    tag_193:\n        /* \"#utility.yul\":5591:5708   */\n    tag_192:\n        /* \"#utility.yul\":5740:5805   */\n      tag_194\n        /* \"#utility.yul\":5797:5804   */\n      dup6\n        /* \"#utility.yul\":5788:5794   */\n      dup3\n        /* \"#utility.yul\":5777:5786   */\n      dup7\n        /* \"#utility.yul\":5773:5795   */\n      add\n        /* \"#utility.yul\":5740:5805   */\n      tag_92\n      jump\t// in\n    tag_194:\n        /* \"#utility.yul\":5722:5805   */\n      swap3\n      pop\n      swap3\n      pop\n        /* \"#utility.yul\":5518:5815   */\n      pop\n        /* \"#utility.yul\":5293:5822   */\n      swap3\n      pop\n      swap3\n      swap1\n      pop\n      jump\t// out\n        /* \"#utility.yul\":5828:5905   */\n    tag_93:\n        /* \"#utility.yul\":5865:5872   */\n      0x00\n        /* \"#utility.yul\":5894:5899   */\n      dup2\n        /* \"#utility.yul\":5883:5899   */\n      swap1\n      pop\n        /* \"#utility.yul\":5828:5905   */\n      swap2\n      swap1\n      pop\n      jump\t// out\n        /* \"#utility.yul\":5911:6029   */\n    tag_94:\n        /* \"#utility.yul\":5998:6022   */\n      tag_197\n        /* \"#utility.yul\":6016:6021   */\n      dup2\n        /* \"#utility.yul\":5998:6022   */\n      tag_93\n      jump\t// in\n    tag_197:\n        /* \"#utility.yul\":5993:5996   */\n      dup3\n        /* \"#utility.yul\":5986:6023   */\n      mstore\n        /* \"#utility.yul\":5911:6029   */\n      pop\n      pop\n      jump\t// out\n        /* \"#utility.yul\":6035:6568   */\n    tag_22:\n        /* \"#utility.yul\":6204:6208   */\n      0x00\n        /* \"#utility.yul\":6242:6244   */\n      0x60\n        /* \"#utility.yul\":6231:6240   */\n      dup3\n        /* \"#utility.yul\":6227:6245   */\n      add\n        /* \"#utility.yul\":6219:6245   */\n      swap1\n      pop\n        /* \"#utility.yul\":6255:6326   */\n      tag_199\n        /* \"#utility.yul\":6323:6324   */\n      0x00\n        /* \"#utility.yul\":6312:6321   */\n      dup4\n        /* \"#utility.yul\":6308:6325   */\n      add\n        /* \"#utility.yul\":6299:6305   */\n      dup7\n        /* \"#utility.yul\":6255:6326   */\n      tag_94\n      jump\t// in\n    tag_199:\n        /* \"#utility.yul\":6336:6408   */\n      tag_200\n        /* \"#utility.yul\":6404:6406   */\n      0x20\n        /* \"#utility.yul\":6393:6402   */\n      dup4\n        /* \"#utility.yul\":6389:6407   */\n      add\n        /* \"#utility.yul\":6380:6386   */\n      dup6\n        /* \"#utility.yul\":6336:6408   */\n      tag_85\n      jump\t// in\n    tag_200:\n        /* \"#utility.yul\":6455:6464   */\n      dup2\n        /* \"#utility.yul\":6449:6453   */\n      dup2\n        /* \"#utility.yul\":6445:6465   */\n      sub\n        /* \"#utility.yul\":6440:6442   */\n      0x40\n        /* \"#utility.yul\":6429:6438   */\n      dup4\n        /* \"#utility.yul\":6425:6443   */\n      add\n        /* \"#utility.yul\":6418:6466   */\n      mstore\n        /* \"#utility.yul\":6483:6561   */\n      tag_201\n        /* \"#utility.yul\":6556:6560   */\n      dup2\n        /* \"#utility.yul\":6547:6553   */\n      dup5\n        /* \"#utility.yul\":6483:6561   */\n      tag_84\n      jump\t// in\n    tag_201:\n        /* \"#utility.yul\":6475:6561   */\n      swap1\n      pop\n        /* \"#utility.yul\":6035:6568   */\n      swap5\n      swap4\n      pop\n      pop\n      pop\n      pop\n      jump\t// out\n        /* \"#utility.yul\":6574:6796   */\n    tag_27:\n        /* \"#utility.yul\":6667:6671   */\n      0x00\n        /* \"#utility.yul\":6705:6707   */\n      0x20\n        /* \"#utility.yul\":6694:6703   */\n      dup3\n        /* \"#utility.yul\":6690:6708   */\n      add\n        /* \"#utility.yul\":6682:6708   */\n      swap1\n      pop\n        /* \"#utility.yul\":6718:6789   */\n      tag_203\n        /* \"#utility.yul\":6786:6787   */\n      0x00\n        /* \"#utility.yul\":6775:6784   */\n      dup4\n        /* \"#utility.yul\":6771:6788   */\n      add\n        /* \"#utility.yul\":6762:6768   */\n      dup5\n        /* \"#utility.yul\":6718:6789   */\n      tag_85\n      jump\t// in\n    tag_203:\n        /* \"#utility.yul\":6574:6796   */\n      swap3\n      swap2\n      pop\n      pop\n      jump\t// out\n        /* \"#utility.yul\":6802:6982   */\n    tag_95:\n        /* \"#utility.yul\":6850:6927   */\n      0x4e487b7100000000000000000000000000000000000000000000000000000000\n        /* \"#utility.yul\":6847:6848   */\n      0x00\n        /* \"#utility.yul\":6840:6928   */\n      mstore\n        /* \"#utility.yul\":6947:6951   */\n      0x11\n        /* \"#utility.yul\":6944:6945   */\n      0x04\n        /* \"#utility.yul\":6937:6952   */\n      mstore\n        /* \"#utility.yul\":6971:6975   */\n      0x24\n        /* \"#utility.yul\":6968:6969   */\n      0x00\n        /* \"#utility.yul\":6961:6976   */\n      revert\n        /* \"#utility.yul\":6988:7326   */\n    tag_30:\n        /* \"#utility.yul\":7027:7030   */\n      0x00\n        /* \"#utility.yul\":7046:7065   */\n      tag_206\n        /* \"#utility.yul\":7063:7064   */\n      dup3\n        /* \"#utility.yul\":7046:7065   */\n      tag_77\n      jump\t// in\n    tag_206:\n        /* \"#utility.yul\":7041:7065   */\n      swap2\n      pop\n        /* \"#utility.yul\":7079:7098   */\n      tag_207\n        /* \"#utility.yul\":7096:7097   */\n      dup4\n        /* \"#utility.yul\":7079:7098   */\n      tag_77\n      jump\t// in\n    tag_207:\n        /* \"#utility.yul\":7074:7098   */\n      swap3\n      pop\n        /* \"#utility.yul\":7121:7122   */\n      dup3\n        /* \"#utility.yul\":7118:7119   */\n      dup3\n        /* \"#utility.yul\":7114:7123   */\n      add\n        /* \"#utility.yul\":7107:7123   */\n      swap1\n      pop\n        /* \"#utility.yul\":7219:7285   */\n      0xffffffffffffffffffffffffffffffff80000000000000000000000000000000\n        /* \"#utility.yul\":7214:7217   */\n      dup2\n        /* \"#utility.yul\":7210:7286   */\n      slt\n        /* \"#utility.yul\":7161:7195   */\n      0x7fffffffffffffffffffffffffffffff\n        /* \"#utility.yul\":7156:7159   */\n      dup3\n        /* \"#utility.yul\":7152:7196   */\n      sgt\n        /* \"#utility.yul\":7136:7296   */\n      or\n        /* \"#utility.yul\":7133:7319   */\n      iszero\n      tag_208\n      jumpi\n        /* \"#utility.yul\":7299:7317   */\n      tag_209\n      tag_95\n      jump\t// in\n    tag_209:\n        /* \"#utility.yul\":7133:7319   */\n    tag_208:\n        /* \"#utility.yul\":6988:7326   */\n      swap3\n      swap2\n      pop\n      pop\n      jump\t// out\n        /* \"#utility.yul\":7332:7426   */\n    tag_96:\n        /* \"#utility.yul\":7365:7373   */\n      0x00\n        /* \"#utility.yul\":7413:7418   */\n      dup2\n        /* \"#utility.yul\":7409:7411   */\n      0x60\n        /* \"#utility.yul\":7405:7419   */\n      shl\n        /* \"#utility.yul\":7384:7419   */\n      swap1\n      pop\n        /* \"#utility.yul\":7332:7426   */\n      swap2\n      swap1\n      pop\n      jump\t// out\n        /* \"#utility.yul\":7432:7526   */\n    tag_97:\n        /* \"#utility.yul\":7471:7478   */\n      0x00\n        /* \"#utility.yul\":7500:7520   */\n      tag_212\n        /* \"#utility.yul\":7514:7519   */\n      dup3\n        /* \"#utility.yul\":7500:7520   */\n      tag_96\n      jump\t// in\n    tag_212:\n        /* \"#utility.yul\":7489:7520   */\n      swap1\n      pop\n        /* \"#utility.yul\":7432:7526   */\n      swap2\n      swap1\n      pop\n      jump\t// out\n        /* \"#utility.yul\":7532:7632   */\n    tag_98:\n        /* \"#utility.yul\":7571:7578   */\n      0x00\n        /* \"#utility.yul\":7600:7626   */\n      tag_214\n        /* \"#utility.yul\":7620:7625   */\n      dup3\n        /* \"#utility.yul\":7600:7626   */\n      tag_97\n      jump\t// in\n    tag_214:\n        /* \"#utility.yul\":7589:7626   */\n      swap1\n      pop\n        /* \"#utility.yul\":7532:7632   */\n      swap2\n      swap1\n      pop\n      jump\t// out\n        /* \"#utility.yul\":7638:7795   */\n    tag_99:\n        /* \"#utility.yul\":7743:7788   */\n      tag_216\n        /* \"#utility.yul\":7763:7787   */\n      tag_217\n        /* \"#utility.yul\":7781:7786   */\n      dup3\n        /* \"#utility.yul\":7763:7787   */\n      tag_74\n      jump\t// in\n    tag_217:\n        /* \"#utility.yul\":7743:7788   */\n      tag_98\n      jump\t// in\n    tag_216:\n        /* \"#utility.yul\":7738:7741   */\n      dup3\n        /* \"#utility.yul\":7731:7789   */\n      mstore\n        /* \"#utility.yul\":7638:7795   */\n      pop\n      pop\n      jump\t// out\n        /* \"#utility.yul\":7801:8057   */\n    tag_36:\n        /* \"#utility.yul\":7913:7916   */\n      0x00\n        /* \"#utility.yul\":7928:8003   */\n      tag_219\n        /* \"#utility.yul\":7999:8002   */\n      dup3\n        /* \"#utility.yul\":7990:7996   */\n      dup5\n        /* \"#utility.yul\":7928:8003   */\n      tag_99\n      jump\t// in\n    tag_219:\n        /* \"#utility.yul\":8028:8030   */\n      0x14\n        /* \"#utility.yul\":8023:8026   */\n      dup3\n        /* \"#utility.yul\":8019:8031   */\n      add\n        /* \"#utility.yul\":8012:8031   */\n      swap2\n      pop\n        /* \"#utility.yul\":8048:8051   */\n      dup2\n        /* \"#utility.yul\":8041:8051   */\n      swap1\n      pop\n        /* \"#utility.yul\":7801:8057   */\n      swap3\n      swap2\n      pop\n      pop\n      jump\t// out\n        /* \"#utility.yul\":8063:8243   */\n    tag_100:\n        /* \"#utility.yul\":8111:8188   */\n      0x4e487b7100000000000000000000000000000000000000000000000000000000\n        /* \"#utility.yul\":8108:8109   */\n      0x00\n        /* \"#utility.yul\":8101:8189   */\n      mstore\n        /* \"#utility.yul\":8208:8212   */\n      0x22\n        /* \"#utility.yul\":8205:8206   */\n      0x04\n        /* \"#utility.yul\":8198:8213   */\n      mstore\n        /* \"#utility.yul\":8232:8236   */\n      0x24\n        /* \"#utility.yul\":8229:8230   */\n      0x00\n        /* \"#utility.yul\":8222:8237   */\n      revert\n        /* \"#utility.yul\":8249:8569   */\n    tag_40:\n        /* \"#utility.yul\":8293:8299   */\n      0x00\n        /* \"#utility.yul\":8330:8331   */\n      0x02\n        /* \"#utility.yul\":8324:8328   */\n      dup3\n        /* \"#utility.yul\":8320:8332   */\n      div\n        /* \"#utility.yul\":8310:8332   */\n      swap1\n      pop\n        /* \"#utility.yul\":8377:8378   */\n      0x01\n        /* \"#utility.yul\":8371:8375   */\n      dup3\n        /* \"#utility.yul\":8367:8379   */\n      and\n        /* \"#utility.yul\":8398:8416   */\n      dup1\n        /* \"#utility.yul\":8388:8469   */\n      tag_222\n      jumpi\n        /* \"#utility.yul\":8454:8458   */\n      0x7f\n        /* \"#utility.yul\":8446:8452   */\n      dup3\n        /* \"#utility.yul\":8442:8459   */\n      and\n        /* \"#utility.yul\":8432:8459   */\n      swap2\n      pop\n        /* \"#utility.yul\":8388:8469   */\n    tag_222:\n        /* \"#utility.yul\":8516:8518   */\n      0x20\n        /* \"#utility.yul\":8508:8514   */\n      dup3\n        /* \"#utility.yul\":8505:8519   */\n      lt\n        /* \"#utility.yul\":8485:8503   */\n      dup2\n        /* \"#utility.yul\":8482:8520   */\n      sub\n        /* \"#utility.yul\":8479:8563   */\n      tag_223\n      jumpi\n        /* \"#utility.yul\":8535:8553   */\n      tag_224\n      tag_100\n      jump\t// in\n    tag_224:\n        /* \"#utility.yul\":8479:8563   */\n    tag_223:\n        /* \"#utility.yul\":8300:8569   */\n      pop\n        /* \"#utility.yul\":8249:8569   */\n      swap2\n      swap1\n      pop\n      jump\t// out\n        /* \"#utility.yul\":8575:8741   */\n    tag_101:\n        /* \"#utility.yul\":8715:8733   */\n      0x57616c6c6574206e6f7420666f756e6400000000000000000000000000000000\n        /* \"#utility.yul\":8711:8712   */\n      0x00\n        /* \"#utility.yul\":8703:8709   */\n      dup3\n        /* \"#utility.yul\":8699:8713   */\n      add\n        /* \"#utility.yul\":8692:8734   */\n      mstore\n        /* \"#utility.yul\":8575:8741   */\n      pop\n      jump\t// out\n        /* \"#utility.yul\":8747:9113   */\n    tag_102:\n        /* \"#utility.yul\":8889:8892   */\n      0x00\n        /* \"#utility.yul\":8910:8977   */\n      tag_227\n        /* \"#utility.yul\":8974:8976   */\n      0x10\n        /* \"#utility.yul\":8969:8972   */\n      dup4\n        /* \"#utility.yul\":8910:8977   */\n      tag_81\n      jump\t// in\n    tag_227:\n        /* \"#utility.yul\":8903:8977   */\n      swap2\n      pop\n        /* \"#utility.yul\":8986:9079   */\n      tag_228\n        /* \"#utility.yul\":9075:9078   */\n      dup3\n        /* \"#utility.yul\":8986:9079   */\n      tag_101\n      jump\t// in\n    tag_228:\n        /* \"#utility.yul\":9104:9106   */\n      0x20\n        /* \"#utility.yul\":9099:9102   */\n      dup3\n        /* \"#utility.yul\":9095:9107   */\n      add\n        /* \"#utility.yul\":9088:9107   */\n      swap1\n      pop\n        /* \"#utility.yul\":8747:9113   */\n      swap2\n      swap1\n      pop\n      jump\t// out\n        /* \"#utility.yul\":9119:9538   */\n    tag_46:\n        /* \"#utility.yul\":9285:9289   */\n      0x00\n        /* \"#utility.yul\":9323:9325   */\n      0x20\n        /* \"#utility.yul\":9312:9321   */\n      dup3\n        /* \"#utility.yul\":9308:9326   */\n      add\n        /* \"#utility.yul\":9300:9326   */\n      swap1\n      pop\n        /* \"#utility.yul\":9372:9381   */\n      dup2\n        /* \"#utility.yul\":9366:9370   */\n      dup2\n        /* \"#utility.yul\":9362:9382   */\n      sub\n        /* \"#utility.yul\":9358:9359   */\n      0x00\n        /* \"#utility.yul\":9347:9356   */\n      dup4\n        /* \"#utility.yul\":9343:9360   */\n      add\n        /* \"#utility.yul\":9336:9383   */\n      mstore\n        /* \"#utility.yul\":9400:9531   */\n      tag_230\n        /* \"#utility.yul\":9526:9530   */\n      dup2\n        /* \"#utility.yul\":9400:9531   */\n      tag_102\n      jump\t// in\n    tag_230:\n        /* \"#utility.yul\":9392:9531   */\n      swap1\n      pop\n        /* \"#utility.yul\":9119:9538   */\n      swap2\n      swap1\n      pop\n      jump\t// out\n        /* \"#utility.yul\":9544:9692   */\n    tag_103:\n        /* \"#utility.yul\":9646:9657   */\n      0x00\n        /* \"#utility.yul\":9683:9686   */\n      dup2\n        /* \"#utility.yul\":9668:9686   */\n      swap1\n      pop\n        /* \"#utility.yul\":9544:9692   */\n      swap3\n      swap2\n      pop\n      pop\n      jump\t// out\n        /* \"#utility.yul\":9698:9844   */\n    tag_104:\n        /* \"#utility.yul\":9795:9801   */\n      dup3\n        /* \"#utility.yul\":9790:9793   */\n      dup2\n        /* \"#utility.yul\":9785:9788   */\n      dup4\n        /* \"#utility.yul\":9772:9802   */\n      calldatacopy\n        /* \"#utility.yul\":9836:9837   */\n      0x00\n        /* \"#utility.yul\":9827:9833   */\n      dup4\n        /* \"#utility.yul\":9822:9825   */\n      dup4\n        /* \"#utility.yul\":9818:9834   */\n      add\n        /* \"#utility.yul\":9811:9838   */\n      mstore\n        /* \"#utility.yul\":9698:9844   */\n      pop\n      pop\n      pop\n      jump\t// out\n        /* \"#utility.yul\":9874:10204   */\n    tag_105:\n        /* \"#utility.yul\":9990:9993   */\n      0x00\n        /* \"#utility.yul\":10011:10100   */\n      tag_234\n        /* \"#utility.yul\":10093:10099   */\n      dup4\n        /* \"#utility.yul\":10088:10091   */\n      dup6\n        /* \"#utility.yul\":10011:10100   */\n      tag_103\n      jump\t// in\n    tag_234:\n        /* \"#utility.yul\":10004:10100   */\n      swap4\n      pop\n        /* \"#utility.yul\":10110:10166   */\n      tag_235\n        /* \"#utility.yul\":10159:10165   */\n      dup4\n        /* \"#utility.yul\":10154:10157   */\n      dup6\n        /* \"#utility.yul\":10147:10152   */\n      dup5\n        /* \"#utility.yul\":10110:10166   */\n      tag_104\n      jump\t// in\n    tag_235:\n        /* \"#utility.yul\":10191:10197   */\n      dup3\n        /* \"#utility.yul\":10186:10189   */\n      dup5\n        /* \"#utility.yul\":10182:10198   */\n      add\n        /* \"#utility.yul\":10175:10198   */\n      swap1\n      pop\n        /* \"#utility.yul\":9874:10204   */\n      swap4\n      swap3\n      pop\n      pop\n      pop\n      jump\t// out\n        /* \"#utility.yul\":10210:10505   */\n    tag_52:\n        /* \"#utility.yul\":10352:10355   */\n      0x00\n        /* \"#utility.yul\":10374:10479   */\n      tag_237\n        /* \"#utility.yul\":10475:10478   */\n      dup3\n        /* \"#utility.yul\":10466:10472   */\n      dup5\n        /* \"#utility.yul\":10458:10464   */\n      dup7\n        /* \"#utility.yul\":10374:10479   */\n      tag_105\n      jump\t// in\n    tag_237:\n        /* \"#utility.yul\":10367:10479   */\n      swap2\n      pop\n        /* \"#utility.yul\":10496:10499   */\n      dup2\n        /* \"#utility.yul\":10489:10499   */\n      swap1\n      pop\n        /* \"#utility.yul\":10210:10505   */\n      swap4\n      swap3\n      pop\n      pop\n      pop\n      jump\t// out\n        /* \"#utility.yul\":10511:10652   */\n    tag_106:\n        /* \"#utility.yul\":10560:10564   */\n      0x00\n        /* \"#utility.yul\":10583:10586   */\n      dup2\n        /* \"#utility.yul\":10575:10586   */\n      swap1\n      pop\n        /* \"#utility.yul\":10606:10609   */\n      dup2\n        /* \"#utility.yul\":10603:10604   */\n      0x00\n        /* \"#utility.yul\":10596:10610   */\n      mstore\n        /* \"#utility.yul\":10640:10644   */\n      0x20\n        /* \"#utility.yul\":10637:10638   */\n      0x00\n        /* \"#utility.yul\":10627:10645   */\n      keccak256\n        /* \"#utility.yul\":10619:10645   */\n      swap1\n      pop\n        /* \"#utility.yul\":10511:10652   */\n      swap2\n      swap1\n      pop\n      jump\t// out\n        /* \"#utility.yul\":10682:11556   */\n    tag_107:\n        /* \"#utility.yul\":10785:10788   */\n      0x00\n        /* \"#utility.yul\":10822:10827   */\n      dup2\n        /* \"#utility.yul\":10816:10828   */\n      sload\n        /* \"#utility.yul\":10851:10887   */\n      tag_240\n        /* \"#utility.yul\":10877:10886   */\n      dup2\n        /* \"#utility.yul\":10851:10887   */\n      tag_40\n      jump\t// in\n    tag_240:\n        /* \"#utility.yul\":10903:10992   */\n      tag_241\n        /* \"#utility.yul\":10985:10991   */\n      dup2\n        /* \"#utility.yul\":10980:10983   */\n      dup7\n        /* \"#utility.yul\":10903:10992   */\n      tag_103\n      jump\t// in\n    tag_241:\n        /* \"#utility.yul\":10896:10992   */\n      swap5\n      pop\n        /* \"#utility.yul\":11023:11024   */\n      0x01\n        /* \"#utility.yul\":11012:11021   */\n      dup3\n        /* \"#utility.yul\":11008:11025   */\n      and\n        /* \"#utility.yul\":11039:11040   */\n      0x00\n        /* \"#utility.yul\":11034:11200   */\n      dup2\n      eq\n      tag_243\n      jumpi\n        /* \"#utility.yul\":11214:11215   */\n      0x01\n        /* \"#utility.yul\":11209:11550   */\n      dup2\n      eq\n      tag_244\n      jumpi\n        /* \"#utility.yul\":11001:11550   */\n      jump(tag_242)\n        /* \"#utility.yul\":11034:11200   */\n    tag_243:\n        /* \"#utility.yul\":11118:11122   */\n      0xff\n        /* \"#utility.yul\":11114:11123   */\n      not\n        /* \"#utility.yul\":11103:11112   */\n      dup4\n        /* \"#utility.yul\":11099:11124   */\n      and\n        /* \"#utility.yul\":11094:11097   */\n      dup7\n        /* \"#utility.yul\":11087:11125   */\n      mstore\n        /* \"#utility.yul\":11180:11186   */\n      dup2\n        /* \"#utility.yul\":11173:11187   */\n      iszero\n        /* \"#utility.yul\":11166:11188   */\n      iszero\n        /* \"#utility.yul\":11158:11164   */\n      dup3\n        /* \"#utility.yul\":11154:11189   */\n      mul\n        /* \"#utility.yul\":11149:11152   */\n      dup7\n        /* \"#utility.yul\":11145:11190   */\n      add\n        /* \"#utility.yul\":11138:11190   */\n      swap4\n      pop\n        /* \"#utility.yul\":11034:11200   */\n      jump(tag_242)\n        /* \"#utility.yul\":11209:11550   */\n    tag_244:\n        /* \"#utility.yul\":11276:11314   */\n      tag_245\n        /* \"#utility.yul\":11308:11313   */\n      dup6\n        /* \"#utility.yul\":11276:11314   */\n      tag_106\n      jump\t// in\n    tag_245:\n        /* \"#utility.yul\":11336:11337   */\n      0x00\n        /* \"#utility.yul\":11350:11504   */\n    tag_246:\n        /* \"#utility.yul\":11364:11370   */\n      dup4\n        /* \"#utility.yul\":11361:11362   */\n      dup2\n        /* \"#utility.yul\":11358:11371   */\n      lt\n        /* \"#utility.yul\":11350:11504   */\n      iszero\n      tag_248\n      jumpi\n        /* \"#utility.yul\":11438:11445   */\n      dup2\n        /* \"#utility.yul\":11432:11446   */\n      sload\n        /* \"#utility.yul\":11428:11429   */\n      dup2\n        /* \"#utility.yul\":11423:11426   */\n      dup10\n        /* \"#utility.yul\":11419:11430   */\n      add\n        /* \"#utility.yul\":11412:11447   */\n      mstore\n        /* \"#utility.yul\":11488:11489   */\n      0x01\n        /* \"#utility.yul\":11479:11486   */\n      dup3\n        /* \"#utility.yul\":11475:11490   */\n      add\n        /* \"#utility.yul\":11464:11490   */\n      swap2\n      pop\n        /* \"#utility.yul\":11386:11390   */\n      0x20\n        /* \"#utility.yul\":11383:11384   */\n      dup2\n        /* \"#utility.yul\":11379:11391   */\n      add\n        /* \"#utility.yul\":11374:11391   */\n      swap1\n      pop\n        /* \"#utility.yul\":11350:11504   */\n      jump(tag_246)\n    tag_248:\n        /* \"#utility.yul\":11533:11539   */\n      dup4\n        /* \"#utility.yul\":11528:11531   */\n      dup9\n        /* \"#utility.yul\":11524:11540   */\n      add\n        /* \"#utility.yul\":11517:11540   */\n      swap6\n      pop\n        /* \"#utility.yul\":11216:11550   */\n      pop\n      pop\n        /* \"#utility.yul\":11001:11550   */\n    tag_242:\n      pop\n        /* \"#utility.yul\":10789:11556   */\n      pop\n      pop\n        /* \"#utility.yul\":10682:11556   */\n      swap3\n      swap2\n      pop\n      pop\n      jump\t// out\n        /* \"#utility.yul\":11562:11831   */\n    tag_54:\n        /* \"#utility.yul\":11691:11694   */\n      0x00\n        /* \"#utility.yul\":11713:11805   */\n      tag_250\n        /* \"#utility.yul\":11801:11804   */\n      dup3\n        /* \"#utility.yul\":11792:11798   */\n      dup5\n        /* \"#utility.yul\":11713:11805   */\n      tag_107\n      jump\t// in\n    tag_250:\n        /* \"#utility.yul\":11706:11805   */\n      swap2\n      pop\n        /* \"#utility.yul\":11822:11825   */\n      dup2\n        /* \"#utility.yul\":11815:11825   */\n      swap1\n      pop\n        /* \"#utility.yul\":11562:11831   */\n      swap3\n      swap2\n      pop\n      pop\n      jump\t// out\n        /* \"#utility.yul\":11837:12001   */\n    tag_108:\n        /* \"#utility.yul\":11977:11993   */\n      0x55736572206e6f7420666f756e64000000000000000000000000000000000000\n        /* \"#utility.yul\":11973:11974   */\n      0x00\n        /* \"#utility.yul\":11965:11971   */\n      dup3\n        /* \"#utility.yul\":11961:11975   */\n      add\n        /* \"#utility.yul\":11954:11994   */\n      mstore\n        /* \"#utility.yul\":11837:12001   */\n      pop\n      jump\t// out\n        /* \"#utility.yul\":12007:12373   */\n    tag_109:\n        /* \"#utility.yul\":12149:12152   */\n      0x00\n        /* \"#utility.yul\":12170:12237   */\n      tag_253\n        /* \"#utility.yul\":12234:12236   */\n      0x0e\n        /* \"#utility.yul\":12229:12232   */\n      dup4\n        /* \"#utility.yul\":12170:12237   */\n      tag_81\n      jump\t// in\n    tag_253:\n        /* \"#utility.yul\":12163:12237   */\n      swap2\n      pop\n        /* \"#utility.yul\":12246:12339   */\n      tag_254\n        /* \"#utility.yul\":12335:12338   */\n      dup3\n        /* \"#utility.yul\":12246:12339   */\n      tag_108\n      jump\t// in\n    tag_254:\n        /* \"#utility.yul\":12364:12366   */\n      0x20\n        /* \"#utility.yul\":12359:12362   */\n      dup3\n        /* \"#utility.yul\":12355:12367   */\n      add\n        /* \"#utility.yul\":12348:12367   */\n      swap1\n      pop\n        /* \"#utility.yul\":12007:12373   */\n      swap2\n      swap1\n      pop\n      jump\t// out\n        /* \"#utility.yul\":12379:12798   */\n    tag_62:\n        /* \"#utility.yul\":12545:12549   */\n      0x00\n        /* \"#utility.yul\":12583:12585   */\n      0x20\n        /* \"#utility.yul\":12572:12581   */\n      dup3\n        /* \"#utility.yul\":12568:12586   */\n      add\n        /* \"#utility.yul\":12560:12586   */\n      swap1\n      pop\n        /* \"#utility.yul\":12632:12641   */\n      dup2\n        /* \"#utility.yul\":12626:12630   */\n      dup2\n        /* \"#utility.yul\":12622:12642   */\n      sub\n        /* \"#utility.yul\":12618:12619   */\n      0x00\n        /* \"#utility.yul\":12607:12616   */\n      dup4\n        /* \"#utility.yul\":12603:12620   */\n      add\n        /* \"#utility.yul\":12596:12643   */\n      mstore\n        /* \"#utility.yul\":12660:12791   */\n      tag_256\n        /* \"#utility.yul\":12786:12790   */\n      dup2\n        /* \"#utility.yul\":12660:12791   */\n      tag_109\n      jump\t// in\n    tag_256:\n        /* \"#utility.yul\":12652:12791   */\n      swap1\n      pop\n        /* \"#utility.yul\":12379:12798   */\n      swap2\n      swap1\n      pop\n      jump\t// out\n        /* \"#utility.yul\":12804:12984   */\n    tag_110:\n        /* \"#utility.yul\":12852:12929   */\n      0x4e487b7100000000000000000000000000000000000000000000000000000000\n        /* \"#utility.yul\":12849:12850   */\n      0x00\n        /* \"#utility.yul\":12842:12930   */\n      mstore\n        /* \"#utility.yul\":12949:12953   */\n      0x41\n        /* \"#utility.yul\":12946:12947   */\n      0x04\n        /* \"#utility.yul\":12939:12954   */\n      mstore\n        /* \"#utility.yul\":12973:12977   */\n      0x24\n        /* \"#utility.yul\":12970:12971   */\n      0x00\n        /* \"#utility.yul\":12963:12978   */\n      revert\n        /* \"#utility.yul\":12990:13083   */\n    tag_111:\n        /* \"#utility.yul\":13027:13033   */\n      0x00\n        /* \"#utility.yul\":13074:13076   */\n      0x20\n        /* \"#utility.yul\":13069:13071   */\n      0x1f\n        /* \"#utility.yul\":13062:13067   */\n      dup4\n        /* \"#utility.yul\":13058:13072   */\n      add\n        /* \"#utility.yul\":13054:13077   */\n      div\n        /* \"#utility.yul\":13044:13077   */\n      swap1\n      pop\n        /* \"#utility.yul\":12990:13083   */\n      swap2\n      swap1\n      pop\n      jump\t// out\n        /* \"#utility.yul\":13089:13196   */\n    tag_112:\n        /* \"#utility.yul\":13133:13141   */\n      0x00\n        /* \"#utility.yul\":13183:13188   */\n      dup3\n        /* \"#utility.yul\":13177:13181   */\n      dup3\n        /* \"#utility.yul\":13173:13189   */\n      shl\n        /* \"#utility.yul\":13152:13189   */\n      swap1\n      pop\n        /* \"#utility.yul\":13089:13196   */\n      swap3\n      swap2\n      pop\n      pop\n      jump\t// out\n        /* \"#utility.yul\":13202:13595   */\n    tag_113:\n        /* \"#utility.yul\":13271:13277   */\n      0x00\n        /* \"#utility.yul\":13321:13322   */\n      0x08\n        /* \"#utility.yul\":13309:13319   */\n      dup4\n        /* \"#utility.yul\":13305:13323   */\n      mul\n        /* \"#utility.yul\":13344:13441   */\n      tag_261\n        /* \"#utility.yul\":13374:13440   */\n      0xffffffffffffffffffffffffffffffffffffffffffffffffffffffffffffffff\n        /* \"#utility.yul\":13363:13372   */\n      dup3\n        /* \"#utility.yul\":13344:13441   */\n      tag_112\n      jump\t// in\n    tag_261:\n        /* \"#utility.yul\":13462:13501   */\n      tag_262\n        /* \"#utility.yul\":13492:13500   */\n      dup7\n        /* \"#utility.yul\":13481:13490   */\n      dup4\n        /* \"#utility.yul\":13462:13501   */\n      tag_112\n      jump\t// in\n    tag_262:\n        /* \"#utility.yul\":13450:13501   */\n      swap6\n      pop\n        /* \"#utility.yul\":13534:13538   */\n      dup1\n        /* \"#utility.yul\":13530:13539   */\n      not\n        /* \"#utility.yul\":13523:13528   */\n      dup5\n        /* \"#utility.yul\":13519:13540   */\n      and\n        /* \"#utility.yul\":13510:13540   */\n      swap4\n      pop\n        /* \"#utility.yul\":13583:13587   */\n      dup1\n        /* \"#utility.yul\":13573:13581   */\n      dup7\n        /* \"#utility.yul\":13569:13588   */\n      and\n        /* \"#utility.yul\":13562:13567   */\n      dup5\n        /* \"#utility.yul\":13559:13589   */\n      or\n        /* \"#utility.yul\":13549:13589   */\n      swap3\n      pop\n        /* \"#utility.yul\":13278:13595   */\n      pop\n      pop\n        /* \"#utility.yul\":13202:13595   */\n      swap4\n      swap3\n      pop\n      pop\n      pop\n      jump\t// out\n        /* \"#utility.yul\":13601:13661   */\n    tag_114:\n        /* \"#utility.yul\":13629:13632   */\n      0x00\n        /* \"#utility.yul\":13650:13655   */\n      dup2\n        /* \"#utility.yul\":13643:13655   */\n      swap1\n      pop\n        /* \"#utility.yul\":13601:13661   */\n      swap2\n      swap1\n      pop\n      jump\t// out\n        /* \"#utility.yul\":13667:13809   */\n    tag_115:\n        /* \"#utility.yul\":13717:13726   */\n      0x00\n        /* \"#utility.yul\":13750:13803   */\n      tag_265\n        /* \"#utility.yul\":13768:13802   */\n      tag_266\n        /* \"#utility.yul\":13777:13801   */\n      tag_267\n        /* \"#utility.yul\":13795:13800   */\n      dup5\n        /* \"#utility.yul\":13777:13801   */\n      tag_93\n      jump\t// in\n    tag_267:\n        /* \"#utility.yul\":13768:13802   */\n      tag_114\n      jump\t// in\n    tag_266:\n        /* \"#utility.yul\":13750:13803   */\n      tag_93\n      jump\t// in\n    tag_265:\n        /* \"#utility.yul\":13737:13803   */\n      swap1\n      pop\n        /* \"#utility.yul\":13667:13809   */\n      swap2\n      swap1\n      pop\n      jump\t// out\n        /* \"#utility.yul\":13815:13890   */\n    tag_116:\n        /* \"#utility.yul\":13858:13861   */\n      0x00\n        /* \"#utility.yul\":13879:13884   */\n      dup2\n        /* \"#utility.yul\":13872:13884   */\n      swap1\n      pop\n        /* \"#utility.yul\":13815:13890   */\n      swap2\n      swap1\n      pop\n      jump\t// out\n        /* \"#utility.yul\":13896:14165   */\n    tag_117:\n        /* \"#utility.yul\":14006:14045   */\n      tag_270\n        /* \"#utility.yul\":14037:14044   */\n      dup4\n        /* \"#utility.yul\":14006:14045   */\n      tag_115\n      jump\t// in\n    tag_270:\n        /* \"#utility.yul\":14067:14158   */\n      tag_271\n        /* \"#utility.yul\":14116:14157   */\n      tag_272\n        /* \"#utility.yul\":14140:14156   */\n      dup3\n        /* \"#utility.yul\":14116:14157   */\n      tag_116\n      jump\t// in\n    tag_272:\n        /* \"#utility.yul\":14108:14114   */\n      dup5\n        /* \"#utility.yul\":14101:14105   */\n      dup5\n        /* \"#utility.yul\":14095:14106   */\n      sload\n        /* \"#utility.yul\":14067:14158   */\n      tag_113\n      jump\t// in\n    tag_271:\n        /* \"#utility.yul\":14061:14065   */\n      dup3\n        /* \"#utility.yul\":14054:14159   */\n      sstore\n        /* \"#utility.yul\":13972:14165   */\n      pop\n        /* \"#utility.yul\":13896:14165   */\n      pop\n      pop\n      pop\n      jump\t// out\n        /* \"#utility.yul\":14171:14244   */\n    tag_118:\n        /* \"#utility.yul\":14216:14219   */\n      0x00\n        /* \"#utility.yul\":14171:14244   */\n      swap1\n      jump\t// out\n        /* \"#utility.yul\":14250:14439   */\n    tag_119:\n        /* \"#utility.yul\":14327:14359   */\n      tag_275\n      tag_118\n      jump\t// in\n    tag_275:\n        /* \"#utility.yul\":14368:14433   */\n      tag_276\n        /* \"#utility.yul\":14426:14432   */\n      dup2\n        /* \"#utility.yul\":14418:14424   */\n      dup5\n        /* \"#utility.yul\":14412:14416   */\n      dup5\n        /* \"#utility.yul\":14368:14433   */\n      tag_117\n      jump\t// in\n    tag_276:\n        /* \"#utility.yul\":14303:14439   */\n      pop\n        /* \"#utility.yul\":14250:14439   */\n      pop\n      pop\n      jump\t// out\n        /* \"#utility.yul\":14445:14631   */\n    tag_120:\n        /* \"#utility.yul\":14505:14625   */\n    tag_278:\n        /* \"#utility.yul\":14522:14525   */\n      dup2\n        /* \"#utility.yul\":14515:14520   */\n      dup2\n        /* \"#utility.yul\":14512:14526   */\n      lt\n        /* \"#utility.yul\":14505:14625   */\n      iszero\n      tag_280\n      jumpi\n        /* \"#utility.yul\":14576:14615   */\n      tag_281\n        /* \"#utility.yul\":14613:14614   */\n      0x00\n        /* \"#utility.yul\":14606:14611   */\n      dup3\n        /* \"#utility.yul\":14576:14615   */\n      tag_119\n      jump\t// in\n    tag_281:\n        /* \"#utility.yul\":14549:14550   */\n      0x01\n        /* \"#utility.yul\":14542:14547   */\n      dup2\n        /* \"#utility.yul\":14538:14551   */\n      add\n        /* \"#utility.yul\":14529:14551   */\n      swap1\n      pop\n        /* \"#utility.yul\":14505:14625   */\n      jump(tag_278)\n    tag_280:\n        /* \"#utility.yul\":14445:14631   */\n      pop\n      pop\n      jump\t// out\n        /* \"#utility.yul\":14637:15180   */\n    tag_121:\n        /* \"#utility.yul\":14738:14740   */\n      0x1f\n        /* \"#utility.yul\":14733:14736   */\n      dup3\n        /* \"#utility.yul\":14730:14741   */\n      gt\n        /* \"#utility.yul\":14727:15173   */\n      iszero\n      tag_283\n      jumpi\n        /* \"#utility.yul\":14772:14810   */\n      tag_284\n        /* \"#utility.yul\":14804:14809   */\n      dup2\n        /* \"#utility.yul\":14772:14810   */\n      tag_106\n      jump\t// in\n    tag_284:\n        /* \"#utility.yul\":14856:14885   */\n      tag_285\n        /* \"#utility.yul\":14874:14884   */\n      dup5\n        /* \"#utility.yul\":14856:14885   */\n      tag_111\n      jump\t// in\n    tag_285:\n        /* \"#utility.yul\":14846:14854   */\n      dup2\n        /* \"#utility.yul\":14842:14886   */\n      add\n        /* \"#utility.yul\":15039:15041   */\n      0x20\n        /* \"#utility.yul\":15027:15037   */\n      dup6\n        /* \"#utility.yul\":15024:15042   */\n      lt\n        /* \"#utility.yul\":15021:15070   */\n      iszero\n      tag_286\n      jumpi\n        /* \"#utility.yul\":15060:15068   */\n      dup2\n        /* \"#utility.yul\":15045:15068   */\n      swap1\n      pop\n        /* \"#utility.yul\":15021:15070   */\n    tag_286:\n        /* \"#utility.yul\":15083:15163   */\n      tag_287\n        /* \"#utility.yul\":15139:15161   */\n      tag_288\n        /* \"#utility.yul\":15157:15160   */\n      dup6\n        /* \"#utility.yul\":15139:15161   */\n      tag_111\n      jump\t// in\n    tag_288:\n        /* \"#utility.yul\":15129:15137   */\n      dup4\n        /* \"#utility.yul\":15125:15162   */\n      add\n        /* \"#utility.yul\":15112:15123   */\n      dup3\n        /* \"#utility.yul\":15083:15163   */\n      tag_120\n      jump\t// in\n    tag_287:\n        /* \"#utility.yul\":14742:15173   */\n      pop\n      pop\n        /* \"#utility.yul\":14727:15173   */\n    tag_283:\n        /* \"#utility.yul\":14637:15180   */\n      pop\n      pop\n      pop\n      jump\t// out\n        /* \"#utility.yul\":15186:15303   */\n    tag_122:\n        /* \"#utility.yul\":15240:15248   */\n      0x00\n        /* \"#utility.yul\":15290:15295   */\n      dup3\n        /* \"#utility.yul\":15284:15288   */\n      dup3\n        /* \"#utility.yul\":15280:15296   */\n      shr\n        /* \"#utility.yul\":15259:15296   */\n      swap1\n      pop\n        /* \"#utility.yul\":15186:15303   */\n      swap3\n      swap2\n      pop\n      pop\n      jump\t// out\n        /* \"#utility.yul\":15309:15478   */\n    tag_123:\n        /* \"#utility.yul\":15353:15359   */\n      0x00\n        /* \"#utility.yul\":15386:15437   */\n      tag_291\n        /* \"#utility.yul\":15434:15435   */\n      0x00\n        /* \"#utility.yul\":15430:15436   */\n      not\n        /* \"#utility.yul\":15422:15427   */\n      dup5\n        /* \"#utility.yul\":15419:15420   */\n      0x08\n        /* \"#utility.yul\":15415:15428   */\n      mul\n        /* \"#utility.yul\":15386:15437   */\n      tag_122\n      jump\t// in\n    tag_291:\n        /* \"#utility.yul\":15382:15438   */\n      not\n        /* \"#utility.yul\":15467:15471   */\n      dup1\n        /* \"#utility.yul\":15461:15465   */\n      dup4\n        /* \"#utility.yul\":15457:15472   */\n      and\n        /* \"#utility.yul\":15447:15472   */\n      swap2\n      pop\n        /* \"#utility.yul\":15360:15478   */\n      pop\n        /* \"#utility.yul\":15309:15478   */\n      swap3\n      swap2\n      pop\n      pop\n      jump\t// out\n        /* \"#utility.yul\":15483:15778   */\n    tag_124:\n        /* \"#utility.yul\":15559:15563   */\n      0x00\n        /* \"#utility.yul\":15705:15734   */\n      tag_293\n        /* \"#utility.yul\":15730:15733   */\n      dup4\n        /* \"#utility.yul\":15724:15728   */\n      dup4\n        /* \"#utility.yul\":15705:15734   */\n      tag_123\n      jump\t// in\n    tag_293:\n        /* \"#utility.yul\":15697:15734   */\n      swap2\n      pop\n        /* \"#utility.yul\":15767:15770   */\n      dup3\n        /* \"#utility.yul\":15764:15765   */\n      0x02\n        /* \"#utility.yul\":15760:15771   */\n      mul\n        /* \"#utility.yul\":15754:15758   */\n      dup3\n        /* \"#utility.yul\":15751:15772   */\n      or\n        /* \"#utility.yul\":15743:15772   */\n      swap1\n      pop\n        /* \"#utility.yul\":15483:15778   */\n      swap3\n      swap2\n      pop\n      pop\n      jump\t// out\n        /* \"#utility.yul\":15783:17178   */\n    tag_65:\n        /* \"#utility.yul\":15900:15937   */\n      tag_295\n        /* \"#utility.yul\":15933:15936   */\n      dup3\n        /* \"#utility.yul\":15900:15937   */\n      tag_80\n      jump\t// in\n    tag_295:\n        /* \"#utility.yul\":16002:16020   */\n      0xffffffffffffffff\n        /* \"#utility.yul\":15994:16000   */\n      dup2\n        /* \"#utility.yul\":15991:16021   */\n      gt\n        /* \"#utility.yul\":15988:16044   */\n      iszero\n      tag_296\n      jumpi\n        /* \"#utility.yul\":16024:16042   */\n      tag_297\n      tag_110\n      jump\t// in\n    tag_297:\n        /* \"#utility.yul\":15988:16044   */\n    tag_296:\n        /* \"#utility.yul\":16068:16106   */\n      tag_298\n        /* \"#utility.yul\":16100:16104   */\n      dup3\n        /* \"#utility.yul\":16094:16105   */\n      sload\n        /* \"#utility.yul\":16068:16106   */\n      tag_40\n      jump\t// in\n    tag_298:\n        /* \"#utility.yul\":16153:16220   */\n      tag_299\n        /* \"#utility.yul\":16213:16219   */\n      dup3\n        /* \"#utility.yul\":16205:16211   */\n      dup3\n        /* \"#utility.yul\":16199:16203   */\n      dup6\n        /* \"#utility.yul\":16153:16220   */\n      tag_121\n      jump\t// in\n    tag_299:\n        /* \"#utility.yul\":16247:16248   */\n      0x00\n        /* \"#utility.yul\":16271:16275   */\n      0x20\n        /* \"#utility.yul\":16258:16275   */\n      swap1\n      pop\n        /* \"#utility.yul\":16303:16305   */\n      0x1f\n        /* \"#utility.yul\":16295:16301   */\n      dup4\n        /* \"#utility.yul\":16292:16306   */\n      gt\n        /* \"#utility.yul\":16320:16321   */\n      0x01\n        /* \"#utility.yul\":16315:16933   */\n      dup2\n      eq\n      tag_301\n      jumpi\n        /* \"#utility.yul\":16977:16978   */\n      0x00\n        /* \"#utility.yul\":16994:17000   */\n      dup5\n        /* \"#utility.yul\":16991:17068   */\n      iszero\n      tag_302\n      jumpi\n        /* \"#utility.yul\":17043:17052   */\n      dup3\n        /* \"#utility.yul\":17038:17041   */\n      dup8\n        /* \"#utility.yul\":17034:17053   */\n      add\n        /* \"#utility.yul\":17028:17054   */\n      mload\n        /* \"#utility.yul\":17019:17054   */\n      swap1\n      pop\n        /* \"#utility.yul\":16991:17068   */\n    tag_302:\n        /* \"#utility.yul\":17094:17161   */\n      tag_303\n        /* \"#utility.yul\":17154:17160   */\n      dup6\n        /* \"#utility.yul\":17147:17152   */\n      dup3\n        /* \"#utility.yul\":17094:17161   */\n      tag_124\n      jump\t// in\n    tag_303:\n        /* \"#utility.yul\":17088:17092   */\n      dup7\n        /* \"#utility.yul\":17081:17162   */\n      sstore\n        /* \"#utility.yul\":16950:17172   */\n      pop\n        /* \"#utility.yul\":16285:17172   */\n      jump(tag_300)\n        /* \"#utility.yul\":16315:16933   */\n    tag_301:\n        /* \"#utility.yul\":16367:16371   */\n      0x1f\n        /* \"#utility.yul\":16363:16372   */\n      not\n        /* \"#utility.yul\":16355:16361   */\n      dup5\n        /* \"#utility.yul\":16351:16373   */\n      and\n        /* \"#utility.yul\":16401:16438   */\n      tag_304\n        /* \"#utility.yul\":16433:16437   */\n      dup7\n        /* \"#utility.yul\":16401:16438   */\n      tag_106\n      jump\t// in\n    tag_304:\n        /* \"#utility.yul\":16460:16461   */\n      0x00\n        /* \"#utility.yul\":16474:16682   */\n    tag_305:\n        /* \"#utility.yul\":16488:16495   */\n      dup3\n        /* \"#utility.yul\":16485:16486   */\n      dup2\n        /* \"#utility.yul\":16482:16496   */\n      lt\n        /* \"#utility.yul\":16474:16682   */\n      iszero\n      tag_307\n      jumpi\n        /* \"#utility.yul\":16567:16576   */\n      dup5\n        /* \"#utility.yul\":16562:16565   */\n      dup10\n        /* \"#utility.yul\":16558:16577   */\n      add\n        /* \"#utility.yul\":16552:16578   */\n      mload\n        /* \"#utility.yul\":16544:16550   */\n      dup3\n        /* \"#utility.yul\":16537:16579   */\n      sstore\n        /* \"#utility.yul\":16618:16619   */\n      0x01\n        /* \"#utility.yul\":16610:16616   */\n      dup3\n        /* \"#utility.yul\":16606:16620   */\n      add\n        /* \"#utility.yul\":16596:16620   */\n      swap2\n      pop\n        /* \"#utility.yul\":16665:16667   */\n      0x20\n        /* \"#utility.yul\":16654:16663   */\n      dup6\n        /* \"#utility.yul\":16650:16668   */\n      add\n        /* \"#utility.yul\":16637:16668   */\n      swap5\n      pop\n        /* \"#utility.yul\":16511:16515   */\n      0x20\n        /* \"#utility.yul\":16508:16509   */\n      dup2\n        /* \"#utility.yul\":16504:16516   */\n      add\n        /* \"#utility.yul\":16499:16516   */\n      swap1\n      pop\n        /* \"#utility.yul\":16474:16682   */\n      jump(tag_305)\n    tag_307:\n        /* \"#utility.yul\":16710:16716   */\n      dup7\n        /* \"#utility.yul\":16701:16708   */\n      dup4\n        /* \"#utility.yul\":16698:16717   */\n      lt\n        /* \"#utility.yul\":16695:16874   */\n      iszero\n      tag_308\n      jumpi\n        /* \"#utility.yul\":16768:16777   */\n      dup5\n        /* \"#utility.yul\":16763:16766   */\n      dup10\n        /* \"#utility.yul\":16759:16778   */\n      add\n        /* \"#utility.yul\":16753:16779   */\n      mload\n        /* \"#utility.yul\":16811:16859   */\n      tag_309\n        /* \"#utility.yul\":16853:16857   */\n      0x1f\n        /* \"#utility.yul\":16845:16851   */\n      dup10\n        /* \"#utility.yul\":16841:16858   */\n      and\n        /* \"#utility.yul\":16830:16839   */\n      dup3\n        /* \"#utility.yul\":16811:16859   */\n      tag_123\n      jump\t// in\n    tag_309:\n        /* \"#utility.yul\":16803:16809   */\n      dup4\n        /* \"#utility.yul\":16796:16860   */\n      sstore\n        /* \"#utility.yul\":16718:16874   */\n      pop\n        /* \"#utility.yul\":16695:16874   */\n    tag_308:\n        /* \"#utility.yul\":16920:16921   */\n      0x01\n        /* \"#utility.yul\":16916:16917   */\n      0x02\n        /* \"#utility.yul\":16908:16914   */\n      dup9\n        /* \"#utility.yul\":16904:16918   */\n      mul\n        /* \"#utility.yul\":16900:16922   */\n      add\n        /* \"#utility.yul\":16894:16898   */\n      dup9\n        /* \"#utility.yul\":16887:16923   */\n      sstore\n        /* \"#utility.yul\":16322:16933   */\n      pop\n      pop\n      pop\n        /* \"#utility.yul\":16285:17172   */\n    tag_300:\n      pop\n        /* \"#utility.yul\":15875:17178   */\n      pop\n      pop\n      pop\n        /* \"#utility.yul\":15783:17178   */\n      pop\n      pop\n      jump\t// out\n        /* \"#utility.yul\":17184:17302   */\n    tag_125:\n        /* \"#utility.yul\":17221:17228   */\n      0x00\n        /* \"#utility.yul\":17261:17295   */\n      0xffffffffffffffffffffffffffffffff\n        /* \"#utility.yul\":17254:17259   */\n      dup3\n        /* \"#utility.yul\":17250:17296   */\n      and\n        /* \"#utility.yul\":17239:17296   */\n      swap1\n      pop\n        /* \"#utility.yul\":17184:17302   */\n      swap2\n      swap1\n      pop\n      jump\t// out\n        /* \"#utility.yul\":17308:17509   */\n    tag_67:\n        /* \"#utility.yul\":17347:17350   */\n      0x00\n        /* \"#utility.yul\":17370:17394   */\n      tag_312\n        /* \"#utility.yul\":17388:17393   */\n      dup3\n        /* \"#utility.yul\":17370:17394   */\n      tag_125\n      jump\t// in\n    tag_312:\n        /* \"#utility.yul\":17361:17394   */\n      swap2\n      pop\n        /* \"#utility.yul\":17416:17450   */\n      0xffffffffffffffffffffffffffffffff\n        /* \"#utility.yul\":17409:17414   */\n      dup3\n        /* \"#utility.yul\":17406:17451   */\n      sub\n        /* \"#utility.yul\":17403:17474   */\n      tag_313\n      jumpi\n        /* \"#utility.yul\":17454:17472   */\n      tag_314\n      tag_95\n      jump\t// in\n    tag_314:\n        /* \"#utility.yul\":17403:17474   */\n    tag_313:\n        /* \"#utility.yul\":17501:17502   */\n      0x01\n        /* \"#utility.yul\":17494:17499   */\n      dup3\n        /* \"#utility.yul\":17490:17503   */\n      add\n        /* \"#utility.yul\":17483:17503   */\n      swap1\n      pop\n        /* \"#utility.yul\":17308:17509   */\n      swap2\n      swap1\n      pop\n      jump\t// out\n        /* \"#utility.yul\":17515:17682   */\n    tag_69:\n        /* \"#utility.yul\":17552:17555   */\n      0x00\n        /* \"#utility.yul\":17575:17597   */\n      tag_316\n        /* \"#utility.yul\":17591:17596   */\n      dup3\n        /* \"#utility.yul\":17575:17597   */\n      tag_87\n      jump\t// in\n    tag_316:\n        /* \"#utility.yul\":17566:17597   */\n      swap2\n      pop\n        /* \"#utility.yul\":17619:17623   */\n      0xff\n        /* \"#utility.yul\":17612:17617   */\n      dup3\n        /* \"#utility.yul\":17609:17624   */\n      sub\n        /* \"#utility.yul\":17606:17647   */\n      tag_317\n      jumpi\n        /* \"#utility.yul\":17627:17645   */\n      tag_318\n      tag_95\n      jump\t// in\n    tag_318:\n        /* \"#utility.yul\":17606:17647   */\n    tag_317:\n        /* \"#utility.yul\":17674:17675   */\n      0x01\n        /* \"#utility.yul\":17667:17672   */\n      dup3\n        /* \"#utility.yul\":17663:17676   */\n      add\n        /* \"#utility.yul\":17656:17676   */\n      swap1\n      pop\n        /* \"#utility.yul\":17515:17682   */\n      swap2\n      swap1\n      pop\n      jump\t// out\n\n    auxdata: 0xa2646970667358221220cd4232b7ce674066ad12d3cc7604bf486c03fdaca3506b9026135ff78183bad464736f6c63430008180033\n}\n",
				"bytecode": {
					"linkReferences": {},
					"object": "608060405234801561000f575f80fd5b506113028061001d5f395ff3fe608060405234801561000f575f80fd5b506004361061004a575f3560e01c80630e9262ac1461004e5780631a67b98b1461006a57806324e164f71461009f578063d265a3f3146100d1575b5f80fd5b61006860048036038101906100639190610a04565b610101565b005b610084600480360381019061007f9190610a42565b6101af565b60405161009696959493929190610b30565b60405180910390f35b6100b960048036038101906100b49190610bf7565b610416565b6040516100c893929190610c5a565b60405180910390f35b6100eb60048036038101906100e69190610bf7565b6105fb565b6040516100f89190610c96565b60405180910390f35b5f60025f8473ffffffffffffffffffffffffffffffffffffffff1673ffffffffffffffffffffffffffffffffffffffff1681526020019081526020015f205490508160015f8381526020019081526020015f206003015f8282829054906101000a9004600f0b6101719190610cdc565b92506101000a8154816fffffffffffffffffffffffffffffffff0219169083600f0b6fffffffffffffffffffffffffffffffff160217905550505050565b60605f805f805f805f90505b5f60109054906101000a900460ff1660ff168110156103d157876040516020016101e59190610d88565b6040516020818303038152906040528051906020012060015f8381526020019081526020015f206001015f9054906101000a900473ffffffffffffffffffffffffffffffffffffffff1660405160200161023f9190610d88565b60405160208183030381529060405280519060200120036103c45760015f8281526020019081526020015f2060020160015f8381526020019081526020015f206001015f9054906101000a900473ffffffffffffffffffffffffffffffffffffffff1660015f8481526020019081526020015f206003015f9054906101000a9004600f0b60015f8581526020019081526020015f2060030160109054906101000a9004600f0b60015f8681526020019081526020015f206004015f9054906101000a9004600f0b60015f8781526020019081526020015f2060040160109054906101000a900460ff1685805461033490610dcf565b80601f016020809104026020016040519081016040528092919081815260200182805461036090610dcf565b80156103ab5780601f10610382576101008083540402835291602001916103ab565b820191905f5260205f20905b81548152906001019060200180831161038e57829003601f168201915b505050505095509650965096509650965096505061040d565b80806001019150506101bb565b506040517f08c379a000000000000000000000000000000000000000000000000000000000815260040161040490610e49565b60405180910390fd5b91939550919395565b5f8060605f5b5f8054906101000a90046fffffffffffffffffffffffffffffffff166fffffffffffffffffffffffffffffffff168110156105b8578585604051602001610464929190610ea3565b6040516020818303038152906040528051906020012060015f8381526020019081526020015f2060020160405160200161049e9190610f4d565b60405160208183030381529060405280519060200120036105ab5760015f8281526020019081526020015f205f015460015f8381526020019081526020015f206001015f9054906101000a900473ffffffffffffffffffffffffffffffffffffffff1660015f8481526020019081526020015f2060020180805461052190610dcf565b80601f016020809104026020016040519081016040528092919081815260200182805461054d90610dcf565b80156105985780601f1061056f57610100808354040283529160200191610598565b820191905f5260205f20905b81548152906001019060200180831161057b57829003601f168201915b50505050509050935093509350506105f4565b808060010191505061041c565b506040517f08c379a00000000000000000000000000000000000000000000000000000000081526004016105eb90610fad565b60405180910390fd5b9250925092565b5f6040518060e001604052805f8054906101000a90046fffffffffffffffffffffffffffffffff166fffffffffffffffffffffffffffffffff1681526020013373ffffffffffffffffffffffffffffffffffffffff16815260200184848080601f0160208091040260200160405190810160405280939291908181526020018383808284375f81840152601f19601f8201169050808301925050505050505081526020015f600f0b81526020015f600f0b81526020015f600f0b81526020015f60109054906101000a900460ff1660ff1681525060015f805f9054906101000a90046fffffffffffffffffffffffffffffffff166fffffffffffffffffffffffffffffffff1681526020019081526020015f205f820151815f01556020820151816001015f6101000a81548173ffffffffffffffffffffffffffffffffffffffff021916908373ffffffffffffffffffffffffffffffffffffffff16021790555060408201518160020190816107719190611183565b506060820151816003015f6101000a8154816fffffffffffffffffffffffffffffffff0219169083600f0b6fffffffffffffffffffffffffffffffff16021790555060808201518160030160106101000a8154816fffffffffffffffffffffffffffffffff0219169083600f0b6fffffffffffffffffffffffffffffffff16021790555060a0820151816004015f6101000a8154816fffffffffffffffffffffffffffffffff0219169083600f0b6fffffffffffffffffffffffffffffffff16021790555060c08201518160040160106101000a81548160ff021916908360ff1602179055509050505f8054906101000a90046fffffffffffffffffffffffffffffffff166fffffffffffffffffffffffffffffffff1660025f3373ffffffffffffffffffffffffffffffffffffffff1673ffffffffffffffffffffffffffffffffffffffff1681526020019081526020015f20819055505f8081819054906101000a90046fffffffffffffffffffffffffffffffff16809291906108f59061126d565b91906101000a8154816fffffffffffffffffffffffffffffffff02191690836fffffffffffffffffffffffffffffffff160217905550505f601081819054906101000a900460ff168092919061094a906112a4565b91906101000a81548160ff021916908360ff1602179055505033905092915050565b5f80fd5b5f80fd5b5f73ffffffffffffffffffffffffffffffffffffffff82169050919050565b5f61099d82610974565b9050919050565b6109ad81610993565b81146109b7575f80fd5b50565b5f813590506109c8816109a4565b92915050565b5f81600f0b9050919050565b6109e3816109ce565b81146109ed575f80fd5b50565b5f813590506109fe816109da565b92915050565b5f8060408385031215610a1a57610a1961096c565b5b5f610a27858286016109ba565b9250506020610a38858286016109f0565b9150509250929050565b5f60208284031215610a5757610a5661096c565b5b5f610a64848285016109ba565b91505092915050565b5f81519050919050565b5f82825260208201905092915050565b5f5b83811015610aa4578082015181840152602081019050610a89565b5f8484015250505050565b5f601f19601f8301169050919050565b5f610ac982610a6d565b610ad38185610a77565b9350610ae3818560208601610a87565b610aec81610aaf565b840191505092915050565b610b0081610993565b82525050565b610b0f816109ce565b82525050565b5f60ff82169050919050565b610b2a81610b15565b82525050565b5f60c0820190508181035f830152610b488189610abf565b9050610b576020830188610af7565b610b646040830187610b06565b610b716060830186610b06565b610b7e6080830185610b06565b610b8b60a0830184610b21565b979650505050505050565b5f80fd5b5f80fd5b5f80fd5b5f8083601f840112610bb757610bb6610b96565b5b8235905067ffffffffffffffff811115610bd457610bd3610b9a565b5b602083019150836001820283011115610bf057610bef610b9e565b5b9250929050565b5f8060208385031215610c0d57610c0c61096c565b5b5f83013567ffffffffffffffff811115610c2a57610c29610970565b5b610c3685828601610ba2565b92509250509250929050565b5f819050919050565b610c5481610c42565b82525050565b5f606082019050610c6d5f830186610c4b565b610c7a6020830185610af7565b8181036040830152610c8c8184610abf565b9050949350505050565b5f602082019050610ca95f830184610af7565b92915050565b7f4e487b71000000000000000000000000000000000000000000000000000000005f52601160045260245ffd5b5f610ce6826109ce565b9150610cf1836109ce565b925082820190507fffffffffffffffffffffffffffffffff8000000000000000000000000000000081126f7fffffffffffffffffffffffffffffff82131715610d3d57610d3c610caf565b5b92915050565b5f8160601b9050919050565b5f610d5982610d43565b9050919050565b5f610d6a82610d4f565b9050919050565b610d82610d7d82610993565b610d60565b82525050565b5f610d938284610d71565b60148201915081905092915050565b7f4e487b71000000000000000000000000000000000000000000000000000000005f52602260045260245ffd5b5f6002820490506001821680610de657607f821691505b602082108103610df957610df8610da2565b5b50919050565b7f57616c6c6574206e6f7420666f756e64000000000000000000000000000000005f82015250565b5f610e33601083610a77565b9150610e3e82610dff565b602082019050919050565b5f6020820190508181035f830152610e6081610e27565b9050919050565b5f81905092915050565b828183375f83830152505050565b5f610e8a8385610e67565b9350610e97838584610e71565b82840190509392505050565b5f610eaf828486610e7f565b91508190509392505050565b5f819050815f5260205f209050919050565b5f8154610ed981610dcf565b610ee38186610e67565b9450600182165f8114610efd5760018114610f1257610f44565b60ff1983168652811515820286019350610f44565b610f1b85610ebb565b5f5b83811015610f3c57815481890152600182019150602081019050610f1d565b838801955050505b50505092915050565b5f610f588284610ecd565b915081905092915050565b7f55736572206e6f7420666f756e640000000000000000000000000000000000005f82015250565b5f610f97600e83610a77565b9150610fa282610f63565b602082019050919050565b5f6020820190508181035f830152610fc481610f8b565b9050919050565b7f4e487b71000000000000000000000000000000000000000000000000000000005f52604160045260245ffd5b5f6020601f8301049050919050565b5f82821b905092915050565b5f600883026110427fffffffffffffffffffffffffffffffffffffffffffffffffffffffffffffffff82611007565b61104c8683611007565b95508019841693508086168417925050509392505050565b5f819050919050565b5f61108761108261107d84610c42565b611064565b610c42565b9050919050565b5f819050919050565b6110a08361106d565b6110b46110ac8261108e565b848454611013565b825550505050565b5f90565b6110c86110bc565b6110d3818484611097565b505050565b5b818110156110f6576110eb5f826110c0565b6001810190506110d9565b5050565b601f82111561113b5761110c81610ebb565b61111584610ff8565b81016020851015611124578190505b61113861113085610ff8565b8301826110d8565b50505b505050565b5f82821c905092915050565b5f61115b5f1984600802611140565b1980831691505092915050565b5f611173838361114c565b9150826002028217905092915050565b61118c82610a6d565b67ffffffffffffffff8111156111a5576111a4610fcb565b5b6111af8254610dcf565b6111ba8282856110fa565b5f60209050601f8311600181146111eb575f84156111d9578287015190505b6111e38582611168565b86555061124a565b601f1984166111f986610ebb565b5f5b82811015611220578489015182556001820191506020850194506020810190506111fb565b8683101561123d5784890151611239601f89168261114c565b8355505b6001600288020188555050505b505050505050565b5f6fffffffffffffffffffffffffffffffff82169050919050565b5f61127782611252565b91506fffffffffffffffffffffffffffffffff820361129957611298610caf565b5b600182019050919050565b5f6112ae82610b15565b915060ff82036112c1576112c0610caf565b5b60018201905091905056fea2646970667358221220cd4232b7ce674066ad12d3cc7604bf486c03fdaca3506b9026135ff78183bad464736f6c63430008180033",
					"opcodes": "PUSH1 0x80 PUSH1 0x40 MSTORE CALLVALUE DUP1 ISZERO PUSH2 0xF JUMPI PUSH0 DUP1 REVERT JUMPDEST POP PUSH2 0x1302 DUP1 PUSH2 0x1D PUSH0 CODECOPY PUSH0 RETURN INVALID PUSH1 0x80 PUSH1 0x40 MSTORE CALLVALUE DUP1 ISZERO PUSH2 0xF JUMPI PUSH0 DUP1 REVERT JUMPDEST POP PUSH1 0x4 CALLDATASIZE LT PUSH2 0x4A JUMPI PUSH0 CALLDATALOAD PUSH1 0xE0 SHR DUP1 PUSH4 0xE9262AC EQ PUSH2 0x4E JUMPI DUP1 PUSH4 0x1A67B98B EQ PUSH2 0x6A JUMPI DUP1 PUSH4 0x24E164F7 EQ PUSH2 0x9F JUMPI DUP1 PUSH4 0xD265A3F3 EQ PUSH2 0xD1 JUMPI JUMPDEST PUSH0 DUP1 REVERT JUMPDEST PUSH2 0x68 PUSH1 0x4 DUP1 CALLDATASIZE SUB DUP2 ADD SWAP1 PUSH2 0x63 SWAP2 SWAP1 PUSH2 0xA04 JUMP JUMPDEST PUSH2 0x101 JUMP JUMPDEST STOP JUMPDEST PUSH2 0x84 PUSH1 0x4 DUP1 CALLDATASIZE SUB DUP2 ADD SWAP1 PUSH2 0x7F SWAP2 SWAP1 PUSH2 0xA42 JUMP JUMPDEST PUSH2 0x1AF JUMP JUMPDEST PUSH1 0x40 MLOAD PUSH2 0x96 SWAP7 SWAP6 SWAP5 SWAP4 SWAP3 SWAP2 SWAP1 PUSH2 0xB30 JUMP JUMPDEST PUSH1 0x40 MLOAD DUP1 SWAP2 SUB SWAP1 RETURN JUMPDEST PUSH2 0xB9 PUSH1 0x4 DUP1 CALLDATASIZE SUB DUP2 ADD SWAP1 PUSH2 0xB4 SWAP2 SWAP1 PUSH2 0xBF7 JUMP JUMPDEST PUSH2 0x416 JUMP JUMPDEST PUSH1 0x40 MLOAD PUSH2 0xC8 SWAP4 SWAP3 SWAP2 SWAP1 PUSH2 0xC5A JUMP JUMPDEST PUSH1 0x40 MLOAD DUP1 SWAP2 SUB SWAP1 RETURN JUMPDEST PUSH2 0xEB PUSH1 0x4 DUP1 CALLDATASIZE SUB DUP2 ADD SWAP1 PUSH2 0xE6 SWAP2 SWAP1 PUSH2 0xBF7 JUMP JUMPDEST PUSH2 0x5FB JUMP JUMPDEST PUSH1 0x40 MLOAD PUSH2 0xF8 SWAP2 SWAP1 PUSH2 0xC96 JUMP JUMPDEST PUSH1 0x40 MLOAD DUP1 SWAP2 SUB SWAP1 RETURN JUMPDEST PUSH0 PUSH1 0x2 PUSH0 DUP5 PUSH20 0xFFFFFFFFFFFFFFFFFFFFFFFFFFFFFFFFFFFFFFFF AND PUSH20 0xFFFFFFFFFFFFFFFFFFFFFFFFFFFFFFFFFFFFFFFF AND DUP2 MSTORE PUSH1 0x20 ADD SWAP1 DUP2 MSTORE PUSH1 0x20 ADD PUSH0 KECCAK256 SLOAD SWAP1 POP DUP2 PUSH1 0x1 PUSH0 DUP4 DUP2 MSTORE PUSH1 0x20 ADD SWAP1 DUP2 MSTORE PUSH1 0x20 ADD PUSH0 KECCAK256 PUSH1 0x3 ADD PUSH0 DUP3 DUP3 DUP3 SWAP1 SLOAD SWAP1 PUSH2 0x100 EXP SWAP1 DIV PUSH1 0xF SIGNEXTEND PUSH2 0x171 SWAP2 SWAP1 PUSH2 0xCDC JUMP JUMPDEST SWAP3 POP PUSH2 0x100 EXP DUP2 SLOAD DUP2 PUSH16 0xFFFFFFFFFFFFFFFFFFFFFFFFFFFFFFFF MUL NOT AND SWAP1 DUP4 PUSH1 0xF SIGNEXTEND PUSH16 0xFFFFFFFFFFFFFFFFFFFFFFFFFFFFFFFF AND MUL OR SWAP1 SSTORE POP POP POP POP JUMP JUMPDEST PUSH1 0x60 PUSH0 DUP1 PUSH0 DUP1 PUSH0 DUP1 PUSH0 SWAP1 POP JUMPDEST PUSH0 PUSH1 0x10 SWAP1 SLOAD SWAP1 PUSH2 0x100 EXP SWAP1 DIV PUSH1 0xFF AND PUSH1 0xFF AND DUP2 LT ISZERO PUSH2 0x3D1 JUMPI DUP8 PUSH1 0x40 MLOAD PUSH1 0x20 ADD PUSH2 0x1E5 SWAP2 SWAP1 PUSH2 0xD88 JUMP JUMPDEST PUSH1 0x40 MLOAD PUSH1 0x20 DUP2 DUP4 SUB SUB DUP2 MSTORE SWAP1 PUSH1 0x40 MSTORE DUP1 MLOAD SWAP1 PUSH1 0x20 ADD KECCAK256 PUSH1 0x1 PUSH0 DUP4 DUP2 MSTORE PUSH1 0x20 ADD SWAP1 DUP2 MSTORE PUSH1 0x20 ADD PUSH0 KECCAK256 PUSH1 0x1 ADD PUSH0 SWAP1 SLOAD SWAP1 PUSH2 0x100 EXP SWAP1 DIV PUSH20 0xFFFFFFFFFFFFFFFFFFFFFFFFFFFFFFFFFFFFFFFF AND PUSH1 0x40 MLOAD PUSH1 0x20 ADD PUSH2 0x23F SWAP2 SWAP1 PUSH2 0xD88 JUMP JUMPDEST PUSH1 0x40 MLOAD PUSH1 0x20 DUP2 DUP4 SUB SUB DUP2 MSTORE SWAP1 PUSH1 0x40 MSTORE DUP1 MLOAD SWAP1 PUSH1 0x20 ADD KECCAK256 SUB PUSH2 0x3C4 JUMPI PUSH1 0x1 PUSH0 DUP3 DUP2 MSTORE PUSH1 0x20 ADD SWAP1 DUP2 MSTORE PUSH1 0x20 ADD PUSH0 KECCAK256 PUSH1 0x2 ADD PUSH1 0x1 PUSH0 DUP4 DUP2 MSTORE PUSH1 0x20 ADD SWAP1 DUP2 MSTORE PUSH1 0x20 ADD PUSH0 KECCAK256 PUSH1 0x1 ADD PUSH0 SWAP1 SLOAD SWAP1 PUSH2 0x100 EXP SWAP1 DIV PUSH20 0xFFFFFFFFFFFFFFFFFFFFFFFFFFFFFFFFFFFFFFFF AND PUSH1 0x1 PUSH0 DUP5 DUP2 MSTORE PUSH1 0x20 ADD SWAP1 DUP2 MSTORE PUSH1 0x20 ADD PUSH0 KECCAK256 PUSH1 0x3 ADD PUSH0 SWAP1 SLOAD SWAP1 PUSH2 0x100 EXP SWAP1 DIV PUSH1 0xF SIGNEXTEND PUSH1 0x1 PUSH0 DUP6 DUP2 MSTORE PUSH1 0x20 ADD SWAP1 DUP2 MSTORE PUSH1 0x20 ADD PUSH0 KECCAK256 PUSH1 0x3 ADD PUSH1 0x10 SWAP1 SLOAD SWAP1 PUSH2 0x100 EXP SWAP1 DIV PUSH1 0xF SIGNEXTEND PUSH1 0x1 PUSH0 DUP7 DUP2 MSTORE PUSH1 0x20 ADD SWAP1 DUP2 MSTORE PUSH1 0x20 ADD PUSH0 KECCAK256 PUSH1 0x4 ADD PUSH0 SWAP1 SLOAD SWAP1 PUSH2 0x100 EXP SWAP1 DIV PUSH1 0xF SIGNEXTEND PUSH1 0x1 PUSH0 DUP8 DUP2 MSTORE PUSH1 0x20 ADD SWAP1 DUP2 MSTORE PUSH1 0x20 ADD PUSH0 KECCAK256 PUSH1 0x4 ADD PUSH1 0x10 SWAP1 SLOAD SWAP1 PUSH2 0x100 EXP SWAP1 DIV PUSH1 0xFF AND DUP6 DUP1 SLOAD PUSH2 0x334 SWAP1 PUSH2 0xDCF JUMP JUMPDEST DUP1 PUSH1 0x1F ADD PUSH1 0x20 DUP1 SWAP2 DIV MUL PUSH1 0x20 ADD PUSH1 0x40 MLOAD SWAP1 DUP2 ADD PUSH1 0x40 MSTORE DUP1 SWAP3 SWAP2 SWAP1 DUP2 DUP2 MSTORE PUSH1 0x20 ADD DUP3 DUP1 SLOAD PUSH2 0x360 SWAP1 PUSH2 0xDCF JUMP JUMPDEST DUP1 ISZERO PUSH2 0x3AB JUMPI DUP1 PUSH1 0x1F LT PUSH2 0x382 JUMPI PUSH2 0x100 DUP1 DUP4 SLOAD DIV MUL DUP4 MSTORE SWAP2 PUSH1 0x20 ADD SWAP2 PUSH2 0x3AB JUMP JUMPDEST DUP3 ADD SWAP2 SWAP1 PUSH0 MSTORE PUSH1 0x20 PUSH0 KECCAK256 SWAP1 JUMPDEST DUP2 SLOAD DUP2 MSTORE SWAP1 PUSH1 0x1 ADD SWAP1 PUSH1 0x20 ADD DUP1 DUP4 GT PUSH2 0x38E JUMPI DUP3 SWAP1 SUB PUSH1 0x1F AND DUP3 ADD SWAP2 JUMPDEST POP POP POP POP POP SWAP6 POP SWAP7 POP SWAP7 POP SWAP7 POP SWAP7 POP SWAP7 POP SWAP7 POP POP PUSH2 0x40D JUMP JUMPDEST DUP1 DUP1 PUSH1 0x1 ADD SWAP2 POP POP PUSH2 0x1BB JUMP JUMPDEST POP PUSH1 0x40 MLOAD PUSH32 0x8C379A000000000000000000000000000000000000000000000000000000000 DUP2 MSTORE PUSH1 0x4 ADD PUSH2 0x404 SWAP1 PUSH2 0xE49 JUMP JUMPDEST PUSH1 0x40 MLOAD DUP1 SWAP2 SUB SWAP1 REVERT JUMPDEST SWAP2 SWAP4 SWAP6 POP SWAP2 SWAP4 SWAP6 JUMP JUMPDEST PUSH0 DUP1 PUSH1 0x60 PUSH0 JUMPDEST PUSH0 DUP1 SLOAD SWAP1 PUSH2 0x100 EXP SWAP1 DIV PUSH16 0xFFFFFFFFFFFFFFFFFFFFFFFFFFFFFFFF AND PUSH16 0xFFFFFFFFFFFFFFFFFFFFFFFFFFFFFFFF AND DUP2 LT ISZERO PUSH2 0x5B8 JUMPI DUP6 DUP6 PUSH1 0x40 MLOAD PUSH1 0x20 ADD PUSH2 0x464 SWAP3 SWAP2 SWAP1 PUSH2 0xEA3 JUMP JUMPDEST PUSH1 0x40 MLOAD PUSH1 0x20 DUP2 DUP4 SUB SUB DUP2 MSTORE SWAP1 PUSH1 0x40 MSTORE DUP1 MLOAD SWAP1 PUSH1 0x20 ADD KECCAK256 PUSH1 0x1 PUSH0 DUP4 DUP2 MSTORE PUSH1 0x20 ADD SWAP1 DUP2 MSTORE PUSH1 0x20 ADD PUSH0 KECCAK256 PUSH1 0x2 ADD PUSH1 0x40 MLOAD PUSH1 0x20 ADD PUSH2 0x49E SWAP2 SWAP1 PUSH2 0xF4D JUMP JUMPDEST PUSH1 0x40 MLOAD PUSH1 0x20 DUP2 DUP4 SUB SUB DUP2 MSTORE SWAP1 PUSH1 0x40 MSTORE DUP1 MLOAD SWAP1 PUSH1 0x20 ADD KECCAK256 SUB PUSH2 0x5AB JUMPI PUSH1 0x1 PUSH0 DUP3 DUP2 MSTORE PUSH1 0x20 ADD SWAP1 DUP2 MSTORE PUSH1 0x20 ADD PUSH0 KECCAK256 PUSH0 ADD SLOAD PUSH1 0x1 PUSH0 DUP4 DUP2 MSTORE PUSH1 0x20 ADD SWAP1 DUP2 MSTORE PUSH1 0x20 ADD PUSH0 KECCAK256 PUSH1 0x1 ADD PUSH0 SWAP1 SLOAD SWAP1 PUSH2 0x100 EXP SWAP1 DIV PUSH20 0xFFFFFFFFFFFFFFFFFFFFFFFFFFFFFFFFFFFFFFFF AND PUSH1 0x1 PUSH0 DUP5 DUP2 MSTORE PUSH1 0x20 ADD SWAP1 DUP2 MSTORE PUSH1 0x20 ADD PUSH0 KECCAK256 PUSH1 0x2 ADD DUP1 DUP1 SLOAD PUSH2 0x521 SWAP1 PUSH2 0xDCF JUMP JUMPDEST DUP1 PUSH1 0x1F ADD PUSH1 0x20 DUP1 SWAP2 DIV MUL PUSH1 0x20 ADD PUSH1 0x40 MLOAD SWAP1 DUP2 ADD PUSH1 0x40 MSTORE DUP1 SWAP3 SWAP2 SWAP1 DUP2 DUP2 MSTORE PUSH1 0x20 ADD DUP3 DUP1 SLOAD PUSH2 0x54D SWAP1 PUSH2 0xDCF JUMP JUMPDEST DUP1 ISZERO PUSH2 0x598 JUMPI DUP1 PUSH1 0x1F LT PUSH2 0x56F JUMPI PUSH2 0x100 DUP1 DUP4 SLOAD DIV MUL DUP4 MSTORE SWAP2 PUSH1 0x20 ADD SWAP2 PUSH2 0x598 JUMP JUMPDEST DUP3 ADD SWAP2 SWAP1 PUSH0 MSTORE PUSH1 0x20 PUSH0 KECCAK256 SWAP1 JUMPDEST DUP2 SLOAD DUP2 MSTORE SWAP1 PUSH1 0x1 ADD SWAP1 PUSH1 0x20 ADD DUP1 DUP4 GT PUSH2 0x57B JUMPI DUP3 SWAP1 SUB PUSH1 0x1F AND DUP3 ADD SWAP2 JUMPDEST POP POP POP POP POP SWAP1 POP SWAP4 POP SWAP4 POP SWAP4 POP POP PUSH2 0x5F4 JUMP JUMPDEST DUP1 DUP1 PUSH1 0x1 ADD SWAP2 POP POP PUSH2 0x41C JUMP JUMPDEST POP PUSH1 0x40 MLOAD PUSH32 0x8C379A000000000000000000000000000000000000000000000000000000000 DUP2 MSTORE PUSH1 0x4 ADD PUSH2 0x5EB SWAP1 PUSH2 0xFAD JUMP JUMPDEST PUSH1 0x40 MLOAD DUP1 SWAP2 SUB SWAP1 REVERT JUMPDEST SWAP3 POP SWAP3 POP SWAP3 JUMP JUMPDEST PUSH0 PUSH1 0x40 MLOAD DUP1 PUSH1 0xE0 ADD PUSH1 0x40 MSTORE DUP1 PUSH0 DUP1 SLOAD SWAP1 PUSH2 0x100 EXP SWAP1 DIV PUSH16 0xFFFFFFFFFFFFFFFFFFFFFFFFFFFFFFFF AND PUSH16 0xFFFFFFFFFFFFFFFFFFFFFFFFFFFFFFFF AND DUP2 MSTORE PUSH1 0x20 ADD CALLER PUSH20 0xFFFFFFFFFFFFFFFFFFFFFFFFFFFFFFFFFFFFFFFF AND DUP2 MSTORE PUSH1 0x20 ADD DUP5 DUP5 DUP1 DUP1 PUSH1 0x1F ADD PUSH1 0x20 DUP1 SWAP2 DIV MUL PUSH1 0x20 ADD PUSH1 0x40 MLOAD SWAP1 DUP2 ADD PUSH1 0x40 MSTORE DUP1 SWAP4 SWAP3 SWAP2 SWAP1 DUP2 DUP2 MSTORE PUSH1 0x20 ADD DUP4 DUP4 DUP1 DUP3 DUP5 CALLDATACOPY PUSH0 DUP2 DUP5 ADD MSTORE PUSH1 0x1F NOT PUSH1 0x1F DUP3 ADD AND SWAP1 POP DUP1 DUP4 ADD SWAP3 POP POP POP POP POP POP POP DUP2 MSTORE PUSH1 0x20 ADD PUSH0 PUSH1 0xF SIGNEXTEND DUP2 MSTORE PUSH1 0x20 ADD PUSH0 PUSH1 0xF SIGNEXTEND DUP2 MSTORE PUSH1 0x20 ADD PUSH0 PUSH1 0xF SIGNEXTEND DUP2 MSTORE PUSH1 0x20 ADD PUSH0 PUSH1 0x10 SWAP1 SLOAD SWAP1 PUSH2 0x100 EXP SWAP1 DIV PUSH1 0xFF AND PUSH1 0xFF AND DUP2 MSTORE POP PUSH1 0x1 PUSH0 DUP1 PUSH0 SWAP1 SLOAD SWAP1 PUSH2 0x100 EXP SWAP1 DIV PUSH16 0xFFFFFFFFFFFFFFFFFFFFFFFFFFFFFFFF AND PUSH16 0xFFFFFFFFFFFFFFFFFFFFFFFFFFFFFFFF AND DUP2 MSTORE PUSH1 0x20 ADD SWAP1 DUP2 MSTORE PUSH1 0x20 ADD PUSH0 KECCAK256 PUSH0 DUP3 ADD MLOAD DUP2 PUSH0 ADD SSTORE PUSH1 0x20 DUP3 ADD MLOAD DUP2 PUSH1 0x1 ADD PUSH0 PUSH2 0x100 EXP DUP2 SLOAD DUP2 PUSH20 0xFFFFFFFFFFFFFFFFFFFFFFFFFFFFFFFFFFFFFFFF MUL NOT AND SWAP1 DUP4 PUSH20 0xFFFFFFFFFFFFFFFFFFFFFFFFFFFFFFFFFFFFFFFF AND MUL OR SWAP1 SSTORE POP PUSH1 0x40 DUP3 ADD MLOAD DUP2 PUSH1 0x2 ADD SWAP1 DUP2 PUSH2 0x771 SWAP2 SWAP1 PUSH2 0x1183 JUMP JUMPDEST POP PUSH1 0x60 DUP3 ADD MLOAD DUP2 PUSH1 0x3 ADD PUSH0 PUSH2 0x100 EXP DUP2 SLOAD DUP2 PUSH16 0xFFFFFFFFFFFFFFFFFFFFFFFFFFFFFFFF MUL NOT AND SWAP1 DUP4 PUSH1 0xF SIGNEXTEND PUSH16 0xFFFFFFFFFFFFFFFFFFFFFFFFFFFFFFFF AND MUL OR SWAP1 SSTORE POP PUSH1 0x80 DUP3 ADD MLOAD DUP2 PUSH1 0x3 ADD PUSH1 0x10 PUSH2 0x100 EXP DUP2 SLOAD DUP2 PUSH16 0xFFFFFFFFFFFFFFFFFFFFFFFFFFFFFFFF MUL NOT AND SWAP1 DUP4 PUSH1 0xF SIGNEXTEND PUSH16 0xFFFFFFFFFFFFFFFFFFFFFFFFFFFFFFFF AND MUL OR SWAP1 SSTORE POP PUSH1 0xA0 DUP3 ADD MLOAD DUP2 PUSH1 0x4 ADD PUSH0 PUSH2 0x100 EXP DUP2 SLOAD DUP2 PUSH16 0xFFFFFFFFFFFFFFFFFFFFFFFFFFFFFFFF MUL NOT AND SWAP1 DUP4 PUSH1 0xF SIGNEXTEND PUSH16 0xFFFFFFFFFFFFFFFFFFFFFFFFFFFFFFFF AND MUL OR SWAP1 SSTORE POP PUSH1 0xC0 DUP3 ADD MLOAD DUP2 PUSH1 0x4 ADD PUSH1 0x10 PUSH2 0x100 EXP DUP2 SLOAD DUP2 PUSH1 0xFF MUL NOT AND SWAP1 DUP4 PUSH1 0xFF AND MUL OR SWAP1 SSTORE POP SWAP1 POP POP PUSH0 DUP1 SLOAD SWAP1 PUSH2 0x100 EXP SWAP1 DIV PUSH16 0xFFFFFFFFFFFFFFFFFFFFFFFFFFFFFFFF AND PUSH16 0xFFFFFFFFFFFFFFFFFFFFFFFFFFFFFFFF AND PUSH1 0x2 PUSH0 CALLER PUSH20 0xFFFFFFFFFFFFFFFFFFFFFFFFFFFFFFFFFFFFFFFF AND PUSH20 0xFFFFFFFFFFFFFFFFFFFFFFFFFFFFFFFFFFFFFFFF AND DUP2 MSTORE PUSH1 0x20 ADD SWAP1 DUP2 MSTORE PUSH1 0x20 ADD PUSH0 KECCAK256 DUP2 SWAP1 SSTORE POP PUSH0 DUP1 DUP2 DUP2 SWAP1 SLOAD SWAP1 PUSH2 0x100 EXP SWAP1 DIV PUSH16 0xFFFFFFFFFFFFFFFFFFFFFFFFFFFFFFFF AND DUP1 SWAP3 SWAP2 SWAP1 PUSH2 0x8F5 SWAP1 PUSH2 0x126D JUMP JUMPDEST SWAP2 SWAP1 PUSH2 0x100 EXP DUP2 SLOAD DUP2 PUSH16 0xFFFFFFFFFFFFFFFFFFFFFFFFFFFFFFFF MUL NOT AND SWAP1 DUP4 PUSH16 0xFFFFFFFFFFFFFFFFFFFFFFFFFFFFFFFF AND MUL OR SWAP1 SSTORE POP POP PUSH0 PUSH1 0x10 DUP2 DUP2 SWAP1 SLOAD SWAP1 PUSH2 0x100 EXP SWAP1 DIV PUSH1 0xFF AND DUP1 SWAP3 SWAP2 SWAP1 PUSH2 0x94A SWAP1 PUSH2 0x12A4 JUMP JUMPDEST SWAP2 SWAP1 PUSH2 0x100 EXP DUP2 SLOAD DUP2 PUSH1 0xFF MUL NOT AND SWAP1 DUP4 PUSH1 0xFF AND MUL OR SWAP1 SSTORE POP POP CALLER SWAP1 POP SWAP3 SWAP2 POP POP JUMP JUMPDEST PUSH0 DUP1 REVERT JUMPDEST PUSH0 DUP1 REVERT JUMPDEST PUSH0 PUSH20 0xFFFFFFFFFFFFFFFFFFFFFFFFFFFFFFFFFFFFFFFF DUP3 AND SWAP1 POP SWAP2 SWAP1 POP JUMP JUMPDEST PUSH0 PUSH2 0x99D DUP3 PUSH2 0x974 JUMP JUMPDEST SWAP1 POP SWAP2 SWAP1 POP JUMP JUMPDEST PUSH2 0x9AD DUP2 PUSH2 0x993 JUMP JUMPDEST DUP2 EQ PUSH2 0x9B7 JUMPI PUSH0 DUP1 REVERT JUMPDEST POP JUMP JUMPDEST PUSH0 DUP2 CALLDATALOAD SWAP1 POP PUSH2 0x9C8 DUP2 PUSH2 0x9A4 JUMP JUMPDEST SWAP3 SWAP2 POP POP JUMP JUMPDEST PUSH0 DUP2 PUSH1 0xF SIGNEXTEND SWAP1 POP SWAP2 SWAP1 POP JUMP JUMPDEST PUSH2 0x9E3 DUP2 PUSH2 0x9CE JUMP JUMPDEST DUP2 EQ PUSH2 0x9ED JUMPI PUSH0 DUP1 REVERT JUMPDEST POP JUMP JUMPDEST PUSH0 DUP2 CALLDATALOAD SWAP1 POP PUSH2 0x9FE DUP2 PUSH2 0x9DA JUMP JUMPDEST SWAP3 SWAP2 POP POP JUMP JUMPDEST PUSH0 DUP1 PUSH1 0x40 DUP4 DUP6 SUB SLT ISZERO PUSH2 0xA1A JUMPI PUSH2 0xA19 PUSH2 0x96C JUMP JUMPDEST JUMPDEST PUSH0 PUSH2 0xA27 DUP6 DUP3 DUP7 ADD PUSH2 0x9BA JUMP JUMPDEST SWAP3 POP POP PUSH1 0x20 PUSH2 0xA38 DUP6 DUP3 DUP7 ADD PUSH2 0x9F0 JUMP JUMPDEST SWAP2 POP POP SWAP3 POP SWAP3 SWAP1 POP JUMP JUMPDEST PUSH0 PUSH1 0x20 DUP3 DUP5 SUB SLT ISZERO PUSH2 0xA57 JUMPI PUSH2 0xA56 PUSH2 0x96C JUMP JUMPDEST JUMPDEST PUSH0 PUSH2 0xA64 DUP5 DUP3 DUP6 ADD PUSH2 0x9BA JUMP JUMPDEST SWAP2 POP POP SWAP3 SWAP2 POP POP JUMP JUMPDEST PUSH0 DUP2 MLOAD SWAP1 POP SWAP2 SWAP1 POP JUMP JUMPDEST PUSH0 DUP3 DUP3 MSTORE PUSH1 0x20 DUP3 ADD SWAP1 POP SWAP3 SWAP2 POP POP JUMP JUMPDEST PUSH0 JUMPDEST DUP4 DUP2 LT ISZERO PUSH2 0xAA4 JUMPI DUP1 DUP3 ADD MLOAD DUP2 DUP5 ADD MSTORE PUSH1 0x20 DUP2 ADD SWAP1 POP PUSH2 0xA89 JUMP JUMPDEST PUSH0 DUP5 DUP5 ADD MSTORE POP POP POP POP JUMP JUMPDEST PUSH0 PUSH1 0x1F NOT PUSH1 0x1F DUP4 ADD AND SWAP1 POP SWAP2 SWAP1 POP JUMP JUMPDEST PUSH0 PUSH2 0xAC9 DUP3 PUSH2 0xA6D JUMP JUMPDEST PUSH2 0xAD3 DUP2 DUP6 PUSH2 0xA77 JUMP JUMPDEST SWAP4 POP PUSH2 0xAE3 DUP2 DUP6 PUSH1 0x20 DUP7 ADD PUSH2 0xA87 JUMP JUMPDEST PUSH2 0xAEC DUP2 PUSH2 0xAAF JUMP JUMPDEST DUP5 ADD SWAP2 POP POP SWAP3 SWAP2 POP POP JUMP JUMPDEST PUSH2 0xB00 DUP2 PUSH2 0x993 JUMP JUMPDEST DUP3 MSTORE POP POP JUMP JUMPDEST PUSH2 0xB0F DUP2 PUSH2 0x9CE JUMP JUMPDEST DUP3 MSTORE POP POP JUMP JUMPDEST PUSH0 PUSH1 0xFF DUP3 AND SWAP1 POP SWAP2 SWAP1 POP JUMP JUMPDEST PUSH2 0xB2A DUP2 PUSH2 0xB15 JUMP JUMPDEST DUP3 MSTORE POP POP JUMP JUMPDEST PUSH0 PUSH1 0xC0 DUP3 ADD SWAP1 POP DUP2 DUP2 SUB PUSH0 DUP4 ADD MSTORE PUSH2 0xB48 DUP2 DUP10 PUSH2 0xABF JUMP JUMPDEST SWAP1 POP PUSH2 0xB57 PUSH1 0x20 DUP4 ADD DUP9 PUSH2 0xAF7 JUMP JUMPDEST PUSH2 0xB64 PUSH1 0x40 DUP4 ADD DUP8 PUSH2 0xB06 JUMP JUMPDEST PUSH2 0xB71 PUSH1 0x60 DUP4 ADD DUP7 PUSH2 0xB06 JUMP JUMPDEST PUSH2 0xB7E PUSH1 0x80 DUP4 ADD DUP6 PUSH2 0xB06 JUMP JUMPDEST PUSH2 0xB8B PUSH1 0xA0 DUP4 ADD DUP5 PUSH2 0xB21 JUMP JUMPDEST SWAP8 SWAP7 POP POP POP POP POP POP POP JUMP JUMPDEST PUSH0 DUP1 REVERT JUMPDEST PUSH0 DUP1 REVERT JUMPDEST PUSH0 DUP1 REVERT JUMPDEST PUSH0 DUP1 DUP4 PUSH1 0x1F DUP5 ADD SLT PUSH2 0xBB7 JUMPI PUSH2 0xBB6 PUSH2 0xB96 JUMP JUMPDEST JUMPDEST DUP3 CALLDATALOAD SWAP1 POP PUSH8 0xFFFFFFFFFFFFFFFF DUP2 GT ISZERO PUSH2 0xBD4 JUMPI PUSH2 0xBD3 PUSH2 0xB9A JUMP JUMPDEST JUMPDEST PUSH1 0x20 DUP4 ADD SWAP2 POP DUP4 PUSH1 0x1 DUP3 MUL DUP4 ADD GT ISZERO PUSH2 0xBF0 JUMPI PUSH2 0xBEF PUSH2 0xB9E JUMP JUMPDEST JUMPDEST SWAP3 POP SWAP3 SWAP1 POP JUMP JUMPDEST PUSH0 DUP1 PUSH1 0x20 DUP4 DUP6 SUB SLT ISZERO PUSH2 0xC0D JUMPI PUSH2 0xC0C PUSH2 0x96C JUMP JUMPDEST JUMPDEST PUSH0 DUP4 ADD CALLDATALOAD PUSH8 0xFFFFFFFFFFFFFFFF DUP2 GT ISZERO PUSH2 0xC2A JUMPI PUSH2 0xC29 PUSH2 0x970 JUMP JUMPDEST JUMPDEST PUSH2 0xC36 DUP6 DUP3 DUP7 ADD PUSH2 0xBA2 JUMP JUMPDEST SWAP3 POP SWAP3 POP POP SWAP3 POP SWAP3 SWAP1 POP JUMP JUMPDEST PUSH0 DUP2 SWAP1 POP SWAP2 SWAP1 POP JUMP JUMPDEST PUSH2 0xC54 DUP2 PUSH2 0xC42 JUMP JUMPDEST DUP3 MSTORE POP POP JUMP JUMPDEST PUSH0 PUSH1 0x60 DUP3 ADD SWAP1 POP PUSH2 0xC6D PUSH0 DUP4 ADD DUP7 PUSH2 0xC4B JUMP JUMPDEST PUSH2 0xC7A PUSH1 0x20 DUP4 ADD DUP6 PUSH2 0xAF7 JUMP JUMPDEST DUP2 DUP2 SUB PUSH1 0x40 DUP4 ADD MSTORE PUSH2 0xC8C DUP2 DUP5 PUSH2 0xABF JUMP JUMPDEST SWAP1 POP SWAP5 SWAP4 POP POP POP POP JUMP JUMPDEST PUSH0 PUSH1 0x20 DUP3 ADD SWAP1 POP PUSH2 0xCA9 PUSH0 DUP4 ADD DUP5 PUSH2 0xAF7 JUMP JUMPDEST SWAP3 SWAP2 POP POP JUMP JUMPDEST PUSH32 0x4E487B7100000000000000000000000000000000000000000000000000000000 PUSH0 MSTORE PUSH1 0x11 PUSH1 0x4 MSTORE PUSH1 0x24 PUSH0 REVERT JUMPDEST PUSH0 PUSH2 0xCE6 DUP3 PUSH2 0x9CE JUMP JUMPDEST SWAP2 POP PUSH2 0xCF1 DUP4 PUSH2 0x9CE JUMP JUMPDEST SWAP3 POP DUP3 DUP3 ADD SWAP1 POP PUSH32 0xFFFFFFFFFFFFFFFFFFFFFFFFFFFFFFFF80000000000000000000000000000000 DUP2 SLT PUSH16 0x7FFFFFFFFFFFFFFFFFFFFFFFFFFFFFFF DUP3 SGT OR ISZERO PUSH2 0xD3D JUMPI PUSH2 0xD3C PUSH2 0xCAF JUMP JUMPDEST JUMPDEST SWAP3 SWAP2 POP POP JUMP JUMPDEST PUSH0 DUP2 PUSH1 0x60 SHL SWAP1 POP SWAP2 SWAP1 POP JUMP JUMPDEST PUSH0 PUSH2 0xD59 DUP3 PUSH2 0xD43 JUMP JUMPDEST SWAP1 POP SWAP2 SWAP1 POP JUMP JUMPDEST PUSH0 PUSH2 0xD6A DUP3 PUSH2 0xD4F JUMP JUMPDEST SWAP1 POP SWAP2 SWAP1 POP JUMP JUMPDEST PUSH2 0xD82 PUSH2 0xD7D DUP3 PUSH2 0x993 JUMP JUMPDEST PUSH2 0xD60 JUMP JUMPDEST DUP3 MSTORE POP POP JUMP JUMPDEST PUSH0 PUSH2 0xD93 DUP3 DUP5 PUSH2 0xD71 JUMP JUMPDEST PUSH1 0x14 DUP3 ADD SWAP2 POP DUP2 SWAP1 POP SWAP3 SWAP2 POP POP JUMP JUMPDEST PUSH32 0x4E487B7100000000000000000000000000000000000000000000000000000000 PUSH0 MSTORE PUSH1 0x22 PUSH1 0x4 MSTORE PUSH1 0x24 PUSH0 REVERT JUMPDEST PUSH0 PUSH1 0x2 DUP3 DIV SWAP1 POP PUSH1 0x1 DUP3 AND DUP1 PUSH2 0xDE6 JUMPI PUSH1 0x7F DUP3 AND SWAP2 POP JUMPDEST PUSH1 0x20 DUP3 LT DUP2 SUB PUSH2 0xDF9 JUMPI PUSH2 0xDF8 PUSH2 0xDA2 JUMP JUMPDEST JUMPDEST POP SWAP2 SWAP1 POP JUMP JUMPDEST PUSH32 0x57616C6C6574206E6F7420666F756E6400000000000000000000000000000000 PUSH0 DUP3 ADD MSTORE POP JUMP JUMPDEST PUSH0 PUSH2 0xE33 PUSH1 0x10 DUP4 PUSH2 0xA77 JUMP JUMPDEST SWAP2 POP PUSH2 0xE3E DUP3 PUSH2 0xDFF JUMP JUMPDEST PUSH1 0x20 DUP3 ADD SWAP1 POP SWAP2 SWAP1 POP JUMP JUMPDEST PUSH0 PUSH1 0x20 DUP3 ADD SWAP1 POP DUP2 DUP2 SUB PUSH0 DUP4 ADD MSTORE PUSH2 0xE60 DUP2 PUSH2 0xE27 JUMP JUMPDEST SWAP1 POP SWAP2 SWAP1 POP JUMP JUMPDEST PUSH0 DUP2 SWAP1 POP SWAP3 SWAP2 POP POP JUMP JUMPDEST DUP3 DUP2 DUP4 CALLDATACOPY PUSH0 DUP4 DUP4 ADD MSTORE POP POP POP JUMP JUMPDEST PUSH0 PUSH2 0xE8A DUP4 DUP6 PUSH2 0xE67 JUMP JUMPDEST SWAP4 POP PUSH2 0xE97 DUP4 DUP6 DUP5 PUSH2 0xE71 JUMP JUMPDEST DUP3 DUP5 ADD SWAP1 POP SWAP4 SWAP3 POP POP POP JUMP JUMPDEST PUSH0 PUSH2 0xEAF DUP3 DUP5 DUP7 PUSH2 0xE7F JUMP JUMPDEST SWAP2 POP DUP2 SWAP1 POP SWAP4 SWAP3 POP POP POP JUMP JUMPDEST PUSH0 DUP2 SWAP1 POP DUP2 PUSH0 MSTORE PUSH1 0x20 PUSH0 KECCAK256 SWAP1 POP SWAP2 SWAP1 POP JUMP JUMPDEST PUSH0 DUP2 SLOAD PUSH2 0xED9 DUP2 PUSH2 0xDCF JUMP JUMPDEST PUSH2 0xEE3 DUP2 DUP7 PUSH2 0xE67 JUMP JUMPDEST SWAP5 POP PUSH1 0x1 DUP3 AND PUSH0 DUP2 EQ PUSH2 0xEFD JUMPI PUSH1 0x1 DUP2 EQ PUSH2 0xF12 JUMPI PUSH2 0xF44 JUMP JUMPDEST PUSH1 0xFF NOT DUP4 AND DUP7 MSTORE DUP2 ISZERO ISZERO DUP3 MUL DUP7 ADD SWAP4 POP PUSH2 0xF44 JUMP JUMPDEST PUSH2 0xF1B DUP6 PUSH2 0xEBB JUMP JUMPDEST PUSH0 JUMPDEST DUP4 DUP2 LT ISZERO PUSH2 0xF3C JUMPI DUP2 SLOAD DUP2 DUP10 ADD MSTORE PUSH1 0x1 DUP3 ADD SWAP2 POP PUSH1 0x20 DUP2 ADD SWAP1 POP PUSH2 0xF1D JUMP JUMPDEST DUP4 DUP9 ADD SWAP6 POP POP POP JUMPDEST POP POP POP SWAP3 SWAP2 POP POP JUMP JUMPDEST PUSH0 PUSH2 0xF58 DUP3 DUP5 PUSH2 0xECD JUMP JUMPDEST SWAP2 POP DUP2 SWAP1 POP SWAP3 SWAP2 POP POP JUMP JUMPDEST PUSH32 0x55736572206E6F7420666F756E64000000000000000000000000000000000000 PUSH0 DUP3 ADD MSTORE POP JUMP JUMPDEST PUSH0 PUSH2 0xF97 PUSH1 0xE DUP4 PUSH2 0xA77 JUMP JUMPDEST SWAP2 POP PUSH2 0xFA2 DUP3 PUSH2 0xF63 JUMP JUMPDEST PUSH1 0x20 DUP3 ADD SWAP1 POP SWAP2 SWAP1 POP JUMP JUMPDEST PUSH0 PUSH1 0x20 DUP3 ADD SWAP1 POP DUP2 DUP2 SUB PUSH0 DUP4 ADD MSTORE PUSH2 0xFC4 DUP2 PUSH2 0xF8B JUMP JUMPDEST SWAP1 POP SWAP2 SWAP1 POP JUMP JUMPDEST PUSH32 0x4E487B7100000000000000000000000000000000000000000000000000000000 PUSH0 MSTORE PUSH1 0x41 PUSH1 0x4 MSTORE PUSH1 0x24 PUSH0 REVERT JUMPDEST PUSH0 PUSH1 0x20 PUSH1 0x1F DUP4 ADD DIV SWAP1 POP SWAP2 SWAP1 POP JUMP JUMPDEST PUSH0 DUP3 DUP3 SHL SWAP1 POP SWAP3 SWAP2 POP POP JUMP JUMPDEST PUSH0 PUSH1 0x8 DUP4 MUL PUSH2 0x1042 PUSH32 0xFFFFFFFFFFFFFFFFFFFFFFFFFFFFFFFFFFFFFFFFFFFFFFFFFFFFFFFFFFFFFFFF DUP3 PUSH2 0x1007 JUMP JUMPDEST PUSH2 0x104C DUP7 DUP4 PUSH2 0x1007 JUMP JUMPDEST SWAP6 POP DUP1 NOT DUP5 AND SWAP4 POP DUP1 DUP7 AND DUP5 OR SWAP3 POP POP POP SWAP4 SWAP3 POP POP POP JUMP JUMPDEST PUSH0 DUP2 SWAP1 POP SWAP2 SWAP1 POP JUMP JUMPDEST PUSH0 PUSH2 0x1087 PUSH2 0x1082 PUSH2 0x107D DUP5 PUSH2 0xC42 JUMP JUMPDEST PUSH2 0x1064 JUMP JUMPDEST PUSH2 0xC42 JUMP JUMPDEST SWAP1 POP SWAP2 SWAP1 POP JUMP JUMPDEST PUSH0 DUP2 SWAP1 POP SWAP2 SWAP1 POP JUMP JUMPDEST PUSH2 0x10A0 DUP4 PUSH2 0x106D JUMP JUMPDEST PUSH2 0x10B4 PUSH2 0x10AC DUP3 PUSH2 0x108E JUMP JUMPDEST DUP5 DUP5 SLOAD PUSH2 0x1013 JUMP JUMPDEST DUP3 SSTORE POP POP POP POP JUMP JUMPDEST PUSH0 SWAP1 JUMP JUMPDEST PUSH2 0x10C8 PUSH2 0x10BC JUMP JUMPDEST PUSH2 0x10D3 DUP2 DUP5 DUP5 PUSH2 0x1097 JUMP JUMPDEST POP POP POP JUMP JUMPDEST JUMPDEST DUP2 DUP2 LT ISZERO PUSH2 0x10F6 JUMPI PUSH2 0x10EB PUSH0 DUP3 PUSH2 0x10C0 JUMP JUMPDEST PUSH1 0x1 DUP2 ADD SWAP1 POP PUSH2 0x10D9 JUMP JUMPDEST POP POP JUMP JUMPDEST PUSH1 0x1F DUP3 GT ISZERO PUSH2 0x113B JUMPI PUSH2 0x110C DUP2 PUSH2 0xEBB JUMP JUMPDEST PUSH2 0x1115 DUP5 PUSH2 0xFF8 JUMP JUMPDEST DUP2 ADD PUSH1 0x20 DUP6 LT ISZERO PUSH2 0x1124 JUMPI DUP2 SWAP1 POP JUMPDEST PUSH2 0x1138 PUSH2 0x1130 DUP6 PUSH2 0xFF8 JUMP JUMPDEST DUP4 ADD DUP3 PUSH2 0x10D8 JUMP JUMPDEST POP POP JUMPDEST POP POP POP JUMP JUMPDEST PUSH0 DUP3 DUP3 SHR SWAP1 POP SWAP3 SWAP2 POP POP JUMP JUMPDEST PUSH0 PUSH2 0x115B PUSH0 NOT DUP5 PUSH1 0x8 MUL PUSH2 0x1140 JUMP JUMPDEST NOT DUP1 DUP4 AND SWAP2 POP POP SWAP3 SWAP2 POP POP JUMP JUMPDEST PUSH0 PUSH2 0x1173 DUP4 DUP4 PUSH2 0x114C JUMP JUMPDEST SWAP2 POP DUP3 PUSH1 0x2 MUL DUP3 OR SWAP1 POP SWAP3 SWAP2 POP POP JUMP JUMPDEST PUSH2 0x118C DUP3 PUSH2 0xA6D JUMP JUMPDEST PUSH8 0xFFFFFFFFFFFFFFFF DUP2 GT ISZERO PUSH2 0x11A5 JUMPI PUSH2 0x11A4 PUSH2 0xFCB JUMP JUMPDEST JUMPDEST PUSH2 0x11AF DUP3 SLOAD PUSH2 0xDCF JUMP JUMPDEST PUSH2 0x11BA DUP3 DUP3 DUP6 PUSH2 0x10FA JUMP JUMPDEST PUSH0 PUSH1 0x20 SWAP1 POP PUSH1 0x1F DUP4 GT PUSH1 0x1 DUP2 EQ PUSH2 0x11EB JUMPI PUSH0 DUP5 ISZERO PUSH2 0x11D9 JUMPI DUP3 DUP8 ADD MLOAD SWAP1 POP JUMPDEST PUSH2 0x11E3 DUP6 DUP3 PUSH2 0x1168 JUMP JUMPDEST DUP7 SSTORE POP PUSH2 0x124A JUMP JUMPDEST PUSH1 0x1F NOT DUP5 AND PUSH2 0x11F9 DUP7 PUSH2 0xEBB JUMP JUMPDEST PUSH0 JUMPDEST DUP3 DUP2 LT ISZERO PUSH2 0x1220 JUMPI DUP5 DUP10 ADD MLOAD DUP3 SSTORE PUSH1 0x1 DUP3 ADD SWAP2 POP PUSH1 0x20 DUP6 ADD SWAP5 POP PUSH1 0x20 DUP2 ADD SWAP1 POP PUSH2 0x11FB JUMP JUMPDEST DUP7 DUP4 LT ISZERO PUSH2 0x123D JUMPI DUP5 DUP10 ADD MLOAD PUSH2 0x1239 PUSH1 0x1F DUP10 AND DUP3 PUSH2 0x114C JUMP JUMPDEST DUP4 SSTORE POP JUMPDEST PUSH1 0x1 PUSH1 0x2 DUP9 MUL ADD DUP9 SSTORE POP POP POP JUMPDEST POP POP POP POP POP POP JUMP JUMPDEST PUSH0 PUSH16 0xFFFFFFFFFFFFFFFFFFFFFFFFFFFFFFFF DUP3 AND SWAP1 POP SWAP2 SWAP1 POP JUMP JUMPDEST PUSH0 PUSH2 0x1277 DUP3 PUSH2 0x1252 JUMP JUMPDEST SWAP2 POP PUSH16 0xFFFFFFFFFFFFFFFFFFFFFFFFFFFFFFFF DUP3 SUB PUSH2 0x1299 JUMPI PUSH2 0x1298 PUSH2 0xCAF JUMP JUMPDEST JUMPDEST PUSH1 0x1 DUP3 ADD SWAP1 POP SWAP2 SWAP1 POP JUMP JUMPDEST PUSH0 PUSH2 0x12AE DUP3 PUSH2 0xB15 JUMP JUMPDEST SWAP2 POP PUSH1 0xFF DUP3 SUB PUSH2 0x12C1 JUMPI PUSH2 0x12C0 PUSH2 0xCAF JUMP JUMPDEST JUMPDEST PUSH1 0x1 DUP3 ADD SWAP1 POP SWAP2 SWAP1 POP JUMP INVALID LOG2 PUSH5 0x6970667358 0x22 SLT KECCAK256 0xCD TIMESTAMP ORIGIN 0xB7 0xCE PUSH8 0x4066AD12D3CC7604 0xBF BASEFEE PUSH13 0x3FDACA3506B9026135FF78183 0xBA 0xD4 PUSH5 0x736F6C6343 STOP ADDMOD XOR STOP CALLER "
				},
				"gasEstimates": {
					"creation": {
						"codeDepositCost": "973200",
						"executionCost": "1012",
						"totalCost": "974212"
					},
					"external": {
						"CreateClient(string)": "infinite",
						"GetClient(string)": "infinite",
						"GetWalletClient(address)": "infinite",
						"IncreaseBalance(address,int128)": "infinite"
					}
				},
				"methodIdentifiers": {
					"CreateClient(string)": "d265a3f3",
					"GetClient(string)": "24e164f7",
					"GetWalletClient(address)": "1a67b98b",
					"IncreaseBalance(address,int128)": "0e9262ac"
				}
			},
			"storageLayout": {
				"storage": [
					{
						"astId": 3,
						"contract": "contracts/1_registerUser_flit.sol:NewClient",
						"label": "incrementValue",
						"offset": 0,
						"slot": "0",
						"type": "t_uint128"
					},
					{
						"astId": 5,
						"contract": "contracts/1_registerUser_flit.sol:NewClient",
						"label": "quantityShare",
						"offset": 16,
						"slot": "0",
						"type": "t_uint8"
					},
					{
						"astId": 25,
						"contract": "contracts/1_registerUser_flit.sol:NewClient",
						"label": "clients",
						"offset": 0,
						"slot": "1",
						"type": "t_mapping(t_uint256,t_struct(Client)20_storage)"
					},
					{
						"astId": 29,
						"contract": "contracts/1_registerUser_flit.sol:NewClient",
						"label": "clientsAddress",
						"offset": 0,
						"slot": "2",
						"type": "t_mapping(t_address,t_uint256)"
					}
				],
				"types": {
					"t_address": {
						"encoding": "inplace",
						"label": "address",
						"numberOfBytes": "20"
					},
					"t_int128": {
						"encoding": "inplace",
						"label": "int128",
						"numberOfBytes": "16"
					},
					"t_mapping(t_address,t_uint256)": {
						"encoding": "mapping",
						"key": "t_address",
						"label": "mapping(address => uint256)",
						"numberOfBytes": "32",
						"value": "t_uint256"
					},
					"t_mapping(t_uint256,t_struct(Client)20_storage)": {
						"encoding": "mapping",
						"key": "t_uint256",
						"label": "mapping(uint256 => struct NewClient.Client)",
						"numberOfBytes": "32",
						"value": "t_struct(Client)20_storage"
					},
					"t_string_storage": {
						"encoding": "bytes",
						"label": "string",
						"numberOfBytes": "32"
					},
					"t_struct(Client)20_storage": {
						"encoding": "inplace",
						"label": "struct NewClient.Client",
						"members": [
							{
								"astId": 7,
								"contract": "contracts/1_registerUser_flit.sol:NewClient",
								"label": "id",
								"offset": 0,
								"slot": "0",
								"type": "t_uint256"
							},
							{
								"astId": 9,
								"contract": "contracts/1_registerUser_flit.sol:NewClient",
								"label": "addr",
								"offset": 0,
								"slot": "1",
								"type": "t_address"
							},
							{
								"astId": 11,
								"contract": "contracts/1_registerUser_flit.sol:NewClient",
								"label": "username",
								"offset": 0,
								"slot": "2",
								"type": "t_string_storage"
							},
							{
								"astId": 13,
								"contract": "contracts/1_registerUser_flit.sol:NewClient",
								"label": "balance",
								"offset": 0,
								"slot": "3",
								"type": "t_int128"
							},
							{
								"astId": 15,
								"contract": "contracts/1_registerUser_flit.sol:NewClient",
								"label": "availableBalance",
								"offset": 16,
								"slot": "3",
								"type": "t_int128"
							},
							{
								"astId": 17,
								"contract": "contracts/1_registerUser_flit.sol:NewClient",
								"label": "found",
								"offset": 0,
								"slot": "4",
								"type": "t_int128"
							},
							{
								"astId": 19,
								"contract": "contracts/1_registerUser_flit.sol:NewClient",
								"label": "quantityShares",
								"offset": 16,
								"slot": "4",
								"type": "t_uint8"
							}
						],
						"numberOfBytes": "160"
					},
					"t_uint128": {
						"encoding": "inplace",
						"label": "uint128",
						"numberOfBytes": "16"
					},
					"t_uint256": {
						"encoding": "inplace",
						"label": "uint256",
						"numberOfBytes": "32"
					},
					"t_uint8": {
						"encoding": "inplace",
						"label": "uint8",
						"numberOfBytes": "1"
					}
				}
			},
			"userdoc": {
				"kind": "user",
				"methods": {},
				"version": 1
			}
		}
	}
}