{
	"contracts/smart-contract_flit.sol": {
		"NewClient": {
			"abi": [
				{
					"inputs": [
						{
							"internalType": "string",
							"name": "_username",
							"type": "string"
						}
					],
					"name": "CreateClient",
					"outputs": [
						{
							"internalType": "address",
							"name": "",
							"type": "address"
						}
					],
					"stateMutability": "nonpayable",
					"type": "function"
				},
				{
					"inputs": [],
					"name": "DecreaseAvailableBalance",
					"outputs": [],
					"stateMutability": "payable",
					"type": "function"
				},
				{
					"inputs": [],
					"name": "DepositFund",
					"outputs": [],
					"stateMutability": "payable",
					"type": "function"
				},
				{
					"inputs": [
						{
							"internalType": "string",
							"name": "_username",
							"type": "string"
						}
					],
					"name": "GetClient",
					"outputs": [
						{
							"internalType": "uint256",
							"name": "",
							"type": "uint256"
						},
						{
							"internalType": "address",
							"name": "",
							"type": "address"
						},
						{
							"internalType": "string",
							"name": "",
							"type": "string"
						},
						{
							"internalType": "uint8",
							"name": "",
							"type": "uint8"
						},
						{
							"internalType": "bool",
							"name": "",
							"type": "bool"
						}
					],
					"stateMutability": "view",
					"type": "function"
				},
				{
					"inputs": [
						{
							"internalType": "address",
							"name": "_addr",
							"type": "address"
						}
					],
					"name": "GetWalletClient",
					"outputs": [
						{
							"internalType": "string",
							"name": "",
							"type": "string"
						},
						{
							"internalType": "address",
							"name": "",
							"type": "address"
						},
						{
							"internalType": "int256",
							"name": "",
							"type": "int256"
						},
						{
							"internalType": "int256",
							"name": "",
							"type": "int256"
						},
						{
							"internalType": "int256",
							"name": "",
							"type": "int256"
						},
						{
							"internalType": "uint8",
							"name": "",
							"type": "uint8"
						},
						{
							"internalType": "bool",
							"name": "",
							"type": "bool"
						}
					],
					"stateMutability": "view",
					"type": "function"
				},
				{
					"inputs": [],
					"name": "InactiveClient",
					"outputs": [],
					"stateMutability": "nonpayable",
					"type": "function"
				},
				{
					"inputs": [],
					"name": "IncreaseAvailableBalance",
					"outputs": [],
					"stateMutability": "payable",
					"type": "function"
				},
				{
					"inputs": [
						{
							"internalType": "address",
							"name": "_addr",
							"type": "address"
						}
					],
					"name": "PaymentClient",
					"outputs": [],
					"stateMutability": "payable",
					"type": "function"
				},
				{
					"inputs": [],
					"name": "ReactiveClient",
					"outputs": [],
					"stateMutability": "nonpayable",
					"type": "function"
				},
				{
					"inputs": [],
					"name": "ToWithdrawFund",
					"outputs": [],
					"stateMutability": "payable",
					"type": "function"
				}
			],
			"devdoc": {
				"kind": "dev",
				"methods": {},
				"version": 1
			},
			"evm": {
				"assembly": "    /* \"contracts/smart-contract_flit.sol\":62:5759  contract NewClient {... */\n  mstore(0x40, 0x80)\n  callvalue\n  dup1\n  iszero\n  tag_1\n  jumpi\n  0x00\n  dup1\n  revert\ntag_1:\n  pop\n  dataSize(sub_0)\n  dup1\n  dataOffset(sub_0)\n  0x00\n  codecopy\n  0x00\n  return\nstop\n\nsub_0: assembly {\n        /* \"contracts/smart-contract_flit.sol\":62:5759  contract NewClient {... */\n      mstore(0x40, 0x80)\n      jumpi(tag_1, lt(calldatasize, 0x04))\n      shr(0xe0, calldataload(0x00))\n      dup1\n      0xab225edc\n      gt\n      tag_12\n      jumpi\n      dup1\n      0xab225edc\n      eq\n      tag_7\n      jumpi\n      dup1\n      0xabf831a3\n      eq\n      tag_8\n      jumpi\n      dup1\n      0xcdcb3389\n      eq\n      tag_9\n      jumpi\n      dup1\n      0xd265a3f3\n      eq\n      tag_10\n      jumpi\n      dup1\n      0xd96940e8\n      eq\n      tag_11\n      jumpi\n      jump(tag_1)\n    tag_12:\n      dup1\n      0x03037e5f\n      eq\n      tag_2\n      jumpi\n      dup1\n      0x1a67b98b\n      eq\n      tag_3\n      jumpi\n      dup1\n      0x24e164f7\n      eq\n      tag_4\n      jumpi\n      dup1\n      0x593712c9\n      eq\n      tag_5\n      jumpi\n      dup1\n      0x8e14980b\n      eq\n      tag_6\n      jumpi\n    tag_1:\n      0x00\n      dup1\n      revert\n        /* \"contracts/smart-contract_flit.sol\":4717:5303  function ToWithdrawFund() public payable {... */\n    tag_2:\n      tag_13\n      tag_14\n      jump\t// in\n    tag_13:\n      stop\n        /* \"contracts/smart-contract_flit.sol\":1807:2407  function GetWalletClient(address _addr) public view returns(string memory, address, int, int, int, uint8, bool) {... */\n    tag_3:\n      callvalue\n      dup1\n      iszero\n      tag_15\n      jumpi\n      0x00\n      dup1\n      revert\n    tag_15:\n      pop\n      tag_16\n      0x04\n      dup1\n      calldatasize\n      sub\n      dup2\n      add\n      swap1\n      tag_17\n      swap2\n      swap1\n      tag_18\n      jump\t// in\n    tag_17:\n      tag_19\n      jump\t// in\n    tag_16:\n      mload(0x40)\n      tag_20\n      swap8\n      swap7\n      swap6\n      swap5\n      swap4\n      swap3\n      swap2\n      swap1\n      tag_21\n      jump\t// in\n    tag_20:\n      mload(0x40)\n      dup1\n      swap2\n      sub\n      swap1\n      return\n        /* \"contracts/smart-contract_flit.sol\":1229:1766  function GetClient(string calldata _username) public view returns(uint, address, string memory, uint8, bool) {... */\n    tag_4:\n      callvalue\n      dup1\n      iszero\n      tag_22\n      jumpi\n      0x00\n      dup1\n      revert\n    tag_22:\n      pop\n      tag_23\n      0x04\n      dup1\n      calldatasize\n      sub\n      dup2\n      add\n      swap1\n      tag_24\n      swap2\n      swap1\n      tag_25\n      jump\t// in\n    tag_24:\n      tag_26\n      jump\t// in\n    tag_23:\n      mload(0x40)\n      tag_27\n      swap6\n      swap5\n      swap4\n      swap3\n      swap2\n      swap1\n      tag_28\n      jump\t// in\n    tag_27:\n      mload(0x40)\n      dup1\n      swap2\n      sub\n      swap1\n      return\n        /* \"contracts/smart-contract_flit.sol\":3395:4087  function PaymentClient(address _addr) public payable {... */\n    tag_5:\n      tag_29\n      0x04\n      dup1\n      calldatasize\n      sub\n      dup2\n      add\n      swap1\n      tag_30\n      swap2\n      swap1\n      tag_18\n      jump\t// in\n    tag_30:\n      tag_31\n      jump\t// in\n    tag_29:\n      stop\n        /* \"contracts/smart-contract_flit.sol\":2907:3358  function DecreaseAvailableBalance() public payable {... */\n    tag_6:\n      tag_32\n      tag_33\n      jump\t// in\n    tag_32:\n      stop\n        /* \"contracts/smart-contract_flit.sol\":4117:4682  function DepositFund() public payable {... */\n    tag_7:\n      tag_34\n      tag_35\n      jump\t// in\n    tag_34:\n      stop\n        /* \"contracts/smart-contract_flit.sol\":5562:5757  function ReactiveClient() public {... */\n    tag_8:\n      callvalue\n      dup1\n      iszero\n      tag_36\n      jumpi\n      0x00\n      dup1\n      revert\n    tag_36:\n      pop\n      tag_37\n      tag_38\n      jump\t// in\n    tag_37:\n      stop\n        /* \"contracts/smart-contract_flit.sol\":2450:2901  function IncreaseAvailableBalance() public payable {... */\n    tag_9:\n      tag_39\n      tag_40\n      jump\t// in\n    tag_39:\n      stop\n        /* \"contracts/smart-contract_flit.sol\":728:1193  function CreateClient(string calldata _username) public returns(address) {... */\n    tag_10:\n      callvalue\n      dup1\n      iszero\n      tag_41\n      jumpi\n      0x00\n      dup1\n      revert\n    tag_41:\n      pop\n      tag_42\n      0x04\n      dup1\n      calldatasize\n      sub\n      dup2\n      add\n      swap1\n      tag_43\n      swap2\n      swap1\n      tag_25\n      jump\t// in\n    tag_43:\n      tag_44\n      jump\t// in\n    tag_42:\n      mload(0x40)\n      tag_45\n      swap2\n      swap1\n      tag_46\n      jump\t// in\n    tag_45:\n      mload(0x40)\n      dup1\n      swap2\n      sub\n      swap1\n      return\n        /* \"contracts/smart-contract_flit.sol\":5336:5531  function InactiveClient() public {... */\n    tag_11:\n      callvalue\n      dup1\n      iszero\n      tag_47\n      jumpi\n      0x00\n      dup1\n      revert\n    tag_47:\n      pop\n      tag_48\n      tag_49\n      jump\t// in\n    tag_48:\n      stop\n        /* \"contracts/smart-contract_flit.sol\":4717:5303  function ToWithdrawFund() public payable {... */\n    tag_14:\n        /* \"contracts/smart-contract_flit.sol\":4776:4783  clients */\n      0x01\n        /* \"contracts/smart-contract_flit.sol\":4776:4811  clients[clientsAddress[msg.sender]] */\n      0x00\n        /* \"contracts/smart-contract_flit.sol\":4784:4798  clientsAddress */\n      0x02\n        /* \"contracts/smart-contract_flit.sol\":4784:4810  clientsAddress[msg.sender] */\n      0x00\n        /* \"contracts/smart-contract_flit.sol\":4799:4809  msg.sender */\n      caller\n        /* \"contracts/smart-contract_flit.sol\":4784:4810  clientsAddress[msg.sender] */\n      0xffffffffffffffffffffffffffffffffffffffff\n      and\n      0xffffffffffffffffffffffffffffffffffffffff\n      and\n      dup2\n      mstore\n      0x20\n      add\n      swap1\n      dup2\n      mstore\n      0x20\n      add\n      0x00\n      keccak256\n      sload\n        /* \"contracts/smart-contract_flit.sol\":4776:4811  clients[clientsAddress[msg.sender]] */\n      dup2\n      mstore\n      0x20\n      add\n      swap1\n      dup2\n      mstore\n      0x20\n      add\n      0x00\n      keccak256\n        /* \"contracts/smart-contract_flit.sol\":4776:4818  clients[clientsAddress[msg.sender]].status */\n      0x06\n      add\n      0x01\n      swap1\n      sload\n      swap1\n      0x0100\n      exp\n      swap1\n      div\n      0xff\n      and\n        /* \"contracts/smart-contract_flit.sol\":4768:4852  require(clients[clientsAddress[msg.sender]].status, \"The account must be activated\") */\n      tag_51\n      jumpi\n      mload(0x40)\n      0x08c379a000000000000000000000000000000000000000000000000000000000\n      dup2\n      mstore\n      0x04\n      add\n      tag_52\n      swap1\n      tag_53\n      jump\t// in\n    tag_52:\n      mload(0x40)\n      dup1\n      swap2\n      sub\n      swap1\n      revert\n    tag_51:\n        /* \"contracts/smart-contract_flit.sol\":4882:4883  0 */\n      0x00\n        /* \"contracts/smart-contract_flit.sol\":4870:4879  msg.value */\n      callvalue\n        /* \"contracts/smart-contract_flit.sol\":4870:4883  msg.value > 0 */\n      gt\n        /* \"contracts/smart-contract_flit.sol\":4862:4943  require(msg.value > 0, \"The value to increase balance must be greater than zero\") */\n      tag_54\n      jumpi\n      mload(0x40)\n      0x08c379a000000000000000000000000000000000000000000000000000000000\n      dup2\n      mstore\n      0x04\n      add\n      tag_55\n      swap1\n      tag_56\n      jump\t// in\n    tag_55:\n      mload(0x40)\n      dup1\n      swap2\n      sub\n      swap1\n      revert\n    tag_54:\n        /* \"contracts/smart-contract_flit.sol\":4979:4986  clients */\n      0x01\n        /* \"contracts/smart-contract_flit.sol\":4979:5014  clients[clientsAddress[msg.sender]] */\n      0x00\n        /* \"contracts/smart-contract_flit.sol\":4987:5001  clientsAddress */\n      0x02\n        /* \"contracts/smart-contract_flit.sol\":4987:5013  clientsAddress[msg.sender] */\n      0x00\n        /* \"contracts/smart-contract_flit.sol\":5002:5012  msg.sender */\n      caller\n        /* \"contracts/smart-contract_flit.sol\":4987:5013  clientsAddress[msg.sender] */\n      0xffffffffffffffffffffffffffffffffffffffff\n      and\n      0xffffffffffffffffffffffffffffffffffffffff\n      and\n      dup2\n      mstore\n      0x20\n      add\n      swap1\n      dup2\n      mstore\n      0x20\n      add\n      0x00\n      keccak256\n      sload\n        /* \"contracts/smart-contract_flit.sol\":4979:5014  clients[clientsAddress[msg.sender]] */\n      dup2\n      mstore\n      0x20\n      add\n      swap1\n      dup2\n      mstore\n      0x20\n      add\n      0x00\n      keccak256\n        /* \"contracts/smart-contract_flit.sol\":4979:5019  clients[clientsAddress[msg.sender]].fund */\n      0x05\n      add\n      sload\n        /* \"contracts/smart-contract_flit.sol\":4965:4974  msg.value */\n      callvalue\n        /* \"contracts/smart-contract_flit.sol\":4961:5019  int(msg.value) <= clients[clientsAddress[msg.sender]].fund */\n      sgt\n      iszero\n        /* \"contracts/smart-contract_flit.sol\":4953:5091  require(int(msg.value) <= clients[clientsAddress[msg.sender]].fund, \"The value to decrease balance must be less than the current balance\") */\n      tag_57\n      jumpi\n      mload(0x40)\n      0x08c379a000000000000000000000000000000000000000000000000000000000\n      dup2\n      mstore\n      0x04\n      add\n      tag_58\n      swap1\n      tag_59\n      jump\t// in\n    tag_58:\n      mload(0x40)\n      dup1\n      swap2\n      sub\n      swap1\n      revert\n    tag_57:\n        /* \"contracts/smart-contract_flit.sol\":5150:5159  msg.value */\n      callvalue\n        /* \"contracts/smart-contract_flit.sol\":5102:5109  clients */\n      0x01\n        /* \"contracts/smart-contract_flit.sol\":5102:5137  clients[clientsAddress[msg.sender]] */\n      0x00\n        /* \"contracts/smart-contract_flit.sol\":5110:5124  clientsAddress */\n      0x02\n        /* \"contracts/smart-contract_flit.sol\":5110:5136  clientsAddress[msg.sender] */\n      0x00\n        /* \"contracts/smart-contract_flit.sol\":5125:5135  msg.sender */\n      caller\n        /* \"contracts/smart-contract_flit.sol\":5110:5136  clientsAddress[msg.sender] */\n      0xffffffffffffffffffffffffffffffffffffffff\n      and\n      0xffffffffffffffffffffffffffffffffffffffff\n      and\n      dup2\n      mstore\n      0x20\n      add\n      swap1\n      dup2\n      mstore\n      0x20\n      add\n      0x00\n      keccak256\n      sload\n        /* \"contracts/smart-contract_flit.sol\":5102:5137  clients[clientsAddress[msg.sender]] */\n      dup2\n      mstore\n      0x20\n      add\n      swap1\n      dup2\n      mstore\n      0x20\n      add\n      0x00\n      keccak256\n        /* \"contracts/smart-contract_flit.sol\":5102:5142  clients[clientsAddress[msg.sender]].fund */\n      0x05\n      add\n      0x00\n        /* \"contracts/smart-contract_flit.sol\":5102:5160  clients[clientsAddress[msg.sender]].fund -= int(msg.value) */\n      dup3\n      dup3\n      sload\n      tag_60\n      swap2\n      swap1\n      tag_61\n      jump\t// in\n    tag_60:\n      swap3\n      pop\n      pop\n      dup2\n      swap1\n      sstore\n      pop\n        /* \"contracts/smart-contract_flit.sol\":5230:5239  msg.value */\n      callvalue\n        /* \"contracts/smart-contract_flit.sol\":5170:5177  clients */\n      0x01\n        /* \"contracts/smart-contract_flit.sol\":5170:5205  clients[clientsAddress[msg.sender]] */\n      0x00\n        /* \"contracts/smart-contract_flit.sol\":5178:5192  clientsAddress */\n      0x02\n        /* \"contracts/smart-contract_flit.sol\":5178:5204  clientsAddress[msg.sender] */\n      0x00\n        /* \"contracts/smart-contract_flit.sol\":5193:5203  msg.sender */\n      caller\n        /* \"contracts/smart-contract_flit.sol\":5178:5204  clientsAddress[msg.sender] */\n      0xffffffffffffffffffffffffffffffffffffffff\n      and\n      0xffffffffffffffffffffffffffffffffffffffff\n      and\n      dup2\n      mstore\n      0x20\n      add\n      swap1\n      dup2\n      mstore\n      0x20\n      add\n      0x00\n      keccak256\n      sload\n        /* \"contracts/smart-contract_flit.sol\":5170:5205  clients[clientsAddress[msg.sender]] */\n      dup2\n      mstore\n      0x20\n      add\n      swap1\n      dup2\n      mstore\n      0x20\n      add\n      0x00\n      keccak256\n        /* \"contracts/smart-contract_flit.sol\":5170:5222  clients[clientsAddress[msg.sender]].availableBalance */\n      0x04\n      add\n      0x00\n        /* \"contracts/smart-contract_flit.sol\":5170:5240  clients[clientsAddress[msg.sender]].availableBalance += int(msg.value) */\n      dup3\n      dup3\n      sload\n      tag_62\n      swap2\n      swap1\n      tag_63\n      jump\t// in\n    tag_62:\n      swap3\n      pop\n      pop\n      dup2\n      swap1\n      sstore\n      pop\n        /* \"contracts/smart-contract_flit.sol\":5280:5293  quantityShare */\n      0x00\n      0x10\n        /* \"contracts/smart-contract_flit.sol\":5280:5296  quantityShare ++ */\n      dup2\n      dup2\n      swap1\n      sload\n      swap1\n      0x0100\n      exp\n      swap1\n      div\n      0xff\n      and\n      dup1\n      swap3\n      swap2\n      swap1\n      tag_64\n      swap1\n      tag_65\n      jump\t// in\n    tag_64:\n      swap2\n      swap1\n      0x0100\n      exp\n      dup2\n      sload\n      dup2\n      0xff\n      mul\n      not\n      and\n      swap1\n      dup4\n      0xff\n      and\n      mul\n      or\n      swap1\n      sstore\n      pop\n      pop\n        /* \"contracts/smart-contract_flit.sol\":4717:5303  function ToWithdrawFund() public payable {... */\n      jump\t// out\n        /* \"contracts/smart-contract_flit.sol\":1807:2407  function GetWalletClient(address _addr) public view returns(string memory, address, int, int, int, uint8, bool) {... */\n    tag_19:\n        /* \"contracts/smart-contract_flit.sol\":1867:1880  string memory */\n      0x60\n        /* \"contracts/smart-contract_flit.sol\":1882:1889  address */\n      0x00\n        /* \"contracts/smart-contract_flit.sol\":1891:1894  int */\n      dup1\n        /* \"contracts/smart-contract_flit.sol\":1896:1899  int */\n      0x00\n        /* \"contracts/smart-contract_flit.sol\":1901:1904  int */\n      dup1\n        /* \"contracts/smart-contract_flit.sol\":1906:1911  uint8 */\n      0x00\n        /* \"contracts/smart-contract_flit.sol\":1913:1917  bool */\n      dup1\n        /* \"contracts/smart-contract_flit.sol\":1937:1944  clients */\n      0x01\n        /* \"contracts/smart-contract_flit.sol\":1937:1972  clients[clientsAddress[msg.sender]] */\n      0x00\n        /* \"contracts/smart-contract_flit.sol\":1945:1959  clientsAddress */\n      0x02\n        /* \"contracts/smart-contract_flit.sol\":1945:1971  clientsAddress[msg.sender] */\n      0x00\n        /* \"contracts/smart-contract_flit.sol\":1960:1970  msg.sender */\n      caller\n        /* \"contracts/smart-contract_flit.sol\":1945:1971  clientsAddress[msg.sender] */\n      0xffffffffffffffffffffffffffffffffffffffff\n      and\n      0xffffffffffffffffffffffffffffffffffffffff\n      and\n      dup2\n      mstore\n      0x20\n      add\n      swap1\n      dup2\n      mstore\n      0x20\n      add\n      0x00\n      keccak256\n      sload\n        /* \"contracts/smart-contract_flit.sol\":1937:1972  clients[clientsAddress[msg.sender]] */\n      dup2\n      mstore\n      0x20\n      add\n      swap1\n      dup2\n      mstore\n      0x20\n      add\n      0x00\n      keccak256\n        /* \"contracts/smart-contract_flit.sol\":1937:1979  clients[clientsAddress[msg.sender]].status */\n      0x06\n      add\n      0x01\n      swap1\n      sload\n      swap1\n      0x0100\n      exp\n      swap1\n      div\n      0xff\n      and\n        /* \"contracts/smart-contract_flit.sol\":1929:2013  require(clients[clientsAddress[msg.sender]].status, \"The account must be activated\") */\n      tag_67\n      jumpi\n      mload(0x40)\n      0x08c379a000000000000000000000000000000000000000000000000000000000\n      dup2\n      mstore\n      0x04\n      add\n      tag_68\n      swap1\n      tag_53\n      jump\t// in\n    tag_68:\n      mload(0x40)\n      dup1\n      swap2\n      sub\n      swap1\n      revert\n    tag_67:\n        /* \"contracts/smart-contract_flit.sol\":2028:2034  uint i */\n      0x00\n        /* \"contracts/smart-contract_flit.sol\":2024:2365  for(uint i = 0; i < quantityShare; i++) {... */\n    tag_69:\n        /* \"contracts/smart-contract_flit.sol\":2044:2057  quantityShare */\n      0x00\n      0x10\n      swap1\n      sload\n      swap1\n      0x0100\n      exp\n      swap1\n      div\n      0xff\n      and\n        /* \"contracts/smart-contract_flit.sol\":2040:2057  i < quantityShare */\n      0xff\n      and\n        /* \"contracts/smart-contract_flit.sol\":2040:2041  i */\n      dup2\n        /* \"contracts/smart-contract_flit.sol\":2040:2057  i < quantityShare */\n      lt\n        /* \"contracts/smart-contract_flit.sol\":2024:2365  for(uint i = 0; i < quantityShare; i++) {... */\n      iszero\n      tag_70\n      jumpi\n        /* \"contracts/smart-contract_flit.sol\":2156:2161  _addr */\n      dup9\n        /* \"contracts/smart-contract_flit.sol\":2139:2162  abi.encodePacked(_addr) */\n      add(0x20, mload(0x40))\n      tag_72\n      swap2\n      swap1\n      tag_73\n      jump\t// in\n    tag_72:\n      mload(0x40)\n      0x20\n      dup2\n      dup4\n      sub\n      sub\n      dup2\n      mstore\n      swap1\n      0x40\n      mstore\n        /* \"contracts/smart-contract_flit.sol\":2129:2163  keccak256(abi.encodePacked(_addr)) */\n      dup1\n      mload\n      swap1\n      0x20\n      add\n      keccak256\n        /* \"contracts/smart-contract_flit.sol\":2108:2115  clients */\n      0x01\n        /* \"contracts/smart-contract_flit.sol\":2108:2118  clients[i] */\n      0x00\n        /* \"contracts/smart-contract_flit.sol\":2116:2117  i */\n      dup4\n        /* \"contracts/smart-contract_flit.sol\":2108:2118  clients[i] */\n      dup2\n      mstore\n      0x20\n      add\n      swap1\n      dup2\n      mstore\n      0x20\n      add\n      0x00\n      keccak256\n        /* \"contracts/smart-contract_flit.sol\":2108:2123  clients[i].addr */\n      0x01\n      add\n      0x00\n      swap1\n      sload\n      swap1\n      0x0100\n      exp\n      swap1\n      div\n      0xffffffffffffffffffffffffffffffffffffffff\n      and\n        /* \"contracts/smart-contract_flit.sol\":2091:2124  abi.encodePacked(clients[i].addr) */\n      add(0x20, mload(0x40))\n      tag_74\n      swap2\n      swap1\n      tag_73\n      jump\t// in\n    tag_74:\n      mload(0x40)\n      0x20\n      dup2\n      dup4\n      sub\n      sub\n      dup2\n      mstore\n      swap1\n      0x40\n      mstore\n        /* \"contracts/smart-contract_flit.sol\":2081:2125  keccak256(abi.encodePacked(clients[i].addr)) */\n      dup1\n      mload\n      swap1\n      0x20\n      add\n      keccak256\n        /* \"contracts/smart-contract_flit.sol\":2081:2163  keccak256(abi.encodePacked(clients[i].addr)) == keccak256(abi.encodePacked(_addr)) */\n      sub\n        /* \"contracts/smart-contract_flit.sol\":2078:2355  if(keccak256(abi.encodePacked(clients[i].addr)) == keccak256(abi.encodePacked(_addr))) {... */\n      tag_75\n      jumpi\n        /* \"contracts/smart-contract_flit.sol\":2191:2198  clients */\n      0x01\n        /* \"contracts/smart-contract_flit.sol\":2191:2201  clients[i] */\n      0x00\n        /* \"contracts/smart-contract_flit.sol\":2199:2200  i */\n      dup3\n        /* \"contracts/smart-contract_flit.sol\":2191:2201  clients[i] */\n      dup2\n      mstore\n      0x20\n      add\n      swap1\n      dup2\n      mstore\n      0x20\n      add\n      0x00\n      keccak256\n        /* \"contracts/smart-contract_flit.sol\":2191:2210  clients[i].username */\n      0x02\n      add\n        /* \"contracts/smart-contract_flit.sol\":2212:2219  clients */\n      0x01\n        /* \"contracts/smart-contract_flit.sol\":2212:2222  clients[i] */\n      0x00\n        /* \"contracts/smart-contract_flit.sol\":2220:2221  i */\n      dup4\n        /* \"contracts/smart-contract_flit.sol\":2212:2222  clients[i] */\n      dup2\n      mstore\n      0x20\n      add\n      swap1\n      dup2\n      mstore\n      0x20\n      add\n      0x00\n      keccak256\n        /* \"contracts/smart-contract_flit.sol\":2212:2227  clients[i].addr */\n      0x01\n      add\n      0x00\n      swap1\n      sload\n      swap1\n      0x0100\n      exp\n      swap1\n      div\n      0xffffffffffffffffffffffffffffffffffffffff\n      and\n        /* \"contracts/smart-contract_flit.sol\":2229:2236  clients */\n      0x01\n        /* \"contracts/smart-contract_flit.sol\":2229:2239  clients[i] */\n      0x00\n        /* \"contracts/smart-contract_flit.sol\":2237:2238  i */\n      dup5\n        /* \"contracts/smart-contract_flit.sol\":2229:2239  clients[i] */\n      dup2\n      mstore\n      0x20\n      add\n      swap1\n      dup2\n      mstore\n      0x20\n      add\n      0x00\n      keccak256\n        /* \"contracts/smart-contract_flit.sol\":2229:2247  clients[i].balance */\n      0x03\n      add\n      sload\n        /* \"contracts/smart-contract_flit.sol\":2249:2256  clients */\n      0x01\n        /* \"contracts/smart-contract_flit.sol\":2249:2259  clients[i] */\n      0x00\n        /* \"contracts/smart-contract_flit.sol\":2257:2258  i */\n      dup6\n        /* \"contracts/smart-contract_flit.sol\":2249:2259  clients[i] */\n      dup2\n      mstore\n      0x20\n      add\n      swap1\n      dup2\n      mstore\n      0x20\n      add\n      0x00\n      keccak256\n        /* \"contracts/smart-contract_flit.sol\":2249:2276  clients[i].availableBalance */\n      0x04\n      add\n      sload\n        /* \"contracts/smart-contract_flit.sol\":2278:2285  clients */\n      0x01\n        /* \"contracts/smart-contract_flit.sol\":2278:2288  clients[i] */\n      0x00\n        /* \"contracts/smart-contract_flit.sol\":2286:2287  i */\n      dup7\n        /* \"contracts/smart-contract_flit.sol\":2278:2288  clients[i] */\n      dup2\n      mstore\n      0x20\n      add\n      swap1\n      dup2\n      mstore\n      0x20\n      add\n      0x00\n      keccak256\n        /* \"contracts/smart-contract_flit.sol\":2278:2293  clients[i].fund */\n      0x05\n      add\n      sload\n        /* \"contracts/smart-contract_flit.sol\":2295:2302  clients */\n      0x01\n        /* \"contracts/smart-contract_flit.sol\":2295:2305  clients[i] */\n      0x00\n        /* \"contracts/smart-contract_flit.sol\":2303:2304  i */\n      dup8\n        /* \"contracts/smart-contract_flit.sol\":2295:2305  clients[i] */\n      dup2\n      mstore\n      0x20\n      add\n      swap1\n      dup2\n      mstore\n      0x20\n      add\n      0x00\n      keccak256\n        /* \"contracts/smart-contract_flit.sol\":2295:2320  clients[i].quantityShares */\n      0x06\n      add\n      0x00\n      swap1\n      sload\n      swap1\n      0x0100\n      exp\n      swap1\n      div\n      0xff\n      and\n        /* \"contracts/smart-contract_flit.sol\":2322:2329  clients */\n      0x01\n        /* \"contracts/smart-contract_flit.sol\":2322:2332  clients[i] */\n      0x00\n        /* \"contracts/smart-contract_flit.sol\":2330:2331  i */\n      dup9\n        /* \"contracts/smart-contract_flit.sol\":2322:2332  clients[i] */\n      dup2\n      mstore\n      0x20\n      add\n      swap1\n      dup2\n      mstore\n      0x20\n      add\n      0x00\n      keccak256\n        /* \"contracts/smart-contract_flit.sol\":2322:2339  clients[i].status */\n      0x06\n      add\n      0x01\n      swap1\n      sload\n      swap1\n      0x0100\n      exp\n      swap1\n      div\n      0xff\n      and\n        /* \"contracts/smart-contract_flit.sol\":2183:2340  return (clients[i].username, clients[i].addr, clients[i].balance, clients[i].availableBalance, clients[i].fund, clients[i].quantityShares, clients[i].status) */\n      dup7\n      dup1\n      sload\n      tag_76\n      swap1\n      tag_77\n      jump\t// in\n    tag_76:\n      dup1\n      0x1f\n      add\n      0x20\n      dup1\n      swap2\n      div\n      mul\n      0x20\n      add\n      mload(0x40)\n      swap1\n      dup2\n      add\n      0x40\n      mstore\n      dup1\n      swap3\n      swap2\n      swap1\n      dup2\n      dup2\n      mstore\n      0x20\n      add\n      dup3\n      dup1\n      sload\n      tag_78\n      swap1\n      tag_77\n      jump\t// in\n    tag_78:\n      dup1\n      iszero\n      tag_79\n      jumpi\n      dup1\n      0x1f\n      lt\n      tag_80\n      jumpi\n      0x0100\n      dup1\n      dup4\n      sload\n      div\n      mul\n      dup4\n      mstore\n      swap2\n      0x20\n      add\n      swap2\n      jump(tag_79)\n    tag_80:\n      dup3\n      add\n      swap2\n      swap1\n      0x00\n      mstore\n      keccak256(0x00, 0x20)\n      swap1\n    tag_81:\n      dup2\n      sload\n      dup2\n      mstore\n      swap1\n      0x01\n      add\n      swap1\n      0x20\n      add\n      dup1\n      dup4\n      gt\n      tag_81\n      jumpi\n      dup3\n      swap1\n      sub\n      0x1f\n      and\n      dup3\n      add\n      swap2\n    tag_79:\n      pop\n      pop\n      pop\n      pop\n      pop\n      swap7\n      pop\n      swap8\n      pop\n      swap8\n      pop\n      swap8\n      pop\n      swap8\n      pop\n      swap8\n      pop\n      swap8\n      pop\n      swap8\n      pop\n      pop\n      jump(tag_66)\n        /* \"contracts/smart-contract_flit.sol\":2078:2355  if(keccak256(abi.encodePacked(clients[i].addr)) == keccak256(abi.encodePacked(_addr))) {... */\n    tag_75:\n        /* \"contracts/smart-contract_flit.sol\":2059:2062  i++ */\n      dup1\n      dup1\n      0x01\n      add\n      swap2\n      pop\n      pop\n        /* \"contracts/smart-contract_flit.sol\":2024:2365  for(uint i = 0; i < quantityShare; i++) {... */\n      jump(tag_69)\n    tag_70:\n      pop\n        /* \"contracts/smart-contract_flit.sol\":2374:2400  revert(\"Wallet not found\") */\n      mload(0x40)\n      0x08c379a000000000000000000000000000000000000000000000000000000000\n      dup2\n      mstore\n      0x04\n      add\n      tag_82\n      swap1\n      tag_83\n      jump\t// in\n    tag_82:\n      mload(0x40)\n      dup1\n      swap2\n      sub\n      swap1\n      revert\n        /* \"contracts/smart-contract_flit.sol\":1807:2407  function GetWalletClient(address _addr) public view returns(string memory, address, int, int, int, uint8, bool) {... */\n    tag_66:\n      swap2\n      swap4\n      swap6\n      swap8\n      swap1\n      swap3\n      swap5\n      swap7\n      pop\n      jump\t// out\n        /* \"contracts/smart-contract_flit.sol\":1229:1766  function GetClient(string calldata _username) public view returns(uint, address, string memory, uint8, bool) {... */\n    tag_26:\n        /* \"contracts/smart-contract_flit.sol\":1295:1299  uint */\n      0x00\n        /* \"contracts/smart-contract_flit.sol\":1301:1308  address */\n      dup1\n        /* \"contracts/smart-contract_flit.sol\":1310:1323  string memory */\n      0x60\n        /* \"contracts/smart-contract_flit.sol\":1325:1330  uint8 */\n      0x00\n        /* \"contracts/smart-contract_flit.sol\":1332:1336  bool */\n      dup1\n        /* \"contracts/smart-contract_flit.sol\":1382:1383  0 */\n      0x00\n        /* \"contracts/smart-contract_flit.sol\":1362:1371  _username */\n      dup8\n      dup8\n        /* \"contracts/smart-contract_flit.sol\":1356:1379  bytes(_username).length */\n      swap1\n      pop\n        /* \"contracts/smart-contract_flit.sol\":1356:1383  bytes(_username).length > 0 */\n      gt\n        /* \"contracts/smart-contract_flit.sol\":1348:1416  require(bytes(_username).length > 0, \"The username cannot be empty\") */\n      tag_85\n      jumpi\n      mload(0x40)\n      0x08c379a000000000000000000000000000000000000000000000000000000000\n      dup2\n      mstore\n      0x04\n      add\n      tag_86\n      swap1\n      tag_87\n      jump\t// in\n    tag_86:\n      mload(0x40)\n      dup1\n      swap2\n      sub\n      swap1\n      revert\n    tag_85:\n        /* \"contracts/smart-contract_flit.sol\":1431:1437  uint i */\n      0x00\n        /* \"contracts/smart-contract_flit.sol\":1427:1726  for(uint i = 0; i < incrementValue; i++) {... */\n    tag_88:\n        /* \"contracts/smart-contract_flit.sol\":1447:1461  incrementValue */\n      0x00\n      dup1\n      sload\n      swap1\n      0x0100\n      exp\n      swap1\n      div\n      0xffffffffffffffffffffffffffffffff\n      and\n        /* \"contracts/smart-contract_flit.sol\":1443:1461  i < incrementValue */\n      0xffffffffffffffffffffffffffffffff\n      and\n        /* \"contracts/smart-contract_flit.sol\":1443:1444  i */\n      dup2\n        /* \"contracts/smart-contract_flit.sol\":1443:1461  i < incrementValue */\n      lt\n        /* \"contracts/smart-contract_flit.sol\":1427:1726  for(uint i = 0; i < incrementValue; i++) {... */\n      iszero\n      tag_89\n      jumpi\n        /* \"contracts/smart-contract_flit.sol\":1564:1573  _username */\n      dup8\n      dup8\n        /* \"contracts/smart-contract_flit.sol\":1547:1574  abi.encodePacked(_username) */\n      add(0x20, mload(0x40))\n      tag_91\n      swap3\n      swap2\n      swap1\n      tag_92\n      jump\t// in\n    tag_91:\n      mload(0x40)\n      0x20\n      dup2\n      dup4\n      sub\n      sub\n      dup2\n      mstore\n      swap1\n      0x40\n      mstore\n        /* \"contracts/smart-contract_flit.sol\":1537:1575  keccak256(abi.encodePacked(_username)) */\n      dup1\n      mload\n      swap1\n      0x20\n      add\n      keccak256\n        /* \"contracts/smart-contract_flit.sol\":1512:1519  clients */\n      0x01\n        /* \"contracts/smart-contract_flit.sol\":1512:1522  clients[i] */\n      0x00\n        /* \"contracts/smart-contract_flit.sol\":1520:1521  i */\n      dup4\n        /* \"contracts/smart-contract_flit.sol\":1512:1522  clients[i] */\n      dup2\n      mstore\n      0x20\n      add\n      swap1\n      dup2\n      mstore\n      0x20\n      add\n      0x00\n      keccak256\n        /* \"contracts/smart-contract_flit.sol\":1512:1531  clients[i].username */\n      0x02\n      add\n        /* \"contracts/smart-contract_flit.sol\":1495:1532  abi.encodePacked(clients[i].username) */\n      add(0x20, mload(0x40))\n      tag_93\n      swap2\n      swap1\n      tag_94\n      jump\t// in\n    tag_93:\n      mload(0x40)\n      0x20\n      dup2\n      dup4\n      sub\n      sub\n      dup2\n      mstore\n      swap1\n      0x40\n      mstore\n        /* \"contracts/smart-contract_flit.sol\":1485:1533  keccak256(abi.encodePacked(clients[i].username)) */\n      dup1\n      mload\n      swap1\n      0x20\n      add\n      keccak256\n        /* \"contracts/smart-contract_flit.sol\":1485:1575  keccak256(abi.encodePacked(clients[i].username)) == keccak256(abi.encodePacked(_username)) */\n      sub\n        /* \"contracts/smart-contract_flit.sol\":1482:1716  if(keccak256(abi.encodePacked(clients[i].username)) == keccak256(abi.encodePacked(_username))) {... */\n      tag_95\n      jumpi\n        /* \"contracts/smart-contract_flit.sol\":1603:1610  clients */\n      0x01\n        /* \"contracts/smart-contract_flit.sol\":1603:1613  clients[i] */\n      0x00\n        /* \"contracts/smart-contract_flit.sol\":1611:1612  i */\n      dup3\n        /* \"contracts/smart-contract_flit.sol\":1603:1613  clients[i] */\n      dup2\n      mstore\n      0x20\n      add\n      swap1\n      dup2\n      mstore\n      0x20\n      add\n      0x00\n      keccak256\n        /* \"contracts/smart-contract_flit.sol\":1603:1616  clients[i].id */\n      0x00\n      add\n      sload\n        /* \"contracts/smart-contract_flit.sol\":1618:1625  clients */\n      0x01\n        /* \"contracts/smart-contract_flit.sol\":1618:1628  clients[i] */\n      0x00\n        /* \"contracts/smart-contract_flit.sol\":1626:1627  i */\n      dup4\n        /* \"contracts/smart-contract_flit.sol\":1618:1628  clients[i] */\n      dup2\n      mstore\n      0x20\n      add\n      swap1\n      dup2\n      mstore\n      0x20\n      add\n      0x00\n      keccak256\n        /* \"contracts/smart-contract_flit.sol\":1618:1633  clients[i].addr */\n      0x01\n      add\n      0x00\n      swap1\n      sload\n      swap1\n      0x0100\n      exp\n      swap1\n      div\n      0xffffffffffffffffffffffffffffffffffffffff\n      and\n        /* \"contracts/smart-contract_flit.sol\":1635:1642  clients */\n      0x01\n        /* \"contracts/smart-contract_flit.sol\":1635:1645  clients[i] */\n      0x00\n        /* \"contracts/smart-contract_flit.sol\":1643:1644  i */\n      dup5\n        /* \"contracts/smart-contract_flit.sol\":1635:1645  clients[i] */\n      dup2\n      mstore\n      0x20\n      add\n      swap1\n      dup2\n      mstore\n      0x20\n      add\n      0x00\n      keccak256\n        /* \"contracts/smart-contract_flit.sol\":1635:1654  clients[i].username */\n      0x02\n      add\n        /* \"contracts/smart-contract_flit.sol\":1656:1663  clients */\n      0x01\n        /* \"contracts/smart-contract_flit.sol\":1656:1666  clients[i] */\n      0x00\n        /* \"contracts/smart-contract_flit.sol\":1664:1665  i */\n      dup6\n        /* \"contracts/smart-contract_flit.sol\":1656:1666  clients[i] */\n      dup2\n      mstore\n      0x20\n      add\n      swap1\n      dup2\n      mstore\n      0x20\n      add\n      0x00\n      keccak256\n        /* \"contracts/smart-contract_flit.sol\":1656:1681  clients[i].quantityShares */\n      0x06\n      add\n      0x00\n      swap1\n      sload\n      swap1\n      0x0100\n      exp\n      swap1\n      div\n      0xff\n      and\n        /* \"contracts/smart-contract_flit.sol\":1683:1690  clients */\n      0x01\n        /* \"contracts/smart-contract_flit.sol\":1683:1693  clients[i] */\n      0x00\n        /* \"contracts/smart-contract_flit.sol\":1691:1692  i */\n      dup7\n        /* \"contracts/smart-contract_flit.sol\":1683:1693  clients[i] */\n      dup2\n      mstore\n      0x20\n      add\n      swap1\n      dup2\n      mstore\n      0x20\n      add\n      0x00\n      keccak256\n        /* \"contracts/smart-contract_flit.sol\":1683:1700  clients[i].status */\n      0x06\n      add\n      0x01\n      swap1\n      sload\n      swap1\n      0x0100\n      exp\n      swap1\n      div\n      0xff\n      and\n        /* \"contracts/smart-contract_flit.sol\":1595:1701  return (clients[i].id, clients[i].addr, clients[i].username, clients[i].quantityShares, clients[i].status) */\n      dup3\n      dup1\n      sload\n      tag_96\n      swap1\n      tag_77\n      jump\t// in\n    tag_96:\n      dup1\n      0x1f\n      add\n      0x20\n      dup1\n      swap2\n      div\n      mul\n      0x20\n      add\n      mload(0x40)\n      swap1\n      dup2\n      add\n      0x40\n      mstore\n      dup1\n      swap3\n      swap2\n      swap1\n      dup2\n      dup2\n      mstore\n      0x20\n      add\n      dup3\n      dup1\n      sload\n      tag_97\n      swap1\n      tag_77\n      jump\t// in\n    tag_97:\n      dup1\n      iszero\n      tag_98\n      jumpi\n      dup1\n      0x1f\n      lt\n      tag_99\n      jumpi\n      0x0100\n      dup1\n      dup4\n      sload\n      div\n      mul\n      dup4\n      mstore\n      swap2\n      0x20\n      add\n      swap2\n      jump(tag_98)\n    tag_99:\n      dup3\n      add\n      swap2\n      swap1\n      0x00\n      mstore\n      keccak256(0x00, 0x20)\n      swap1\n    tag_100:\n      dup2\n      sload\n      dup2\n      mstore\n      swap1\n      0x01\n      add\n      swap1\n      0x20\n      add\n      dup1\n      dup4\n      gt\n      tag_100\n      jumpi\n      dup3\n      swap1\n      sub\n      0x1f\n      and\n      dup3\n      add\n      swap2\n    tag_98:\n      pop\n      pop\n      pop\n      pop\n      pop\n      swap3\n      pop\n      swap6\n      pop\n      swap6\n      pop\n      swap6\n      pop\n      swap6\n      pop\n      swap6\n      pop\n      pop\n      jump(tag_84)\n        /* \"contracts/smart-contract_flit.sol\":1482:1716  if(keccak256(abi.encodePacked(clients[i].username)) == keccak256(abi.encodePacked(_username))) {... */\n    tag_95:\n        /* \"contracts/smart-contract_flit.sol\":1463:1466  i++ */\n      dup1\n      dup1\n      0x01\n      add\n      swap2\n      pop\n      pop\n        /* \"contracts/smart-contract_flit.sol\":1427:1726  for(uint i = 0; i < incrementValue; i++) {... */\n      jump(tag_88)\n    tag_89:\n      pop\n        /* \"contracts/smart-contract_flit.sol\":1735:1759  revert(\"User not found\") */\n      mload(0x40)\n      0x08c379a000000000000000000000000000000000000000000000000000000000\n      dup2\n      mstore\n      0x04\n      add\n      tag_101\n      swap1\n      tag_102\n      jump\t// in\n    tag_101:\n      mload(0x40)\n      dup1\n      swap2\n      sub\n      swap1\n      revert\n        /* \"contracts/smart-contract_flit.sol\":1229:1766  function GetClient(string calldata _username) public view returns(uint, address, string memory, uint8, bool) {... */\n    tag_84:\n      swap3\n      swap6\n      pop\n      swap3\n      swap6\n      swap1\n      swap4\n      pop\n      jump\t// out\n        /* \"contracts/smart-contract_flit.sol\":3395:4087  function PaymentClient(address _addr) public payable {... */\n    tag_31:\n        /* \"contracts/smart-contract_flit.sol\":3466:3473  clients */\n      0x01\n        /* \"contracts/smart-contract_flit.sol\":3466:3501  clients[clientsAddress[msg.sender]] */\n      0x00\n        /* \"contracts/smart-contract_flit.sol\":3474:3488  clientsAddress */\n      0x02\n        /* \"contracts/smart-contract_flit.sol\":3474:3500  clientsAddress[msg.sender] */\n      0x00\n        /* \"contracts/smart-contract_flit.sol\":3489:3499  msg.sender */\n      caller\n        /* \"contracts/smart-contract_flit.sol\":3474:3500  clientsAddress[msg.sender] */\n      0xffffffffffffffffffffffffffffffffffffffff\n      and\n      0xffffffffffffffffffffffffffffffffffffffff\n      and\n      dup2\n      mstore\n      0x20\n      add\n      swap1\n      dup2\n      mstore\n      0x20\n      add\n      0x00\n      keccak256\n      sload\n        /* \"contracts/smart-contract_flit.sol\":3466:3501  clients[clientsAddress[msg.sender]] */\n      dup2\n      mstore\n      0x20\n      add\n      swap1\n      dup2\n      mstore\n      0x20\n      add\n      0x00\n      keccak256\n        /* \"contracts/smart-contract_flit.sol\":3466:3508  clients[clientsAddress[msg.sender]].status */\n      0x06\n      add\n      0x01\n      swap1\n      sload\n      swap1\n      0x0100\n      exp\n      swap1\n      div\n      0xff\n      and\n        /* \"contracts/smart-contract_flit.sol\":3458:3542  require(clients[clientsAddress[msg.sender]].status, \"The account must be activated\") */\n      tag_104\n      jumpi\n      mload(0x40)\n      0x08c379a000000000000000000000000000000000000000000000000000000000\n      dup2\n      mstore\n      0x04\n      add\n      tag_105\n      swap1\n      tag_53\n      jump\t// in\n    tag_105:\n      mload(0x40)\n      dup1\n      swap2\n      sub\n      swap1\n      revert\n    tag_104:\n        /* \"contracts/smart-contract_flit.sol\":3572:3573  0 */\n      0x00\n        /* \"contracts/smart-contract_flit.sol\":3560:3569  msg.value */\n      callvalue\n        /* \"contracts/smart-contract_flit.sol\":3560:3573  msg.value > 0 */\n      gt\n        /* \"contracts/smart-contract_flit.sol\":3552:3633  require(msg.value > 0, \"The value to increase balance must be greater than zero\") */\n      tag_106\n      jumpi\n      mload(0x40)\n      0x08c379a000000000000000000000000000000000000000000000000000000000\n      dup2\n      mstore\n      0x04\n      add\n      tag_107\n      swap1\n      tag_56\n      jump\t// in\n    tag_107:\n      mload(0x40)\n      dup1\n      swap2\n      sub\n      swap1\n      revert\n    tag_106:\n        /* \"contracts/smart-contract_flit.sol\":3669:3676  clients */\n      0x01\n        /* \"contracts/smart-contract_flit.sol\":3669:3704  clients[clientsAddress[msg.sender]] */\n      0x00\n        /* \"contracts/smart-contract_flit.sol\":3677:3691  clientsAddress */\n      0x02\n        /* \"contracts/smart-contract_flit.sol\":3677:3703  clientsAddress[msg.sender] */\n      0x00\n        /* \"contracts/smart-contract_flit.sol\":3692:3702  msg.sender */\n      caller\n        /* \"contracts/smart-contract_flit.sol\":3677:3703  clientsAddress[msg.sender] */\n      0xffffffffffffffffffffffffffffffffffffffff\n      and\n      0xffffffffffffffffffffffffffffffffffffffff\n      and\n      dup2\n      mstore\n      0x20\n      add\n      swap1\n      dup2\n      mstore\n      0x20\n      add\n      0x00\n      keccak256\n      sload\n        /* \"contracts/smart-contract_flit.sol\":3669:3704  clients[clientsAddress[msg.sender]] */\n      dup2\n      mstore\n      0x20\n      add\n      swap1\n      dup2\n      mstore\n      0x20\n      add\n      0x00\n      keccak256\n        /* \"contracts/smart-contract_flit.sol\":3669:3721  clients[clientsAddress[msg.sender]].availableBalance */\n      0x04\n      add\n      sload\n        /* \"contracts/smart-contract_flit.sol\":3655:3664  msg.value */\n      callvalue\n        /* \"contracts/smart-contract_flit.sol\":3651:3721  int(msg.value) <= clients[clientsAddress[msg.sender]].availableBalance */\n      sgt\n      iszero\n        /* \"contracts/smart-contract_flit.sol\":3643:3797  require(int(msg.value) <= clients[clientsAddress[msg.sender]].availableBalance, \"The value to transfer must be less than or equal to the current balance\") */\n      tag_108\n      jumpi\n      mload(0x40)\n      0x08c379a000000000000000000000000000000000000000000000000000000000\n      dup2\n      mstore\n      0x04\n      add\n      tag_109\n      swap1\n      tag_110\n      jump\t// in\n    tag_109:\n      mload(0x40)\n      dup1\n      swap2\n      sub\n      swap1\n      revert\n    tag_108:\n        /* \"contracts/smart-contract_flit.sol\":3868:3877  msg.value */\n      callvalue\n        /* \"contracts/smart-contract_flit.sol\":3808:3815  clients */\n      0x01\n        /* \"contracts/smart-contract_flit.sol\":3808:3843  clients[clientsAddress[msg.sender]] */\n      0x00\n        /* \"contracts/smart-contract_flit.sol\":3816:3830  clientsAddress */\n      0x02\n        /* \"contracts/smart-contract_flit.sol\":3816:3842  clientsAddress[msg.sender] */\n      0x00\n        /* \"contracts/smart-contract_flit.sol\":3831:3841  msg.sender */\n      caller\n        /* \"contracts/smart-contract_flit.sol\":3816:3842  clientsAddress[msg.sender] */\n      0xffffffffffffffffffffffffffffffffffffffff\n      and\n      0xffffffffffffffffffffffffffffffffffffffff\n      and\n      dup2\n      mstore\n      0x20\n      add\n      swap1\n      dup2\n      mstore\n      0x20\n      add\n      0x00\n      keccak256\n      sload\n        /* \"contracts/smart-contract_flit.sol\":3808:3843  clients[clientsAddress[msg.sender]] */\n      dup2\n      mstore\n      0x20\n      add\n      swap1\n      dup2\n      mstore\n      0x20\n      add\n      0x00\n      keccak256\n        /* \"contracts/smart-contract_flit.sol\":3808:3860  clients[clientsAddress[msg.sender]].availableBalance */\n      0x04\n      add\n      0x00\n        /* \"contracts/smart-contract_flit.sol\":3808:3878  clients[clientsAddress[msg.sender]].availableBalance -= int(msg.value) */\n      dup3\n      dup3\n      sload\n      tag_111\n      swap2\n      swap1\n      tag_61\n      jump\t// in\n    tag_111:\n      swap3\n      pop\n      pop\n      dup2\n      swap1\n      sstore\n      pop\n        /* \"contracts/smart-contract_flit.sol\":3943:3952  msg.value */\n      callvalue\n        /* \"contracts/smart-contract_flit.sol\":3888:3895  clients */\n      0x01\n        /* \"contracts/smart-contract_flit.sol\":3888:3918  clients[clientsAddress[_addr]] */\n      0x00\n        /* \"contracts/smart-contract_flit.sol\":3896:3910  clientsAddress */\n      0x02\n        /* \"contracts/smart-contract_flit.sol\":3896:3917  clientsAddress[_addr] */\n      0x00\n        /* \"contracts/smart-contract_flit.sol\":3911:3916  _addr */\n      dup6\n        /* \"contracts/smart-contract_flit.sol\":3896:3917  clientsAddress[_addr] */\n      0xffffffffffffffffffffffffffffffffffffffff\n      and\n      0xffffffffffffffffffffffffffffffffffffffff\n      and\n      dup2\n      mstore\n      0x20\n      add\n      swap1\n      dup2\n      mstore\n      0x20\n      add\n      0x00\n      keccak256\n      sload\n        /* \"contracts/smart-contract_flit.sol\":3888:3918  clients[clientsAddress[_addr]] */\n      dup2\n      mstore\n      0x20\n      add\n      swap1\n      dup2\n      mstore\n      0x20\n      add\n      0x00\n      keccak256\n        /* \"contracts/smart-contract_flit.sol\":3888:3935  clients[clientsAddress[_addr]].availableBalance */\n      0x04\n      add\n      0x00\n        /* \"contracts/smart-contract_flit.sol\":3888:3953  clients[clientsAddress[_addr]].availableBalance += int(msg.value) */\n      dup3\n      dup3\n      sload\n      tag_112\n      swap2\n      swap1\n      tag_63\n      jump\t// in\n    tag_112:\n      swap3\n      pop\n      pop\n      dup2\n      swap1\n      sstore\n      pop\n        /* \"contracts/smart-contract_flit.sol\":4014:4023  msg.value */\n      callvalue\n        /* \"contracts/smart-contract_flit.sol\":3963:3970  clients */\n      0x01\n        /* \"contracts/smart-contract_flit.sol\":3963:3998  clients[clientsAddress[msg.sender]] */\n      0x00\n        /* \"contracts/smart-contract_flit.sol\":3971:3985  clientsAddress */\n      0x02\n        /* \"contracts/smart-contract_flit.sol\":3971:3997  clientsAddress[msg.sender] */\n      0x00\n        /* \"contracts/smart-contract_flit.sol\":3986:3996  msg.sender */\n      caller\n        /* \"contracts/smart-contract_flit.sol\":3971:3997  clientsAddress[msg.sender] */\n      0xffffffffffffffffffffffffffffffffffffffff\n      and\n      0xffffffffffffffffffffffffffffffffffffffff\n      and\n      dup2\n      mstore\n      0x20\n      add\n      swap1\n      dup2\n      mstore\n      0x20\n      add\n      0x00\n      keccak256\n      sload\n        /* \"contracts/smart-contract_flit.sol\":3963:3998  clients[clientsAddress[msg.sender]] */\n      dup2\n      mstore\n      0x20\n      add\n      swap1\n      dup2\n      mstore\n      0x20\n      add\n      0x00\n      keccak256\n        /* \"contracts/smart-contract_flit.sol\":3963:4006  clients[clientsAddress[msg.sender]].balance */\n      0x03\n      add\n      0x00\n        /* \"contracts/smart-contract_flit.sol\":3963:4024  clients[clientsAddress[msg.sender]].balance -= int(msg.value) */\n      dup3\n      dup3\n      sload\n      tag_113\n      swap2\n      swap1\n      tag_61\n      jump\t// in\n    tag_113:\n      swap3\n      pop\n      pop\n      dup2\n      swap1\n      sstore\n      pop\n        /* \"contracts/smart-contract_flit.sol\":4064:4077  quantityShare */\n      0x00\n      0x10\n        /* \"contracts/smart-contract_flit.sol\":4064:4080  quantityShare ++ */\n      dup2\n      dup2\n      swap1\n      sload\n      swap1\n      0x0100\n      exp\n      swap1\n      div\n      0xff\n      and\n      dup1\n      swap3\n      swap2\n      swap1\n      tag_114\n      swap1\n      tag_65\n      jump\t// in\n    tag_114:\n      swap2\n      swap1\n      0x0100\n      exp\n      dup2\n      sload\n      dup2\n      0xff\n      mul\n      not\n      and\n      swap1\n      dup4\n      0xff\n      and\n      mul\n      or\n      swap1\n      sstore\n      pop\n      pop\n        /* \"contracts/smart-contract_flit.sol\":3395:4087  function PaymentClient(address _addr) public payable {... */\n      pop\n      jump\t// out\n        /* \"contracts/smart-contract_flit.sol\":2907:3358  function DecreaseAvailableBalance() public payable {... */\n    tag_33:\n        /* \"contracts/smart-contract_flit.sol\":2976:2983  clients */\n      0x01\n        /* \"contracts/smart-contract_flit.sol\":2976:3011  clients[clientsAddress[msg.sender]] */\n      0x00\n        /* \"contracts/smart-contract_flit.sol\":2984:2998  clientsAddress */\n      0x02\n        /* \"contracts/smart-contract_flit.sol\":2984:3010  clientsAddress[msg.sender] */\n      0x00\n        /* \"contracts/smart-contract_flit.sol\":2999:3009  msg.sender */\n      caller\n        /* \"contracts/smart-contract_flit.sol\":2984:3010  clientsAddress[msg.sender] */\n      0xffffffffffffffffffffffffffffffffffffffff\n      and\n      0xffffffffffffffffffffffffffffffffffffffff\n      and\n      dup2\n      mstore\n      0x20\n      add\n      swap1\n      dup2\n      mstore\n      0x20\n      add\n      0x00\n      keccak256\n      sload\n        /* \"contracts/smart-contract_flit.sol\":2976:3011  clients[clientsAddress[msg.sender]] */\n      dup2\n      mstore\n      0x20\n      add\n      swap1\n      dup2\n      mstore\n      0x20\n      add\n      0x00\n      keccak256\n        /* \"contracts/smart-contract_flit.sol\":2976:3018  clients[clientsAddress[msg.sender]].status */\n      0x06\n      add\n      0x01\n      swap1\n      sload\n      swap1\n      0x0100\n      exp\n      swap1\n      div\n      0xff\n      and\n        /* \"contracts/smart-contract_flit.sol\":2968:3052  require(clients[clientsAddress[msg.sender]].status, \"The account must be activated\") */\n      tag_116\n      jumpi\n      mload(0x40)\n      0x08c379a000000000000000000000000000000000000000000000000000000000\n      dup2\n      mstore\n      0x04\n      add\n      tag_117\n      swap1\n      tag_53\n      jump\t// in\n    tag_117:\n      mload(0x40)\n      dup1\n      swap2\n      sub\n      swap1\n      revert\n    tag_116:\n        /* \"contracts/smart-contract_flit.sol\":3082:3083  0 */\n      0x00\n        /* \"contracts/smart-contract_flit.sol\":3070:3079  msg.value */\n      callvalue\n        /* \"contracts/smart-contract_flit.sol\":3070:3083  msg.value > 0 */\n      gt\n        /* \"contracts/smart-contract_flit.sol\":3062:3143  require(msg.value > 0, \"The value to decrease balance must be greater than zero\") */\n      tag_118\n      jumpi\n      mload(0x40)\n      0x08c379a000000000000000000000000000000000000000000000000000000000\n      dup2\n      mstore\n      0x04\n      add\n      tag_119\n      swap1\n      tag_120\n      jump\t// in\n    tag_119:\n      mload(0x40)\n      dup1\n      swap2\n      sub\n      swap1\n      revert\n    tag_118:\n        /* \"contracts/smart-contract_flit.sol\":3214:3223  msg.value */\n      callvalue\n        /* \"contracts/smart-contract_flit.sol\":3154:3161  clients */\n      0x01\n        /* \"contracts/smart-contract_flit.sol\":3154:3189  clients[clientsAddress[msg.sender]] */\n      0x00\n        /* \"contracts/smart-contract_flit.sol\":3162:3176  clientsAddress */\n      0x02\n        /* \"contracts/smart-contract_flit.sol\":3162:3188  clientsAddress[msg.sender] */\n      0x00\n        /* \"contracts/smart-contract_flit.sol\":3177:3187  msg.sender */\n      caller\n        /* \"contracts/smart-contract_flit.sol\":3162:3188  clientsAddress[msg.sender] */\n      0xffffffffffffffffffffffffffffffffffffffff\n      and\n      0xffffffffffffffffffffffffffffffffffffffff\n      and\n      dup2\n      mstore\n      0x20\n      add\n      swap1\n      dup2\n      mstore\n      0x20\n      add\n      0x00\n      keccak256\n      sload\n        /* \"contracts/smart-contract_flit.sol\":3154:3189  clients[clientsAddress[msg.sender]] */\n      dup2\n      mstore\n      0x20\n      add\n      swap1\n      dup2\n      mstore\n      0x20\n      add\n      0x00\n      keccak256\n        /* \"contracts/smart-contract_flit.sol\":3154:3206  clients[clientsAddress[msg.sender]].availableBalance */\n      0x04\n      add\n      0x00\n        /* \"contracts/smart-contract_flit.sol\":3154:3224  clients[clientsAddress[msg.sender]].availableBalance -= int(msg.value) */\n      dup3\n      dup3\n      sload\n      tag_121\n      swap2\n      swap1\n      tag_61\n      jump\t// in\n    tag_121:\n      swap3\n      pop\n      pop\n      dup2\n      swap1\n      sstore\n      pop\n        /* \"contracts/smart-contract_flit.sol\":3285:3294  msg.value */\n      callvalue\n        /* \"contracts/smart-contract_flit.sol\":3234:3241  clients */\n      0x01\n        /* \"contracts/smart-contract_flit.sol\":3234:3269  clients[clientsAddress[msg.sender]] */\n      0x00\n        /* \"contracts/smart-contract_flit.sol\":3242:3256  clientsAddress */\n      0x02\n        /* \"contracts/smart-contract_flit.sol\":3242:3268  clientsAddress[msg.sender] */\n      0x00\n        /* \"contracts/smart-contract_flit.sol\":3257:3267  msg.sender */\n      caller\n        /* \"contracts/smart-contract_flit.sol\":3242:3268  clientsAddress[msg.sender] */\n      0xffffffffffffffffffffffffffffffffffffffff\n      and\n      0xffffffffffffffffffffffffffffffffffffffff\n      and\n      dup2\n      mstore\n      0x20\n      add\n      swap1\n      dup2\n      mstore\n      0x20\n      add\n      0x00\n      keccak256\n      sload\n        /* \"contracts/smart-contract_flit.sol\":3234:3269  clients[clientsAddress[msg.sender]] */\n      dup2\n      mstore\n      0x20\n      add\n      swap1\n      dup2\n      mstore\n      0x20\n      add\n      0x00\n      keccak256\n        /* \"contracts/smart-contract_flit.sol\":3234:3277  clients[clientsAddress[msg.sender]].balance */\n      0x03\n      add\n      0x00\n        /* \"contracts/smart-contract_flit.sol\":3234:3295  clients[clientsAddress[msg.sender]].balance -= int(msg.value) */\n      dup3\n      dup3\n      sload\n      tag_122\n      swap2\n      swap1\n      tag_61\n      jump\t// in\n    tag_122:\n      swap3\n      pop\n      pop\n      dup2\n      swap1\n      sstore\n      pop\n        /* \"contracts/smart-contract_flit.sol\":3335:3348  quantityShare */\n      0x00\n      0x10\n        /* \"contracts/smart-contract_flit.sol\":3335:3351  quantityShare ++ */\n      dup2\n      dup2\n      swap1\n      sload\n      swap1\n      0x0100\n      exp\n      swap1\n      div\n      0xff\n      and\n      dup1\n      swap3\n      swap2\n      swap1\n      tag_123\n      swap1\n      tag_65\n      jump\t// in\n    tag_123:\n      swap2\n      swap1\n      0x0100\n      exp\n      dup2\n      sload\n      dup2\n      0xff\n      mul\n      not\n      and\n      swap1\n      dup4\n      0xff\n      and\n      mul\n      or\n      swap1\n      sstore\n      pop\n      pop\n        /* \"contracts/smart-contract_flit.sol\":2907:3358  function DecreaseAvailableBalance() public payable {... */\n      jump\t// out\n        /* \"contracts/smart-contract_flit.sol\":4117:4682  function DepositFund() public payable {... */\n    tag_35:\n        /* \"contracts/smart-contract_flit.sol\":4173:4180  clients */\n      0x01\n        /* \"contracts/smart-contract_flit.sol\":4173:4208  clients[clientsAddress[msg.sender]] */\n      0x00\n        /* \"contracts/smart-contract_flit.sol\":4181:4195  clientsAddress */\n      0x02\n        /* \"contracts/smart-contract_flit.sol\":4181:4207  clientsAddress[msg.sender] */\n      0x00\n        /* \"contracts/smart-contract_flit.sol\":4196:4206  msg.sender */\n      caller\n        /* \"contracts/smart-contract_flit.sol\":4181:4207  clientsAddress[msg.sender] */\n      0xffffffffffffffffffffffffffffffffffffffff\n      and\n      0xffffffffffffffffffffffffffffffffffffffff\n      and\n      dup2\n      mstore\n      0x20\n      add\n      swap1\n      dup2\n      mstore\n      0x20\n      add\n      0x00\n      keccak256\n      sload\n        /* \"contracts/smart-contract_flit.sol\":4173:4208  clients[clientsAddress[msg.sender]] */\n      dup2\n      mstore\n      0x20\n      add\n      swap1\n      dup2\n      mstore\n      0x20\n      add\n      0x00\n      keccak256\n        /* \"contracts/smart-contract_flit.sol\":4173:4215  clients[clientsAddress[msg.sender]].status */\n      0x06\n      add\n      0x01\n      swap1\n      sload\n      swap1\n      0x0100\n      exp\n      swap1\n      div\n      0xff\n      and\n        /* \"contracts/smart-contract_flit.sol\":4165:4249  require(clients[clientsAddress[msg.sender]].status, \"The account must be activated\") */\n      tag_125\n      jumpi\n      mload(0x40)\n      0x08c379a000000000000000000000000000000000000000000000000000000000\n      dup2\n      mstore\n      0x04\n      add\n      tag_126\n      swap1\n      tag_53\n      jump\t// in\n    tag_126:\n      mload(0x40)\n      dup1\n      swap2\n      sub\n      swap1\n      revert\n    tag_125:\n        /* \"contracts/smart-contract_flit.sol\":4279:4280  0 */\n      0x00\n        /* \"contracts/smart-contract_flit.sol\":4267:4276  msg.value */\n      callvalue\n        /* \"contracts/smart-contract_flit.sol\":4267:4280  msg.value > 0 */\n      gt\n        /* \"contracts/smart-contract_flit.sol\":4259:4340  require(msg.value > 0, \"The value to increase balance must be greater than zero\") */\n      tag_127\n      jumpi\n      mload(0x40)\n      0x08c379a000000000000000000000000000000000000000000000000000000000\n      dup2\n      mstore\n      0x04\n      add\n      tag_128\n      swap1\n      tag_56\n      jump\t// in\n    tag_128:\n      mload(0x40)\n      dup1\n      swap2\n      sub\n      swap1\n      revert\n    tag_127:\n        /* \"contracts/smart-contract_flit.sol\":4376:4383  clients */\n      0x01\n        /* \"contracts/smart-contract_flit.sol\":4376:4411  clients[clientsAddress[msg.sender]] */\n      0x00\n        /* \"contracts/smart-contract_flit.sol\":4384:4398  clientsAddress */\n      0x02\n        /* \"contracts/smart-contract_flit.sol\":4384:4410  clientsAddress[msg.sender] */\n      0x00\n        /* \"contracts/smart-contract_flit.sol\":4399:4409  msg.sender */\n      caller\n        /* \"contracts/smart-contract_flit.sol\":4384:4410  clientsAddress[msg.sender] */\n      0xffffffffffffffffffffffffffffffffffffffff\n      and\n      0xffffffffffffffffffffffffffffffffffffffff\n      and\n      dup2\n      mstore\n      0x20\n      add\n      swap1\n      dup2\n      mstore\n      0x20\n      add\n      0x00\n      keccak256\n      sload\n        /* \"contracts/smart-contract_flit.sol\":4376:4411  clients[clientsAddress[msg.sender]] */\n      dup2\n      mstore\n      0x20\n      add\n      swap1\n      dup2\n      mstore\n      0x20\n      add\n      0x00\n      keccak256\n        /* \"contracts/smart-contract_flit.sol\":4376:4428  clients[clientsAddress[msg.sender]].availableBalance */\n      0x04\n      add\n      sload\n        /* \"contracts/smart-contract_flit.sol\":4362:4371  msg.value */\n      callvalue\n        /* \"contracts/smart-contract_flit.sol\":4358:4428  int(msg.value) <= clients[clientsAddress[msg.sender]].availableBalance */\n      sgt\n      iszero\n        /* \"contracts/smart-contract_flit.sol\":4350:4500  require(int(msg.value) <= clients[clientsAddress[msg.sender]].availableBalance, \"The value to decrease balance must be less than the current balance\") */\n      tag_129\n      jumpi\n      mload(0x40)\n      0x08c379a000000000000000000000000000000000000000000000000000000000\n      dup2\n      mstore\n      0x04\n      add\n      tag_130\n      swap1\n      tag_59\n      jump\t// in\n    tag_130:\n      mload(0x40)\n      dup1\n      swap2\n      sub\n      swap1\n      revert\n    tag_129:\n        /* \"contracts/smart-contract_flit.sol\":4571:4580  msg.value */\n      callvalue\n        /* \"contracts/smart-contract_flit.sol\":4511:4518  clients */\n      0x01\n        /* \"contracts/smart-contract_flit.sol\":4511:4546  clients[clientsAddress[msg.sender]] */\n      0x00\n        /* \"contracts/smart-contract_flit.sol\":4519:4533  clientsAddress */\n      0x02\n        /* \"contracts/smart-contract_flit.sol\":4519:4545  clientsAddress[msg.sender] */\n      0x00\n        /* \"contracts/smart-contract_flit.sol\":4534:4544  msg.sender */\n      caller\n        /* \"contracts/smart-contract_flit.sol\":4519:4545  clientsAddress[msg.sender] */\n      0xffffffffffffffffffffffffffffffffffffffff\n      and\n      0xffffffffffffffffffffffffffffffffffffffff\n      and\n      dup2\n      mstore\n      0x20\n      add\n      swap1\n      dup2\n      mstore\n      0x20\n      add\n      0x00\n      keccak256\n      sload\n        /* \"contracts/smart-contract_flit.sol\":4511:4546  clients[clientsAddress[msg.sender]] */\n      dup2\n      mstore\n      0x20\n      add\n      swap1\n      dup2\n      mstore\n      0x20\n      add\n      0x00\n      keccak256\n        /* \"contracts/smart-contract_flit.sol\":4511:4563  clients[clientsAddress[msg.sender]].availableBalance */\n      0x04\n      add\n      0x00\n        /* \"contracts/smart-contract_flit.sol\":4511:4581  clients[clientsAddress[msg.sender]].availableBalance -= int(msg.value) */\n      dup3\n      dup3\n      sload\n      tag_131\n      swap2\n      swap1\n      tag_61\n      jump\t// in\n    tag_131:\n      swap3\n      pop\n      pop\n      dup2\n      swap1\n      sstore\n      pop\n        /* \"contracts/smart-contract_flit.sol\":4639:4648  msg.value */\n      callvalue\n        /* \"contracts/smart-contract_flit.sol\":4591:4598  clients */\n      0x01\n        /* \"contracts/smart-contract_flit.sol\":4591:4626  clients[clientsAddress[msg.sender]] */\n      0x00\n        /* \"contracts/smart-contract_flit.sol\":4599:4613  clientsAddress */\n      0x02\n        /* \"contracts/smart-contract_flit.sol\":4599:4625  clientsAddress[msg.sender] */\n      0x00\n        /* \"contracts/smart-contract_flit.sol\":4614:4624  msg.sender */\n      caller\n        /* \"contracts/smart-contract_flit.sol\":4599:4625  clientsAddress[msg.sender] */\n      0xffffffffffffffffffffffffffffffffffffffff\n      and\n      0xffffffffffffffffffffffffffffffffffffffff\n      and\n      dup2\n      mstore\n      0x20\n      add\n      swap1\n      dup2\n      mstore\n      0x20\n      add\n      0x00\n      keccak256\n      sload\n        /* \"contracts/smart-contract_flit.sol\":4591:4626  clients[clientsAddress[msg.sender]] */\n      dup2\n      mstore\n      0x20\n      add\n      swap1\n      dup2\n      mstore\n      0x20\n      add\n      0x00\n      keccak256\n        /* \"contracts/smart-contract_flit.sol\":4591:4631  clients[clientsAddress[msg.sender]].fund */\n      0x05\n      add\n      0x00\n        /* \"contracts/smart-contract_flit.sol\":4591:4649  clients[clientsAddress[msg.sender]].fund += int(msg.value) */\n      dup3\n      dup3\n      sload\n      tag_132\n      swap2\n      swap1\n      tag_63\n      jump\t// in\n    tag_132:\n      swap3\n      pop\n      pop\n      dup2\n      swap1\n      sstore\n      pop\n        /* \"contracts/smart-contract_flit.sol\":4659:4672  quantityShare */\n      0x00\n      0x10\n        /* \"contracts/smart-contract_flit.sol\":4659:4675  quantityShare ++ */\n      dup2\n      dup2\n      swap1\n      sload\n      swap1\n      0x0100\n      exp\n      swap1\n      div\n      0xff\n      and\n      dup1\n      swap3\n      swap2\n      swap1\n      tag_133\n      swap1\n      tag_65\n      jump\t// in\n    tag_133:\n      swap2\n      swap1\n      0x0100\n      exp\n      dup2\n      sload\n      dup2\n      0xff\n      mul\n      not\n      and\n      swap1\n      dup4\n      0xff\n      and\n      mul\n      or\n      swap1\n      sstore\n      pop\n      pop\n        /* \"contracts/smart-contract_flit.sol\":4117:4682  function DepositFund() public payable {... */\n      jump\t// out\n        /* \"contracts/smart-contract_flit.sol\":5562:5757  function ReactiveClient() public {... */\n    tag_38:\n        /* \"contracts/smart-contract_flit.sol\":5614:5621  clients */\n      0x01\n        /* \"contracts/smart-contract_flit.sol\":5614:5649  clients[clientsAddress[msg.sender]] */\n      0x00\n        /* \"contracts/smart-contract_flit.sol\":5622:5636  clientsAddress */\n      0x02\n        /* \"contracts/smart-contract_flit.sol\":5622:5648  clientsAddress[msg.sender] */\n      0x00\n        /* \"contracts/smart-contract_flit.sol\":5637:5647  msg.sender */\n      caller\n        /* \"contracts/smart-contract_flit.sol\":5622:5648  clientsAddress[msg.sender] */\n      0xffffffffffffffffffffffffffffffffffffffff\n      and\n      0xffffffffffffffffffffffffffffffffffffffff\n      and\n      dup2\n      mstore\n      0x20\n      add\n      swap1\n      dup2\n      mstore\n      0x20\n      add\n      0x00\n      keccak256\n      sload\n        /* \"contracts/smart-contract_flit.sol\":5614:5649  clients[clientsAddress[msg.sender]] */\n      dup2\n      mstore\n      0x20\n      add\n      swap1\n      dup2\n      mstore\n      0x20\n      add\n      0x00\n      keccak256\n        /* \"contracts/smart-contract_flit.sol\":5614:5656  clients[clientsAddress[msg.sender]].status */\n      0x06\n      add\n      0x01\n      swap1\n      sload\n      swap1\n      0x0100\n      exp\n      swap1\n      div\n      0xff\n      and\n        /* \"contracts/smart-contract_flit.sol\":5613:5656  !clients[clientsAddress[msg.sender]].status */\n      iszero\n        /* \"contracts/smart-contract_flit.sol\":5605:5690  require(!clients[clientsAddress[msg.sender]].status, \"The account is already active\") */\n      tag_135\n      jumpi\n      mload(0x40)\n      0x08c379a000000000000000000000000000000000000000000000000000000000\n      dup2\n      mstore\n      0x04\n      add\n      tag_136\n      swap1\n      tag_137\n      jump\t// in\n    tag_136:\n      mload(0x40)\n      dup1\n      swap2\n      sub\n      swap1\n      revert\n    tag_135:\n        /* \"contracts/smart-contract_flit.sol\":5746:5750  true */\n      0x01\n        /* \"contracts/smart-contract_flit.sol\":5701:5708  clients */\n      dup1\n        /* \"contracts/smart-contract_flit.sol\":5701:5736  clients[clientsAddress[msg.sender]] */\n      0x00\n        /* \"contracts/smart-contract_flit.sol\":5709:5723  clientsAddress */\n      0x02\n        /* \"contracts/smart-contract_flit.sol\":5709:5735  clientsAddress[msg.sender] */\n      0x00\n        /* \"contracts/smart-contract_flit.sol\":5724:5734  msg.sender */\n      caller\n        /* \"contracts/smart-contract_flit.sol\":5709:5735  clientsAddress[msg.sender] */\n      0xffffffffffffffffffffffffffffffffffffffff\n      and\n      0xffffffffffffffffffffffffffffffffffffffff\n      and\n      dup2\n      mstore\n      0x20\n      add\n      swap1\n      dup2\n      mstore\n      0x20\n      add\n      0x00\n      keccak256\n      sload\n        /* \"contracts/smart-contract_flit.sol\":5701:5736  clients[clientsAddress[msg.sender]] */\n      dup2\n      mstore\n      0x20\n      add\n      swap1\n      dup2\n      mstore\n      0x20\n      add\n      0x00\n      keccak256\n        /* \"contracts/smart-contract_flit.sol\":5701:5743  clients[clientsAddress[msg.sender]].status */\n      0x06\n      add\n      0x01\n        /* \"contracts/smart-contract_flit.sol\":5701:5750  clients[clientsAddress[msg.sender]].status = true */\n      0x0100\n      exp\n      dup2\n      sload\n      dup2\n      0xff\n      mul\n      not\n      and\n      swap1\n      dup4\n      iszero\n      iszero\n      mul\n      or\n      swap1\n      sstore\n      pop\n        /* \"contracts/smart-contract_flit.sol\":5562:5757  function ReactiveClient() public {... */\n      jump\t// out\n        /* \"contracts/smart-contract_flit.sol\":2450:2901  function IncreaseAvailableBalance() public payable {... */\n    tag_40:\n        /* \"contracts/smart-contract_flit.sol\":2519:2526  clients */\n      0x01\n        /* \"contracts/smart-contract_flit.sol\":2519:2554  clients[clientsAddress[msg.sender]] */\n      0x00\n        /* \"contracts/smart-contract_flit.sol\":2527:2541  clientsAddress */\n      0x02\n        /* \"contracts/smart-contract_flit.sol\":2527:2553  clientsAddress[msg.sender] */\n      0x00\n        /* \"contracts/smart-contract_flit.sol\":2542:2552  msg.sender */\n      caller\n        /* \"contracts/smart-contract_flit.sol\":2527:2553  clientsAddress[msg.sender] */\n      0xffffffffffffffffffffffffffffffffffffffff\n      and\n      0xffffffffffffffffffffffffffffffffffffffff\n      and\n      dup2\n      mstore\n      0x20\n      add\n      swap1\n      dup2\n      mstore\n      0x20\n      add\n      0x00\n      keccak256\n      sload\n        /* \"contracts/smart-contract_flit.sol\":2519:2554  clients[clientsAddress[msg.sender]] */\n      dup2\n      mstore\n      0x20\n      add\n      swap1\n      dup2\n      mstore\n      0x20\n      add\n      0x00\n      keccak256\n        /* \"contracts/smart-contract_flit.sol\":2519:2561  clients[clientsAddress[msg.sender]].status */\n      0x06\n      add\n      0x01\n      swap1\n      sload\n      swap1\n      0x0100\n      exp\n      swap1\n      div\n      0xff\n      and\n        /* \"contracts/smart-contract_flit.sol\":2511:2595  require(clients[clientsAddress[msg.sender]].status, \"The account must be activated\") */\n      tag_139\n      jumpi\n      mload(0x40)\n      0x08c379a000000000000000000000000000000000000000000000000000000000\n      dup2\n      mstore\n      0x04\n      add\n      tag_140\n      swap1\n      tag_53\n      jump\t// in\n    tag_140:\n      mload(0x40)\n      dup1\n      swap2\n      sub\n      swap1\n      revert\n    tag_139:\n        /* \"contracts/smart-contract_flit.sol\":2625:2626  0 */\n      0x00\n        /* \"contracts/smart-contract_flit.sol\":2613:2622  msg.value */\n      callvalue\n        /* \"contracts/smart-contract_flit.sol\":2613:2626  msg.value > 0 */\n      gt\n        /* \"contracts/smart-contract_flit.sol\":2605:2686  require(msg.value > 0, \"The value to increase balance must be greater than zero\") */\n      tag_141\n      jumpi\n      mload(0x40)\n      0x08c379a000000000000000000000000000000000000000000000000000000000\n      dup2\n      mstore\n      0x04\n      add\n      tag_142\n      swap1\n      tag_56\n      jump\t// in\n    tag_142:\n      mload(0x40)\n      dup1\n      swap2\n      sub\n      swap1\n      revert\n    tag_141:\n        /* \"contracts/smart-contract_flit.sol\":2757:2766  msg.value */\n      callvalue\n        /* \"contracts/smart-contract_flit.sol\":2697:2704  clients */\n      0x01\n        /* \"contracts/smart-contract_flit.sol\":2697:2732  clients[clientsAddress[msg.sender]] */\n      0x00\n        /* \"contracts/smart-contract_flit.sol\":2705:2719  clientsAddress */\n      0x02\n        /* \"contracts/smart-contract_flit.sol\":2705:2731  clientsAddress[msg.sender] */\n      0x00\n        /* \"contracts/smart-contract_flit.sol\":2720:2730  msg.sender */\n      caller\n        /* \"contracts/smart-contract_flit.sol\":2705:2731  clientsAddress[msg.sender] */\n      0xffffffffffffffffffffffffffffffffffffffff\n      and\n      0xffffffffffffffffffffffffffffffffffffffff\n      and\n      dup2\n      mstore\n      0x20\n      add\n      swap1\n      dup2\n      mstore\n      0x20\n      add\n      0x00\n      keccak256\n      sload\n        /* \"contracts/smart-contract_flit.sol\":2697:2732  clients[clientsAddress[msg.sender]] */\n      dup2\n      mstore\n      0x20\n      add\n      swap1\n      dup2\n      mstore\n      0x20\n      add\n      0x00\n      keccak256\n        /* \"contracts/smart-contract_flit.sol\":2697:2749  clients[clientsAddress[msg.sender]].availableBalance */\n      0x04\n      add\n      0x00\n        /* \"contracts/smart-contract_flit.sol\":2697:2767  clients[clientsAddress[msg.sender]].availableBalance += int(msg.value) */\n      dup3\n      dup3\n      sload\n      tag_143\n      swap2\n      swap1\n      tag_63\n      jump\t// in\n    tag_143:\n      swap3\n      pop\n      pop\n      dup2\n      swap1\n      sstore\n      pop\n        /* \"contracts/smart-contract_flit.sol\":2828:2837  msg.value */\n      callvalue\n        /* \"contracts/smart-contract_flit.sol\":2777:2784  clients */\n      0x01\n        /* \"contracts/smart-contract_flit.sol\":2777:2812  clients[clientsAddress[msg.sender]] */\n      0x00\n        /* \"contracts/smart-contract_flit.sol\":2785:2799  clientsAddress */\n      0x02\n        /* \"contracts/smart-contract_flit.sol\":2785:2811  clientsAddress[msg.sender] */\n      0x00\n        /* \"contracts/smart-contract_flit.sol\":2800:2810  msg.sender */\n      caller\n        /* \"contracts/smart-contract_flit.sol\":2785:2811  clientsAddress[msg.sender] */\n      0xffffffffffffffffffffffffffffffffffffffff\n      and\n      0xffffffffffffffffffffffffffffffffffffffff\n      and\n      dup2\n      mstore\n      0x20\n      add\n      swap1\n      dup2\n      mstore\n      0x20\n      add\n      0x00\n      keccak256\n      sload\n        /* \"contracts/smart-contract_flit.sol\":2777:2812  clients[clientsAddress[msg.sender]] */\n      dup2\n      mstore\n      0x20\n      add\n      swap1\n      dup2\n      mstore\n      0x20\n      add\n      0x00\n      keccak256\n        /* \"contracts/smart-contract_flit.sol\":2777:2820  clients[clientsAddress[msg.sender]].balance */\n      0x03\n      add\n      0x00\n        /* \"contracts/smart-contract_flit.sol\":2777:2838  clients[clientsAddress[msg.sender]].balance += int(msg.value) */\n      dup3\n      dup3\n      sload\n      tag_144\n      swap2\n      swap1\n      tag_63\n      jump\t// in\n    tag_144:\n      swap3\n      pop\n      pop\n      dup2\n      swap1\n      sstore\n      pop\n        /* \"contracts/smart-contract_flit.sol\":2878:2891  quantityShare */\n      0x00\n      0x10\n        /* \"contracts/smart-contract_flit.sol\":2878:2894  quantityShare ++ */\n      dup2\n      dup2\n      swap1\n      sload\n      swap1\n      0x0100\n      exp\n      swap1\n      div\n      0xff\n      and\n      dup1\n      swap3\n      swap2\n      swap1\n      tag_145\n      swap1\n      tag_65\n      jump\t// in\n    tag_145:\n      swap2\n      swap1\n      0x0100\n      exp\n      dup2\n      sload\n      dup2\n      0xff\n      mul\n      not\n      and\n      swap1\n      dup4\n      0xff\n      and\n      mul\n      or\n      swap1\n      sstore\n      pop\n      pop\n        /* \"contracts/smart-contract_flit.sol\":2450:2901  function IncreaseAvailableBalance() public payable {... */\n      jump\t// out\n        /* \"contracts/smart-contract_flit.sol\":728:1193  function CreateClient(string calldata _username) public returns(address) {... */\n    tag_44:\n        /* \"contracts/smart-contract_flit.sol\":792:799  address */\n      0x00\n        /* \"contracts/smart-contract_flit.sol\":845:846  0 */\n      dup1\n        /* \"contracts/smart-contract_flit.sol\":825:834  _username */\n      dup4\n      dup4\n        /* \"contracts/smart-contract_flit.sol\":819:842  bytes(_username).length */\n      swap1\n      pop\n        /* \"contracts/smart-contract_flit.sol\":819:846  bytes(_username).length > 0 */\n      gt\n        /* \"contracts/smart-contract_flit.sol\":811:879  require(bytes(_username).length > 0, \"The username cannot be empty\") */\n      tag_147\n      jumpi\n      mload(0x40)\n      0x08c379a000000000000000000000000000000000000000000000000000000000\n      dup2\n      mstore\n      0x04\n      add\n      tag_148\n      swap1\n      tag_87\n      jump\t// in\n    tag_148:\n      mload(0x40)\n      dup1\n      swap2\n      sub\n      swap1\n      revert\n    tag_147:\n        /* \"contracts/smart-contract_flit.sol\":935:936  0 */\n      0x00\n        /* \"contracts/smart-contract_flit.sol\":897:937  clientsUsername[_username] == address(0) */\n      0xffffffffffffffffffffffffffffffffffffffff\n      and\n        /* \"contracts/smart-contract_flit.sol\":897:912  clientsUsername */\n      0x03\n        /* \"contracts/smart-contract_flit.sol\":913:922  _username */\n      dup5\n      dup5\n        /* \"contracts/smart-contract_flit.sol\":897:923  clientsUsername[_username] */\n      mload(0x40)\n      tag_149\n      swap3\n      swap2\n      swap1\n      tag_92\n      jump\t// in\n    tag_149:\n      swap1\n      dup2\n      mstore\n      0x20\n      add\n      mload(0x40)\n      dup1\n      swap2\n      sub\n      swap1\n      keccak256\n      0x00\n      swap1\n      sload\n      swap1\n      0x0100\n      exp\n      swap1\n      div\n      0xffffffffffffffffffffffffffffffffffffffff\n      and\n        /* \"contracts/smart-contract_flit.sol\":897:937  clientsUsername[_username] == address(0) */\n      0xffffffffffffffffffffffffffffffffffffffff\n      and\n      eq\n        /* \"contracts/smart-contract_flit.sol\":889:967  require(clientsUsername[_username] == address(0), \"This user already exists.\") */\n      tag_150\n      jumpi\n      mload(0x40)\n      0x08c379a000000000000000000000000000000000000000000000000000000000\n      dup2\n      mstore\n      0x04\n      add\n      tag_151\n      swap1\n      tag_152\n      jump\t// in\n    tag_151:\n      mload(0x40)\n      dup1\n      swap2\n      sub\n      swap1\n      revert\n    tag_150:\n        /* \"contracts/smart-contract_flit.sol\":1004:1079  Client(incrementValue, msg.sender, _username, 0, 0, 0, quantityShare, true) */\n      mload(0x40)\n      dup1\n      0x0100\n      add\n      0x40\n      mstore\n      dup1\n        /* \"contracts/smart-contract_flit.sol\":1011:1025  incrementValue */\n      0x00\n      dup1\n      sload\n      swap1\n      0x0100\n      exp\n      swap1\n      div\n      0xffffffffffffffffffffffffffffffff\n      and\n        /* \"contracts/smart-contract_flit.sol\":1004:1079  Client(incrementValue, msg.sender, _username, 0, 0, 0, quantityShare, true) */\n      0xffffffffffffffffffffffffffffffff\n      and\n      dup2\n      mstore\n      0x20\n      add\n        /* \"contracts/smart-contract_flit.sol\":1027:1037  msg.sender */\n      caller\n        /* \"contracts/smart-contract_flit.sol\":1004:1079  Client(incrementValue, msg.sender, _username, 0, 0, 0, quantityShare, true) */\n      0xffffffffffffffffffffffffffffffffffffffff\n      and\n      dup2\n      mstore\n      0x20\n      add\n        /* \"contracts/smart-contract_flit.sol\":1039:1048  _username */\n      dup5\n      dup5\n        /* \"contracts/smart-contract_flit.sol\":1004:1079  Client(incrementValue, msg.sender, _username, 0, 0, 0, quantityShare, true) */\n      dup1\n      dup1\n      0x1f\n      add\n      0x20\n      dup1\n      swap2\n      div\n      mul\n      0x20\n      add\n      mload(0x40)\n      swap1\n      dup2\n      add\n      0x40\n      mstore\n      dup1\n      swap4\n      swap3\n      swap2\n      swap1\n      dup2\n      dup2\n      mstore\n      0x20\n      add\n      dup4\n      dup4\n      dup1\n      dup3\n      dup5\n      calldatacopy\n      0x00\n      dup2\n      dup5\n      add\n      mstore\n      not(0x1f)\n      0x1f\n      dup3\n      add\n      and\n      swap1\n      pop\n      dup1\n      dup4\n      add\n      swap3\n      pop\n      pop\n      pop\n      pop\n      pop\n      pop\n      pop\n      dup2\n      mstore\n      0x20\n      add\n        /* \"contracts/smart-contract_flit.sol\":1050:1051  0 */\n      0x00\n        /* \"contracts/smart-contract_flit.sol\":1004:1079  Client(incrementValue, msg.sender, _username, 0, 0, 0, quantityShare, true) */\n      dup2\n      mstore\n      0x20\n      add\n        /* \"contracts/smart-contract_flit.sol\":1053:1054  0 */\n      0x00\n        /* \"contracts/smart-contract_flit.sol\":1004:1079  Client(incrementValue, msg.sender, _username, 0, 0, 0, quantityShare, true) */\n      dup2\n      mstore\n      0x20\n      add\n        /* \"contracts/smart-contract_flit.sol\":1056:1057  0 */\n      0x00\n        /* \"contracts/smart-contract_flit.sol\":1004:1079  Client(incrementValue, msg.sender, _username, 0, 0, 0, quantityShare, true) */\n      dup2\n      mstore\n      0x20\n      add\n        /* \"contracts/smart-contract_flit.sol\":1059:1072  quantityShare */\n      0x00\n      0x10\n      swap1\n      sload\n      swap1\n      0x0100\n      exp\n      swap1\n      div\n      0xff\n      and\n        /* \"contracts/smart-contract_flit.sol\":1004:1079  Client(incrementValue, msg.sender, _username, 0, 0, 0, quantityShare, true) */\n      0xff\n      and\n      dup2\n      mstore\n      0x20\n      add\n        /* \"contracts/smart-contract_flit.sol\":1074:1078  true */\n      0x01\n        /* \"contracts/smart-contract_flit.sol\":1004:1079  Client(incrementValue, msg.sender, _username, 0, 0, 0, quantityShare, true) */\n      iszero\n      iszero\n      dup2\n      mstore\n      pop\n        /* \"contracts/smart-contract_flit.sol\":978:985  clients */\n      0x01\n        /* \"contracts/smart-contract_flit.sol\":978:1001  clients[incrementValue] */\n      0x00\n        /* \"contracts/smart-contract_flit.sol\":986:1000  incrementValue */\n      dup1\n      0x00\n      swap1\n      sload\n      swap1\n      0x0100\n      exp\n      swap1\n      div\n      0xffffffffffffffffffffffffffffffff\n      and\n        /* \"contracts/smart-contract_flit.sol\":978:1001  clients[incrementValue] */\n      0xffffffffffffffffffffffffffffffff\n      and\n      dup2\n      mstore\n      0x20\n      add\n      swap1\n      dup2\n      mstore\n      0x20\n      add\n      0x00\n      keccak256\n        /* \"contracts/smart-contract_flit.sol\":978:1079  clients[incrementValue] = Client(incrementValue, msg.sender, _username, 0, 0, 0, quantityShare, true) */\n      0x00\n      dup3\n      add\n      mload\n      dup2\n      0x00\n      add\n      sstore\n      0x20\n      dup3\n      add\n      mload\n      dup2\n      0x01\n      add\n      exp(0x0100, 0x00)\n      dup2\n      sload\n      dup2\n      0xffffffffffffffffffffffffffffffffffffffff\n      mul\n      not\n      and\n      swap1\n      dup4\n      0xffffffffffffffffffffffffffffffffffffffff\n      and\n      mul\n      or\n      swap1\n      sstore\n      pop\n      0x40\n      dup3\n      add\n      mload\n      dup2\n      0x02\n      add\n      swap1\n      dup2\n      tag_153\n      swap2\n      swap1\n      tag_154\n      jump\t// in\n    tag_153:\n      pop\n      0x60\n      dup3\n      add\n      mload\n      dup2\n      0x03\n      add\n      sstore\n      0x80\n      dup3\n      add\n      mload\n      dup2\n      0x04\n      add\n      sstore\n      0xa0\n      dup3\n      add\n      mload\n      dup2\n      0x05\n      add\n      sstore\n      0xc0\n      dup3\n      add\n      mload\n      dup2\n      0x06\n      add\n      exp(0x0100, 0x00)\n      dup2\n      sload\n      dup2\n      0xff\n      mul\n      not\n      and\n      swap1\n      dup4\n      0xff\n      and\n      mul\n      or\n      swap1\n      sstore\n      pop\n      0xe0\n      dup3\n      add\n      mload\n      dup2\n      0x06\n      add\n      exp(0x0100, 0x01)\n      dup2\n      sload\n      dup2\n      0xff\n      mul\n      not\n      and\n      swap1\n      dup4\n      iszero\n      iszero\n      mul\n      or\n      swap1\n      sstore\n      pop\n      swap1\n      pop\n      pop\n        /* \"contracts/smart-contract_flit.sol\":1118:1132  incrementValue */\n      0x00\n      dup1\n      sload\n      swap1\n      0x0100\n      exp\n      swap1\n      div\n      0xffffffffffffffffffffffffffffffff\n      and\n        /* \"contracts/smart-contract_flit.sol\":1089:1132  clientsAddress[msg.sender] = incrementValue */\n      0xffffffffffffffffffffffffffffffff\n      and\n        /* \"contracts/smart-contract_flit.sol\":1089:1103  clientsAddress */\n      0x02\n        /* \"contracts/smart-contract_flit.sol\":1089:1115  clientsAddress[msg.sender] */\n      0x00\n        /* \"contracts/smart-contract_flit.sol\":1104:1114  msg.sender */\n      caller\n        /* \"contracts/smart-contract_flit.sol\":1089:1115  clientsAddress[msg.sender] */\n      0xffffffffffffffffffffffffffffffffffffffff\n      and\n      0xffffffffffffffffffffffffffffffffffffffff\n      and\n      dup2\n      mstore\n      0x20\n      add\n      swap1\n      dup2\n      mstore\n      0x20\n      add\n      0x00\n      keccak256\n        /* \"contracts/smart-contract_flit.sol\":1089:1132  clientsAddress[msg.sender] = incrementValue */\n      dup2\n      swap1\n      sstore\n      pop\n        /* \"contracts/smart-contract_flit.sol\":1142:1156  incrementValue */\n      0x00\n      dup1\n        /* \"contracts/smart-contract_flit.sol\":1142:1159  incrementValue ++ */\n      dup2\n      dup2\n      swap1\n      sload\n      swap1\n      0x0100\n      exp\n      swap1\n      div\n      0xffffffffffffffffffffffffffffffff\n      and\n      dup1\n      swap3\n      swap2\n      swap1\n      tag_155\n      swap1\n      tag_156\n      jump\t// in\n    tag_155:\n      swap2\n      swap1\n      0x0100\n      exp\n      dup2\n      sload\n      dup2\n      0xffffffffffffffffffffffffffffffff\n      mul\n      not\n      and\n      swap1\n      dup4\n      0xffffffffffffffffffffffffffffffff\n      and\n      mul\n      or\n      swap1\n      sstore\n      pop\n      pop\n        /* \"contracts/smart-contract_flit.sol\":1176:1186  msg.sender */\n      caller\n        /* \"contracts/smart-contract_flit.sol\":1169:1186  return msg.sender */\n      swap1\n      pop\n        /* \"contracts/smart-contract_flit.sol\":728:1193  function CreateClient(string calldata _username) public returns(address) {... */\n      swap3\n      swap2\n      pop\n      pop\n      jump\t// out\n        /* \"contracts/smart-contract_flit.sol\":5336:5531  function InactiveClient() public {... */\n    tag_49:\n        /* \"contracts/smart-contract_flit.sol\":5387:5394  clients */\n      0x01\n        /* \"contracts/smart-contract_flit.sol\":5387:5422  clients[clientsAddress[msg.sender]] */\n      0x00\n        /* \"contracts/smart-contract_flit.sol\":5395:5409  clientsAddress */\n      0x02\n        /* \"contracts/smart-contract_flit.sol\":5395:5421  clientsAddress[msg.sender] */\n      0x00\n        /* \"contracts/smart-contract_flit.sol\":5410:5420  msg.sender */\n      caller\n        /* \"contracts/smart-contract_flit.sol\":5395:5421  clientsAddress[msg.sender] */\n      0xffffffffffffffffffffffffffffffffffffffff\n      and\n      0xffffffffffffffffffffffffffffffffffffffff\n      and\n      dup2\n      mstore\n      0x20\n      add\n      swap1\n      dup2\n      mstore\n      0x20\n      add\n      0x00\n      keccak256\n      sload\n        /* \"contracts/smart-contract_flit.sol\":5387:5422  clients[clientsAddress[msg.sender]] */\n      dup2\n      mstore\n      0x20\n      add\n      swap1\n      dup2\n      mstore\n      0x20\n      add\n      0x00\n      keccak256\n        /* \"contracts/smart-contract_flit.sol\":5387:5429  clients[clientsAddress[msg.sender]].status */\n      0x06\n      add\n      0x01\n      swap1\n      sload\n      swap1\n      0x0100\n      exp\n      swap1\n      div\n      0xff\n      and\n        /* \"contracts/smart-contract_flit.sol\":5379:5463  require(clients[clientsAddress[msg.sender]].status, \"The account must be activated\") */\n      tag_158\n      jumpi\n      mload(0x40)\n      0x08c379a000000000000000000000000000000000000000000000000000000000\n      dup2\n      mstore\n      0x04\n      add\n      tag_159\n      swap1\n      tag_53\n      jump\t// in\n    tag_159:\n      mload(0x40)\n      dup1\n      swap2\n      sub\n      swap1\n      revert\n    tag_158:\n        /* \"contracts/smart-contract_flit.sol\":5519:5524  false */\n      0x00\n        /* \"contracts/smart-contract_flit.sol\":5474:5481  clients */\n      0x01\n        /* \"contracts/smart-contract_flit.sol\":5474:5509  clients[clientsAddress[msg.sender]] */\n      0x00\n        /* \"contracts/smart-contract_flit.sol\":5482:5496  clientsAddress */\n      0x02\n        /* \"contracts/smart-contract_flit.sol\":5482:5508  clientsAddress[msg.sender] */\n      0x00\n        /* \"contracts/smart-contract_flit.sol\":5497:5507  msg.sender */\n      caller\n        /* \"contracts/smart-contract_flit.sol\":5482:5508  clientsAddress[msg.sender] */\n      0xffffffffffffffffffffffffffffffffffffffff\n      and\n      0xffffffffffffffffffffffffffffffffffffffff\n      and\n      dup2\n      mstore\n      0x20\n      add\n      swap1\n      dup2\n      mstore\n      0x20\n      add\n      0x00\n      keccak256\n      sload\n        /* \"contracts/smart-contract_flit.sol\":5474:5509  clients[clientsAddress[msg.sender]] */\n      dup2\n      mstore\n      0x20\n      add\n      swap1\n      dup2\n      mstore\n      0x20\n      add\n      0x00\n      keccak256\n        /* \"contracts/smart-contract_flit.sol\":5474:5516  clients[clientsAddress[msg.sender]].status */\n      0x06\n      add\n      0x01\n        /* \"contracts/smart-contract_flit.sol\":5474:5524  clients[clientsAddress[msg.sender]].status = false */\n      0x0100\n      exp\n      dup2\n      sload\n      dup2\n      0xff\n      mul\n      not\n      and\n      swap1\n      dup4\n      iszero\n      iszero\n      mul\n      or\n      swap1\n      sstore\n      pop\n        /* \"contracts/smart-contract_flit.sol\":5336:5531  function InactiveClient() public {... */\n      jump\t// out\n        /* \"#utility.yul\":88:205   */\n    tag_161:\n        /* \"#utility.yul\":197:198   */\n      0x00\n        /* \"#utility.yul\":194:195   */\n      dup1\n        /* \"#utility.yul\":187:199   */\n      revert\n        /* \"#utility.yul\":211:328   */\n    tag_162:\n        /* \"#utility.yul\":320:321   */\n      0x00\n        /* \"#utility.yul\":317:318   */\n      dup1\n        /* \"#utility.yul\":310:322   */\n      revert\n        /* \"#utility.yul\":334:460   */\n    tag_163:\n        /* \"#utility.yul\":371:378   */\n      0x00\n        /* \"#utility.yul\":411:453   */\n      0xffffffffffffffffffffffffffffffffffffffff\n        /* \"#utility.yul\":404:409   */\n      dup3\n        /* \"#utility.yul\":400:454   */\n      and\n        /* \"#utility.yul\":389:454   */\n      swap1\n      pop\n        /* \"#utility.yul\":334:460   */\n      swap2\n      swap1\n      pop\n      jump\t// out\n        /* \"#utility.yul\":466:562   */\n    tag_164:\n        /* \"#utility.yul\":503:510   */\n      0x00\n        /* \"#utility.yul\":532:556   */\n      tag_238\n        /* \"#utility.yul\":550:555   */\n      dup3\n        /* \"#utility.yul\":532:556   */\n      tag_163\n      jump\t// in\n    tag_238:\n        /* \"#utility.yul\":521:556   */\n      swap1\n      pop\n        /* \"#utility.yul\":466:562   */\n      swap2\n      swap1\n      pop\n      jump\t// out\n        /* \"#utility.yul\":568:690   */\n    tag_165:\n        /* \"#utility.yul\":641:665   */\n      tag_240\n        /* \"#utility.yul\":659:664   */\n      dup2\n        /* \"#utility.yul\":641:665   */\n      tag_164\n      jump\t// in\n    tag_240:\n        /* \"#utility.yul\":634:639   */\n      dup2\n        /* \"#utility.yul\":631:666   */\n      eq\n        /* \"#utility.yul\":621:684   */\n      tag_241\n      jumpi\n        /* \"#utility.yul\":680:681   */\n      0x00\n        /* \"#utility.yul\":677:678   */\n      dup1\n        /* \"#utility.yul\":670:682   */\n      revert\n        /* \"#utility.yul\":621:684   */\n    tag_241:\n        /* \"#utility.yul\":568:690   */\n      pop\n      jump\t// out\n        /* \"#utility.yul\":696:835   */\n    tag_166:\n        /* \"#utility.yul\":742:747   */\n      0x00\n        /* \"#utility.yul\":780:786   */\n      dup2\n        /* \"#utility.yul\":767:787   */\n      calldataload\n        /* \"#utility.yul\":758:787   */\n      swap1\n      pop\n        /* \"#utility.yul\":796:829   */\n      tag_243\n        /* \"#utility.yul\":823:828   */\n      dup2\n        /* \"#utility.yul\":796:829   */\n      tag_165\n      jump\t// in\n    tag_243:\n        /* \"#utility.yul\":696:835   */\n      swap3\n      swap2\n      pop\n      pop\n      jump\t// out\n        /* \"#utility.yul\":841:1170   */\n    tag_18:\n        /* \"#utility.yul\":900:906   */\n      0x00\n        /* \"#utility.yul\":949:951   */\n      0x20\n        /* \"#utility.yul\":937:946   */\n      dup3\n        /* \"#utility.yul\":928:935   */\n      dup5\n        /* \"#utility.yul\":924:947   */\n      sub\n        /* \"#utility.yul\":920:952   */\n      slt\n        /* \"#utility.yul\":917:1036   */\n      iszero\n      tag_245\n      jumpi\n        /* \"#utility.yul\":955:1034   */\n      tag_246\n      tag_161\n      jump\t// in\n    tag_246:\n        /* \"#utility.yul\":917:1036   */\n    tag_245:\n        /* \"#utility.yul\":1075:1076   */\n      0x00\n        /* \"#utility.yul\":1100:1153   */\n      tag_247\n        /* \"#utility.yul\":1145:1152   */\n      dup5\n        /* \"#utility.yul\":1136:1142   */\n      dup3\n        /* \"#utility.yul\":1125:1134   */\n      dup6\n        /* \"#utility.yul\":1121:1143   */\n      add\n        /* \"#utility.yul\":1100:1153   */\n      tag_166\n      jump\t// in\n    tag_247:\n        /* \"#utility.yul\":1090:1153   */\n      swap2\n      pop\n        /* \"#utility.yul\":1046:1163   */\n      pop\n        /* \"#utility.yul\":841:1170   */\n      swap3\n      swap2\n      pop\n      pop\n      jump\t// out\n        /* \"#utility.yul\":1176:1275   */\n    tag_167:\n        /* \"#utility.yul\":1228:1234   */\n      0x00\n        /* \"#utility.yul\":1262:1267   */\n      dup2\n        /* \"#utility.yul\":1256:1268   */\n      mload\n        /* \"#utility.yul\":1246:1268   */\n      swap1\n      pop\n        /* \"#utility.yul\":1176:1275   */\n      swap2\n      swap1\n      pop\n      jump\t// out\n        /* \"#utility.yul\":1281:1450   */\n    tag_168:\n        /* \"#utility.yul\":1365:1376   */\n      0x00\n        /* \"#utility.yul\":1399:1405   */\n      dup3\n        /* \"#utility.yul\":1394:1397   */\n      dup3\n        /* \"#utility.yul\":1387:1406   */\n      mstore\n        /* \"#utility.yul\":1439:1443   */\n      0x20\n        /* \"#utility.yul\":1434:1437   */\n      dup3\n        /* \"#utility.yul\":1430:1444   */\n      add\n        /* \"#utility.yul\":1415:1444   */\n      swap1\n      pop\n        /* \"#utility.yul\":1281:1450   */\n      swap3\n      swap2\n      pop\n      pop\n      jump\t// out\n        /* \"#utility.yul\":1456:1702   */\n    tag_169:\n        /* \"#utility.yul\":1537:1538   */\n      0x00\n        /* \"#utility.yul\":1547:1660   */\n    tag_251:\n        /* \"#utility.yul\":1561:1567   */\n      dup4\n        /* \"#utility.yul\":1558:1559   */\n      dup2\n        /* \"#utility.yul\":1555:1568   */\n      lt\n        /* \"#utility.yul\":1547:1660   */\n      iszero\n      tag_253\n      jumpi\n        /* \"#utility.yul\":1646:1647   */\n      dup1\n        /* \"#utility.yul\":1641:1644   */\n      dup3\n        /* \"#utility.yul\":1637:1648   */\n      add\n        /* \"#utility.yul\":1631:1649   */\n      mload\n        /* \"#utility.yul\":1627:1628   */\n      dup2\n        /* \"#utility.yul\":1622:1625   */\n      dup5\n        /* \"#utility.yul\":1618:1629   */\n      add\n        /* \"#utility.yul\":1611:1650   */\n      mstore\n        /* \"#utility.yul\":1583:1585   */\n      0x20\n        /* \"#utility.yul\":1580:1581   */\n      dup2\n        /* \"#utility.yul\":1576:1586   */\n      add\n        /* \"#utility.yul\":1571:1586   */\n      swap1\n      pop\n        /* \"#utility.yul\":1547:1660   */\n      jump(tag_251)\n    tag_253:\n        /* \"#utility.yul\":1694:1695   */\n      0x00\n        /* \"#utility.yul\":1685:1691   */\n      dup5\n        /* \"#utility.yul\":1680:1683   */\n      dup5\n        /* \"#utility.yul\":1676:1692   */\n      add\n        /* \"#utility.yul\":1669:1696   */\n      mstore\n        /* \"#utility.yul\":1518:1702   */\n      pop\n        /* \"#utility.yul\":1456:1702   */\n      pop\n      pop\n      pop\n      jump\t// out\n        /* \"#utility.yul\":1708:1810   */\n    tag_170:\n        /* \"#utility.yul\":1749:1755   */\n      0x00\n        /* \"#utility.yul\":1800:1802   */\n      0x1f\n        /* \"#utility.yul\":1796:1803   */\n      not\n        /* \"#utility.yul\":1791:1793   */\n      0x1f\n        /* \"#utility.yul\":1784:1789   */\n      dup4\n        /* \"#utility.yul\":1780:1794   */\n      add\n        /* \"#utility.yul\":1776:1804   */\n      and\n        /* \"#utility.yul\":1766:1804   */\n      swap1\n      pop\n        /* \"#utility.yul\":1708:1810   */\n      swap2\n      swap1\n      pop\n      jump\t// out\n        /* \"#utility.yul\":1816:2193   */\n    tag_171:\n        /* \"#utility.yul\":1904:1907   */\n      0x00\n        /* \"#utility.yul\":1932:1971   */\n      tag_256\n        /* \"#utility.yul\":1965:1970   */\n      dup3\n        /* \"#utility.yul\":1932:1971   */\n      tag_167\n      jump\t// in\n    tag_256:\n        /* \"#utility.yul\":1987:2058   */\n      tag_257\n        /* \"#utility.yul\":2051:2057   */\n      dup2\n        /* \"#utility.yul\":2046:2049   */\n      dup6\n        /* \"#utility.yul\":1987:2058   */\n      tag_168\n      jump\t// in\n    tag_257:\n        /* \"#utility.yul\":1980:2058   */\n      swap4\n      pop\n        /* \"#utility.yul\":2067:2132   */\n      tag_258\n        /* \"#utility.yul\":2125:2131   */\n      dup2\n        /* \"#utility.yul\":2120:2123   */\n      dup6\n        /* \"#utility.yul\":2113:2117   */\n      0x20\n        /* \"#utility.yul\":2106:2111   */\n      dup7\n        /* \"#utility.yul\":2102:2118   */\n      add\n        /* \"#utility.yul\":2067:2132   */\n      tag_169\n      jump\t// in\n    tag_258:\n        /* \"#utility.yul\":2157:2186   */\n      tag_259\n        /* \"#utility.yul\":2179:2185   */\n      dup2\n        /* \"#utility.yul\":2157:2186   */\n      tag_170\n      jump\t// in\n    tag_259:\n        /* \"#utility.yul\":2152:2155   */\n      dup5\n        /* \"#utility.yul\":2148:2187   */\n      add\n        /* \"#utility.yul\":2141:2187   */\n      swap2\n      pop\n        /* \"#utility.yul\":1908:2193   */\n      pop\n        /* \"#utility.yul\":1816:2193   */\n      swap3\n      swap2\n      pop\n      pop\n      jump\t// out\n        /* \"#utility.yul\":2199:2317   */\n    tag_172:\n        /* \"#utility.yul\":2286:2310   */\n      tag_261\n        /* \"#utility.yul\":2304:2309   */\n      dup2\n        /* \"#utility.yul\":2286:2310   */\n      tag_164\n      jump\t// in\n    tag_261:\n        /* \"#utility.yul\":2281:2284   */\n      dup3\n        /* \"#utility.yul\":2274:2311   */\n      mstore\n        /* \"#utility.yul\":2199:2317   */\n      pop\n      pop\n      jump\t// out\n        /* \"#utility.yul\":2323:2399   */\n    tag_173:\n        /* \"#utility.yul\":2359:2366   */\n      0x00\n        /* \"#utility.yul\":2388:2393   */\n      dup2\n        /* \"#utility.yul\":2377:2393   */\n      swap1\n      pop\n        /* \"#utility.yul\":2323:2399   */\n      swap2\n      swap1\n      pop\n      jump\t// out\n        /* \"#utility.yul\":2405:2520   */\n    tag_174:\n        /* \"#utility.yul\":2490:2513   */\n      tag_264\n        /* \"#utility.yul\":2507:2512   */\n      dup2\n        /* \"#utility.yul\":2490:2513   */\n      tag_173\n      jump\t// in\n    tag_264:\n        /* \"#utility.yul\":2485:2488   */\n      dup3\n        /* \"#utility.yul\":2478:2514   */\n      mstore\n        /* \"#utility.yul\":2405:2520   */\n      pop\n      pop\n      jump\t// out\n        /* \"#utility.yul\":2526:2612   */\n    tag_175:\n        /* \"#utility.yul\":2561:2568   */\n      0x00\n        /* \"#utility.yul\":2601:2605   */\n      0xff\n        /* \"#utility.yul\":2594:2599   */\n      dup3\n        /* \"#utility.yul\":2590:2606   */\n      and\n        /* \"#utility.yul\":2579:2606   */\n      swap1\n      pop\n        /* \"#utility.yul\":2526:2612   */\n      swap2\n      swap1\n      pop\n      jump\t// out\n        /* \"#utility.yul\":2618:2730   */\n    tag_176:\n        /* \"#utility.yul\":2701:2723   */\n      tag_267\n        /* \"#utility.yul\":2717:2722   */\n      dup2\n        /* \"#utility.yul\":2701:2723   */\n      tag_175\n      jump\t// in\n    tag_267:\n        /* \"#utility.yul\":2696:2699   */\n      dup3\n        /* \"#utility.yul\":2689:2724   */\n      mstore\n        /* \"#utility.yul\":2618:2730   */\n      pop\n      pop\n      jump\t// out\n        /* \"#utility.yul\":2736:2826   */\n    tag_177:\n        /* \"#utility.yul\":2770:2777   */\n      0x00\n        /* \"#utility.yul\":2813:2818   */\n      dup2\n        /* \"#utility.yul\":2806:2819   */\n      iszero\n        /* \"#utility.yul\":2799:2820   */\n      iszero\n        /* \"#utility.yul\":2788:2820   */\n      swap1\n      pop\n        /* \"#utility.yul\":2736:2826   */\n      swap2\n      swap1\n      pop\n      jump\t// out\n        /* \"#utility.yul\":2832:2941   */\n    tag_178:\n        /* \"#utility.yul\":2913:2934   */\n      tag_270\n        /* \"#utility.yul\":2928:2933   */\n      dup2\n        /* \"#utility.yul\":2913:2934   */\n      tag_177\n      jump\t// in\n    tag_270:\n        /* \"#utility.yul\":2908:2911   */\n      dup3\n        /* \"#utility.yul\":2901:2935   */\n      mstore\n        /* \"#utility.yul\":2832:2941   */\n      pop\n      pop\n      jump\t// out\n        /* \"#utility.yul\":2947:3892   */\n    tag_21:\n        /* \"#utility.yul\":3212:3216   */\n      0x00\n        /* \"#utility.yul\":3250:3253   */\n      0xe0\n        /* \"#utility.yul\":3239:3248   */\n      dup3\n        /* \"#utility.yul\":3235:3254   */\n      add\n        /* \"#utility.yul\":3227:3254   */\n      swap1\n      pop\n        /* \"#utility.yul\":3300:3309   */\n      dup2\n        /* \"#utility.yul\":3294:3298   */\n      dup2\n        /* \"#utility.yul\":3290:3310   */\n      sub\n        /* \"#utility.yul\":3286:3287   */\n      0x00\n        /* \"#utility.yul\":3275:3284   */\n      dup4\n        /* \"#utility.yul\":3271:3288   */\n      add\n        /* \"#utility.yul\":3264:3311   */\n      mstore\n        /* \"#utility.yul\":3328:3406   */\n      tag_272\n        /* \"#utility.yul\":3401:3405   */\n      dup2\n        /* \"#utility.yul\":3392:3398   */\n      dup11\n        /* \"#utility.yul\":3328:3406   */\n      tag_171\n      jump\t// in\n    tag_272:\n        /* \"#utility.yul\":3320:3406   */\n      swap1\n      pop\n        /* \"#utility.yul\":3416:3488   */\n      tag_273\n        /* \"#utility.yul\":3484:3486   */\n      0x20\n        /* \"#utility.yul\":3473:3482   */\n      dup4\n        /* \"#utility.yul\":3469:3487   */\n      add\n        /* \"#utility.yul\":3460:3466   */\n      dup10\n        /* \"#utility.yul\":3416:3488   */\n      tag_172\n      jump\t// in\n    tag_273:\n        /* \"#utility.yul\":3498:3568   */\n      tag_274\n        /* \"#utility.yul\":3564:3566   */\n      0x40\n        /* \"#utility.yul\":3553:3562   */\n      dup4\n        /* \"#utility.yul\":3549:3567   */\n      add\n        /* \"#utility.yul\":3540:3546   */\n      dup9\n        /* \"#utility.yul\":3498:3568   */\n      tag_174\n      jump\t// in\n    tag_274:\n        /* \"#utility.yul\":3578:3648   */\n      tag_275\n        /* \"#utility.yul\":3644:3646   */\n      0x60\n        /* \"#utility.yul\":3633:3642   */\n      dup4\n        /* \"#utility.yul\":3629:3647   */\n      add\n        /* \"#utility.yul\":3620:3626   */\n      dup8\n        /* \"#utility.yul\":3578:3648   */\n      tag_174\n      jump\t// in\n    tag_275:\n        /* \"#utility.yul\":3658:3729   */\n      tag_276\n        /* \"#utility.yul\":3724:3727   */\n      0x80\n        /* \"#utility.yul\":3713:3722   */\n      dup4\n        /* \"#utility.yul\":3709:3728   */\n      add\n        /* \"#utility.yul\":3700:3706   */\n      dup7\n        /* \"#utility.yul\":3658:3729   */\n      tag_174\n      jump\t// in\n    tag_276:\n        /* \"#utility.yul\":3739:3808   */\n      tag_277\n        /* \"#utility.yul\":3803:3806   */\n      0xa0\n        /* \"#utility.yul\":3792:3801   */\n      dup4\n        /* \"#utility.yul\":3788:3807   */\n      add\n        /* \"#utility.yul\":3779:3785   */\n      dup6\n        /* \"#utility.yul\":3739:3808   */\n      tag_176\n      jump\t// in\n    tag_277:\n        /* \"#utility.yul\":3818:3885   */\n      tag_278\n        /* \"#utility.yul\":3880:3883   */\n      0xc0\n        /* \"#utility.yul\":3869:3878   */\n      dup4\n        /* \"#utility.yul\":3865:3884   */\n      add\n        /* \"#utility.yul\":3856:3862   */\n      dup5\n        /* \"#utility.yul\":3818:3885   */\n      tag_178\n      jump\t// in\n    tag_278:\n        /* \"#utility.yul\":2947:3892   */\n      swap9\n      swap8\n      pop\n      pop\n      pop\n      pop\n      pop\n      pop\n      pop\n      pop\n      jump\t// out\n        /* \"#utility.yul\":3898:4015   */\n    tag_179:\n        /* \"#utility.yul\":4007:4008   */\n      0x00\n        /* \"#utility.yul\":4004:4005   */\n      dup1\n        /* \"#utility.yul\":3997:4009   */\n      revert\n        /* \"#utility.yul\":4021:4138   */\n    tag_180:\n        /* \"#utility.yul\":4130:4131   */\n      0x00\n        /* \"#utility.yul\":4127:4128   */\n      dup1\n        /* \"#utility.yul\":4120:4132   */\n      revert\n        /* \"#utility.yul\":4144:4261   */\n    tag_181:\n        /* \"#utility.yul\":4253:4254   */\n      0x00\n        /* \"#utility.yul\":4250:4251   */\n      dup1\n        /* \"#utility.yul\":4243:4255   */\n      revert\n        /* \"#utility.yul\":4281:4834   */\n    tag_182:\n        /* \"#utility.yul\":4339:4347   */\n      0x00\n        /* \"#utility.yul\":4349:4355   */\n      dup1\n        /* \"#utility.yul\":4399:4402   */\n      dup4\n        /* \"#utility.yul\":4392:4396   */\n      0x1f\n        /* \"#utility.yul\":4384:4390   */\n      dup5\n        /* \"#utility.yul\":4380:4397   */\n      add\n        /* \"#utility.yul\":4376:4403   */\n      slt\n        /* \"#utility.yul\":4366:4488   */\n      tag_283\n      jumpi\n        /* \"#utility.yul\":4407:4486   */\n      tag_284\n      tag_179\n      jump\t// in\n    tag_284:\n        /* \"#utility.yul\":4366:4488   */\n    tag_283:\n        /* \"#utility.yul\":4520:4526   */\n      dup3\n        /* \"#utility.yul\":4507:4527   */\n      calldataload\n        /* \"#utility.yul\":4497:4527   */\n      swap1\n      pop\n        /* \"#utility.yul\":4550:4568   */\n      0xffffffffffffffff\n        /* \"#utility.yul\":4542:4548   */\n      dup2\n        /* \"#utility.yul\":4539:4569   */\n      gt\n        /* \"#utility.yul\":4536:4653   */\n      iszero\n      tag_285\n      jumpi\n        /* \"#utility.yul\":4572:4651   */\n      tag_286\n      tag_180\n      jump\t// in\n    tag_286:\n        /* \"#utility.yul\":4536:4653   */\n    tag_285:\n        /* \"#utility.yul\":4686:4690   */\n      0x20\n        /* \"#utility.yul\":4678:4684   */\n      dup4\n        /* \"#utility.yul\":4674:4691   */\n      add\n        /* \"#utility.yul\":4662:4691   */\n      swap2\n      pop\n        /* \"#utility.yul\":4740:4743   */\n      dup4\n        /* \"#utility.yul\":4732:4736   */\n      0x01\n        /* \"#utility.yul\":4724:4730   */\n      dup3\n        /* \"#utility.yul\":4720:4737   */\n      mul\n        /* \"#utility.yul\":4710:4718   */\n      dup4\n        /* \"#utility.yul\":4706:4738   */\n      add\n        /* \"#utility.yul\":4703:4744   */\n      gt\n        /* \"#utility.yul\":4700:4828   */\n      iszero\n      tag_287\n      jumpi\n        /* \"#utility.yul\":4747:4826   */\n      tag_288\n      tag_181\n      jump\t// in\n    tag_288:\n        /* \"#utility.yul\":4700:4828   */\n    tag_287:\n        /* \"#utility.yul\":4281:4834   */\n      swap3\n      pop\n      swap3\n      swap1\n      pop\n      jump\t// out\n        /* \"#utility.yul\":4840:5369   */\n    tag_25:\n        /* \"#utility.yul\":4911:4917   */\n      0x00\n        /* \"#utility.yul\":4919:4925   */\n      dup1\n        /* \"#utility.yul\":4968:4970   */\n      0x20\n        /* \"#utility.yul\":4956:4965   */\n      dup4\n        /* \"#utility.yul\":4947:4954   */\n      dup6\n        /* \"#utility.yul\":4943:4966   */\n      sub\n        /* \"#utility.yul\":4939:4971   */\n      slt\n        /* \"#utility.yul\":4936:5055   */\n      iszero\n      tag_290\n      jumpi\n        /* \"#utility.yul\":4974:5053   */\n      tag_291\n      tag_161\n      jump\t// in\n    tag_291:\n        /* \"#utility.yul\":4936:5055   */\n    tag_290:\n        /* \"#utility.yul\":5122:5123   */\n      0x00\n        /* \"#utility.yul\":5111:5120   */\n      dup4\n        /* \"#utility.yul\":5107:5124   */\n      add\n        /* \"#utility.yul\":5094:5125   */\n      calldataload\n        /* \"#utility.yul\":5152:5170   */\n      0xffffffffffffffff\n        /* \"#utility.yul\":5144:5150   */\n      dup2\n        /* \"#utility.yul\":5141:5171   */\n      gt\n        /* \"#utility.yul\":5138:5255   */\n      iszero\n      tag_292\n      jumpi\n        /* \"#utility.yul\":5174:5253   */\n      tag_293\n      tag_162\n      jump\t// in\n    tag_293:\n        /* \"#utility.yul\":5138:5255   */\n    tag_292:\n        /* \"#utility.yul\":5287:5352   */\n      tag_294\n        /* \"#utility.yul\":5344:5351   */\n      dup6\n        /* \"#utility.yul\":5335:5341   */\n      dup3\n        /* \"#utility.yul\":5324:5333   */\n      dup7\n        /* \"#utility.yul\":5320:5342   */\n      add\n        /* \"#utility.yul\":5287:5352   */\n      tag_182\n      jump\t// in\n    tag_294:\n        /* \"#utility.yul\":5269:5352   */\n      swap3\n      pop\n      swap3\n      pop\n        /* \"#utility.yul\":5065:5362   */\n      pop\n        /* \"#utility.yul\":4840:5369   */\n      swap3\n      pop\n      swap3\n      swap1\n      pop\n      jump\t// out\n        /* \"#utility.yul\":5375:5452   */\n    tag_183:\n        /* \"#utility.yul\":5412:5419   */\n      0x00\n        /* \"#utility.yul\":5441:5446   */\n      dup2\n        /* \"#utility.yul\":5430:5446   */\n      swap1\n      pop\n        /* \"#utility.yul\":5375:5452   */\n      swap2\n      swap1\n      pop\n      jump\t// out\n        /* \"#utility.yul\":5458:5576   */\n    tag_184:\n        /* \"#utility.yul\":5545:5569   */\n      tag_297\n        /* \"#utility.yul\":5563:5568   */\n      dup2\n        /* \"#utility.yul\":5545:5569   */\n      tag_183\n      jump\t// in\n    tag_297:\n        /* \"#utility.yul\":5540:5543   */\n      dup3\n        /* \"#utility.yul\":5533:5570   */\n      mstore\n        /* \"#utility.yul\":5458:5576   */\n      pop\n      pop\n      jump\t// out\n        /* \"#utility.yul\":5582:6317   */\n    tag_28:\n        /* \"#utility.yul\":5797:5801   */\n      0x00\n        /* \"#utility.yul\":5835:5838   */\n      0xa0\n        /* \"#utility.yul\":5824:5833   */\n      dup3\n        /* \"#utility.yul\":5820:5839   */\n      add\n        /* \"#utility.yul\":5812:5839   */\n      swap1\n      pop\n        /* \"#utility.yul\":5849:5920   */\n      tag_299\n        /* \"#utility.yul\":5917:5918   */\n      0x00\n        /* \"#utility.yul\":5906:5915   */\n      dup4\n        /* \"#utility.yul\":5902:5919   */\n      add\n        /* \"#utility.yul\":5893:5899   */\n      dup9\n        /* \"#utility.yul\":5849:5920   */\n      tag_184\n      jump\t// in\n    tag_299:\n        /* \"#utility.yul\":5930:6002   */\n      tag_300\n        /* \"#utility.yul\":5998:6000   */\n      0x20\n        /* \"#utility.yul\":5987:5996   */\n      dup4\n        /* \"#utility.yul\":5983:6001   */\n      add\n        /* \"#utility.yul\":5974:5980   */\n      dup8\n        /* \"#utility.yul\":5930:6002   */\n      tag_172\n      jump\t// in\n    tag_300:\n        /* \"#utility.yul\":6049:6058   */\n      dup2\n        /* \"#utility.yul\":6043:6047   */\n      dup2\n        /* \"#utility.yul\":6039:6059   */\n      sub\n        /* \"#utility.yul\":6034:6036   */\n      0x40\n        /* \"#utility.yul\":6023:6032   */\n      dup4\n        /* \"#utility.yul\":6019:6037   */\n      add\n        /* \"#utility.yul\":6012:6060   */\n      mstore\n        /* \"#utility.yul\":6077:6155   */\n      tag_301\n        /* \"#utility.yul\":6150:6154   */\n      dup2\n        /* \"#utility.yul\":6141:6147   */\n      dup7\n        /* \"#utility.yul\":6077:6155   */\n      tag_171\n      jump\t// in\n    tag_301:\n        /* \"#utility.yul\":6069:6155   */\n      swap1\n      pop\n        /* \"#utility.yul\":6165:6233   */\n      tag_302\n        /* \"#utility.yul\":6229:6231   */\n      0x60\n        /* \"#utility.yul\":6218:6227   */\n      dup4\n        /* \"#utility.yul\":6214:6232   */\n      add\n        /* \"#utility.yul\":6205:6211   */\n      dup6\n        /* \"#utility.yul\":6165:6233   */\n      tag_176\n      jump\t// in\n    tag_302:\n        /* \"#utility.yul\":6243:6310   */\n      tag_303\n        /* \"#utility.yul\":6305:6308   */\n      0x80\n        /* \"#utility.yul\":6294:6303   */\n      dup4\n        /* \"#utility.yul\":6290:6309   */\n      add\n        /* \"#utility.yul\":6281:6287   */\n      dup5\n        /* \"#utility.yul\":6243:6310   */\n      tag_178\n      jump\t// in\n    tag_303:\n        /* \"#utility.yul\":5582:6317   */\n      swap7\n      swap6\n      pop\n      pop\n      pop\n      pop\n      pop\n      pop\n      jump\t// out\n        /* \"#utility.yul\":6323:6545   */\n    tag_46:\n        /* \"#utility.yul\":6416:6420   */\n      0x00\n        /* \"#utility.yul\":6454:6456   */\n      0x20\n        /* \"#utility.yul\":6443:6452   */\n      dup3\n        /* \"#utility.yul\":6439:6457   */\n      add\n        /* \"#utility.yul\":6431:6457   */\n      swap1\n      pop\n        /* \"#utility.yul\":6467:6538   */\n      tag_305\n        /* \"#utility.yul\":6535:6536   */\n      0x00\n        /* \"#utility.yul\":6524:6533   */\n      dup4\n        /* \"#utility.yul\":6520:6537   */\n      add\n        /* \"#utility.yul\":6511:6517   */\n      dup5\n        /* \"#utility.yul\":6467:6538   */\n      tag_172\n      jump\t// in\n    tag_305:\n        /* \"#utility.yul\":6323:6545   */\n      swap3\n      swap2\n      pop\n      pop\n      jump\t// out\n        /* \"#utility.yul\":6551:6730   */\n    tag_185:\n        /* \"#utility.yul\":6691:6722   */\n      0x546865206163636f756e74206d75737420626520616374697661746564000000\n        /* \"#utility.yul\":6687:6688   */\n      0x00\n        /* \"#utility.yul\":6679:6685   */\n      dup3\n        /* \"#utility.yul\":6675:6689   */\n      add\n        /* \"#utility.yul\":6668:6723   */\n      mstore\n        /* \"#utility.yul\":6551:6730   */\n      pop\n      jump\t// out\n        /* \"#utility.yul\":6736:7102   */\n    tag_186:\n        /* \"#utility.yul\":6878:6881   */\n      0x00\n        /* \"#utility.yul\":6899:6966   */\n      tag_308\n        /* \"#utility.yul\":6963:6965   */\n      0x1d\n        /* \"#utility.yul\":6958:6961   */\n      dup4\n        /* \"#utility.yul\":6899:6966   */\n      tag_168\n      jump\t// in\n    tag_308:\n        /* \"#utility.yul\":6892:6966   */\n      swap2\n      pop\n        /* \"#utility.yul\":6975:7068   */\n      tag_309\n        /* \"#utility.yul\":7064:7067   */\n      dup3\n        /* \"#utility.yul\":6975:7068   */\n      tag_185\n      jump\t// in\n    tag_309:\n        /* \"#utility.yul\":7093:7095   */\n      0x20\n        /* \"#utility.yul\":7088:7091   */\n      dup3\n        /* \"#utility.yul\":7084:7096   */\n      add\n        /* \"#utility.yul\":7077:7096   */\n      swap1\n      pop\n        /* \"#utility.yul\":6736:7102   */\n      swap2\n      swap1\n      pop\n      jump\t// out\n        /* \"#utility.yul\":7108:7527   */\n    tag_53:\n        /* \"#utility.yul\":7274:7278   */\n      0x00\n        /* \"#utility.yul\":7312:7314   */\n      0x20\n        /* \"#utility.yul\":7301:7310   */\n      dup3\n        /* \"#utility.yul\":7297:7315   */\n      add\n        /* \"#utility.yul\":7289:7315   */\n      swap1\n      pop\n        /* \"#utility.yul\":7361:7370   */\n      dup2\n        /* \"#utility.yul\":7355:7359   */\n      dup2\n        /* \"#utility.yul\":7351:7371   */\n      sub\n        /* \"#utility.yul\":7347:7348   */\n      0x00\n        /* \"#utility.yul\":7336:7345   */\n      dup4\n        /* \"#utility.yul\":7332:7349   */\n      add\n        /* \"#utility.yul\":7325:7372   */\n      mstore\n        /* \"#utility.yul\":7389:7520   */\n      tag_311\n        /* \"#utility.yul\":7515:7519   */\n      dup2\n        /* \"#utility.yul\":7389:7520   */\n      tag_186\n      jump\t// in\n    tag_311:\n        /* \"#utility.yul\":7381:7520   */\n      swap1\n      pop\n        /* \"#utility.yul\":7108:7527   */\n      swap2\n      swap1\n      pop\n      jump\t// out\n        /* \"#utility.yul\":7533:7775   */\n    tag_187:\n        /* \"#utility.yul\":7673:7707   */\n      0x5468652076616c756520746f20696e6372656173652062616c616e6365206d75\n        /* \"#utility.yul\":7669:7670   */\n      0x00\n        /* \"#utility.yul\":7661:7667   */\n      dup3\n        /* \"#utility.yul\":7657:7671   */\n      add\n        /* \"#utility.yul\":7650:7708   */\n      mstore\n        /* \"#utility.yul\":7742:7767   */\n      0x73742062652067726561746572207468616e207a65726f000000000000000000\n        /* \"#utility.yul\":7737:7739   */\n      0x20\n        /* \"#utility.yul\":7729:7735   */\n      dup3\n        /* \"#utility.yul\":7725:7740   */\n      add\n        /* \"#utility.yul\":7718:7768   */\n      mstore\n        /* \"#utility.yul\":7533:7775   */\n      pop\n      jump\t// out\n        /* \"#utility.yul\":7781:8147   */\n    tag_188:\n        /* \"#utility.yul\":7923:7926   */\n      0x00\n        /* \"#utility.yul\":7944:8011   */\n      tag_314\n        /* \"#utility.yul\":8008:8010   */\n      0x37\n        /* \"#utility.yul\":8003:8006   */\n      dup4\n        /* \"#utility.yul\":7944:8011   */\n      tag_168\n      jump\t// in\n    tag_314:\n        /* \"#utility.yul\":7937:8011   */\n      swap2\n      pop\n        /* \"#utility.yul\":8020:8113   */\n      tag_315\n        /* \"#utility.yul\":8109:8112   */\n      dup3\n        /* \"#utility.yul\":8020:8113   */\n      tag_187\n      jump\t// in\n    tag_315:\n        /* \"#utility.yul\":8138:8140   */\n      0x40\n        /* \"#utility.yul\":8133:8136   */\n      dup3\n        /* \"#utility.yul\":8129:8141   */\n      add\n        /* \"#utility.yul\":8122:8141   */\n      swap1\n      pop\n        /* \"#utility.yul\":7781:8147   */\n      swap2\n      swap1\n      pop\n      jump\t// out\n        /* \"#utility.yul\":8153:8572   */\n    tag_56:\n        /* \"#utility.yul\":8319:8323   */\n      0x00\n        /* \"#utility.yul\":8357:8359   */\n      0x20\n        /* \"#utility.yul\":8346:8355   */\n      dup3\n        /* \"#utility.yul\":8342:8360   */\n      add\n        /* \"#utility.yul\":8334:8360   */\n      swap1\n      pop\n        /* \"#utility.yul\":8406:8415   */\n      dup2\n        /* \"#utility.yul\":8400:8404   */\n      dup2\n        /* \"#utility.yul\":8396:8416   */\n      sub\n        /* \"#utility.yul\":8392:8393   */\n      0x00\n        /* \"#utility.yul\":8381:8390   */\n      dup4\n        /* \"#utility.yul\":8377:8394   */\n      add\n        /* \"#utility.yul\":8370:8417   */\n      mstore\n        /* \"#utility.yul\":8434:8565   */\n      tag_317\n        /* \"#utility.yul\":8560:8564   */\n      dup2\n        /* \"#utility.yul\":8434:8565   */\n      tag_188\n      jump\t// in\n    tag_317:\n        /* \"#utility.yul\":8426:8565   */\n      swap1\n      pop\n        /* \"#utility.yul\":8153:8572   */\n      swap2\n      swap1\n      pop\n      jump\t// out\n        /* \"#utility.yul\":8578:8869   */\n    tag_189:\n        /* \"#utility.yul\":8718:8752   */\n      0x5468652076616c756520746f2064656372656173652062616c616e6365206d75\n        /* \"#utility.yul\":8714:8715   */\n      0x00\n        /* \"#utility.yul\":8706:8712   */\n      dup3\n        /* \"#utility.yul\":8702:8716   */\n      add\n        /* \"#utility.yul\":8695:8753   */\n      mstore\n        /* \"#utility.yul\":8787:8821   */\n      0x7374206265206c657373207468616e207468652063757272656e742062616c61\n        /* \"#utility.yul\":8782:8784   */\n      0x20\n        /* \"#utility.yul\":8774:8780   */\n      dup3\n        /* \"#utility.yul\":8770:8785   */\n      add\n        /* \"#utility.yul\":8763:8822   */\n      mstore\n        /* \"#utility.yul\":8856:8861   */\n      0x6e63650000000000000000000000000000000000000000000000000000000000\n        /* \"#utility.yul\":8851:8853   */\n      0x40\n        /* \"#utility.yul\":8843:8849   */\n      dup3\n        /* \"#utility.yul\":8839:8854   */\n      add\n        /* \"#utility.yul\":8832:8862   */\n      mstore\n        /* \"#utility.yul\":8578:8869   */\n      pop\n      jump\t// out\n        /* \"#utility.yul\":8875:9241   */\n    tag_190:\n        /* \"#utility.yul\":9017:9020   */\n      0x00\n        /* \"#utility.yul\":9038:9105   */\n      tag_320\n        /* \"#utility.yul\":9102:9104   */\n      0x43\n        /* \"#utility.yul\":9097:9100   */\n      dup4\n        /* \"#utility.yul\":9038:9105   */\n      tag_168\n      jump\t// in\n    tag_320:\n        /* \"#utility.yul\":9031:9105   */\n      swap2\n      pop\n        /* \"#utility.yul\":9114:9207   */\n      tag_321\n        /* \"#utility.yul\":9203:9206   */\n      dup3\n        /* \"#utility.yul\":9114:9207   */\n      tag_189\n      jump\t// in\n    tag_321:\n        /* \"#utility.yul\":9232:9234   */\n      0x60\n        /* \"#utility.yul\":9227:9230   */\n      dup3\n        /* \"#utility.yul\":9223:9235   */\n      add\n        /* \"#utility.yul\":9216:9235   */\n      swap1\n      pop\n        /* \"#utility.yul\":8875:9241   */\n      swap2\n      swap1\n      pop\n      jump\t// out\n        /* \"#utility.yul\":9247:9666   */\n    tag_59:\n        /* \"#utility.yul\":9413:9417   */\n      0x00\n        /* \"#utility.yul\":9451:9453   */\n      0x20\n        /* \"#utility.yul\":9440:9449   */\n      dup3\n        /* \"#utility.yul\":9436:9454   */\n      add\n        /* \"#utility.yul\":9428:9454   */\n      swap1\n      pop\n        /* \"#utility.yul\":9500:9509   */\n      dup2\n        /* \"#utility.yul\":9494:9498   */\n      dup2\n        /* \"#utility.yul\":9490:9510   */\n      sub\n        /* \"#utility.yul\":9486:9487   */\n      0x00\n        /* \"#utility.yul\":9475:9484   */\n      dup4\n        /* \"#utility.yul\":9471:9488   */\n      add\n        /* \"#utility.yul\":9464:9511   */\n      mstore\n        /* \"#utility.yul\":9528:9659   */\n      tag_323\n        /* \"#utility.yul\":9654:9658   */\n      dup2\n        /* \"#utility.yul\":9528:9659   */\n      tag_190\n      jump\t// in\n    tag_323:\n        /* \"#utility.yul\":9520:9659   */\n      swap1\n      pop\n        /* \"#utility.yul\":9247:9666   */\n      swap2\n      swap1\n      pop\n      jump\t// out\n        /* \"#utility.yul\":9672:9852   */\n    tag_191:\n        /* \"#utility.yul\":9720:9797   */\n      0x4e487b7100000000000000000000000000000000000000000000000000000000\n        /* \"#utility.yul\":9717:9718   */\n      0x00\n        /* \"#utility.yul\":9710:9798   */\n      mstore\n        /* \"#utility.yul\":9817:9821   */\n      0x11\n        /* \"#utility.yul\":9814:9815   */\n      0x04\n        /* \"#utility.yul\":9807:9822   */\n      mstore\n        /* \"#utility.yul\":9841:9845   */\n      0x24\n        /* \"#utility.yul\":9838:9839   */\n      0x00\n        /* \"#utility.yul\":9831:9846   */\n      revert\n        /* \"#utility.yul\":9858:10230   */\n    tag_61:\n        /* \"#utility.yul\":9897:9901   */\n      0x00\n        /* \"#utility.yul\":9917:9936   */\n      tag_326\n        /* \"#utility.yul\":9934:9935   */\n      dup3\n        /* \"#utility.yul\":9917:9936   */\n      tag_173\n      jump\t// in\n    tag_326:\n        /* \"#utility.yul\":9912:9936   */\n      swap2\n      pop\n        /* \"#utility.yul\":9950:9969   */\n      tag_327\n        /* \"#utility.yul\":9967:9968   */\n      dup4\n        /* \"#utility.yul\":9950:9969   */\n      tag_173\n      jump\t// in\n    tag_327:\n        /* \"#utility.yul\":9945:9969   */\n      swap3\n      pop\n        /* \"#utility.yul\":9993:9994   */\n      dup3\n        /* \"#utility.yul\":9990:9991   */\n      dup3\n        /* \"#utility.yul\":9986:9995   */\n      sub\n        /* \"#utility.yul\":9978:9995   */\n      swap1\n      pop\n        /* \"#utility.yul\":10187:10188   */\n      dup2\n        /* \"#utility.yul\":10181:10185   */\n      dup2\n        /* \"#utility.yul\":10177:10189   */\n      slt\n        /* \"#utility.yul\":10173:10174   */\n      0x00\n        /* \"#utility.yul\":10170:10171   */\n      dup5\n        /* \"#utility.yul\":10166:10175   */\n      slt\n        /* \"#utility.yul\":10162:10190   */\n      and\n        /* \"#utility.yul\":10145:10146   */\n      dup3\n        /* \"#utility.yul\":10139:10143   */\n      dup3\n        /* \"#utility.yul\":10135:10147   */\n      sgt\n        /* \"#utility.yul\":10130:10131   */\n      0x00\n        /* \"#utility.yul\":10127:10128   */\n      dup6\n        /* \"#utility.yul\":10123:10132   */\n      slt\n        /* \"#utility.yul\":10116:10133   */\n      iszero\n        /* \"#utility.yul\":10112:10148   */\n      and\n        /* \"#utility.yul\":10096:10200   */\n      or\n        /* \"#utility.yul\":10093:10223   */\n      iszero\n      tag_328\n      jumpi\n        /* \"#utility.yul\":10203:10221   */\n      tag_329\n      tag_191\n      jump\t// in\n    tag_329:\n        /* \"#utility.yul\":10093:10223   */\n    tag_328:\n        /* \"#utility.yul\":9858:10230   */\n      swap3\n      swap2\n      pop\n      pop\n      jump\t// out\n        /* \"#utility.yul\":10236:10611   */\n    tag_63:\n        /* \"#utility.yul\":10275:10278   */\n      0x00\n        /* \"#utility.yul\":10294:10313   */\n      tag_331\n        /* \"#utility.yul\":10311:10312   */\n      dup3\n        /* \"#utility.yul\":10294:10313   */\n      tag_173\n      jump\t// in\n    tag_331:\n        /* \"#utility.yul\":10289:10313   */\n      swap2\n      pop\n        /* \"#utility.yul\":10327:10346   */\n      tag_332\n        /* \"#utility.yul\":10344:10345   */\n      dup4\n        /* \"#utility.yul\":10327:10346   */\n      tag_173\n      jump\t// in\n    tag_332:\n        /* \"#utility.yul\":10322:10346   */\n      swap3\n      pop\n        /* \"#utility.yul\":10369:10370   */\n      dup3\n        /* \"#utility.yul\":10366:10367   */\n      dup3\n        /* \"#utility.yul\":10362:10371   */\n      add\n        /* \"#utility.yul\":10355:10371   */\n      swap1\n      pop\n        /* \"#utility.yul\":10567:10568   */\n      dup3\n        /* \"#utility.yul\":10562:10565   */\n      dup2\n        /* \"#utility.yul\":10558:10569   */\n      slt\n        /* \"#utility.yul\":10551:10570   */\n      iszero\n        /* \"#utility.yul\":10547:10548   */\n      0x00\n        /* \"#utility.yul\":10544:10545   */\n      dup4\n        /* \"#utility.yul\":10540:10549   */\n      slt\n        /* \"#utility.yul\":10536:10571   */\n      and\n        /* \"#utility.yul\":10519:10520   */\n      dup4\n        /* \"#utility.yul\":10514:10517   */\n      dup3\n        /* \"#utility.yul\":10510:10521   */\n      slt\n        /* \"#utility.yul\":10505:10506   */\n      0x00\n        /* \"#utility.yul\":10502:10503   */\n      dup5\n        /* \"#utility.yul\":10498:10507   */\n      slt\n        /* \"#utility.yul\":10491:10508   */\n      iszero\n        /* \"#utility.yul\":10487:10522   */\n      and\n        /* \"#utility.yul\":10471:10581   */\n      or\n        /* \"#utility.yul\":10468:10604   */\n      iszero\n      tag_333\n      jumpi\n        /* \"#utility.yul\":10584:10602   */\n      tag_334\n      tag_191\n      jump\t// in\n    tag_334:\n        /* \"#utility.yul\":10468:10604   */\n    tag_333:\n        /* \"#utility.yul\":10236:10611   */\n      swap3\n      swap2\n      pop\n      pop\n      jump\t// out\n        /* \"#utility.yul\":10617:10784   */\n    tag_65:\n        /* \"#utility.yul\":10654:10657   */\n      0x00\n        /* \"#utility.yul\":10677:10699   */\n      tag_336\n        /* \"#utility.yul\":10693:10698   */\n      dup3\n        /* \"#utility.yul\":10677:10699   */\n      tag_175\n      jump\t// in\n    tag_336:\n        /* \"#utility.yul\":10668:10699   */\n      swap2\n      pop\n        /* \"#utility.yul\":10721:10725   */\n      0xff\n        /* \"#utility.yul\":10714:10719   */\n      dup3\n        /* \"#utility.yul\":10711:10726   */\n      sub\n        /* \"#utility.yul\":10708:10749   */\n      tag_337\n      jumpi\n        /* \"#utility.yul\":10729:10747   */\n      tag_338\n      tag_191\n      jump\t// in\n    tag_338:\n        /* \"#utility.yul\":10708:10749   */\n    tag_337:\n        /* \"#utility.yul\":10776:10777   */\n      0x01\n        /* \"#utility.yul\":10769:10774   */\n      dup3\n        /* \"#utility.yul\":10765:10778   */\n      add\n        /* \"#utility.yul\":10758:10778   */\n      swap1\n      pop\n        /* \"#utility.yul\":10617:10784   */\n      swap2\n      swap1\n      pop\n      jump\t// out\n        /* \"#utility.yul\":10790:10884   */\n    tag_192:\n        /* \"#utility.yul\":10823:10831   */\n      0x00\n        /* \"#utility.yul\":10871:10876   */\n      dup2\n        /* \"#utility.yul\":10867:10869   */\n      0x60\n        /* \"#utility.yul\":10863:10877   */\n      shl\n        /* \"#utility.yul\":10842:10877   */\n      swap1\n      pop\n        /* \"#utility.yul\":10790:10884   */\n      swap2\n      swap1\n      pop\n      jump\t// out\n        /* \"#utility.yul\":10890:10984   */\n    tag_193:\n        /* \"#utility.yul\":10929:10936   */\n      0x00\n        /* \"#utility.yul\":10958:10978   */\n      tag_341\n        /* \"#utility.yul\":10972:10977   */\n      dup3\n        /* \"#utility.yul\":10958:10978   */\n      tag_192\n      jump\t// in\n    tag_341:\n        /* \"#utility.yul\":10947:10978   */\n      swap1\n      pop\n        /* \"#utility.yul\":10890:10984   */\n      swap2\n      swap1\n      pop\n      jump\t// out\n        /* \"#utility.yul\":10990:11090   */\n    tag_194:\n        /* \"#utility.yul\":11029:11036   */\n      0x00\n        /* \"#utility.yul\":11058:11084   */\n      tag_343\n        /* \"#utility.yul\":11078:11083   */\n      dup3\n        /* \"#utility.yul\":11058:11084   */\n      tag_193\n      jump\t// in\n    tag_343:\n        /* \"#utility.yul\":11047:11084   */\n      swap1\n      pop\n        /* \"#utility.yul\":10990:11090   */\n      swap2\n      swap1\n      pop\n      jump\t// out\n        /* \"#utility.yul\":11096:11253   */\n    tag_195:\n        /* \"#utility.yul\":11201:11246   */\n      tag_345\n        /* \"#utility.yul\":11221:11245   */\n      tag_346\n        /* \"#utility.yul\":11239:11244   */\n      dup3\n        /* \"#utility.yul\":11221:11245   */\n      tag_164\n      jump\t// in\n    tag_346:\n        /* \"#utility.yul\":11201:11246   */\n      tag_194\n      jump\t// in\n    tag_345:\n        /* \"#utility.yul\":11196:11199   */\n      dup3\n        /* \"#utility.yul\":11189:11247   */\n      mstore\n        /* \"#utility.yul\":11096:11253   */\n      pop\n      pop\n      jump\t// out\n        /* \"#utility.yul\":11259:11515   */\n    tag_73:\n        /* \"#utility.yul\":11371:11374   */\n      0x00\n        /* \"#utility.yul\":11386:11461   */\n      tag_348\n        /* \"#utility.yul\":11457:11460   */\n      dup3\n        /* \"#utility.yul\":11448:11454   */\n      dup5\n        /* \"#utility.yul\":11386:11461   */\n      tag_195\n      jump\t// in\n    tag_348:\n        /* \"#utility.yul\":11486:11488   */\n      0x14\n        /* \"#utility.yul\":11481:11484   */\n      dup3\n        /* \"#utility.yul\":11477:11489   */\n      add\n        /* \"#utility.yul\":11470:11489   */\n      swap2\n      pop\n        /* \"#utility.yul\":11506:11509   */\n      dup2\n        /* \"#utility.yul\":11499:11509   */\n      swap1\n      pop\n        /* \"#utility.yul\":11259:11515   */\n      swap3\n      swap2\n      pop\n      pop\n      jump\t// out\n        /* \"#utility.yul\":11521:11701   */\n    tag_196:\n        /* \"#utility.yul\":11569:11646   */\n      0x4e487b7100000000000000000000000000000000000000000000000000000000\n        /* \"#utility.yul\":11566:11567   */\n      0x00\n        /* \"#utility.yul\":11559:11647   */\n      mstore\n        /* \"#utility.yul\":11666:11670   */\n      0x22\n        /* \"#utility.yul\":11663:11664   */\n      0x04\n        /* \"#utility.yul\":11656:11671   */\n      mstore\n        /* \"#utility.yul\":11690:11694   */\n      0x24\n        /* \"#utility.yul\":11687:11688   */\n      0x00\n        /* \"#utility.yul\":11680:11695   */\n      revert\n        /* \"#utility.yul\":11707:12027   */\n    tag_77:\n        /* \"#utility.yul\":11751:11757   */\n      0x00\n        /* \"#utility.yul\":11788:11789   */\n      0x02\n        /* \"#utility.yul\":11782:11786   */\n      dup3\n        /* \"#utility.yul\":11778:11790   */\n      div\n        /* \"#utility.yul\":11768:11790   */\n      swap1\n      pop\n        /* \"#utility.yul\":11835:11836   */\n      0x01\n        /* \"#utility.yul\":11829:11833   */\n      dup3\n        /* \"#utility.yul\":11825:11837   */\n      and\n        /* \"#utility.yul\":11856:11874   */\n      dup1\n        /* \"#utility.yul\":11846:11927   */\n      tag_351\n      jumpi\n        /* \"#utility.yul\":11912:11916   */\n      0x7f\n        /* \"#utility.yul\":11904:11910   */\n      dup3\n        /* \"#utility.yul\":11900:11917   */\n      and\n        /* \"#utility.yul\":11890:11917   */\n      swap2\n      pop\n        /* \"#utility.yul\":11846:11927   */\n    tag_351:\n        /* \"#utility.yul\":11974:11976   */\n      0x20\n        /* \"#utility.yul\":11966:11972   */\n      dup3\n        /* \"#utility.yul\":11963:11977   */\n      lt\n        /* \"#utility.yul\":11943:11961   */\n      dup2\n        /* \"#utility.yul\":11940:11978   */\n      sub\n        /* \"#utility.yul\":11937:12021   */\n      tag_352\n      jumpi\n        /* \"#utility.yul\":11993:12011   */\n      tag_353\n      tag_196\n      jump\t// in\n    tag_353:\n        /* \"#utility.yul\":11937:12021   */\n    tag_352:\n        /* \"#utility.yul\":11758:12027   */\n      pop\n        /* \"#utility.yul\":11707:12027   */\n      swap2\n      swap1\n      pop\n      jump\t// out\n        /* \"#utility.yul\":12033:12199   */\n    tag_197:\n        /* \"#utility.yul\":12173:12191   */\n      0x57616c6c6574206e6f7420666f756e6400000000000000000000000000000000\n        /* \"#utility.yul\":12169:12170   */\n      0x00\n        /* \"#utility.yul\":12161:12167   */\n      dup3\n        /* \"#utility.yul\":12157:12171   */\n      add\n        /* \"#utility.yul\":12150:12192   */\n      mstore\n        /* \"#utility.yul\":12033:12199   */\n      pop\n      jump\t// out\n        /* \"#utility.yul\":12205:12571   */\n    tag_198:\n        /* \"#utility.yul\":12347:12350   */\n      0x00\n        /* \"#utility.yul\":12368:12435   */\n      tag_356\n        /* \"#utility.yul\":12432:12434   */\n      0x10\n        /* \"#utility.yul\":12427:12430   */\n      dup4\n        /* \"#utility.yul\":12368:12435   */\n      tag_168\n      jump\t// in\n    tag_356:\n        /* \"#utility.yul\":12361:12435   */\n      swap2\n      pop\n        /* \"#utility.yul\":12444:12537   */\n      tag_357\n        /* \"#utility.yul\":12533:12536   */\n      dup3\n        /* \"#utility.yul\":12444:12537   */\n      tag_197\n      jump\t// in\n    tag_357:\n        /* \"#utility.yul\":12562:12564   */\n      0x20\n        /* \"#utility.yul\":12557:12560   */\n      dup3\n        /* \"#utility.yul\":12553:12565   */\n      add\n        /* \"#utility.yul\":12546:12565   */\n      swap1\n      pop\n        /* \"#utility.yul\":12205:12571   */\n      swap2\n      swap1\n      pop\n      jump\t// out\n        /* \"#utility.yul\":12577:12996   */\n    tag_83:\n        /* \"#utility.yul\":12743:12747   */\n      0x00\n        /* \"#utility.yul\":12781:12783   */\n      0x20\n        /* \"#utility.yul\":12770:12779   */\n      dup3\n        /* \"#utility.yul\":12766:12784   */\n      add\n        /* \"#utility.yul\":12758:12784   */\n      swap1\n      pop\n        /* \"#utility.yul\":12830:12839   */\n      dup2\n        /* \"#utility.yul\":12824:12828   */\n      dup2\n        /* \"#utility.yul\":12820:12840   */\n      sub\n        /* \"#utility.yul\":12816:12817   */\n      0x00\n        /* \"#utility.yul\":12805:12814   */\n      dup4\n        /* \"#utility.yul\":12801:12818   */\n      add\n        /* \"#utility.yul\":12794:12841   */\n      mstore\n        /* \"#utility.yul\":12858:12989   */\n      tag_359\n        /* \"#utility.yul\":12984:12988   */\n      dup2\n        /* \"#utility.yul\":12858:12989   */\n      tag_198\n      jump\t// in\n    tag_359:\n        /* \"#utility.yul\":12850:12989   */\n      swap1\n      pop\n        /* \"#utility.yul\":12577:12996   */\n      swap2\n      swap1\n      pop\n      jump\t// out\n        /* \"#utility.yul\":13002:13180   */\n    tag_199:\n        /* \"#utility.yul\":13142:13172   */\n      0x54686520757365726e616d652063616e6e6f7420626520656d70747900000000\n        /* \"#utility.yul\":13138:13139   */\n      0x00\n        /* \"#utility.yul\":13130:13136   */\n      dup3\n        /* \"#utility.yul\":13126:13140   */\n      add\n        /* \"#utility.yul\":13119:13173   */\n      mstore\n        /* \"#utility.yul\":13002:13180   */\n      pop\n      jump\t// out\n        /* \"#utility.yul\":13186:13552   */\n    tag_200:\n        /* \"#utility.yul\":13328:13331   */\n      0x00\n        /* \"#utility.yul\":13349:13416   */\n      tag_362\n        /* \"#utility.yul\":13413:13415   */\n      0x1c\n        /* \"#utility.yul\":13408:13411   */\n      dup4\n        /* \"#utility.yul\":13349:13416   */\n      tag_168\n      jump\t// in\n    tag_362:\n        /* \"#utility.yul\":13342:13416   */\n      swap2\n      pop\n        /* \"#utility.yul\":13425:13518   */\n      tag_363\n        /* \"#utility.yul\":13514:13517   */\n      dup3\n        /* \"#utility.yul\":13425:13518   */\n      tag_199\n      jump\t// in\n    tag_363:\n        /* \"#utility.yul\":13543:13545   */\n      0x20\n        /* \"#utility.yul\":13538:13541   */\n      dup3\n        /* \"#utility.yul\":13534:13546   */\n      add\n        /* \"#utility.yul\":13527:13546   */\n      swap1\n      pop\n        /* \"#utility.yul\":13186:13552   */\n      swap2\n      swap1\n      pop\n      jump\t// out\n        /* \"#utility.yul\":13558:13977   */\n    tag_87:\n        /* \"#utility.yul\":13724:13728   */\n      0x00\n        /* \"#utility.yul\":13762:13764   */\n      0x20\n        /* \"#utility.yul\":13751:13760   */\n      dup3\n        /* \"#utility.yul\":13747:13765   */\n      add\n        /* \"#utility.yul\":13739:13765   */\n      swap1\n      pop\n        /* \"#utility.yul\":13811:13820   */\n      dup2\n        /* \"#utility.yul\":13805:13809   */\n      dup2\n        /* \"#utility.yul\":13801:13821   */\n      sub\n        /* \"#utility.yul\":13797:13798   */\n      0x00\n        /* \"#utility.yul\":13786:13795   */\n      dup4\n        /* \"#utility.yul\":13782:13799   */\n      add\n        /* \"#utility.yul\":13775:13822   */\n      mstore\n        /* \"#utility.yul\":13839:13970   */\n      tag_365\n        /* \"#utility.yul\":13965:13969   */\n      dup2\n        /* \"#utility.yul\":13839:13970   */\n      tag_200\n      jump\t// in\n    tag_365:\n        /* \"#utility.yul\":13831:13970   */\n      swap1\n      pop\n        /* \"#utility.yul\":13558:13977   */\n      swap2\n      swap1\n      pop\n      jump\t// out\n        /* \"#utility.yul\":13983:14131   */\n    tag_201:\n        /* \"#utility.yul\":14085:14096   */\n      0x00\n        /* \"#utility.yul\":14122:14125   */\n      dup2\n        /* \"#utility.yul\":14107:14125   */\n      swap1\n      pop\n        /* \"#utility.yul\":13983:14131   */\n      swap3\n      swap2\n      pop\n      pop\n      jump\t// out\n        /* \"#utility.yul\":14137:14283   */\n    tag_202:\n        /* \"#utility.yul\":14234:14240   */\n      dup3\n        /* \"#utility.yul\":14229:14232   */\n      dup2\n        /* \"#utility.yul\":14224:14227   */\n      dup4\n        /* \"#utility.yul\":14211:14241   */\n      calldatacopy\n        /* \"#utility.yul\":14275:14276   */\n      0x00\n        /* \"#utility.yul\":14266:14272   */\n      dup4\n        /* \"#utility.yul\":14261:14264   */\n      dup4\n        /* \"#utility.yul\":14257:14273   */\n      add\n        /* \"#utility.yul\":14250:14277   */\n      mstore\n        /* \"#utility.yul\":14137:14283   */\n      pop\n      pop\n      pop\n      jump\t// out\n        /* \"#utility.yul\":14313:14643   */\n    tag_203:\n        /* \"#utility.yul\":14429:14432   */\n      0x00\n        /* \"#utility.yul\":14450:14539   */\n      tag_369\n        /* \"#utility.yul\":14532:14538   */\n      dup4\n        /* \"#utility.yul\":14527:14530   */\n      dup6\n        /* \"#utility.yul\":14450:14539   */\n      tag_201\n      jump\t// in\n    tag_369:\n        /* \"#utility.yul\":14443:14539   */\n      swap4\n      pop\n        /* \"#utility.yul\":14549:14605   */\n      tag_370\n        /* \"#utility.yul\":14598:14604   */\n      dup4\n        /* \"#utility.yul\":14593:14596   */\n      dup6\n        /* \"#utility.yul\":14586:14591   */\n      dup5\n        /* \"#utility.yul\":14549:14605   */\n      tag_202\n      jump\t// in\n    tag_370:\n        /* \"#utility.yul\":14630:14636   */\n      dup3\n        /* \"#utility.yul\":14625:14628   */\n      dup5\n        /* \"#utility.yul\":14621:14637   */\n      add\n        /* \"#utility.yul\":14614:14637   */\n      swap1\n      pop\n        /* \"#utility.yul\":14313:14643   */\n      swap4\n      swap3\n      pop\n      pop\n      pop\n      jump\t// out\n        /* \"#utility.yul\":14649:14944   */\n    tag_92:\n        /* \"#utility.yul\":14791:14794   */\n      0x00\n        /* \"#utility.yul\":14813:14918   */\n      tag_372\n        /* \"#utility.yul\":14914:14917   */\n      dup3\n        /* \"#utility.yul\":14905:14911   */\n      dup5\n        /* \"#utility.yul\":14897:14903   */\n      dup7\n        /* \"#utility.yul\":14813:14918   */\n      tag_203\n      jump\t// in\n    tag_372:\n        /* \"#utility.yul\":14806:14918   */\n      swap2\n      pop\n        /* \"#utility.yul\":14935:14938   */\n      dup2\n        /* \"#utility.yul\":14928:14938   */\n      swap1\n      pop\n        /* \"#utility.yul\":14649:14944   */\n      swap4\n      swap3\n      pop\n      pop\n      pop\n      jump\t// out\n        /* \"#utility.yul\":14950:15091   */\n    tag_204:\n        /* \"#utility.yul\":14999:15003   */\n      0x00\n        /* \"#utility.yul\":15022:15025   */\n      dup2\n        /* \"#utility.yul\":15014:15025   */\n      swap1\n      pop\n        /* \"#utility.yul\":15045:15048   */\n      dup2\n        /* \"#utility.yul\":15042:15043   */\n      0x00\n        /* \"#utility.yul\":15035:15049   */\n      mstore\n        /* \"#utility.yul\":15079:15083   */\n      0x20\n        /* \"#utility.yul\":15076:15077   */\n      0x00\n        /* \"#utility.yul\":15066:15084   */\n      keccak256\n        /* \"#utility.yul\":15058:15084   */\n      swap1\n      pop\n        /* \"#utility.yul\":14950:15091   */\n      swap2\n      swap1\n      pop\n      jump\t// out\n        /* \"#utility.yul\":15121:15995   */\n    tag_205:\n        /* \"#utility.yul\":15224:15227   */\n      0x00\n        /* \"#utility.yul\":15261:15266   */\n      dup2\n        /* \"#utility.yul\":15255:15267   */\n      sload\n        /* \"#utility.yul\":15290:15326   */\n      tag_375\n        /* \"#utility.yul\":15316:15325   */\n      dup2\n        /* \"#utility.yul\":15290:15326   */\n      tag_77\n      jump\t// in\n    tag_375:\n        /* \"#utility.yul\":15342:15431   */\n      tag_376\n        /* \"#utility.yul\":15424:15430   */\n      dup2\n        /* \"#utility.yul\":15419:15422   */\n      dup7\n        /* \"#utility.yul\":15342:15431   */\n      tag_201\n      jump\t// in\n    tag_376:\n        /* \"#utility.yul\":15335:15431   */\n      swap5\n      pop\n        /* \"#utility.yul\":15462:15463   */\n      0x01\n        /* \"#utility.yul\":15451:15460   */\n      dup3\n        /* \"#utility.yul\":15447:15464   */\n      and\n        /* \"#utility.yul\":15478:15479   */\n      0x00\n        /* \"#utility.yul\":15473:15639   */\n      dup2\n      eq\n      tag_378\n      jumpi\n        /* \"#utility.yul\":15653:15654   */\n      0x01\n        /* \"#utility.yul\":15648:15989   */\n      dup2\n      eq\n      tag_379\n      jumpi\n        /* \"#utility.yul\":15440:15989   */\n      jump(tag_377)\n        /* \"#utility.yul\":15473:15639   */\n    tag_378:\n        /* \"#utility.yul\":15557:15561   */\n      0xff\n        /* \"#utility.yul\":15553:15562   */\n      not\n        /* \"#utility.yul\":15542:15551   */\n      dup4\n        /* \"#utility.yul\":15538:15563   */\n      and\n        /* \"#utility.yul\":15533:15536   */\n      dup7\n        /* \"#utility.yul\":15526:15564   */\n      mstore\n        /* \"#utility.yul\":15619:15625   */\n      dup2\n        /* \"#utility.yul\":15612:15626   */\n      iszero\n        /* \"#utility.yul\":15605:15627   */\n      iszero\n        /* \"#utility.yul\":15597:15603   */\n      dup3\n        /* \"#utility.yul\":15593:15628   */\n      mul\n        /* \"#utility.yul\":15588:15591   */\n      dup7\n        /* \"#utility.yul\":15584:15629   */\n      add\n        /* \"#utility.yul\":15577:15629   */\n      swap4\n      pop\n        /* \"#utility.yul\":15473:15639   */\n      jump(tag_377)\n        /* \"#utility.yul\":15648:15989   */\n    tag_379:\n        /* \"#utility.yul\":15715:15753   */\n      tag_380\n        /* \"#utility.yul\":15747:15752   */\n      dup6\n        /* \"#utility.yul\":15715:15753   */\n      tag_204\n      jump\t// in\n    tag_380:\n        /* \"#utility.yul\":15775:15776   */\n      0x00\n        /* \"#utility.yul\":15789:15943   */\n    tag_381:\n        /* \"#utility.yul\":15803:15809   */\n      dup4\n        /* \"#utility.yul\":15800:15801   */\n      dup2\n        /* \"#utility.yul\":15797:15810   */\n      lt\n        /* \"#utility.yul\":15789:15943   */\n      iszero\n      tag_383\n      jumpi\n        /* \"#utility.yul\":15877:15884   */\n      dup2\n        /* \"#utility.yul\":15871:15885   */\n      sload\n        /* \"#utility.yul\":15867:15868   */\n      dup2\n        /* \"#utility.yul\":15862:15865   */\n      dup10\n        /* \"#utility.yul\":15858:15869   */\n      add\n        /* \"#utility.yul\":15851:15886   */\n      mstore\n        /* \"#utility.yul\":15927:15928   */\n      0x01\n        /* \"#utility.yul\":15918:15925   */\n      dup3\n        /* \"#utility.yul\":15914:15929   */\n      add\n        /* \"#utility.yul\":15903:15929   */\n      swap2\n      pop\n        /* \"#utility.yul\":15825:15829   */\n      0x20\n        /* \"#utility.yul\":15822:15823   */\n      dup2\n        /* \"#utility.yul\":15818:15830   */\n      add\n        /* \"#utility.yul\":15813:15830   */\n      swap1\n      pop\n        /* \"#utility.yul\":15789:15943   */\n      jump(tag_381)\n    tag_383:\n        /* \"#utility.yul\":15972:15978   */\n      dup4\n        /* \"#utility.yul\":15967:15970   */\n      dup9\n        /* \"#utility.yul\":15963:15979   */\n      add\n        /* \"#utility.yul\":15956:15979   */\n      swap6\n      pop\n        /* \"#utility.yul\":15655:15989   */\n      pop\n      pop\n        /* \"#utility.yul\":15440:15989   */\n    tag_377:\n      pop\n        /* \"#utility.yul\":15228:15995   */\n      pop\n      pop\n        /* \"#utility.yul\":15121:15995   */\n      swap3\n      swap2\n      pop\n      pop\n      jump\t// out\n        /* \"#utility.yul\":16001:16270   */\n    tag_94:\n        /* \"#utility.yul\":16130:16133   */\n      0x00\n        /* \"#utility.yul\":16152:16244   */\n      tag_385\n        /* \"#utility.yul\":16240:16243   */\n      dup3\n        /* \"#utility.yul\":16231:16237   */\n      dup5\n        /* \"#utility.yul\":16152:16244   */\n      tag_205\n      jump\t// in\n    tag_385:\n        /* \"#utility.yul\":16145:16244   */\n      swap2\n      pop\n        /* \"#utility.yul\":16261:16264   */\n      dup2\n        /* \"#utility.yul\":16254:16264   */\n      swap1\n      pop\n        /* \"#utility.yul\":16001:16270   */\n      swap3\n      swap2\n      pop\n      pop\n      jump\t// out\n        /* \"#utility.yul\":16276:16440   */\n    tag_206:\n        /* \"#utility.yul\":16416:16432   */\n      0x55736572206e6f7420666f756e64000000000000000000000000000000000000\n        /* \"#utility.yul\":16412:16413   */\n      0x00\n        /* \"#utility.yul\":16404:16410   */\n      dup3\n        /* \"#utility.yul\":16400:16414   */\n      add\n        /* \"#utility.yul\":16393:16433   */\n      mstore\n        /* \"#utility.yul\":16276:16440   */\n      pop\n      jump\t// out\n        /* \"#utility.yul\":16446:16812   */\n    tag_207:\n        /* \"#utility.yul\":16588:16591   */\n      0x00\n        /* \"#utility.yul\":16609:16676   */\n      tag_388\n        /* \"#utility.yul\":16673:16675   */\n      0x0e\n        /* \"#utility.yul\":16668:16671   */\n      dup4\n        /* \"#utility.yul\":16609:16676   */\n      tag_168\n      jump\t// in\n    tag_388:\n        /* \"#utility.yul\":16602:16676   */\n      swap2\n      pop\n        /* \"#utility.yul\":16685:16778   */\n      tag_389\n        /* \"#utility.yul\":16774:16777   */\n      dup3\n        /* \"#utility.yul\":16685:16778   */\n      tag_206\n      jump\t// in\n    tag_389:\n        /* \"#utility.yul\":16803:16805   */\n      0x20\n        /* \"#utility.yul\":16798:16801   */\n      dup3\n        /* \"#utility.yul\":16794:16806   */\n      add\n        /* \"#utility.yul\":16787:16806   */\n      swap1\n      pop\n        /* \"#utility.yul\":16446:16812   */\n      swap2\n      swap1\n      pop\n      jump\t// out\n        /* \"#utility.yul\":16818:17237   */\n    tag_102:\n        /* \"#utility.yul\":16984:16988   */\n      0x00\n        /* \"#utility.yul\":17022:17024   */\n      0x20\n        /* \"#utility.yul\":17011:17020   */\n      dup3\n        /* \"#utility.yul\":17007:17025   */\n      add\n        /* \"#utility.yul\":16999:17025   */\n      swap1\n      pop\n        /* \"#utility.yul\":17071:17080   */\n      dup2\n        /* \"#utility.yul\":17065:17069   */\n      dup2\n        /* \"#utility.yul\":17061:17081   */\n      sub\n        /* \"#utility.yul\":17057:17058   */\n      0x00\n        /* \"#utility.yul\":17046:17055   */\n      dup4\n        /* \"#utility.yul\":17042:17059   */\n      add\n        /* \"#utility.yul\":17035:17082   */\n      mstore\n        /* \"#utility.yul\":17099:17230   */\n      tag_391\n        /* \"#utility.yul\":17225:17229   */\n      dup2\n        /* \"#utility.yul\":17099:17230   */\n      tag_207\n      jump\t// in\n    tag_391:\n        /* \"#utility.yul\":17091:17230   */\n      swap1\n      pop\n        /* \"#utility.yul\":16818:17237   */\n      swap2\n      swap1\n      pop\n      jump\t// out\n        /* \"#utility.yul\":17243:17538   */\n    tag_208:\n        /* \"#utility.yul\":17383:17417   */\n      0x5468652076616c756520746f207472616e73666572206d757374206265206c65\n        /* \"#utility.yul\":17379:17380   */\n      0x00\n        /* \"#utility.yul\":17371:17377   */\n      dup3\n        /* \"#utility.yul\":17367:17381   */\n      add\n        /* \"#utility.yul\":17360:17418   */\n      mstore\n        /* \"#utility.yul\":17452:17486   */\n      0x7373207468616e206f7220657175616c20746f207468652063757272656e7420\n        /* \"#utility.yul\":17447:17449   */\n      0x20\n        /* \"#utility.yul\":17439:17445   */\n      dup3\n        /* \"#utility.yul\":17435:17450   */\n      add\n        /* \"#utility.yul\":17428:17487   */\n      mstore\n        /* \"#utility.yul\":17521:17530   */\n      0x62616c616e636500000000000000000000000000000000000000000000000000\n        /* \"#utility.yul\":17516:17518   */\n      0x40\n        /* \"#utility.yul\":17508:17514   */\n      dup3\n        /* \"#utility.yul\":17504:17519   */\n      add\n        /* \"#utility.yul\":17497:17531   */\n      mstore\n        /* \"#utility.yul\":17243:17538   */\n      pop\n      jump\t// out\n        /* \"#utility.yul\":17544:17910   */\n    tag_209:\n        /* \"#utility.yul\":17686:17689   */\n      0x00\n        /* \"#utility.yul\":17707:17774   */\n      tag_394\n        /* \"#utility.yul\":17771:17773   */\n      0x47\n        /* \"#utility.yul\":17766:17769   */\n      dup4\n        /* \"#utility.yul\":17707:17774   */\n      tag_168\n      jump\t// in\n    tag_394:\n        /* \"#utility.yul\":17700:17774   */\n      swap2\n      pop\n        /* \"#utility.yul\":17783:17876   */\n      tag_395\n        /* \"#utility.yul\":17872:17875   */\n      dup3\n        /* \"#utility.yul\":17783:17876   */\n      tag_208\n      jump\t// in\n    tag_395:\n        /* \"#utility.yul\":17901:17903   */\n      0x60\n        /* \"#utility.yul\":17896:17899   */\n      dup3\n        /* \"#utility.yul\":17892:17904   */\n      add\n        /* \"#utility.yul\":17885:17904   */\n      swap1\n      pop\n        /* \"#utility.yul\":17544:17910   */\n      swap2\n      swap1\n      pop\n      jump\t// out\n        /* \"#utility.yul\":17916:18335   */\n    tag_110:\n        /* \"#utility.yul\":18082:18086   */\n      0x00\n        /* \"#utility.yul\":18120:18122   */\n      0x20\n        /* \"#utility.yul\":18109:18118   */\n      dup3\n        /* \"#utility.yul\":18105:18123   */\n      add\n        /* \"#utility.yul\":18097:18123   */\n      swap1\n      pop\n        /* \"#utility.yul\":18169:18178   */\n      dup2\n        /* \"#utility.yul\":18163:18167   */\n      dup2\n        /* \"#utility.yul\":18159:18179   */\n      sub\n        /* \"#utility.yul\":18155:18156   */\n      0x00\n        /* \"#utility.yul\":18144:18153   */\n      dup4\n        /* \"#utility.yul\":18140:18157   */\n      add\n        /* \"#utility.yul\":18133:18180   */\n      mstore\n        /* \"#utility.yul\":18197:18328   */\n      tag_397\n        /* \"#utility.yul\":18323:18327   */\n      dup2\n        /* \"#utility.yul\":18197:18328   */\n      tag_209\n      jump\t// in\n    tag_397:\n        /* \"#utility.yul\":18189:18328   */\n      swap1\n      pop\n        /* \"#utility.yul\":17916:18335   */\n      swap2\n      swap1\n      pop\n      jump\t// out\n        /* \"#utility.yul\":18341:18583   */\n    tag_210:\n        /* \"#utility.yul\":18481:18515   */\n      0x5468652076616c756520746f2064656372656173652062616c616e6365206d75\n        /* \"#utility.yul\":18477:18478   */\n      0x00\n        /* \"#utility.yul\":18469:18475   */\n      dup3\n        /* \"#utility.yul\":18465:18479   */\n      add\n        /* \"#utility.yul\":18458:18516   */\n      mstore\n        /* \"#utility.yul\":18550:18575   */\n      0x73742062652067726561746572207468616e207a65726f000000000000000000\n        /* \"#utility.yul\":18545:18547   */\n      0x20\n        /* \"#utility.yul\":18537:18543   */\n      dup3\n        /* \"#utility.yul\":18533:18548   */\n      add\n        /* \"#utility.yul\":18526:18576   */\n      mstore\n        /* \"#utility.yul\":18341:18583   */\n      pop\n      jump\t// out\n        /* \"#utility.yul\":18589:18955   */\n    tag_211:\n        /* \"#utility.yul\":18731:18734   */\n      0x00\n        /* \"#utility.yul\":18752:18819   */\n      tag_400\n        /* \"#utility.yul\":18816:18818   */\n      0x37\n        /* \"#utility.yul\":18811:18814   */\n      dup4\n        /* \"#utility.yul\":18752:18819   */\n      tag_168\n      jump\t// in\n    tag_400:\n        /* \"#utility.yul\":18745:18819   */\n      swap2\n      pop\n        /* \"#utility.yul\":18828:18921   */\n      tag_401\n        /* \"#utility.yul\":18917:18920   */\n      dup3\n        /* \"#utility.yul\":18828:18921   */\n      tag_210\n      jump\t// in\n    tag_401:\n        /* \"#utility.yul\":18946:18948   */\n      0x40\n        /* \"#utility.yul\":18941:18944   */\n      dup3\n        /* \"#utility.yul\":18937:18949   */\n      add\n        /* \"#utility.yul\":18930:18949   */\n      swap1\n      pop\n        /* \"#utility.yul\":18589:18955   */\n      swap2\n      swap1\n      pop\n      jump\t// out\n        /* \"#utility.yul\":18961:19380   */\n    tag_120:\n        /* \"#utility.yul\":19127:19131   */\n      0x00\n        /* \"#utility.yul\":19165:19167   */\n      0x20\n        /* \"#utility.yul\":19154:19163   */\n      dup3\n        /* \"#utility.yul\":19150:19168   */\n      add\n        /* \"#utility.yul\":19142:19168   */\n      swap1\n      pop\n        /* \"#utility.yul\":19214:19223   */\n      dup2\n        /* \"#utility.yul\":19208:19212   */\n      dup2\n        /* \"#utility.yul\":19204:19224   */\n      sub\n        /* \"#utility.yul\":19200:19201   */\n      0x00\n        /* \"#utility.yul\":19189:19198   */\n      dup4\n        /* \"#utility.yul\":19185:19202   */\n      add\n        /* \"#utility.yul\":19178:19225   */\n      mstore\n        /* \"#utility.yul\":19242:19373   */\n      tag_403\n        /* \"#utility.yul\":19368:19372   */\n      dup2\n        /* \"#utility.yul\":19242:19373   */\n      tag_211\n      jump\t// in\n    tag_403:\n        /* \"#utility.yul\":19234:19373   */\n      swap1\n      pop\n        /* \"#utility.yul\":18961:19380   */\n      swap2\n      swap1\n      pop\n      jump\t// out\n        /* \"#utility.yul\":19386:19565   */\n    tag_212:\n        /* \"#utility.yul\":19526:19557   */\n      0x546865206163636f756e7420697320616c726561647920616374697665000000\n        /* \"#utility.yul\":19522:19523   */\n      0x00\n        /* \"#utility.yul\":19514:19520   */\n      dup3\n        /* \"#utility.yul\":19510:19524   */\n      add\n        /* \"#utility.yul\":19503:19558   */\n      mstore\n        /* \"#utility.yul\":19386:19565   */\n      pop\n      jump\t// out\n        /* \"#utility.yul\":19571:19937   */\n    tag_213:\n        /* \"#utility.yul\":19713:19716   */\n      0x00\n        /* \"#utility.yul\":19734:19801   */\n      tag_406\n        /* \"#utility.yul\":19798:19800   */\n      0x1d\n        /* \"#utility.yul\":19793:19796   */\n      dup4\n        /* \"#utility.yul\":19734:19801   */\n      tag_168\n      jump\t// in\n    tag_406:\n        /* \"#utility.yul\":19727:19801   */\n      swap2\n      pop\n        /* \"#utility.yul\":19810:19903   */\n      tag_407\n        /* \"#utility.yul\":19899:19902   */\n      dup3\n        /* \"#utility.yul\":19810:19903   */\n      tag_212\n      jump\t// in\n    tag_407:\n        /* \"#utility.yul\":19928:19930   */\n      0x20\n        /* \"#utility.yul\":19923:19926   */\n      dup3\n        /* \"#utility.yul\":19919:19931   */\n      add\n        /* \"#utility.yul\":19912:19931   */\n      swap1\n      pop\n        /* \"#utility.yul\":19571:19937   */\n      swap2\n      swap1\n      pop\n      jump\t// out\n        /* \"#utility.yul\":19943:20362   */\n    tag_137:\n        /* \"#utility.yul\":20109:20113   */\n      0x00\n        /* \"#utility.yul\":20147:20149   */\n      0x20\n        /* \"#utility.yul\":20136:20145   */\n      dup3\n        /* \"#utility.yul\":20132:20150   */\n      add\n        /* \"#utility.yul\":20124:20150   */\n      swap1\n      pop\n        /* \"#utility.yul\":20196:20205   */\n      dup2\n        /* \"#utility.yul\":20190:20194   */\n      dup2\n        /* \"#utility.yul\":20186:20206   */\n      sub\n        /* \"#utility.yul\":20182:20183   */\n      0x00\n        /* \"#utility.yul\":20171:20180   */\n      dup4\n        /* \"#utility.yul\":20167:20184   */\n      add\n        /* \"#utility.yul\":20160:20207   */\n      mstore\n        /* \"#utility.yul\":20224:20355   */\n      tag_409\n        /* \"#utility.yul\":20350:20354   */\n      dup2\n        /* \"#utility.yul\":20224:20355   */\n      tag_213\n      jump\t// in\n    tag_409:\n        /* \"#utility.yul\":20216:20355   */\n      swap1\n      pop\n        /* \"#utility.yul\":19943:20362   */\n      swap2\n      swap1\n      pop\n      jump\t// out\n        /* \"#utility.yul\":20368:20543   */\n    tag_214:\n        /* \"#utility.yul\":20508:20535   */\n      0x54686973207573657220616c7265616479206578697374732e00000000000000\n        /* \"#utility.yul\":20504:20505   */\n      0x00\n        /* \"#utility.yul\":20496:20502   */\n      dup3\n        /* \"#utility.yul\":20492:20506   */\n      add\n        /* \"#utility.yul\":20485:20536   */\n      mstore\n        /* \"#utility.yul\":20368:20543   */\n      pop\n      jump\t// out\n        /* \"#utility.yul\":20549:20915   */\n    tag_215:\n        /* \"#utility.yul\":20691:20694   */\n      0x00\n        /* \"#utility.yul\":20712:20779   */\n      tag_412\n        /* \"#utility.yul\":20776:20778   */\n      0x19\n        /* \"#utility.yul\":20771:20774   */\n      dup4\n        /* \"#utility.yul\":20712:20779   */\n      tag_168\n      jump\t// in\n    tag_412:\n        /* \"#utility.yul\":20705:20779   */\n      swap2\n      pop\n        /* \"#utility.yul\":20788:20881   */\n      tag_413\n        /* \"#utility.yul\":20877:20880   */\n      dup3\n        /* \"#utility.yul\":20788:20881   */\n      tag_214\n      jump\t// in\n    tag_413:\n        /* \"#utility.yul\":20906:20908   */\n      0x20\n        /* \"#utility.yul\":20901:20904   */\n      dup3\n        /* \"#utility.yul\":20897:20909   */\n      add\n        /* \"#utility.yul\":20890:20909   */\n      swap1\n      pop\n        /* \"#utility.yul\":20549:20915   */\n      swap2\n      swap1\n      pop\n      jump\t// out\n        /* \"#utility.yul\":20921:21340   */\n    tag_152:\n        /* \"#utility.yul\":21087:21091   */\n      0x00\n        /* \"#utility.yul\":21125:21127   */\n      0x20\n        /* \"#utility.yul\":21114:21123   */\n      dup3\n        /* \"#utility.yul\":21110:21128   */\n      add\n        /* \"#utility.yul\":21102:21128   */\n      swap1\n      pop\n        /* \"#utility.yul\":21174:21183   */\n      dup2\n        /* \"#utility.yul\":21168:21172   */\n      dup2\n        /* \"#utility.yul\":21164:21184   */\n      sub\n        /* \"#utility.yul\":21160:21161   */\n      0x00\n        /* \"#utility.yul\":21149:21158   */\n      dup4\n        /* \"#utility.yul\":21145:21162   */\n      add\n        /* \"#utility.yul\":21138:21185   */\n      mstore\n        /* \"#utility.yul\":21202:21333   */\n      tag_415\n        /* \"#utility.yul\":21328:21332   */\n      dup2\n        /* \"#utility.yul\":21202:21333   */\n      tag_215\n      jump\t// in\n    tag_415:\n        /* \"#utility.yul\":21194:21333   */\n      swap1\n      pop\n        /* \"#utility.yul\":20921:21340   */\n      swap2\n      swap1\n      pop\n      jump\t// out\n        /* \"#utility.yul\":21346:21526   */\n    tag_216:\n        /* \"#utility.yul\":21394:21471   */\n      0x4e487b7100000000000000000000000000000000000000000000000000000000\n        /* \"#utility.yul\":21391:21392   */\n      0x00\n        /* \"#utility.yul\":21384:21472   */\n      mstore\n        /* \"#utility.yul\":21491:21495   */\n      0x41\n        /* \"#utility.yul\":21488:21489   */\n      0x04\n        /* \"#utility.yul\":21481:21496   */\n      mstore\n        /* \"#utility.yul\":21515:21519   */\n      0x24\n        /* \"#utility.yul\":21512:21513   */\n      0x00\n        /* \"#utility.yul\":21505:21520   */\n      revert\n        /* \"#utility.yul\":21532:21625   */\n    tag_217:\n        /* \"#utility.yul\":21569:21575   */\n      0x00\n        /* \"#utility.yul\":21616:21618   */\n      0x20\n        /* \"#utility.yul\":21611:21613   */\n      0x1f\n        /* \"#utility.yul\":21604:21609   */\n      dup4\n        /* \"#utility.yul\":21600:21614   */\n      add\n        /* \"#utility.yul\":21596:21619   */\n      div\n        /* \"#utility.yul\":21586:21619   */\n      swap1\n      pop\n        /* \"#utility.yul\":21532:21625   */\n      swap2\n      swap1\n      pop\n      jump\t// out\n        /* \"#utility.yul\":21631:21738   */\n    tag_218:\n        /* \"#utility.yul\":21675:21683   */\n      0x00\n        /* \"#utility.yul\":21725:21730   */\n      dup3\n        /* \"#utility.yul\":21719:21723   */\n      dup3\n        /* \"#utility.yul\":21715:21731   */\n      shl\n        /* \"#utility.yul\":21694:21731   */\n      swap1\n      pop\n        /* \"#utility.yul\":21631:21738   */\n      swap3\n      swap2\n      pop\n      pop\n      jump\t// out\n        /* \"#utility.yul\":21744:22137   */\n    tag_219:\n        /* \"#utility.yul\":21813:21819   */\n      0x00\n        /* \"#utility.yul\":21863:21864   */\n      0x08\n        /* \"#utility.yul\":21851:21861   */\n      dup4\n        /* \"#utility.yul\":21847:21865   */\n      mul\n        /* \"#utility.yul\":21886:21983   */\n      tag_420\n        /* \"#utility.yul\":21916:21982   */\n      0xffffffffffffffffffffffffffffffffffffffffffffffffffffffffffffffff\n        /* \"#utility.yul\":21905:21914   */\n      dup3\n        /* \"#utility.yul\":21886:21983   */\n      tag_218\n      jump\t// in\n    tag_420:\n        /* \"#utility.yul\":22004:22043   */\n      tag_421\n        /* \"#utility.yul\":22034:22042   */\n      dup7\n        /* \"#utility.yul\":22023:22032   */\n      dup4\n        /* \"#utility.yul\":22004:22043   */\n      tag_218\n      jump\t// in\n    tag_421:\n        /* \"#utility.yul\":21992:22043   */\n      swap6\n      pop\n        /* \"#utility.yul\":22076:22080   */\n      dup1\n        /* \"#utility.yul\":22072:22081   */\n      not\n        /* \"#utility.yul\":22065:22070   */\n      dup5\n        /* \"#utility.yul\":22061:22082   */\n      and\n        /* \"#utility.yul\":22052:22082   */\n      swap4\n      pop\n        /* \"#utility.yul\":22125:22129   */\n      dup1\n        /* \"#utility.yul\":22115:22123   */\n      dup7\n        /* \"#utility.yul\":22111:22130   */\n      and\n        /* \"#utility.yul\":22104:22109   */\n      dup5\n        /* \"#utility.yul\":22101:22131   */\n      or\n        /* \"#utility.yul\":22091:22131   */\n      swap3\n      pop\n        /* \"#utility.yul\":21820:22137   */\n      pop\n      pop\n        /* \"#utility.yul\":21744:22137   */\n      swap4\n      swap3\n      pop\n      pop\n      pop\n      jump\t// out\n        /* \"#utility.yul\":22143:22203   */\n    tag_220:\n        /* \"#utility.yul\":22171:22174   */\n      0x00\n        /* \"#utility.yul\":22192:22197   */\n      dup2\n        /* \"#utility.yul\":22185:22197   */\n      swap1\n      pop\n        /* \"#utility.yul\":22143:22203   */\n      swap2\n      swap1\n      pop\n      jump\t// out\n        /* \"#utility.yul\":22209:22351   */\n    tag_221:\n        /* \"#utility.yul\":22259:22268   */\n      0x00\n        /* \"#utility.yul\":22292:22345   */\n      tag_424\n        /* \"#utility.yul\":22310:22344   */\n      tag_425\n        /* \"#utility.yul\":22319:22343   */\n      tag_426\n        /* \"#utility.yul\":22337:22342   */\n      dup5\n        /* \"#utility.yul\":22319:22343   */\n      tag_183\n      jump\t// in\n    tag_426:\n        /* \"#utility.yul\":22310:22344   */\n      tag_220\n      jump\t// in\n    tag_425:\n        /* \"#utility.yul\":22292:22345   */\n      tag_183\n      jump\t// in\n    tag_424:\n        /* \"#utility.yul\":22279:22345   */\n      swap1\n      pop\n        /* \"#utility.yul\":22209:22351   */\n      swap2\n      swap1\n      pop\n      jump\t// out\n        /* \"#utility.yul\":22357:22432   */\n    tag_222:\n        /* \"#utility.yul\":22400:22403   */\n      0x00\n        /* \"#utility.yul\":22421:22426   */\n      dup2\n        /* \"#utility.yul\":22414:22426   */\n      swap1\n      pop\n        /* \"#utility.yul\":22357:22432   */\n      swap2\n      swap1\n      pop\n      jump\t// out\n        /* \"#utility.yul\":22438:22707   */\n    tag_223:\n        /* \"#utility.yul\":22548:22587   */\n      tag_429\n        /* \"#utility.yul\":22579:22586   */\n      dup4\n        /* \"#utility.yul\":22548:22587   */\n      tag_221\n      jump\t// in\n    tag_429:\n        /* \"#utility.yul\":22609:22700   */\n      tag_430\n        /* \"#utility.yul\":22658:22699   */\n      tag_431\n        /* \"#utility.yul\":22682:22698   */\n      dup3\n        /* \"#utility.yul\":22658:22699   */\n      tag_222\n      jump\t// in\n    tag_431:\n        /* \"#utility.yul\":22650:22656   */\n      dup5\n        /* \"#utility.yul\":22643:22647   */\n      dup5\n        /* \"#utility.yul\":22637:22648   */\n      sload\n        /* \"#utility.yul\":22609:22700   */\n      tag_219\n      jump\t// in\n    tag_430:\n        /* \"#utility.yul\":22603:22607   */\n      dup3\n        /* \"#utility.yul\":22596:22701   */\n      sstore\n        /* \"#utility.yul\":22514:22707   */\n      pop\n        /* \"#utility.yul\":22438:22707   */\n      pop\n      pop\n      pop\n      jump\t// out\n        /* \"#utility.yul\":22713:22786   */\n    tag_224:\n        /* \"#utility.yul\":22758:22761   */\n      0x00\n        /* \"#utility.yul\":22713:22786   */\n      swap1\n      jump\t// out\n        /* \"#utility.yul\":22792:22981   */\n    tag_225:\n        /* \"#utility.yul\":22869:22901   */\n      tag_434\n      tag_224\n      jump\t// in\n    tag_434:\n        /* \"#utility.yul\":22910:22975   */\n      tag_435\n        /* \"#utility.yul\":22968:22974   */\n      dup2\n        /* \"#utility.yul\":22960:22966   */\n      dup5\n        /* \"#utility.yul\":22954:22958   */\n      dup5\n        /* \"#utility.yul\":22910:22975   */\n      tag_223\n      jump\t// in\n    tag_435:\n        /* \"#utility.yul\":22845:22981   */\n      pop\n        /* \"#utility.yul\":22792:22981   */\n      pop\n      pop\n      jump\t// out\n        /* \"#utility.yul\":22987:23173   */\n    tag_226:\n        /* \"#utility.yul\":23047:23167   */\n    tag_437:\n        /* \"#utility.yul\":23064:23067   */\n      dup2\n        /* \"#utility.yul\":23057:23062   */\n      dup2\n        /* \"#utility.yul\":23054:23068   */\n      lt\n        /* \"#utility.yul\":23047:23167   */\n      iszero\n      tag_439\n      jumpi\n        /* \"#utility.yul\":23118:23157   */\n      tag_440\n        /* \"#utility.yul\":23155:23156   */\n      0x00\n        /* \"#utility.yul\":23148:23153   */\n      dup3\n        /* \"#utility.yul\":23118:23157   */\n      tag_225\n      jump\t// in\n    tag_440:\n        /* \"#utility.yul\":23091:23092   */\n      0x01\n        /* \"#utility.yul\":23084:23089   */\n      dup2\n        /* \"#utility.yul\":23080:23093   */\n      add\n        /* \"#utility.yul\":23071:23093   */\n      swap1\n      pop\n        /* \"#utility.yul\":23047:23167   */\n      jump(tag_437)\n    tag_439:\n        /* \"#utility.yul\":22987:23173   */\n      pop\n      pop\n      jump\t// out\n        /* \"#utility.yul\":23179:23722   */\n    tag_227:\n        /* \"#utility.yul\":23280:23282   */\n      0x1f\n        /* \"#utility.yul\":23275:23278   */\n      dup3\n        /* \"#utility.yul\":23272:23283   */\n      gt\n        /* \"#utility.yul\":23269:23715   */\n      iszero\n      tag_442\n      jumpi\n        /* \"#utility.yul\":23314:23352   */\n      tag_443\n        /* \"#utility.yul\":23346:23351   */\n      dup2\n        /* \"#utility.yul\":23314:23352   */\n      tag_204\n      jump\t// in\n    tag_443:\n        /* \"#utility.yul\":23398:23427   */\n      tag_444\n        /* \"#utility.yul\":23416:23426   */\n      dup5\n        /* \"#utility.yul\":23398:23427   */\n      tag_217\n      jump\t// in\n    tag_444:\n        /* \"#utility.yul\":23388:23396   */\n      dup2\n        /* \"#utility.yul\":23384:23428   */\n      add\n        /* \"#utility.yul\":23581:23583   */\n      0x20\n        /* \"#utility.yul\":23569:23579   */\n      dup6\n        /* \"#utility.yul\":23566:23584   */\n      lt\n        /* \"#utility.yul\":23563:23612   */\n      iszero\n      tag_445\n      jumpi\n        /* \"#utility.yul\":23602:23610   */\n      dup2\n        /* \"#utility.yul\":23587:23610   */\n      swap1\n      pop\n        /* \"#utility.yul\":23563:23612   */\n    tag_445:\n        /* \"#utility.yul\":23625:23705   */\n      tag_446\n        /* \"#utility.yul\":23681:23703   */\n      tag_447\n        /* \"#utility.yul\":23699:23702   */\n      dup6\n        /* \"#utility.yul\":23681:23703   */\n      tag_217\n      jump\t// in\n    tag_447:\n        /* \"#utility.yul\":23671:23679   */\n      dup4\n        /* \"#utility.yul\":23667:23704   */\n      add\n        /* \"#utility.yul\":23654:23665   */\n      dup3\n        /* \"#utility.yul\":23625:23705   */\n      tag_226\n      jump\t// in\n    tag_446:\n        /* \"#utility.yul\":23284:23715   */\n      pop\n      pop\n        /* \"#utility.yul\":23269:23715   */\n    tag_442:\n        /* \"#utility.yul\":23179:23722   */\n      pop\n      pop\n      pop\n      jump\t// out\n        /* \"#utility.yul\":23728:23845   */\n    tag_228:\n        /* \"#utility.yul\":23782:23790   */\n      0x00\n        /* \"#utility.yul\":23832:23837   */\n      dup3\n        /* \"#utility.yul\":23826:23830   */\n      dup3\n        /* \"#utility.yul\":23822:23838   */\n      shr\n        /* \"#utility.yul\":23801:23838   */\n      swap1\n      pop\n        /* \"#utility.yul\":23728:23845   */\n      swap3\n      swap2\n      pop\n      pop\n      jump\t// out\n        /* \"#utility.yul\":23851:24020   */\n    tag_229:\n        /* \"#utility.yul\":23895:23901   */\n      0x00\n        /* \"#utility.yul\":23928:23979   */\n      tag_450\n        /* \"#utility.yul\":23976:23977   */\n      0x00\n        /* \"#utility.yul\":23972:23978   */\n      not\n        /* \"#utility.yul\":23964:23969   */\n      dup5\n        /* \"#utility.yul\":23961:23962   */\n      0x08\n        /* \"#utility.yul\":23957:23970   */\n      mul\n        /* \"#utility.yul\":23928:23979   */\n      tag_228\n      jump\t// in\n    tag_450:\n        /* \"#utility.yul\":23924:23980   */\n      not\n        /* \"#utility.yul\":24009:24013   */\n      dup1\n        /* \"#utility.yul\":24003:24007   */\n      dup4\n        /* \"#utility.yul\":23999:24014   */\n      and\n        /* \"#utility.yul\":23989:24014   */\n      swap2\n      pop\n        /* \"#utility.yul\":23902:24020   */\n      pop\n        /* \"#utility.yul\":23851:24020   */\n      swap3\n      swap2\n      pop\n      pop\n      jump\t// out\n        /* \"#utility.yul\":24025:24320   */\n    tag_230:\n        /* \"#utility.yul\":24101:24105   */\n      0x00\n        /* \"#utility.yul\":24247:24276   */\n      tag_452\n        /* \"#utility.yul\":24272:24275   */\n      dup4\n        /* \"#utility.yul\":24266:24270   */\n      dup4\n        /* \"#utility.yul\":24247:24276   */\n      tag_229\n      jump\t// in\n    tag_452:\n        /* \"#utility.yul\":24239:24276   */\n      swap2\n      pop\n        /* \"#utility.yul\":24309:24312   */\n      dup3\n        /* \"#utility.yul\":24306:24307   */\n      0x02\n        /* \"#utility.yul\":24302:24313   */\n      mul\n        /* \"#utility.yul\":24296:24300   */\n      dup3\n        /* \"#utility.yul\":24293:24314   */\n      or\n        /* \"#utility.yul\":24285:24314   */\n      swap1\n      pop\n        /* \"#utility.yul\":24025:24320   */\n      swap3\n      swap2\n      pop\n      pop\n      jump\t// out\n        /* \"#utility.yul\":24325:25720   */\n    tag_154:\n        /* \"#utility.yul\":24442:24479   */\n      tag_454\n        /* \"#utility.yul\":24475:24478   */\n      dup3\n        /* \"#utility.yul\":24442:24479   */\n      tag_167\n      jump\t// in\n    tag_454:\n        /* \"#utility.yul\":24544:24562   */\n      0xffffffffffffffff\n        /* \"#utility.yul\":24536:24542   */\n      dup2\n        /* \"#utility.yul\":24533:24563   */\n      gt\n        /* \"#utility.yul\":24530:24586   */\n      iszero\n      tag_455\n      jumpi\n        /* \"#utility.yul\":24566:24584   */\n      tag_456\n      tag_216\n      jump\t// in\n    tag_456:\n        /* \"#utility.yul\":24530:24586   */\n    tag_455:\n        /* \"#utility.yul\":24610:24648   */\n      tag_457\n        /* \"#utility.yul\":24642:24646   */\n      dup3\n        /* \"#utility.yul\":24636:24647   */\n      sload\n        /* \"#utility.yul\":24610:24648   */\n      tag_77\n      jump\t// in\n    tag_457:\n        /* \"#utility.yul\":24695:24762   */\n      tag_458\n        /* \"#utility.yul\":24755:24761   */\n      dup3\n        /* \"#utility.yul\":24747:24753   */\n      dup3\n        /* \"#utility.yul\":24741:24745   */\n      dup6\n        /* \"#utility.yul\":24695:24762   */\n      tag_227\n      jump\t// in\n    tag_458:\n        /* \"#utility.yul\":24789:24790   */\n      0x00\n        /* \"#utility.yul\":24813:24817   */\n      0x20\n        /* \"#utility.yul\":24800:24817   */\n      swap1\n      pop\n        /* \"#utility.yul\":24845:24847   */\n      0x1f\n        /* \"#utility.yul\":24837:24843   */\n      dup4\n        /* \"#utility.yul\":24834:24848   */\n      gt\n        /* \"#utility.yul\":24862:24863   */\n      0x01\n        /* \"#utility.yul\":24857:25475   */\n      dup2\n      eq\n      tag_460\n      jumpi\n        /* \"#utility.yul\":25519:25520   */\n      0x00\n        /* \"#utility.yul\":25536:25542   */\n      dup5\n        /* \"#utility.yul\":25533:25610   */\n      iszero\n      tag_461\n      jumpi\n        /* \"#utility.yul\":25585:25594   */\n      dup3\n        /* \"#utility.yul\":25580:25583   */\n      dup8\n        /* \"#utility.yul\":25576:25595   */\n      add\n        /* \"#utility.yul\":25570:25596   */\n      mload\n        /* \"#utility.yul\":25561:25596   */\n      swap1\n      pop\n        /* \"#utility.yul\":25533:25610   */\n    tag_461:\n        /* \"#utility.yul\":25636:25703   */\n      tag_462\n        /* \"#utility.yul\":25696:25702   */\n      dup6\n        /* \"#utility.yul\":25689:25694   */\n      dup3\n        /* \"#utility.yul\":25636:25703   */\n      tag_230\n      jump\t// in\n    tag_462:\n        /* \"#utility.yul\":25630:25634   */\n      dup7\n        /* \"#utility.yul\":25623:25704   */\n      sstore\n        /* \"#utility.yul\":25492:25714   */\n      pop\n        /* \"#utility.yul\":24827:25714   */\n      jump(tag_459)\n        /* \"#utility.yul\":24857:25475   */\n    tag_460:\n        /* \"#utility.yul\":24909:24913   */\n      0x1f\n        /* \"#utility.yul\":24905:24914   */\n      not\n        /* \"#utility.yul\":24897:24903   */\n      dup5\n        /* \"#utility.yul\":24893:24915   */\n      and\n        /* \"#utility.yul\":24943:24980   */\n      tag_463\n        /* \"#utility.yul\":24975:24979   */\n      dup7\n        /* \"#utility.yul\":24943:24980   */\n      tag_204\n      jump\t// in\n    tag_463:\n        /* \"#utility.yul\":25002:25003   */\n      0x00\n        /* \"#utility.yul\":25016:25224   */\n    tag_464:\n        /* \"#utility.yul\":25030:25037   */\n      dup3\n        /* \"#utility.yul\":25027:25028   */\n      dup2\n        /* \"#utility.yul\":25024:25038   */\n      lt\n        /* \"#utility.yul\":25016:25224   */\n      iszero\n      tag_466\n      jumpi\n        /* \"#utility.yul\":25109:25118   */\n      dup5\n        /* \"#utility.yul\":25104:25107   */\n      dup10\n        /* \"#utility.yul\":25100:25119   */\n      add\n        /* \"#utility.yul\":25094:25120   */\n      mload\n        /* \"#utility.yul\":25086:25092   */\n      dup3\n        /* \"#utility.yul\":25079:25121   */\n      sstore\n        /* \"#utility.yul\":25160:25161   */\n      0x01\n        /* \"#utility.yul\":25152:25158   */\n      dup3\n        /* \"#utility.yul\":25148:25162   */\n      add\n        /* \"#utility.yul\":25138:25162   */\n      swap2\n      pop\n        /* \"#utility.yul\":25207:25209   */\n      0x20\n        /* \"#utility.yul\":25196:25205   */\n      dup6\n        /* \"#utility.yul\":25192:25210   */\n      add\n        /* \"#utility.yul\":25179:25210   */\n      swap5\n      pop\n        /* \"#utility.yul\":25053:25057   */\n      0x20\n        /* \"#utility.yul\":25050:25051   */\n      dup2\n        /* \"#utility.yul\":25046:25058   */\n      add\n        /* \"#utility.yul\":25041:25058   */\n      swap1\n      pop\n        /* \"#utility.yul\":25016:25224   */\n      jump(tag_464)\n    tag_466:\n        /* \"#utility.yul\":25252:25258   */\n      dup7\n        /* \"#utility.yul\":25243:25250   */\n      dup4\n        /* \"#utility.yul\":25240:25259   */\n      lt\n        /* \"#utility.yul\":25237:25416   */\n      iszero\n      tag_467\n      jumpi\n        /* \"#utility.yul\":25310:25319   */\n      dup5\n        /* \"#utility.yul\":25305:25308   */\n      dup10\n        /* \"#utility.yul\":25301:25320   */\n      add\n        /* \"#utility.yul\":25295:25321   */\n      mload\n        /* \"#utility.yul\":25353:25401   */\n      tag_468\n        /* \"#utility.yul\":25395:25399   */\n      0x1f\n        /* \"#utility.yul\":25387:25393   */\n      dup10\n        /* \"#utility.yul\":25383:25400   */\n      and\n        /* \"#utility.yul\":25372:25381   */\n      dup3\n        /* \"#utility.yul\":25353:25401   */\n      tag_229\n      jump\t// in\n    tag_468:\n        /* \"#utility.yul\":25345:25351   */\n      dup4\n        /* \"#utility.yul\":25338:25402   */\n      sstore\n        /* \"#utility.yul\":25260:25416   */\n      pop\n        /* \"#utility.yul\":25237:25416   */\n    tag_467:\n        /* \"#utility.yul\":25462:25463   */\n      0x01\n        /* \"#utility.yul\":25458:25459   */\n      0x02\n        /* \"#utility.yul\":25450:25456   */\n      dup9\n        /* \"#utility.yul\":25446:25460   */\n      mul\n        /* \"#utility.yul\":25442:25464   */\n      add\n        /* \"#utility.yul\":25436:25440   */\n      dup9\n        /* \"#utility.yul\":25429:25465   */\n      sstore\n        /* \"#utility.yul\":24864:25475   */\n      pop\n      pop\n      pop\n        /* \"#utility.yul\":24827:25714   */\n    tag_459:\n      pop\n        /* \"#utility.yul\":24417:25720   */\n      pop\n      pop\n      pop\n        /* \"#utility.yul\":24325:25720   */\n      pop\n      pop\n      jump\t// out\n        /* \"#utility.yul\":25726:25844   */\n    tag_231:\n        /* \"#utility.yul\":25763:25770   */\n      0x00\n        /* \"#utility.yul\":25803:25837   */\n      0xffffffffffffffffffffffffffffffff\n        /* \"#utility.yul\":25796:25801   */\n      dup3\n        /* \"#utility.yul\":25792:25838   */\n      and\n        /* \"#utility.yul\":25781:25838   */\n      swap1\n      pop\n        /* \"#utility.yul\":25726:25844   */\n      swap2\n      swap1\n      pop\n      jump\t// out\n        /* \"#utility.yul\":25850:26051   */\n    tag_156:\n        /* \"#utility.yul\":25889:25892   */\n      0x00\n        /* \"#utility.yul\":25912:25936   */\n      tag_471\n        /* \"#utility.yul\":25930:25935   */\n      dup3\n        /* \"#utility.yul\":25912:25936   */\n      tag_231\n      jump\t// in\n    tag_471:\n        /* \"#utility.yul\":25903:25936   */\n      swap2\n      pop\n        /* \"#utility.yul\":25958:25992   */\n      0xffffffffffffffffffffffffffffffff\n        /* \"#utility.yul\":25951:25956   */\n      dup3\n        /* \"#utility.yul\":25948:25993   */\n      sub\n        /* \"#utility.yul\":25945:26016   */\n      tag_472\n      jumpi\n        /* \"#utility.yul\":25996:26014   */\n      tag_473\n      tag_191\n      jump\t// in\n    tag_473:\n        /* \"#utility.yul\":25945:26016   */\n    tag_472:\n        /* \"#utility.yul\":26043:26044   */\n      0x01\n        /* \"#utility.yul\":26036:26041   */\n      dup3\n        /* \"#utility.yul\":26032:26045   */\n      add\n        /* \"#utility.yul\":26025:26045   */\n      swap1\n      pop\n        /* \"#utility.yul\":25850:26051   */\n      swap2\n      swap1\n      pop\n      jump\t// out\n\n    auxdata: 0xa2646970667358221220b0166dbc582e47632595bb29e3c5332475e9d3c977e0441c6e4424fb6070f16464736f6c63430008180033\n}\n",
				"bytecode": {
					"linkReferences": {},
					"object": "608060405234801561000f575f80fd5b506126488061001d5f395ff3fe608060405260043610610090575f3560e01c8063ab225edc11610058578063ab225edc14610146578063abf831a314610150578063cdcb338914610166578063d265a3f314610170578063d96940e8146101ac57610090565b806303037e5f146100945780631a67b98b1461009e57806324e164f7146100e0578063593712c9146101205780638e14980b1461013c575b5f80fd5b61009c6101c2565b005b3480156100a9575f80fd5b506100c460048036038101906100bf91906118fd565b61043d565b6040516100d79796959493929190611a0e565b60405180910390f35b3480156100eb575f80fd5b5061010660048036038101906101019190611ae3565b610740565b604051610117959493929190611b46565b60405180910390f35b61013a600480360381019061013591906118fd565b6109b6565b005b610144610c99565b005b61014e610e80565b005b34801561015b575f80fd5b506101646110fb565b005b61016e611205565b005b34801561017b575f80fd5b5061019660048036038101906101919190611ae3565b6113ec565b6040516101a39190611b9e565b60405180910390f35b3480156101b7575f80fd5b506101c0611792565b005b60015f60025f3373ffffffffffffffffffffffffffffffffffffffff1673ffffffffffffffffffffffffffffffffffffffff1681526020019081526020015f205481526020019081526020015f2060060160019054906101000a900460ff16610260576040517f08c379a000000000000000000000000000000000000000000000000000000000815260040161025790611c01565b60405180910390fd5b5f34116102a2576040517f08c379a000000000000000000000000000000000000000000000000000000000815260040161029990611c8f565b60405180910390fd5b60015f60025f3373ffffffffffffffffffffffffffffffffffffffff1673ffffffffffffffffffffffffffffffffffffffff1681526020019081526020015f205481526020019081526020015f2060050154341315610336576040517f08c379a000000000000000000000000000000000000000000000000000000000815260040161032d90611d43565b60405180910390fd5b3460015f60025f3373ffffffffffffffffffffffffffffffffffffffff1673ffffffffffffffffffffffffffffffffffffffff1681526020019081526020015f205481526020019081526020015f206005015f8282546103969190611d8e565b925050819055503460015f60025f3373ffffffffffffffffffffffffffffffffffffffff1673ffffffffffffffffffffffffffffffffffffffff1681526020019081526020015f205481526020019081526020015f206004015f8282546103fd9190611dce565b925050819055505f601081819054906101000a900460ff168092919061042290611e0f565b91906101000a81548160ff021916908360ff16021790555050565b60605f805f805f8060015f60025f3373ffffffffffffffffffffffffffffffffffffffff1673ffffffffffffffffffffffffffffffffffffffff1681526020019081526020015f205481526020019081526020015f2060060160019054906101000a900460ff166104e3576040517f08c379a00000000000000000000000000000000000000000000000000000000081526004016104da90611c01565b60405180910390fd5b5f5b5f60109054906101000a900460ff1660ff168110156106f9578860405160200161050f9190611e7c565b6040516020818303038152906040528051906020012060015f8381526020019081526020015f206001015f9054906101000a900473ffffffffffffffffffffffffffffffffffffffff166040516020016105699190611e7c565b60405160208183030381529060405280519060200120036106ec5760015f8281526020019081526020015f2060020160015f8381526020019081526020015f206001015f9054906101000a900473ffffffffffffffffffffffffffffffffffffffff1660015f8481526020019081526020015f206003015460015f8581526020019081526020015f206004015460015f8681526020019081526020015f206005015460015f8781526020019081526020015f206006015f9054906101000a900460ff1660015f8881526020019081526020015f2060060160019054906101000a900460ff1686805461065a90611ec3565b80601f016020809104026020016040519081016040528092919081815260200182805461068690611ec3565b80156106d15780601f106106a8576101008083540402835291602001916106d1565b820191905f5260205f20905b8154815290600101906020018083116106b457829003601f168201915b50505050509650975097509750975097509750975050610735565b80806001019150506104e5565b506040517f08c379a000000000000000000000000000000000000000000000000000000000815260040161072c90611f3d565b60405180910390fd5b919395979092949650565b5f8060605f805f878790501161078b576040517f08c379a000000000000000000000000000000000000000000000000000000000815260040161078290611fa5565b60405180910390fd5b5f5b5f8054906101000a90046fffffffffffffffffffffffffffffffff166fffffffffffffffffffffffffffffffff168110156109705787876040516020016107d5929190611fff565b6040516020818303038152906040528051906020012060015f8381526020019081526020015f2060020160405160200161080f91906120a9565b60405160208183030381529060405280519060200120036109635760015f8281526020019081526020015f205f015460015f8381526020019081526020015f206001015f9054906101000a900473ffffffffffffffffffffffffffffffffffffffff1660015f8481526020019081526020015f2060020160015f8581526020019081526020015f206006015f9054906101000a900460ff1660015f8681526020019081526020015f2060060160019054906101000a900460ff168280546108d590611ec3565b80601f016020809104026020016040519081016040528092919081815260200182805461090190611ec3565b801561094c5780601f106109235761010080835404028352916020019161094c565b820191905f5260205f20905b81548152906001019060200180831161092f57829003601f168201915b5050505050925095509550955095509550506109ac565b808060010191505061078d565b506040517f08c379a00000000000000000000000000000000000000000000000000000000081526004016109a390612109565b60405180910390fd5b9295509295909350565b60015f60025f3373ffffffffffffffffffffffffffffffffffffffff1673ffffffffffffffffffffffffffffffffffffffff1681526020019081526020015f205481526020019081526020015f2060060160019054906101000a900460ff16610a54576040517f08c379a0000000000000000000000000000000000000000000000000000000008152600401610a4b90611c01565b60405180910390fd5b5f3411610a96576040517f08c379a0000000000000000000000000000000000000000000000000000000008152600401610a8d90611c8f565b60405180910390fd5b60015f60025f3373ffffffffffffffffffffffffffffffffffffffff1673ffffffffffffffffffffffffffffffffffffffff1681526020019081526020015f205481526020019081526020015f2060040154341315610b2a576040517f08c379a0000000000000000000000000000000000000000000000000000000008152600401610b21906121bd565b60405180910390fd5b3460015f60025f3373ffffffffffffffffffffffffffffffffffffffff1673ffffffffffffffffffffffffffffffffffffffff1681526020019081526020015f205481526020019081526020015f206004015f828254610b8a9190611d8e565b925050819055503460015f60025f8573ffffffffffffffffffffffffffffffffffffffff1673ffffffffffffffffffffffffffffffffffffffff1681526020019081526020015f205481526020019081526020015f206004015f828254610bf19190611dce565b925050819055503460015f60025f3373ffffffffffffffffffffffffffffffffffffffff1673ffffffffffffffffffffffffffffffffffffffff1681526020019081526020015f205481526020019081526020015f206003015f828254610c589190611d8e565b925050819055505f601081819054906101000a900460ff1680929190610c7d90611e0f565b91906101000a81548160ff021916908360ff1602179055505050565b60015f60025f3373ffffffffffffffffffffffffffffffffffffffff1673ffffffffffffffffffffffffffffffffffffffff1681526020019081526020015f205481526020019081526020015f2060060160019054906101000a900460ff16610d37576040517f08c379a0000000000000000000000000000000000000000000000000000000008152600401610d2e90611c01565b60405180910390fd5b5f3411610d79576040517f08c379a0000000000000000000000000000000000000000000000000000000008152600401610d709061224b565b60405180910390fd5b3460015f60025f3373ffffffffffffffffffffffffffffffffffffffff1673ffffffffffffffffffffffffffffffffffffffff1681526020019081526020015f205481526020019081526020015f206004015f828254610dd99190611d8e565b925050819055503460015f60025f3373ffffffffffffffffffffffffffffffffffffffff1673ffffffffffffffffffffffffffffffffffffffff1681526020019081526020015f205481526020019081526020015f206003015f828254610e409190611d8e565b925050819055505f601081819054906101000a900460ff1680929190610e6590611e0f565b91906101000a81548160ff021916908360ff16021790555050565b60015f60025f3373ffffffffffffffffffffffffffffffffffffffff1673ffffffffffffffffffffffffffffffffffffffff1681526020019081526020015f205481526020019081526020015f2060060160019054906101000a900460ff16610f1e576040517f08c379a0000000000000000000000000000000000000000000000000000000008152600401610f1590611c01565b60405180910390fd5b5f3411610f60576040517f08c379a0000000000000000000000000000000000000000000000000000000008152600401610f5790611c8f565b60405180910390fd5b60015f60025f3373ffffffffffffffffffffffffffffffffffffffff1673ffffffffffffffffffffffffffffffffffffffff1681526020019081526020015f205481526020019081526020015f2060040154341315610ff4576040517f08c379a0000000000000000000000000000000000000000000000000000000008152600401610feb90611d43565b60405180910390fd5b3460015f60025f3373ffffffffffffffffffffffffffffffffffffffff1673ffffffffffffffffffffffffffffffffffffffff1681526020019081526020015f205481526020019081526020015f206004015f8282546110549190611d8e565b925050819055503460015f60025f3373ffffffffffffffffffffffffffffffffffffffff1673ffffffffffffffffffffffffffffffffffffffff1681526020019081526020015f205481526020019081526020015f206005015f8282546110bb9190611dce565b925050819055505f601081819054906101000a900460ff16809291906110e090611e0f565b91906101000a81548160ff021916908360ff16021790555050565b60015f60025f3373ffffffffffffffffffffffffffffffffffffffff1673ffffffffffffffffffffffffffffffffffffffff1681526020019081526020015f205481526020019081526020015f2060060160019054906101000a900460ff161561119a576040517f08c379a0000000000000000000000000000000000000000000000000000000008152600401611191906122b3565b60405180910390fd5b6001805f60025f3373ffffffffffffffffffffffffffffffffffffffff1673ffffffffffffffffffffffffffffffffffffffff1681526020019081526020015f205481526020019081526020015f2060060160016101000a81548160ff021916908315150217905550565b60015f60025f3373ffffffffffffffffffffffffffffffffffffffff1673ffffffffffffffffffffffffffffffffffffffff1681526020019081526020015f205481526020019081526020015f2060060160019054906101000a900460ff166112a3576040517f08c379a000000000000000000000000000000000000000000000000000000000815260040161129a90611c01565b60405180910390fd5b5f34116112e5576040517f08c379a00000000000000000000000000000000000000000000000000000000081526004016112dc90611c8f565b60405180910390fd5b3460015f60025f3373ffffffffffffffffffffffffffffffffffffffff1673ffffffffffffffffffffffffffffffffffffffff1681526020019081526020015f205481526020019081526020015f206004015f8282546113459190611dce565b925050819055503460015f60025f3373ffffffffffffffffffffffffffffffffffffffff1673ffffffffffffffffffffffffffffffffffffffff1681526020019081526020015f205481526020019081526020015f206003015f8282546113ac9190611dce565b925050819055505f601081819054906101000a900460ff16809291906113d190611e0f565b91906101000a81548160ff021916908360ff16021790555050565b5f808383905011611432576040517f08c379a000000000000000000000000000000000000000000000000000000000815260040161142990611fa5565b60405180910390fd5b5f73ffffffffffffffffffffffffffffffffffffffff166003848460405161145b929190611fff565b90815260200160405180910390205f9054906101000a900473ffffffffffffffffffffffffffffffffffffffff1673ffffffffffffffffffffffffffffffffffffffff16146114df576040517f08c379a00000000000000000000000000000000000000000000000000000000081526004016114d69061231b565b60405180910390fd5b6040518061010001604052805f8054906101000a90046fffffffffffffffffffffffffffffffff166fffffffffffffffffffffffffffffffff1681526020013373ffffffffffffffffffffffffffffffffffffffff16815260200184848080601f0160208091040260200160405190810160405280939291908181526020018383808284375f81840152601f19601f8201169050808301925050505050505081526020015f81526020015f81526020015f81526020015f60109054906101000a900460ff1660ff1681526020016001151581525060015f805f9054906101000a90046fffffffffffffffffffffffffffffffff166fffffffffffffffffffffffffffffffff1681526020019081526020015f205f820151815f01556020820151816001015f6101000a81548173ffffffffffffffffffffffffffffffffffffffff021916908373ffffffffffffffffffffffffffffffffffffffff160217905550604082015181600201908161165591906124f1565b50606082015181600301556080820151816004015560a0820151816005015560c0820151816006015f6101000a81548160ff021916908360ff16021790555060e08201518160060160016101000a81548160ff0219169083151502179055509050505f8054906101000a90046fffffffffffffffffffffffffffffffff166fffffffffffffffffffffffffffffffff1660025f3373ffffffffffffffffffffffffffffffffffffffff1673ffffffffffffffffffffffffffffffffffffffff1681526020019081526020015f20819055505f8081819054906101000a90046fffffffffffffffffffffffffffffffff1680929190611752906125db565b91906101000a8154816fffffffffffffffffffffffffffffffff02191690836fffffffffffffffffffffffffffffffff1602179055505033905092915050565b60015f60025f3373ffffffffffffffffffffffffffffffffffffffff1673ffffffffffffffffffffffffffffffffffffffff1681526020019081526020015f205481526020019081526020015f2060060160019054906101000a900460ff16611830576040517f08c379a000000000000000000000000000000000000000000000000000000000815260040161182790611c01565b60405180910390fd5b5f60015f60025f3373ffffffffffffffffffffffffffffffffffffffff1673ffffffffffffffffffffffffffffffffffffffff1681526020019081526020015f205481526020019081526020015f2060060160016101000a81548160ff021916908315150217905550565b5f80fd5b5f80fd5b5f73ffffffffffffffffffffffffffffffffffffffff82169050919050565b5f6118cc826118a3565b9050919050565b6118dc816118c2565b81146118e6575f80fd5b50565b5f813590506118f7816118d3565b92915050565b5f602082840312156119125761191161189b565b5b5f61191f848285016118e9565b91505092915050565b5f81519050919050565b5f82825260208201905092915050565b5f5b8381101561195f578082015181840152602081019050611944565b5f8484015250505050565b5f601f19601f8301169050919050565b5f61198482611928565b61198e8185611932565b935061199e818560208601611942565b6119a78161196a565b840191505092915050565b6119bb816118c2565b82525050565b5f819050919050565b6119d3816119c1565b82525050565b5f60ff82169050919050565b6119ee816119d9565b82525050565b5f8115159050919050565b611a08816119f4565b82525050565b5f60e0820190508181035f830152611a26818a61197a565b9050611a3560208301896119b2565b611a4260408301886119ca565b611a4f60608301876119ca565b611a5c60808301866119ca565b611a6960a08301856119e5565b611a7660c08301846119ff565b98975050505050505050565b5f80fd5b5f80fd5b5f80fd5b5f8083601f840112611aa357611aa2611a82565b5b8235905067ffffffffffffffff811115611ac057611abf611a86565b5b602083019150836001820283011115611adc57611adb611a8a565b5b9250929050565b5f8060208385031215611af957611af861189b565b5b5f83013567ffffffffffffffff811115611b1657611b1561189f565b5b611b2285828601611a8e565b92509250509250929050565b5f819050919050565b611b4081611b2e565b82525050565b5f60a082019050611b595f830188611b37565b611b6660208301876119b2565b8181036040830152611b78818661197a565b9050611b8760608301856119e5565b611b9460808301846119ff565b9695505050505050565b5f602082019050611bb15f8301846119b2565b92915050565b7f546865206163636f756e74206d757374206265206163746976617465640000005f82015250565b5f611beb601d83611932565b9150611bf682611bb7565b602082019050919050565b5f6020820190508181035f830152611c1881611bdf565b9050919050565b7f5468652076616c756520746f20696e6372656173652062616c616e6365206d755f8201527f73742062652067726561746572207468616e207a65726f000000000000000000602082015250565b5f611c79603783611932565b9150611c8482611c1f565b604082019050919050565b5f6020820190508181035f830152611ca681611c6d565b9050919050565b7f5468652076616c756520746f2064656372656173652062616c616e6365206d755f8201527f7374206265206c657373207468616e207468652063757272656e742062616c6160208201527f6e63650000000000000000000000000000000000000000000000000000000000604082015250565b5f611d2d604383611932565b9150611d3882611cad565b606082019050919050565b5f6020820190508181035f830152611d5a81611d21565b9050919050565b7f4e487b71000000000000000000000000000000000000000000000000000000005f52601160045260245ffd5b5f611d98826119c1565b9150611da3836119c1565b925082820390508181125f8412168282135f851215161715611dc857611dc7611d61565b5b92915050565b5f611dd8826119c1565b9150611de3836119c1565b92508282019050828112155f8312168382125f841215161715611e0957611e08611d61565b5b92915050565b5f611e19826119d9565b915060ff8203611e2c57611e2b611d61565b5b600182019050919050565b5f8160601b9050919050565b5f611e4d82611e37565b9050919050565b5f611e5e82611e43565b9050919050565b611e76611e71826118c2565b611e54565b82525050565b5f611e878284611e65565b60148201915081905092915050565b7f4e487b71000000000000000000000000000000000000000000000000000000005f52602260045260245ffd5b5f6002820490506001821680611eda57607f821691505b602082108103611eed57611eec611e96565b5b50919050565b7f57616c6c6574206e6f7420666f756e64000000000000000000000000000000005f82015250565b5f611f27601083611932565b9150611f3282611ef3565b602082019050919050565b5f6020820190508181035f830152611f5481611f1b565b9050919050565b7f54686520757365726e616d652063616e6e6f7420626520656d707479000000005f82015250565b5f611f8f601c83611932565b9150611f9a82611f5b565b602082019050919050565b5f6020820190508181035f830152611fbc81611f83565b9050919050565b5f81905092915050565b828183375f83830152505050565b5f611fe68385611fc3565b9350611ff3838584611fcd565b82840190509392505050565b5f61200b828486611fdb565b91508190509392505050565b5f819050815f5260205f209050919050565b5f815461203581611ec3565b61203f8186611fc3565b9450600182165f8114612059576001811461206e576120a0565b60ff19831686528115158202860193506120a0565b61207785612017565b5f5b8381101561209857815481890152600182019150602081019050612079565b838801955050505b50505092915050565b5f6120b48284612029565b915081905092915050565b7f55736572206e6f7420666f756e640000000000000000000000000000000000005f82015250565b5f6120f3600e83611932565b91506120fe826120bf565b602082019050919050565b5f6020820190508181035f830152612120816120e7565b9050919050565b7f5468652076616c756520746f207472616e73666572206d757374206265206c655f8201527f7373207468616e206f7220657175616c20746f207468652063757272656e742060208201527f62616c616e636500000000000000000000000000000000000000000000000000604082015250565b5f6121a7604783611932565b91506121b282612127565b606082019050919050565b5f6020820190508181035f8301526121d48161219b565b9050919050565b7f5468652076616c756520746f2064656372656173652062616c616e6365206d755f8201527f73742062652067726561746572207468616e207a65726f000000000000000000602082015250565b5f612235603783611932565b9150612240826121db565b604082019050919050565b5f6020820190508181035f83015261226281612229565b9050919050565b7f546865206163636f756e7420697320616c7265616479206163746976650000005f82015250565b5f61229d601d83611932565b91506122a882612269565b602082019050919050565b5f6020820190508181035f8301526122ca81612291565b9050919050565b7f54686973207573657220616c7265616479206578697374732e000000000000005f82015250565b5f612305601983611932565b9150612310826122d1565b602082019050919050565b5f6020820190508181035f830152612332816122f9565b9050919050565b7f4e487b71000000000000000000000000000000000000000000000000000000005f52604160045260245ffd5b5f6020601f8301049050919050565b5f82821b905092915050565b5f600883026123b07fffffffffffffffffffffffffffffffffffffffffffffffffffffffffffffffff82612375565b6123ba8683612375565b95508019841693508086168417925050509392505050565b5f819050919050565b5f6123f56123f06123eb84611b2e565b6123d2565b611b2e565b9050919050565b5f819050919050565b61240e836123db565b61242261241a826123fc565b848454612381565b825550505050565b5f90565b61243661242a565b612441818484612405565b505050565b5b81811015612464576124595f8261242e565b600181019050612447565b5050565b601f8211156124a95761247a81612017565b61248384612366565b81016020851015612492578190505b6124a661249e85612366565b830182612446565b50505b505050565b5f82821c905092915050565b5f6124c95f19846008026124ae565b1980831691505092915050565b5f6124e183836124ba565b9150826002028217905092915050565b6124fa82611928565b67ffffffffffffffff81111561251357612512612339565b5b61251d8254611ec3565b612528828285612468565b5f60209050601f831160018114612559575f8415612547578287015190505b61255185826124d6565b8655506125b8565b601f19841661256786612017565b5f5b8281101561258e57848901518255600182019150602085019450602081019050612569565b868310156125ab57848901516125a7601f8916826124ba565b8355505b6001600288020188555050505b505050505050565b5f6fffffffffffffffffffffffffffffffff82169050919050565b5f6125e5826125c0565b91506fffffffffffffffffffffffffffffffff820361260757612606611d61565b5b60018201905091905056fea2646970667358221220b0166dbc582e47632595bb29e3c5332475e9d3c977e0441c6e4424fb6070f16464736f6c63430008180033",
					"opcodes": "PUSH1 0x80 PUSH1 0x40 MSTORE CALLVALUE DUP1 ISZERO PUSH2 0xF JUMPI PUSH0 DUP1 REVERT JUMPDEST POP PUSH2 0x2648 DUP1 PUSH2 0x1D PUSH0 CODECOPY PUSH0 RETURN INVALID PUSH1 0x80 PUSH1 0x40 MSTORE PUSH1 0x4 CALLDATASIZE LT PUSH2 0x90 JUMPI PUSH0 CALLDATALOAD PUSH1 0xE0 SHR DUP1 PUSH4 0xAB225EDC GT PUSH2 0x58 JUMPI DUP1 PUSH4 0xAB225EDC EQ PUSH2 0x146 JUMPI DUP1 PUSH4 0xABF831A3 EQ PUSH2 0x150 JUMPI DUP1 PUSH4 0xCDCB3389 EQ PUSH2 0x166 JUMPI DUP1 PUSH4 0xD265A3F3 EQ PUSH2 0x170 JUMPI DUP1 PUSH4 0xD96940E8 EQ PUSH2 0x1AC JUMPI PUSH2 0x90 JUMP JUMPDEST DUP1 PUSH4 0x3037E5F EQ PUSH2 0x94 JUMPI DUP1 PUSH4 0x1A67B98B EQ PUSH2 0x9E JUMPI DUP1 PUSH4 0x24E164F7 EQ PUSH2 0xE0 JUMPI DUP1 PUSH4 0x593712C9 EQ PUSH2 0x120 JUMPI DUP1 PUSH4 0x8E14980B EQ PUSH2 0x13C JUMPI JUMPDEST PUSH0 DUP1 REVERT JUMPDEST PUSH2 0x9C PUSH2 0x1C2 JUMP JUMPDEST STOP JUMPDEST CALLVALUE DUP1 ISZERO PUSH2 0xA9 JUMPI PUSH0 DUP1 REVERT JUMPDEST POP PUSH2 0xC4 PUSH1 0x4 DUP1 CALLDATASIZE SUB DUP2 ADD SWAP1 PUSH2 0xBF SWAP2 SWAP1 PUSH2 0x18FD JUMP JUMPDEST PUSH2 0x43D JUMP JUMPDEST PUSH1 0x40 MLOAD PUSH2 0xD7 SWAP8 SWAP7 SWAP6 SWAP5 SWAP4 SWAP3 SWAP2 SWAP1 PUSH2 0x1A0E JUMP JUMPDEST PUSH1 0x40 MLOAD DUP1 SWAP2 SUB SWAP1 RETURN JUMPDEST CALLVALUE DUP1 ISZERO PUSH2 0xEB JUMPI PUSH0 DUP1 REVERT JUMPDEST POP PUSH2 0x106 PUSH1 0x4 DUP1 CALLDATASIZE SUB DUP2 ADD SWAP1 PUSH2 0x101 SWAP2 SWAP1 PUSH2 0x1AE3 JUMP JUMPDEST PUSH2 0x740 JUMP JUMPDEST PUSH1 0x40 MLOAD PUSH2 0x117 SWAP6 SWAP5 SWAP4 SWAP3 SWAP2 SWAP1 PUSH2 0x1B46 JUMP JUMPDEST PUSH1 0x40 MLOAD DUP1 SWAP2 SUB SWAP1 RETURN JUMPDEST PUSH2 0x13A PUSH1 0x4 DUP1 CALLDATASIZE SUB DUP2 ADD SWAP1 PUSH2 0x135 SWAP2 SWAP1 PUSH2 0x18FD JUMP JUMPDEST PUSH2 0x9B6 JUMP JUMPDEST STOP JUMPDEST PUSH2 0x144 PUSH2 0xC99 JUMP JUMPDEST STOP JUMPDEST PUSH2 0x14E PUSH2 0xE80 JUMP JUMPDEST STOP JUMPDEST CALLVALUE DUP1 ISZERO PUSH2 0x15B JUMPI PUSH0 DUP1 REVERT JUMPDEST POP PUSH2 0x164 PUSH2 0x10FB JUMP JUMPDEST STOP JUMPDEST PUSH2 0x16E PUSH2 0x1205 JUMP JUMPDEST STOP JUMPDEST CALLVALUE DUP1 ISZERO PUSH2 0x17B JUMPI PUSH0 DUP1 REVERT JUMPDEST POP PUSH2 0x196 PUSH1 0x4 DUP1 CALLDATASIZE SUB DUP2 ADD SWAP1 PUSH2 0x191 SWAP2 SWAP1 PUSH2 0x1AE3 JUMP JUMPDEST PUSH2 0x13EC JUMP JUMPDEST PUSH1 0x40 MLOAD PUSH2 0x1A3 SWAP2 SWAP1 PUSH2 0x1B9E JUMP JUMPDEST PUSH1 0x40 MLOAD DUP1 SWAP2 SUB SWAP1 RETURN JUMPDEST CALLVALUE DUP1 ISZERO PUSH2 0x1B7 JUMPI PUSH0 DUP1 REVERT JUMPDEST POP PUSH2 0x1C0 PUSH2 0x1792 JUMP JUMPDEST STOP JUMPDEST PUSH1 0x1 PUSH0 PUSH1 0x2 PUSH0 CALLER PUSH20 0xFFFFFFFFFFFFFFFFFFFFFFFFFFFFFFFFFFFFFFFF AND PUSH20 0xFFFFFFFFFFFFFFFFFFFFFFFFFFFFFFFFFFFFFFFF AND DUP2 MSTORE PUSH1 0x20 ADD SWAP1 DUP2 MSTORE PUSH1 0x20 ADD PUSH0 KECCAK256 SLOAD DUP2 MSTORE PUSH1 0x20 ADD SWAP1 DUP2 MSTORE PUSH1 0x20 ADD PUSH0 KECCAK256 PUSH1 0x6 ADD PUSH1 0x1 SWAP1 SLOAD SWAP1 PUSH2 0x100 EXP SWAP1 DIV PUSH1 0xFF AND PUSH2 0x260 JUMPI PUSH1 0x40 MLOAD PUSH32 0x8C379A000000000000000000000000000000000000000000000000000000000 DUP2 MSTORE PUSH1 0x4 ADD PUSH2 0x257 SWAP1 PUSH2 0x1C01 JUMP JUMPDEST PUSH1 0x40 MLOAD DUP1 SWAP2 SUB SWAP1 REVERT JUMPDEST PUSH0 CALLVALUE GT PUSH2 0x2A2 JUMPI PUSH1 0x40 MLOAD PUSH32 0x8C379A000000000000000000000000000000000000000000000000000000000 DUP2 MSTORE PUSH1 0x4 ADD PUSH2 0x299 SWAP1 PUSH2 0x1C8F JUMP JUMPDEST PUSH1 0x40 MLOAD DUP1 SWAP2 SUB SWAP1 REVERT JUMPDEST PUSH1 0x1 PUSH0 PUSH1 0x2 PUSH0 CALLER PUSH20 0xFFFFFFFFFFFFFFFFFFFFFFFFFFFFFFFFFFFFFFFF AND PUSH20 0xFFFFFFFFFFFFFFFFFFFFFFFFFFFFFFFFFFFFFFFF AND DUP2 MSTORE PUSH1 0x20 ADD SWAP1 DUP2 MSTORE PUSH1 0x20 ADD PUSH0 KECCAK256 SLOAD DUP2 MSTORE PUSH1 0x20 ADD SWAP1 DUP2 MSTORE PUSH1 0x20 ADD PUSH0 KECCAK256 PUSH1 0x5 ADD SLOAD CALLVALUE SGT ISZERO PUSH2 0x336 JUMPI PUSH1 0x40 MLOAD PUSH32 0x8C379A000000000000000000000000000000000000000000000000000000000 DUP2 MSTORE PUSH1 0x4 ADD PUSH2 0x32D SWAP1 PUSH2 0x1D43 JUMP JUMPDEST PUSH1 0x40 MLOAD DUP1 SWAP2 SUB SWAP1 REVERT JUMPDEST CALLVALUE PUSH1 0x1 PUSH0 PUSH1 0x2 PUSH0 CALLER PUSH20 0xFFFFFFFFFFFFFFFFFFFFFFFFFFFFFFFFFFFFFFFF AND PUSH20 0xFFFFFFFFFFFFFFFFFFFFFFFFFFFFFFFFFFFFFFFF AND DUP2 MSTORE PUSH1 0x20 ADD SWAP1 DUP2 MSTORE PUSH1 0x20 ADD PUSH0 KECCAK256 SLOAD DUP2 MSTORE PUSH1 0x20 ADD SWAP1 DUP2 MSTORE PUSH1 0x20 ADD PUSH0 KECCAK256 PUSH1 0x5 ADD PUSH0 DUP3 DUP3 SLOAD PUSH2 0x396 SWAP2 SWAP1 PUSH2 0x1D8E JUMP JUMPDEST SWAP3 POP POP DUP2 SWAP1 SSTORE POP CALLVALUE PUSH1 0x1 PUSH0 PUSH1 0x2 PUSH0 CALLER PUSH20 0xFFFFFFFFFFFFFFFFFFFFFFFFFFFFFFFFFFFFFFFF AND PUSH20 0xFFFFFFFFFFFFFFFFFFFFFFFFFFFFFFFFFFFFFFFF AND DUP2 MSTORE PUSH1 0x20 ADD SWAP1 DUP2 MSTORE PUSH1 0x20 ADD PUSH0 KECCAK256 SLOAD DUP2 MSTORE PUSH1 0x20 ADD SWAP1 DUP2 MSTORE PUSH1 0x20 ADD PUSH0 KECCAK256 PUSH1 0x4 ADD PUSH0 DUP3 DUP3 SLOAD PUSH2 0x3FD SWAP2 SWAP1 PUSH2 0x1DCE JUMP JUMPDEST SWAP3 POP POP DUP2 SWAP1 SSTORE POP PUSH0 PUSH1 0x10 DUP2 DUP2 SWAP1 SLOAD SWAP1 PUSH2 0x100 EXP SWAP1 DIV PUSH1 0xFF AND DUP1 SWAP3 SWAP2 SWAP1 PUSH2 0x422 SWAP1 PUSH2 0x1E0F JUMP JUMPDEST SWAP2 SWAP1 PUSH2 0x100 EXP DUP2 SLOAD DUP2 PUSH1 0xFF MUL NOT AND SWAP1 DUP4 PUSH1 0xFF AND MUL OR SWAP1 SSTORE POP POP JUMP JUMPDEST PUSH1 0x60 PUSH0 DUP1 PUSH0 DUP1 PUSH0 DUP1 PUSH1 0x1 PUSH0 PUSH1 0x2 PUSH0 CALLER PUSH20 0xFFFFFFFFFFFFFFFFFFFFFFFFFFFFFFFFFFFFFFFF AND PUSH20 0xFFFFFFFFFFFFFFFFFFFFFFFFFFFFFFFFFFFFFFFF AND DUP2 MSTORE PUSH1 0x20 ADD SWAP1 DUP2 MSTORE PUSH1 0x20 ADD PUSH0 KECCAK256 SLOAD DUP2 MSTORE PUSH1 0x20 ADD SWAP1 DUP2 MSTORE PUSH1 0x20 ADD PUSH0 KECCAK256 PUSH1 0x6 ADD PUSH1 0x1 SWAP1 SLOAD SWAP1 PUSH2 0x100 EXP SWAP1 DIV PUSH1 0xFF AND PUSH2 0x4E3 JUMPI PUSH1 0x40 MLOAD PUSH32 0x8C379A000000000000000000000000000000000000000000000000000000000 DUP2 MSTORE PUSH1 0x4 ADD PUSH2 0x4DA SWAP1 PUSH2 0x1C01 JUMP JUMPDEST PUSH1 0x40 MLOAD DUP1 SWAP2 SUB SWAP1 REVERT JUMPDEST PUSH0 JUMPDEST PUSH0 PUSH1 0x10 SWAP1 SLOAD SWAP1 PUSH2 0x100 EXP SWAP1 DIV PUSH1 0xFF AND PUSH1 0xFF AND DUP2 LT ISZERO PUSH2 0x6F9 JUMPI DUP9 PUSH1 0x40 MLOAD PUSH1 0x20 ADD PUSH2 0x50F SWAP2 SWAP1 PUSH2 0x1E7C JUMP JUMPDEST PUSH1 0x40 MLOAD PUSH1 0x20 DUP2 DUP4 SUB SUB DUP2 MSTORE SWAP1 PUSH1 0x40 MSTORE DUP1 MLOAD SWAP1 PUSH1 0x20 ADD KECCAK256 PUSH1 0x1 PUSH0 DUP4 DUP2 MSTORE PUSH1 0x20 ADD SWAP1 DUP2 MSTORE PUSH1 0x20 ADD PUSH0 KECCAK256 PUSH1 0x1 ADD PUSH0 SWAP1 SLOAD SWAP1 PUSH2 0x100 EXP SWAP1 DIV PUSH20 0xFFFFFFFFFFFFFFFFFFFFFFFFFFFFFFFFFFFFFFFF AND PUSH1 0x40 MLOAD PUSH1 0x20 ADD PUSH2 0x569 SWAP2 SWAP1 PUSH2 0x1E7C JUMP JUMPDEST PUSH1 0x40 MLOAD PUSH1 0x20 DUP2 DUP4 SUB SUB DUP2 MSTORE SWAP1 PUSH1 0x40 MSTORE DUP1 MLOAD SWAP1 PUSH1 0x20 ADD KECCAK256 SUB PUSH2 0x6EC JUMPI PUSH1 0x1 PUSH0 DUP3 DUP2 MSTORE PUSH1 0x20 ADD SWAP1 DUP2 MSTORE PUSH1 0x20 ADD PUSH0 KECCAK256 PUSH1 0x2 ADD PUSH1 0x1 PUSH0 DUP4 DUP2 MSTORE PUSH1 0x20 ADD SWAP1 DUP2 MSTORE PUSH1 0x20 ADD PUSH0 KECCAK256 PUSH1 0x1 ADD PUSH0 SWAP1 SLOAD SWAP1 PUSH2 0x100 EXP SWAP1 DIV PUSH20 0xFFFFFFFFFFFFFFFFFFFFFFFFFFFFFFFFFFFFFFFF AND PUSH1 0x1 PUSH0 DUP5 DUP2 MSTORE PUSH1 0x20 ADD SWAP1 DUP2 MSTORE PUSH1 0x20 ADD PUSH0 KECCAK256 PUSH1 0x3 ADD SLOAD PUSH1 0x1 PUSH0 DUP6 DUP2 MSTORE PUSH1 0x20 ADD SWAP1 DUP2 MSTORE PUSH1 0x20 ADD PUSH0 KECCAK256 PUSH1 0x4 ADD SLOAD PUSH1 0x1 PUSH0 DUP7 DUP2 MSTORE PUSH1 0x20 ADD SWAP1 DUP2 MSTORE PUSH1 0x20 ADD PUSH0 KECCAK256 PUSH1 0x5 ADD SLOAD PUSH1 0x1 PUSH0 DUP8 DUP2 MSTORE PUSH1 0x20 ADD SWAP1 DUP2 MSTORE PUSH1 0x20 ADD PUSH0 KECCAK256 PUSH1 0x6 ADD PUSH0 SWAP1 SLOAD SWAP1 PUSH2 0x100 EXP SWAP1 DIV PUSH1 0xFF AND PUSH1 0x1 PUSH0 DUP9 DUP2 MSTORE PUSH1 0x20 ADD SWAP1 DUP2 MSTORE PUSH1 0x20 ADD PUSH0 KECCAK256 PUSH1 0x6 ADD PUSH1 0x1 SWAP1 SLOAD SWAP1 PUSH2 0x100 EXP SWAP1 DIV PUSH1 0xFF AND DUP7 DUP1 SLOAD PUSH2 0x65A SWAP1 PUSH2 0x1EC3 JUMP JUMPDEST DUP1 PUSH1 0x1F ADD PUSH1 0x20 DUP1 SWAP2 DIV MUL PUSH1 0x20 ADD PUSH1 0x40 MLOAD SWAP1 DUP2 ADD PUSH1 0x40 MSTORE DUP1 SWAP3 SWAP2 SWAP1 DUP2 DUP2 MSTORE PUSH1 0x20 ADD DUP3 DUP1 SLOAD PUSH2 0x686 SWAP1 PUSH2 0x1EC3 JUMP JUMPDEST DUP1 ISZERO PUSH2 0x6D1 JUMPI DUP1 PUSH1 0x1F LT PUSH2 0x6A8 JUMPI PUSH2 0x100 DUP1 DUP4 SLOAD DIV MUL DUP4 MSTORE SWAP2 PUSH1 0x20 ADD SWAP2 PUSH2 0x6D1 JUMP JUMPDEST DUP3 ADD SWAP2 SWAP1 PUSH0 MSTORE PUSH1 0x20 PUSH0 KECCAK256 SWAP1 JUMPDEST DUP2 SLOAD DUP2 MSTORE SWAP1 PUSH1 0x1 ADD SWAP1 PUSH1 0x20 ADD DUP1 DUP4 GT PUSH2 0x6B4 JUMPI DUP3 SWAP1 SUB PUSH1 0x1F AND DUP3 ADD SWAP2 JUMPDEST POP POP POP POP POP SWAP7 POP SWAP8 POP SWAP8 POP SWAP8 POP SWAP8 POP SWAP8 POP SWAP8 POP SWAP8 POP POP PUSH2 0x735 JUMP JUMPDEST DUP1 DUP1 PUSH1 0x1 ADD SWAP2 POP POP PUSH2 0x4E5 JUMP JUMPDEST POP PUSH1 0x40 MLOAD PUSH32 0x8C379A000000000000000000000000000000000000000000000000000000000 DUP2 MSTORE PUSH1 0x4 ADD PUSH2 0x72C SWAP1 PUSH2 0x1F3D JUMP JUMPDEST PUSH1 0x40 MLOAD DUP1 SWAP2 SUB SWAP1 REVERT JUMPDEST SWAP2 SWAP4 SWAP6 SWAP8 SWAP1 SWAP3 SWAP5 SWAP7 POP JUMP JUMPDEST PUSH0 DUP1 PUSH1 0x60 PUSH0 DUP1 PUSH0 DUP8 DUP8 SWAP1 POP GT PUSH2 0x78B JUMPI PUSH1 0x40 MLOAD PUSH32 0x8C379A000000000000000000000000000000000000000000000000000000000 DUP2 MSTORE PUSH1 0x4 ADD PUSH2 0x782 SWAP1 PUSH2 0x1FA5 JUMP JUMPDEST PUSH1 0x40 MLOAD DUP1 SWAP2 SUB SWAP1 REVERT JUMPDEST PUSH0 JUMPDEST PUSH0 DUP1 SLOAD SWAP1 PUSH2 0x100 EXP SWAP1 DIV PUSH16 0xFFFFFFFFFFFFFFFFFFFFFFFFFFFFFFFF AND PUSH16 0xFFFFFFFFFFFFFFFFFFFFFFFFFFFFFFFF AND DUP2 LT ISZERO PUSH2 0x970 JUMPI DUP8 DUP8 PUSH1 0x40 MLOAD PUSH1 0x20 ADD PUSH2 0x7D5 SWAP3 SWAP2 SWAP1 PUSH2 0x1FFF JUMP JUMPDEST PUSH1 0x40 MLOAD PUSH1 0x20 DUP2 DUP4 SUB SUB DUP2 MSTORE SWAP1 PUSH1 0x40 MSTORE DUP1 MLOAD SWAP1 PUSH1 0x20 ADD KECCAK256 PUSH1 0x1 PUSH0 DUP4 DUP2 MSTORE PUSH1 0x20 ADD SWAP1 DUP2 MSTORE PUSH1 0x20 ADD PUSH0 KECCAK256 PUSH1 0x2 ADD PUSH1 0x40 MLOAD PUSH1 0x20 ADD PUSH2 0x80F SWAP2 SWAP1 PUSH2 0x20A9 JUMP JUMPDEST PUSH1 0x40 MLOAD PUSH1 0x20 DUP2 DUP4 SUB SUB DUP2 MSTORE SWAP1 PUSH1 0x40 MSTORE DUP1 MLOAD SWAP1 PUSH1 0x20 ADD KECCAK256 SUB PUSH2 0x963 JUMPI PUSH1 0x1 PUSH0 DUP3 DUP2 MSTORE PUSH1 0x20 ADD SWAP1 DUP2 MSTORE PUSH1 0x20 ADD PUSH0 KECCAK256 PUSH0 ADD SLOAD PUSH1 0x1 PUSH0 DUP4 DUP2 MSTORE PUSH1 0x20 ADD SWAP1 DUP2 MSTORE PUSH1 0x20 ADD PUSH0 KECCAK256 PUSH1 0x1 ADD PUSH0 SWAP1 SLOAD SWAP1 PUSH2 0x100 EXP SWAP1 DIV PUSH20 0xFFFFFFFFFFFFFFFFFFFFFFFFFFFFFFFFFFFFFFFF AND PUSH1 0x1 PUSH0 DUP5 DUP2 MSTORE PUSH1 0x20 ADD SWAP1 DUP2 MSTORE PUSH1 0x20 ADD PUSH0 KECCAK256 PUSH1 0x2 ADD PUSH1 0x1 PUSH0 DUP6 DUP2 MSTORE PUSH1 0x20 ADD SWAP1 DUP2 MSTORE PUSH1 0x20 ADD PUSH0 KECCAK256 PUSH1 0x6 ADD PUSH0 SWAP1 SLOAD SWAP1 PUSH2 0x100 EXP SWAP1 DIV PUSH1 0xFF AND PUSH1 0x1 PUSH0 DUP7 DUP2 MSTORE PUSH1 0x20 ADD SWAP1 DUP2 MSTORE PUSH1 0x20 ADD PUSH0 KECCAK256 PUSH1 0x6 ADD PUSH1 0x1 SWAP1 SLOAD SWAP1 PUSH2 0x100 EXP SWAP1 DIV PUSH1 0xFF AND DUP3 DUP1 SLOAD PUSH2 0x8D5 SWAP1 PUSH2 0x1EC3 JUMP JUMPDEST DUP1 PUSH1 0x1F ADD PUSH1 0x20 DUP1 SWAP2 DIV MUL PUSH1 0x20 ADD PUSH1 0x40 MLOAD SWAP1 DUP2 ADD PUSH1 0x40 MSTORE DUP1 SWAP3 SWAP2 SWAP1 DUP2 DUP2 MSTORE PUSH1 0x20 ADD DUP3 DUP1 SLOAD PUSH2 0x901 SWAP1 PUSH2 0x1EC3 JUMP JUMPDEST DUP1 ISZERO PUSH2 0x94C JUMPI DUP1 PUSH1 0x1F LT PUSH2 0x923 JUMPI PUSH2 0x100 DUP1 DUP4 SLOAD DIV MUL DUP4 MSTORE SWAP2 PUSH1 0x20 ADD SWAP2 PUSH2 0x94C JUMP JUMPDEST DUP3 ADD SWAP2 SWAP1 PUSH0 MSTORE PUSH1 0x20 PUSH0 KECCAK256 SWAP1 JUMPDEST DUP2 SLOAD DUP2 MSTORE SWAP1 PUSH1 0x1 ADD SWAP1 PUSH1 0x20 ADD DUP1 DUP4 GT PUSH2 0x92F JUMPI DUP3 SWAP1 SUB PUSH1 0x1F AND DUP3 ADD SWAP2 JUMPDEST POP POP POP POP POP SWAP3 POP SWAP6 POP SWAP6 POP SWAP6 POP SWAP6 POP SWAP6 POP POP PUSH2 0x9AC JUMP JUMPDEST DUP1 DUP1 PUSH1 0x1 ADD SWAP2 POP POP PUSH2 0x78D JUMP JUMPDEST POP PUSH1 0x40 MLOAD PUSH32 0x8C379A000000000000000000000000000000000000000000000000000000000 DUP2 MSTORE PUSH1 0x4 ADD PUSH2 0x9A3 SWAP1 PUSH2 0x2109 JUMP JUMPDEST PUSH1 0x40 MLOAD DUP1 SWAP2 SUB SWAP1 REVERT JUMPDEST SWAP3 SWAP6 POP SWAP3 SWAP6 SWAP1 SWAP4 POP JUMP JUMPDEST PUSH1 0x1 PUSH0 PUSH1 0x2 PUSH0 CALLER PUSH20 0xFFFFFFFFFFFFFFFFFFFFFFFFFFFFFFFFFFFFFFFF AND PUSH20 0xFFFFFFFFFFFFFFFFFFFFFFFFFFFFFFFFFFFFFFFF AND DUP2 MSTORE PUSH1 0x20 ADD SWAP1 DUP2 MSTORE PUSH1 0x20 ADD PUSH0 KECCAK256 SLOAD DUP2 MSTORE PUSH1 0x20 ADD SWAP1 DUP2 MSTORE PUSH1 0x20 ADD PUSH0 KECCAK256 PUSH1 0x6 ADD PUSH1 0x1 SWAP1 SLOAD SWAP1 PUSH2 0x100 EXP SWAP1 DIV PUSH1 0xFF AND PUSH2 0xA54 JUMPI PUSH1 0x40 MLOAD PUSH32 0x8C379A000000000000000000000000000000000000000000000000000000000 DUP2 MSTORE PUSH1 0x4 ADD PUSH2 0xA4B SWAP1 PUSH2 0x1C01 JUMP JUMPDEST PUSH1 0x40 MLOAD DUP1 SWAP2 SUB SWAP1 REVERT JUMPDEST PUSH0 CALLVALUE GT PUSH2 0xA96 JUMPI PUSH1 0x40 MLOAD PUSH32 0x8C379A000000000000000000000000000000000000000000000000000000000 DUP2 MSTORE PUSH1 0x4 ADD PUSH2 0xA8D SWAP1 PUSH2 0x1C8F JUMP JUMPDEST PUSH1 0x40 MLOAD DUP1 SWAP2 SUB SWAP1 REVERT JUMPDEST PUSH1 0x1 PUSH0 PUSH1 0x2 PUSH0 CALLER PUSH20 0xFFFFFFFFFFFFFFFFFFFFFFFFFFFFFFFFFFFFFFFF AND PUSH20 0xFFFFFFFFFFFFFFFFFFFFFFFFFFFFFFFFFFFFFFFF AND DUP2 MSTORE PUSH1 0x20 ADD SWAP1 DUP2 MSTORE PUSH1 0x20 ADD PUSH0 KECCAK256 SLOAD DUP2 MSTORE PUSH1 0x20 ADD SWAP1 DUP2 MSTORE PUSH1 0x20 ADD PUSH0 KECCAK256 PUSH1 0x4 ADD SLOAD CALLVALUE SGT ISZERO PUSH2 0xB2A JUMPI PUSH1 0x40 MLOAD PUSH32 0x8C379A000000000000000000000000000000000000000000000000000000000 DUP2 MSTORE PUSH1 0x4 ADD PUSH2 0xB21 SWAP1 PUSH2 0x21BD JUMP JUMPDEST PUSH1 0x40 MLOAD DUP1 SWAP2 SUB SWAP1 REVERT JUMPDEST CALLVALUE PUSH1 0x1 PUSH0 PUSH1 0x2 PUSH0 CALLER PUSH20 0xFFFFFFFFFFFFFFFFFFFFFFFFFFFFFFFFFFFFFFFF AND PUSH20 0xFFFFFFFFFFFFFFFFFFFFFFFFFFFFFFFFFFFFFFFF AND DUP2 MSTORE PUSH1 0x20 ADD SWAP1 DUP2 MSTORE PUSH1 0x20 ADD PUSH0 KECCAK256 SLOAD DUP2 MSTORE PUSH1 0x20 ADD SWAP1 DUP2 MSTORE PUSH1 0x20 ADD PUSH0 KECCAK256 PUSH1 0x4 ADD PUSH0 DUP3 DUP3 SLOAD PUSH2 0xB8A SWAP2 SWAP1 PUSH2 0x1D8E JUMP JUMPDEST SWAP3 POP POP DUP2 SWAP1 SSTORE POP CALLVALUE PUSH1 0x1 PUSH0 PUSH1 0x2 PUSH0 DUP6 PUSH20 0xFFFFFFFFFFFFFFFFFFFFFFFFFFFFFFFFFFFFFFFF AND PUSH20 0xFFFFFFFFFFFFFFFFFFFFFFFFFFFFFFFFFFFFFFFF AND DUP2 MSTORE PUSH1 0x20 ADD SWAP1 DUP2 MSTORE PUSH1 0x20 ADD PUSH0 KECCAK256 SLOAD DUP2 MSTORE PUSH1 0x20 ADD SWAP1 DUP2 MSTORE PUSH1 0x20 ADD PUSH0 KECCAK256 PUSH1 0x4 ADD PUSH0 DUP3 DUP3 SLOAD PUSH2 0xBF1 SWAP2 SWAP1 PUSH2 0x1DCE JUMP JUMPDEST SWAP3 POP POP DUP2 SWAP1 SSTORE POP CALLVALUE PUSH1 0x1 PUSH0 PUSH1 0x2 PUSH0 CALLER PUSH20 0xFFFFFFFFFFFFFFFFFFFFFFFFFFFFFFFFFFFFFFFF AND PUSH20 0xFFFFFFFFFFFFFFFFFFFFFFFFFFFFFFFFFFFFFFFF AND DUP2 MSTORE PUSH1 0x20 ADD SWAP1 DUP2 MSTORE PUSH1 0x20 ADD PUSH0 KECCAK256 SLOAD DUP2 MSTORE PUSH1 0x20 ADD SWAP1 DUP2 MSTORE PUSH1 0x20 ADD PUSH0 KECCAK256 PUSH1 0x3 ADD PUSH0 DUP3 DUP3 SLOAD PUSH2 0xC58 SWAP2 SWAP1 PUSH2 0x1D8E JUMP JUMPDEST SWAP3 POP POP DUP2 SWAP1 SSTORE POP PUSH0 PUSH1 0x10 DUP2 DUP2 SWAP1 SLOAD SWAP1 PUSH2 0x100 EXP SWAP1 DIV PUSH1 0xFF AND DUP1 SWAP3 SWAP2 SWAP1 PUSH2 0xC7D SWAP1 PUSH2 0x1E0F JUMP JUMPDEST SWAP2 SWAP1 PUSH2 0x100 EXP DUP2 SLOAD DUP2 PUSH1 0xFF MUL NOT AND SWAP1 DUP4 PUSH1 0xFF AND MUL OR SWAP1 SSTORE POP POP POP JUMP JUMPDEST PUSH1 0x1 PUSH0 PUSH1 0x2 PUSH0 CALLER PUSH20 0xFFFFFFFFFFFFFFFFFFFFFFFFFFFFFFFFFFFFFFFF AND PUSH20 0xFFFFFFFFFFFFFFFFFFFFFFFFFFFFFFFFFFFFFFFF AND DUP2 MSTORE PUSH1 0x20 ADD SWAP1 DUP2 MSTORE PUSH1 0x20 ADD PUSH0 KECCAK256 SLOAD DUP2 MSTORE PUSH1 0x20 ADD SWAP1 DUP2 MSTORE PUSH1 0x20 ADD PUSH0 KECCAK256 PUSH1 0x6 ADD PUSH1 0x1 SWAP1 SLOAD SWAP1 PUSH2 0x100 EXP SWAP1 DIV PUSH1 0xFF AND PUSH2 0xD37 JUMPI PUSH1 0x40 MLOAD PUSH32 0x8C379A000000000000000000000000000000000000000000000000000000000 DUP2 MSTORE PUSH1 0x4 ADD PUSH2 0xD2E SWAP1 PUSH2 0x1C01 JUMP JUMPDEST PUSH1 0x40 MLOAD DUP1 SWAP2 SUB SWAP1 REVERT JUMPDEST PUSH0 CALLVALUE GT PUSH2 0xD79 JUMPI PUSH1 0x40 MLOAD PUSH32 0x8C379A000000000000000000000000000000000000000000000000000000000 DUP2 MSTORE PUSH1 0x4 ADD PUSH2 0xD70 SWAP1 PUSH2 0x224B JUMP JUMPDEST PUSH1 0x40 MLOAD DUP1 SWAP2 SUB SWAP1 REVERT JUMPDEST CALLVALUE PUSH1 0x1 PUSH0 PUSH1 0x2 PUSH0 CALLER PUSH20 0xFFFFFFFFFFFFFFFFFFFFFFFFFFFFFFFFFFFFFFFF AND PUSH20 0xFFFFFFFFFFFFFFFFFFFFFFFFFFFFFFFFFFFFFFFF AND DUP2 MSTORE PUSH1 0x20 ADD SWAP1 DUP2 MSTORE PUSH1 0x20 ADD PUSH0 KECCAK256 SLOAD DUP2 MSTORE PUSH1 0x20 ADD SWAP1 DUP2 MSTORE PUSH1 0x20 ADD PUSH0 KECCAK256 PUSH1 0x4 ADD PUSH0 DUP3 DUP3 SLOAD PUSH2 0xDD9 SWAP2 SWAP1 PUSH2 0x1D8E JUMP JUMPDEST SWAP3 POP POP DUP2 SWAP1 SSTORE POP CALLVALUE PUSH1 0x1 PUSH0 PUSH1 0x2 PUSH0 CALLER PUSH20 0xFFFFFFFFFFFFFFFFFFFFFFFFFFFFFFFFFFFFFFFF AND PUSH20 0xFFFFFFFFFFFFFFFFFFFFFFFFFFFFFFFFFFFFFFFF AND DUP2 MSTORE PUSH1 0x20 ADD SWAP1 DUP2 MSTORE PUSH1 0x20 ADD PUSH0 KECCAK256 SLOAD DUP2 MSTORE PUSH1 0x20 ADD SWAP1 DUP2 MSTORE PUSH1 0x20 ADD PUSH0 KECCAK256 PUSH1 0x3 ADD PUSH0 DUP3 DUP3 SLOAD PUSH2 0xE40 SWAP2 SWAP1 PUSH2 0x1D8E JUMP JUMPDEST SWAP3 POP POP DUP2 SWAP1 SSTORE POP PUSH0 PUSH1 0x10 DUP2 DUP2 SWAP1 SLOAD SWAP1 PUSH2 0x100 EXP SWAP1 DIV PUSH1 0xFF AND DUP1 SWAP3 SWAP2 SWAP1 PUSH2 0xE65 SWAP1 PUSH2 0x1E0F JUMP JUMPDEST SWAP2 SWAP1 PUSH2 0x100 EXP DUP2 SLOAD DUP2 PUSH1 0xFF MUL NOT AND SWAP1 DUP4 PUSH1 0xFF AND MUL OR SWAP1 SSTORE POP POP JUMP JUMPDEST PUSH1 0x1 PUSH0 PUSH1 0x2 PUSH0 CALLER PUSH20 0xFFFFFFFFFFFFFFFFFFFFFFFFFFFFFFFFFFFFFFFF AND PUSH20 0xFFFFFFFFFFFFFFFFFFFFFFFFFFFFFFFFFFFFFFFF AND DUP2 MSTORE PUSH1 0x20 ADD SWAP1 DUP2 MSTORE PUSH1 0x20 ADD PUSH0 KECCAK256 SLOAD DUP2 MSTORE PUSH1 0x20 ADD SWAP1 DUP2 MSTORE PUSH1 0x20 ADD PUSH0 KECCAK256 PUSH1 0x6 ADD PUSH1 0x1 SWAP1 SLOAD SWAP1 PUSH2 0x100 EXP SWAP1 DIV PUSH1 0xFF AND PUSH2 0xF1E JUMPI PUSH1 0x40 MLOAD PUSH32 0x8C379A000000000000000000000000000000000000000000000000000000000 DUP2 MSTORE PUSH1 0x4 ADD PUSH2 0xF15 SWAP1 PUSH2 0x1C01 JUMP JUMPDEST PUSH1 0x40 MLOAD DUP1 SWAP2 SUB SWAP1 REVERT JUMPDEST PUSH0 CALLVALUE GT PUSH2 0xF60 JUMPI PUSH1 0x40 MLOAD PUSH32 0x8C379A000000000000000000000000000000000000000000000000000000000 DUP2 MSTORE PUSH1 0x4 ADD PUSH2 0xF57 SWAP1 PUSH2 0x1C8F JUMP JUMPDEST PUSH1 0x40 MLOAD DUP1 SWAP2 SUB SWAP1 REVERT JUMPDEST PUSH1 0x1 PUSH0 PUSH1 0x2 PUSH0 CALLER PUSH20 0xFFFFFFFFFFFFFFFFFFFFFFFFFFFFFFFFFFFFFFFF AND PUSH20 0xFFFFFFFFFFFFFFFFFFFFFFFFFFFFFFFFFFFFFFFF AND DUP2 MSTORE PUSH1 0x20 ADD SWAP1 DUP2 MSTORE PUSH1 0x20 ADD PUSH0 KECCAK256 SLOAD DUP2 MSTORE PUSH1 0x20 ADD SWAP1 DUP2 MSTORE PUSH1 0x20 ADD PUSH0 KECCAK256 PUSH1 0x4 ADD SLOAD CALLVALUE SGT ISZERO PUSH2 0xFF4 JUMPI PUSH1 0x40 MLOAD PUSH32 0x8C379A000000000000000000000000000000000000000000000000000000000 DUP2 MSTORE PUSH1 0x4 ADD PUSH2 0xFEB SWAP1 PUSH2 0x1D43 JUMP JUMPDEST PUSH1 0x40 MLOAD DUP1 SWAP2 SUB SWAP1 REVERT JUMPDEST CALLVALUE PUSH1 0x1 PUSH0 PUSH1 0x2 PUSH0 CALLER PUSH20 0xFFFFFFFFFFFFFFFFFFFFFFFFFFFFFFFFFFFFFFFF AND PUSH20 0xFFFFFFFFFFFFFFFFFFFFFFFFFFFFFFFFFFFFFFFF AND DUP2 MSTORE PUSH1 0x20 ADD SWAP1 DUP2 MSTORE PUSH1 0x20 ADD PUSH0 KECCAK256 SLOAD DUP2 MSTORE PUSH1 0x20 ADD SWAP1 DUP2 MSTORE PUSH1 0x20 ADD PUSH0 KECCAK256 PUSH1 0x4 ADD PUSH0 DUP3 DUP3 SLOAD PUSH2 0x1054 SWAP2 SWAP1 PUSH2 0x1D8E JUMP JUMPDEST SWAP3 POP POP DUP2 SWAP1 SSTORE POP CALLVALUE PUSH1 0x1 PUSH0 PUSH1 0x2 PUSH0 CALLER PUSH20 0xFFFFFFFFFFFFFFFFFFFFFFFFFFFFFFFFFFFFFFFF AND PUSH20 0xFFFFFFFFFFFFFFFFFFFFFFFFFFFFFFFFFFFFFFFF AND DUP2 MSTORE PUSH1 0x20 ADD SWAP1 DUP2 MSTORE PUSH1 0x20 ADD PUSH0 KECCAK256 SLOAD DUP2 MSTORE PUSH1 0x20 ADD SWAP1 DUP2 MSTORE PUSH1 0x20 ADD PUSH0 KECCAK256 PUSH1 0x5 ADD PUSH0 DUP3 DUP3 SLOAD PUSH2 0x10BB SWAP2 SWAP1 PUSH2 0x1DCE JUMP JUMPDEST SWAP3 POP POP DUP2 SWAP1 SSTORE POP PUSH0 PUSH1 0x10 DUP2 DUP2 SWAP1 SLOAD SWAP1 PUSH2 0x100 EXP SWAP1 DIV PUSH1 0xFF AND DUP1 SWAP3 SWAP2 SWAP1 PUSH2 0x10E0 SWAP1 PUSH2 0x1E0F JUMP JUMPDEST SWAP2 SWAP1 PUSH2 0x100 EXP DUP2 SLOAD DUP2 PUSH1 0xFF MUL NOT AND SWAP1 DUP4 PUSH1 0xFF AND MUL OR SWAP1 SSTORE POP POP JUMP JUMPDEST PUSH1 0x1 PUSH0 PUSH1 0x2 PUSH0 CALLER PUSH20 0xFFFFFFFFFFFFFFFFFFFFFFFFFFFFFFFFFFFFFFFF AND PUSH20 0xFFFFFFFFFFFFFFFFFFFFFFFFFFFFFFFFFFFFFFFF AND DUP2 MSTORE PUSH1 0x20 ADD SWAP1 DUP2 MSTORE PUSH1 0x20 ADD PUSH0 KECCAK256 SLOAD DUP2 MSTORE PUSH1 0x20 ADD SWAP1 DUP2 MSTORE PUSH1 0x20 ADD PUSH0 KECCAK256 PUSH1 0x6 ADD PUSH1 0x1 SWAP1 SLOAD SWAP1 PUSH2 0x100 EXP SWAP1 DIV PUSH1 0xFF AND ISZERO PUSH2 0x119A JUMPI PUSH1 0x40 MLOAD PUSH32 0x8C379A000000000000000000000000000000000000000000000000000000000 DUP2 MSTORE PUSH1 0x4 ADD PUSH2 0x1191 SWAP1 PUSH2 0x22B3 JUMP JUMPDEST PUSH1 0x40 MLOAD DUP1 SWAP2 SUB SWAP1 REVERT JUMPDEST PUSH1 0x1 DUP1 PUSH0 PUSH1 0x2 PUSH0 CALLER PUSH20 0xFFFFFFFFFFFFFFFFFFFFFFFFFFFFFFFFFFFFFFFF AND PUSH20 0xFFFFFFFFFFFFFFFFFFFFFFFFFFFFFFFFFFFFFFFF AND DUP2 MSTORE PUSH1 0x20 ADD SWAP1 DUP2 MSTORE PUSH1 0x20 ADD PUSH0 KECCAK256 SLOAD DUP2 MSTORE PUSH1 0x20 ADD SWAP1 DUP2 MSTORE PUSH1 0x20 ADD PUSH0 KECCAK256 PUSH1 0x6 ADD PUSH1 0x1 PUSH2 0x100 EXP DUP2 SLOAD DUP2 PUSH1 0xFF MUL NOT AND SWAP1 DUP4 ISZERO ISZERO MUL OR SWAP1 SSTORE POP JUMP JUMPDEST PUSH1 0x1 PUSH0 PUSH1 0x2 PUSH0 CALLER PUSH20 0xFFFFFFFFFFFFFFFFFFFFFFFFFFFFFFFFFFFFFFFF AND PUSH20 0xFFFFFFFFFFFFFFFFFFFFFFFFFFFFFFFFFFFFFFFF AND DUP2 MSTORE PUSH1 0x20 ADD SWAP1 DUP2 MSTORE PUSH1 0x20 ADD PUSH0 KECCAK256 SLOAD DUP2 MSTORE PUSH1 0x20 ADD SWAP1 DUP2 MSTORE PUSH1 0x20 ADD PUSH0 KECCAK256 PUSH1 0x6 ADD PUSH1 0x1 SWAP1 SLOAD SWAP1 PUSH2 0x100 EXP SWAP1 DIV PUSH1 0xFF AND PUSH2 0x12A3 JUMPI PUSH1 0x40 MLOAD PUSH32 0x8C379A000000000000000000000000000000000000000000000000000000000 DUP2 MSTORE PUSH1 0x4 ADD PUSH2 0x129A SWAP1 PUSH2 0x1C01 JUMP JUMPDEST PUSH1 0x40 MLOAD DUP1 SWAP2 SUB SWAP1 REVERT JUMPDEST PUSH0 CALLVALUE GT PUSH2 0x12E5 JUMPI PUSH1 0x40 MLOAD PUSH32 0x8C379A000000000000000000000000000000000000000000000000000000000 DUP2 MSTORE PUSH1 0x4 ADD PUSH2 0x12DC SWAP1 PUSH2 0x1C8F JUMP JUMPDEST PUSH1 0x40 MLOAD DUP1 SWAP2 SUB SWAP1 REVERT JUMPDEST CALLVALUE PUSH1 0x1 PUSH0 PUSH1 0x2 PUSH0 CALLER PUSH20 0xFFFFFFFFFFFFFFFFFFFFFFFFFFFFFFFFFFFFFFFF AND PUSH20 0xFFFFFFFFFFFFFFFFFFFFFFFFFFFFFFFFFFFFFFFF AND DUP2 MSTORE PUSH1 0x20 ADD SWAP1 DUP2 MSTORE PUSH1 0x20 ADD PUSH0 KECCAK256 SLOAD DUP2 MSTORE PUSH1 0x20 ADD SWAP1 DUP2 MSTORE PUSH1 0x20 ADD PUSH0 KECCAK256 PUSH1 0x4 ADD PUSH0 DUP3 DUP3 SLOAD PUSH2 0x1345 SWAP2 SWAP1 PUSH2 0x1DCE JUMP JUMPDEST SWAP3 POP POP DUP2 SWAP1 SSTORE POP CALLVALUE PUSH1 0x1 PUSH0 PUSH1 0x2 PUSH0 CALLER PUSH20 0xFFFFFFFFFFFFFFFFFFFFFFFFFFFFFFFFFFFFFFFF AND PUSH20 0xFFFFFFFFFFFFFFFFFFFFFFFFFFFFFFFFFFFFFFFF AND DUP2 MSTORE PUSH1 0x20 ADD SWAP1 DUP2 MSTORE PUSH1 0x20 ADD PUSH0 KECCAK256 SLOAD DUP2 MSTORE PUSH1 0x20 ADD SWAP1 DUP2 MSTORE PUSH1 0x20 ADD PUSH0 KECCAK256 PUSH1 0x3 ADD PUSH0 DUP3 DUP3 SLOAD PUSH2 0x13AC SWAP2 SWAP1 PUSH2 0x1DCE JUMP JUMPDEST SWAP3 POP POP DUP2 SWAP1 SSTORE POP PUSH0 PUSH1 0x10 DUP2 DUP2 SWAP1 SLOAD SWAP1 PUSH2 0x100 EXP SWAP1 DIV PUSH1 0xFF AND DUP1 SWAP3 SWAP2 SWAP1 PUSH2 0x13D1 SWAP1 PUSH2 0x1E0F JUMP JUMPDEST SWAP2 SWAP1 PUSH2 0x100 EXP DUP2 SLOAD DUP2 PUSH1 0xFF MUL NOT AND SWAP1 DUP4 PUSH1 0xFF AND MUL OR SWAP1 SSTORE POP POP JUMP JUMPDEST PUSH0 DUP1 DUP4 DUP4 SWAP1 POP GT PUSH2 0x1432 JUMPI PUSH1 0x40 MLOAD PUSH32 0x8C379A000000000000000000000000000000000000000000000000000000000 DUP2 MSTORE PUSH1 0x4 ADD PUSH2 0x1429 SWAP1 PUSH2 0x1FA5 JUMP JUMPDEST PUSH1 0x40 MLOAD DUP1 SWAP2 SUB SWAP1 REVERT JUMPDEST PUSH0 PUSH20 0xFFFFFFFFFFFFFFFFFFFFFFFFFFFFFFFFFFFFFFFF AND PUSH1 0x3 DUP5 DUP5 PUSH1 0x40 MLOAD PUSH2 0x145B SWAP3 SWAP2 SWAP1 PUSH2 0x1FFF JUMP JUMPDEST SWAP1 DUP2 MSTORE PUSH1 0x20 ADD PUSH1 0x40 MLOAD DUP1 SWAP2 SUB SWAP1 KECCAK256 PUSH0 SWAP1 SLOAD SWAP1 PUSH2 0x100 EXP SWAP1 DIV PUSH20 0xFFFFFFFFFFFFFFFFFFFFFFFFFFFFFFFFFFFFFFFF AND PUSH20 0xFFFFFFFFFFFFFFFFFFFFFFFFFFFFFFFFFFFFFFFF AND EQ PUSH2 0x14DF JUMPI PUSH1 0x40 MLOAD PUSH32 0x8C379A000000000000000000000000000000000000000000000000000000000 DUP2 MSTORE PUSH1 0x4 ADD PUSH2 0x14D6 SWAP1 PUSH2 0x231B JUMP JUMPDEST PUSH1 0x40 MLOAD DUP1 SWAP2 SUB SWAP1 REVERT JUMPDEST PUSH1 0x40 MLOAD DUP1 PUSH2 0x100 ADD PUSH1 0x40 MSTORE DUP1 PUSH0 DUP1 SLOAD SWAP1 PUSH2 0x100 EXP SWAP1 DIV PUSH16 0xFFFFFFFFFFFFFFFFFFFFFFFFFFFFFFFF AND PUSH16 0xFFFFFFFFFFFFFFFFFFFFFFFFFFFFFFFF AND DUP2 MSTORE PUSH1 0x20 ADD CALLER PUSH20 0xFFFFFFFFFFFFFFFFFFFFFFFFFFFFFFFFFFFFFFFF AND DUP2 MSTORE PUSH1 0x20 ADD DUP5 DUP5 DUP1 DUP1 PUSH1 0x1F ADD PUSH1 0x20 DUP1 SWAP2 DIV MUL PUSH1 0x20 ADD PUSH1 0x40 MLOAD SWAP1 DUP2 ADD PUSH1 0x40 MSTORE DUP1 SWAP4 SWAP3 SWAP2 SWAP1 DUP2 DUP2 MSTORE PUSH1 0x20 ADD DUP4 DUP4 DUP1 DUP3 DUP5 CALLDATACOPY PUSH0 DUP2 DUP5 ADD MSTORE PUSH1 0x1F NOT PUSH1 0x1F DUP3 ADD AND SWAP1 POP DUP1 DUP4 ADD SWAP3 POP POP POP POP POP POP POP DUP2 MSTORE PUSH1 0x20 ADD PUSH0 DUP2 MSTORE PUSH1 0x20 ADD PUSH0 DUP2 MSTORE PUSH1 0x20 ADD PUSH0 DUP2 MSTORE PUSH1 0x20 ADD PUSH0 PUSH1 0x10 SWAP1 SLOAD SWAP1 PUSH2 0x100 EXP SWAP1 DIV PUSH1 0xFF AND PUSH1 0xFF AND DUP2 MSTORE PUSH1 0x20 ADD PUSH1 0x1 ISZERO ISZERO DUP2 MSTORE POP PUSH1 0x1 PUSH0 DUP1 PUSH0 SWAP1 SLOAD SWAP1 PUSH2 0x100 EXP SWAP1 DIV PUSH16 0xFFFFFFFFFFFFFFFFFFFFFFFFFFFFFFFF AND PUSH16 0xFFFFFFFFFFFFFFFFFFFFFFFFFFFFFFFF AND DUP2 MSTORE PUSH1 0x20 ADD SWAP1 DUP2 MSTORE PUSH1 0x20 ADD PUSH0 KECCAK256 PUSH0 DUP3 ADD MLOAD DUP2 PUSH0 ADD SSTORE PUSH1 0x20 DUP3 ADD MLOAD DUP2 PUSH1 0x1 ADD PUSH0 PUSH2 0x100 EXP DUP2 SLOAD DUP2 PUSH20 0xFFFFFFFFFFFFFFFFFFFFFFFFFFFFFFFFFFFFFFFF MUL NOT AND SWAP1 DUP4 PUSH20 0xFFFFFFFFFFFFFFFFFFFFFFFFFFFFFFFFFFFFFFFF AND MUL OR SWAP1 SSTORE POP PUSH1 0x40 DUP3 ADD MLOAD DUP2 PUSH1 0x2 ADD SWAP1 DUP2 PUSH2 0x1655 SWAP2 SWAP1 PUSH2 0x24F1 JUMP JUMPDEST POP PUSH1 0x60 DUP3 ADD MLOAD DUP2 PUSH1 0x3 ADD SSTORE PUSH1 0x80 DUP3 ADD MLOAD DUP2 PUSH1 0x4 ADD SSTORE PUSH1 0xA0 DUP3 ADD MLOAD DUP2 PUSH1 0x5 ADD SSTORE PUSH1 0xC0 DUP3 ADD MLOAD DUP2 PUSH1 0x6 ADD PUSH0 PUSH2 0x100 EXP DUP2 SLOAD DUP2 PUSH1 0xFF MUL NOT AND SWAP1 DUP4 PUSH1 0xFF AND MUL OR SWAP1 SSTORE POP PUSH1 0xE0 DUP3 ADD MLOAD DUP2 PUSH1 0x6 ADD PUSH1 0x1 PUSH2 0x100 EXP DUP2 SLOAD DUP2 PUSH1 0xFF MUL NOT AND SWAP1 DUP4 ISZERO ISZERO MUL OR SWAP1 SSTORE POP SWAP1 POP POP PUSH0 DUP1 SLOAD SWAP1 PUSH2 0x100 EXP SWAP1 DIV PUSH16 0xFFFFFFFFFFFFFFFFFFFFFFFFFFFFFFFF AND PUSH16 0xFFFFFFFFFFFFFFFFFFFFFFFFFFFFFFFF AND PUSH1 0x2 PUSH0 CALLER PUSH20 0xFFFFFFFFFFFFFFFFFFFFFFFFFFFFFFFFFFFFFFFF AND PUSH20 0xFFFFFFFFFFFFFFFFFFFFFFFFFFFFFFFFFFFFFFFF AND DUP2 MSTORE PUSH1 0x20 ADD SWAP1 DUP2 MSTORE PUSH1 0x20 ADD PUSH0 KECCAK256 DUP2 SWAP1 SSTORE POP PUSH0 DUP1 DUP2 DUP2 SWAP1 SLOAD SWAP1 PUSH2 0x100 EXP SWAP1 DIV PUSH16 0xFFFFFFFFFFFFFFFFFFFFFFFFFFFFFFFF AND DUP1 SWAP3 SWAP2 SWAP1 PUSH2 0x1752 SWAP1 PUSH2 0x25DB JUMP JUMPDEST SWAP2 SWAP1 PUSH2 0x100 EXP DUP2 SLOAD DUP2 PUSH16 0xFFFFFFFFFFFFFFFFFFFFFFFFFFFFFFFF MUL NOT AND SWAP1 DUP4 PUSH16 0xFFFFFFFFFFFFFFFFFFFFFFFFFFFFFFFF AND MUL OR SWAP1 SSTORE POP POP CALLER SWAP1 POP SWAP3 SWAP2 POP POP JUMP JUMPDEST PUSH1 0x1 PUSH0 PUSH1 0x2 PUSH0 CALLER PUSH20 0xFFFFFFFFFFFFFFFFFFFFFFFFFFFFFFFFFFFFFFFF AND PUSH20 0xFFFFFFFFFFFFFFFFFFFFFFFFFFFFFFFFFFFFFFFF AND DUP2 MSTORE PUSH1 0x20 ADD SWAP1 DUP2 MSTORE PUSH1 0x20 ADD PUSH0 KECCAK256 SLOAD DUP2 MSTORE PUSH1 0x20 ADD SWAP1 DUP2 MSTORE PUSH1 0x20 ADD PUSH0 KECCAK256 PUSH1 0x6 ADD PUSH1 0x1 SWAP1 SLOAD SWAP1 PUSH2 0x100 EXP SWAP1 DIV PUSH1 0xFF AND PUSH2 0x1830 JUMPI PUSH1 0x40 MLOAD PUSH32 0x8C379A000000000000000000000000000000000000000000000000000000000 DUP2 MSTORE PUSH1 0x4 ADD PUSH2 0x1827 SWAP1 PUSH2 0x1C01 JUMP JUMPDEST PUSH1 0x40 MLOAD DUP1 SWAP2 SUB SWAP1 REVERT JUMPDEST PUSH0 PUSH1 0x1 PUSH0 PUSH1 0x2 PUSH0 CALLER PUSH20 0xFFFFFFFFFFFFFFFFFFFFFFFFFFFFFFFFFFFFFFFF AND PUSH20 0xFFFFFFFFFFFFFFFFFFFFFFFFFFFFFFFFFFFFFFFF AND DUP2 MSTORE PUSH1 0x20 ADD SWAP1 DUP2 MSTORE PUSH1 0x20 ADD PUSH0 KECCAK256 SLOAD DUP2 MSTORE PUSH1 0x20 ADD SWAP1 DUP2 MSTORE PUSH1 0x20 ADD PUSH0 KECCAK256 PUSH1 0x6 ADD PUSH1 0x1 PUSH2 0x100 EXP DUP2 SLOAD DUP2 PUSH1 0xFF MUL NOT AND SWAP1 DUP4 ISZERO ISZERO MUL OR SWAP1 SSTORE POP JUMP JUMPDEST PUSH0 DUP1 REVERT JUMPDEST PUSH0 DUP1 REVERT JUMPDEST PUSH0 PUSH20 0xFFFFFFFFFFFFFFFFFFFFFFFFFFFFFFFFFFFFFFFF DUP3 AND SWAP1 POP SWAP2 SWAP1 POP JUMP JUMPDEST PUSH0 PUSH2 0x18CC DUP3 PUSH2 0x18A3 JUMP JUMPDEST SWAP1 POP SWAP2 SWAP1 POP JUMP JUMPDEST PUSH2 0x18DC DUP2 PUSH2 0x18C2 JUMP JUMPDEST DUP2 EQ PUSH2 0x18E6 JUMPI PUSH0 DUP1 REVERT JUMPDEST POP JUMP JUMPDEST PUSH0 DUP2 CALLDATALOAD SWAP1 POP PUSH2 0x18F7 DUP2 PUSH2 0x18D3 JUMP JUMPDEST SWAP3 SWAP2 POP POP JUMP JUMPDEST PUSH0 PUSH1 0x20 DUP3 DUP5 SUB SLT ISZERO PUSH2 0x1912 JUMPI PUSH2 0x1911 PUSH2 0x189B JUMP JUMPDEST JUMPDEST PUSH0 PUSH2 0x191F DUP5 DUP3 DUP6 ADD PUSH2 0x18E9 JUMP JUMPDEST SWAP2 POP POP SWAP3 SWAP2 POP POP JUMP JUMPDEST PUSH0 DUP2 MLOAD SWAP1 POP SWAP2 SWAP1 POP JUMP JUMPDEST PUSH0 DUP3 DUP3 MSTORE PUSH1 0x20 DUP3 ADD SWAP1 POP SWAP3 SWAP2 POP POP JUMP JUMPDEST PUSH0 JUMPDEST DUP4 DUP2 LT ISZERO PUSH2 0x195F JUMPI DUP1 DUP3 ADD MLOAD DUP2 DUP5 ADD MSTORE PUSH1 0x20 DUP2 ADD SWAP1 POP PUSH2 0x1944 JUMP JUMPDEST PUSH0 DUP5 DUP5 ADD MSTORE POP POP POP POP JUMP JUMPDEST PUSH0 PUSH1 0x1F NOT PUSH1 0x1F DUP4 ADD AND SWAP1 POP SWAP2 SWAP1 POP JUMP JUMPDEST PUSH0 PUSH2 0x1984 DUP3 PUSH2 0x1928 JUMP JUMPDEST PUSH2 0x198E DUP2 DUP6 PUSH2 0x1932 JUMP JUMPDEST SWAP4 POP PUSH2 0x199E DUP2 DUP6 PUSH1 0x20 DUP7 ADD PUSH2 0x1942 JUMP JUMPDEST PUSH2 0x19A7 DUP2 PUSH2 0x196A JUMP JUMPDEST DUP5 ADD SWAP2 POP POP SWAP3 SWAP2 POP POP JUMP JUMPDEST PUSH2 0x19BB DUP2 PUSH2 0x18C2 JUMP JUMPDEST DUP3 MSTORE POP POP JUMP JUMPDEST PUSH0 DUP2 SWAP1 POP SWAP2 SWAP1 POP JUMP JUMPDEST PUSH2 0x19D3 DUP2 PUSH2 0x19C1 JUMP JUMPDEST DUP3 MSTORE POP POP JUMP JUMPDEST PUSH0 PUSH1 0xFF DUP3 AND SWAP1 POP SWAP2 SWAP1 POP JUMP JUMPDEST PUSH2 0x19EE DUP2 PUSH2 0x19D9 JUMP JUMPDEST DUP3 MSTORE POP POP JUMP JUMPDEST PUSH0 DUP2 ISZERO ISZERO SWAP1 POP SWAP2 SWAP1 POP JUMP JUMPDEST PUSH2 0x1A08 DUP2 PUSH2 0x19F4 JUMP JUMPDEST DUP3 MSTORE POP POP JUMP JUMPDEST PUSH0 PUSH1 0xE0 DUP3 ADD SWAP1 POP DUP2 DUP2 SUB PUSH0 DUP4 ADD MSTORE PUSH2 0x1A26 DUP2 DUP11 PUSH2 0x197A JUMP JUMPDEST SWAP1 POP PUSH2 0x1A35 PUSH1 0x20 DUP4 ADD DUP10 PUSH2 0x19B2 JUMP JUMPDEST PUSH2 0x1A42 PUSH1 0x40 DUP4 ADD DUP9 PUSH2 0x19CA JUMP JUMPDEST PUSH2 0x1A4F PUSH1 0x60 DUP4 ADD DUP8 PUSH2 0x19CA JUMP JUMPDEST PUSH2 0x1A5C PUSH1 0x80 DUP4 ADD DUP7 PUSH2 0x19CA JUMP JUMPDEST PUSH2 0x1A69 PUSH1 0xA0 DUP4 ADD DUP6 PUSH2 0x19E5 JUMP JUMPDEST PUSH2 0x1A76 PUSH1 0xC0 DUP4 ADD DUP5 PUSH2 0x19FF JUMP JUMPDEST SWAP9 SWAP8 POP POP POP POP POP POP POP POP JUMP JUMPDEST PUSH0 DUP1 REVERT JUMPDEST PUSH0 DUP1 REVERT JUMPDEST PUSH0 DUP1 REVERT JUMPDEST PUSH0 DUP1 DUP4 PUSH1 0x1F DUP5 ADD SLT PUSH2 0x1AA3 JUMPI PUSH2 0x1AA2 PUSH2 0x1A82 JUMP JUMPDEST JUMPDEST DUP3 CALLDATALOAD SWAP1 POP PUSH8 0xFFFFFFFFFFFFFFFF DUP2 GT ISZERO PUSH2 0x1AC0 JUMPI PUSH2 0x1ABF PUSH2 0x1A86 JUMP JUMPDEST JUMPDEST PUSH1 0x20 DUP4 ADD SWAP2 POP DUP4 PUSH1 0x1 DUP3 MUL DUP4 ADD GT ISZERO PUSH2 0x1ADC JUMPI PUSH2 0x1ADB PUSH2 0x1A8A JUMP JUMPDEST JUMPDEST SWAP3 POP SWAP3 SWAP1 POP JUMP JUMPDEST PUSH0 DUP1 PUSH1 0x20 DUP4 DUP6 SUB SLT ISZERO PUSH2 0x1AF9 JUMPI PUSH2 0x1AF8 PUSH2 0x189B JUMP JUMPDEST JUMPDEST PUSH0 DUP4 ADD CALLDATALOAD PUSH8 0xFFFFFFFFFFFFFFFF DUP2 GT ISZERO PUSH2 0x1B16 JUMPI PUSH2 0x1B15 PUSH2 0x189F JUMP JUMPDEST JUMPDEST PUSH2 0x1B22 DUP6 DUP3 DUP7 ADD PUSH2 0x1A8E JUMP JUMPDEST SWAP3 POP SWAP3 POP POP SWAP3 POP SWAP3 SWAP1 POP JUMP JUMPDEST PUSH0 DUP2 SWAP1 POP SWAP2 SWAP1 POP JUMP JUMPDEST PUSH2 0x1B40 DUP2 PUSH2 0x1B2E JUMP JUMPDEST DUP3 MSTORE POP POP JUMP JUMPDEST PUSH0 PUSH1 0xA0 DUP3 ADD SWAP1 POP PUSH2 0x1B59 PUSH0 DUP4 ADD DUP9 PUSH2 0x1B37 JUMP JUMPDEST PUSH2 0x1B66 PUSH1 0x20 DUP4 ADD DUP8 PUSH2 0x19B2 JUMP JUMPDEST DUP2 DUP2 SUB PUSH1 0x40 DUP4 ADD MSTORE PUSH2 0x1B78 DUP2 DUP7 PUSH2 0x197A JUMP JUMPDEST SWAP1 POP PUSH2 0x1B87 PUSH1 0x60 DUP4 ADD DUP6 PUSH2 0x19E5 JUMP JUMPDEST PUSH2 0x1B94 PUSH1 0x80 DUP4 ADD DUP5 PUSH2 0x19FF JUMP JUMPDEST SWAP7 SWAP6 POP POP POP POP POP POP JUMP JUMPDEST PUSH0 PUSH1 0x20 DUP3 ADD SWAP1 POP PUSH2 0x1BB1 PUSH0 DUP4 ADD DUP5 PUSH2 0x19B2 JUMP JUMPDEST SWAP3 SWAP2 POP POP JUMP JUMPDEST PUSH32 0x546865206163636F756E74206D75737420626520616374697661746564000000 PUSH0 DUP3 ADD MSTORE POP JUMP JUMPDEST PUSH0 PUSH2 0x1BEB PUSH1 0x1D DUP4 PUSH2 0x1932 JUMP JUMPDEST SWAP2 POP PUSH2 0x1BF6 DUP3 PUSH2 0x1BB7 JUMP JUMPDEST PUSH1 0x20 DUP3 ADD SWAP1 POP SWAP2 SWAP1 POP JUMP JUMPDEST PUSH0 PUSH1 0x20 DUP3 ADD SWAP1 POP DUP2 DUP2 SUB PUSH0 DUP4 ADD MSTORE PUSH2 0x1C18 DUP2 PUSH2 0x1BDF JUMP JUMPDEST SWAP1 POP SWAP2 SWAP1 POP JUMP JUMPDEST PUSH32 0x5468652076616C756520746F20696E6372656173652062616C616E6365206D75 PUSH0 DUP3 ADD MSTORE PUSH32 0x73742062652067726561746572207468616E207A65726F000000000000000000 PUSH1 0x20 DUP3 ADD MSTORE POP JUMP JUMPDEST PUSH0 PUSH2 0x1C79 PUSH1 0x37 DUP4 PUSH2 0x1932 JUMP JUMPDEST SWAP2 POP PUSH2 0x1C84 DUP3 PUSH2 0x1C1F JUMP JUMPDEST PUSH1 0x40 DUP3 ADD SWAP1 POP SWAP2 SWAP1 POP JUMP JUMPDEST PUSH0 PUSH1 0x20 DUP3 ADD SWAP1 POP DUP2 DUP2 SUB PUSH0 DUP4 ADD MSTORE PUSH2 0x1CA6 DUP2 PUSH2 0x1C6D JUMP JUMPDEST SWAP1 POP SWAP2 SWAP1 POP JUMP JUMPDEST PUSH32 0x5468652076616C756520746F2064656372656173652062616C616E6365206D75 PUSH0 DUP3 ADD MSTORE PUSH32 0x7374206265206C657373207468616E207468652063757272656E742062616C61 PUSH1 0x20 DUP3 ADD MSTORE PUSH32 0x6E63650000000000000000000000000000000000000000000000000000000000 PUSH1 0x40 DUP3 ADD MSTORE POP JUMP JUMPDEST PUSH0 PUSH2 0x1D2D PUSH1 0x43 DUP4 PUSH2 0x1932 JUMP JUMPDEST SWAP2 POP PUSH2 0x1D38 DUP3 PUSH2 0x1CAD JUMP JUMPDEST PUSH1 0x60 DUP3 ADD SWAP1 POP SWAP2 SWAP1 POP JUMP JUMPDEST PUSH0 PUSH1 0x20 DUP3 ADD SWAP1 POP DUP2 DUP2 SUB PUSH0 DUP4 ADD MSTORE PUSH2 0x1D5A DUP2 PUSH2 0x1D21 JUMP JUMPDEST SWAP1 POP SWAP2 SWAP1 POP JUMP JUMPDEST PUSH32 0x4E487B7100000000000000000000000000000000000000000000000000000000 PUSH0 MSTORE PUSH1 0x11 PUSH1 0x4 MSTORE PUSH1 0x24 PUSH0 REVERT JUMPDEST PUSH0 PUSH2 0x1D98 DUP3 PUSH2 0x19C1 JUMP JUMPDEST SWAP2 POP PUSH2 0x1DA3 DUP4 PUSH2 0x19C1 JUMP JUMPDEST SWAP3 POP DUP3 DUP3 SUB SWAP1 POP DUP2 DUP2 SLT PUSH0 DUP5 SLT AND DUP3 DUP3 SGT PUSH0 DUP6 SLT ISZERO AND OR ISZERO PUSH2 0x1DC8 JUMPI PUSH2 0x1DC7 PUSH2 0x1D61 JUMP JUMPDEST JUMPDEST SWAP3 SWAP2 POP POP JUMP JUMPDEST PUSH0 PUSH2 0x1DD8 DUP3 PUSH2 0x19C1 JUMP JUMPDEST SWAP2 POP PUSH2 0x1DE3 DUP4 PUSH2 0x19C1 JUMP JUMPDEST SWAP3 POP DUP3 DUP3 ADD SWAP1 POP DUP3 DUP2 SLT ISZERO PUSH0 DUP4 SLT AND DUP4 DUP3 SLT PUSH0 DUP5 SLT ISZERO AND OR ISZERO PUSH2 0x1E09 JUMPI PUSH2 0x1E08 PUSH2 0x1D61 JUMP JUMPDEST JUMPDEST SWAP3 SWAP2 POP POP JUMP JUMPDEST PUSH0 PUSH2 0x1E19 DUP3 PUSH2 0x19D9 JUMP JUMPDEST SWAP2 POP PUSH1 0xFF DUP3 SUB PUSH2 0x1E2C JUMPI PUSH2 0x1E2B PUSH2 0x1D61 JUMP JUMPDEST JUMPDEST PUSH1 0x1 DUP3 ADD SWAP1 POP SWAP2 SWAP1 POP JUMP JUMPDEST PUSH0 DUP2 PUSH1 0x60 SHL SWAP1 POP SWAP2 SWAP1 POP JUMP JUMPDEST PUSH0 PUSH2 0x1E4D DUP3 PUSH2 0x1E37 JUMP JUMPDEST SWAP1 POP SWAP2 SWAP1 POP JUMP JUMPDEST PUSH0 PUSH2 0x1E5E DUP3 PUSH2 0x1E43 JUMP JUMPDEST SWAP1 POP SWAP2 SWAP1 POP JUMP JUMPDEST PUSH2 0x1E76 PUSH2 0x1E71 DUP3 PUSH2 0x18C2 JUMP JUMPDEST PUSH2 0x1E54 JUMP JUMPDEST DUP3 MSTORE POP POP JUMP JUMPDEST PUSH0 PUSH2 0x1E87 DUP3 DUP5 PUSH2 0x1E65 JUMP JUMPDEST PUSH1 0x14 DUP3 ADD SWAP2 POP DUP2 SWAP1 POP SWAP3 SWAP2 POP POP JUMP JUMPDEST PUSH32 0x4E487B7100000000000000000000000000000000000000000000000000000000 PUSH0 MSTORE PUSH1 0x22 PUSH1 0x4 MSTORE PUSH1 0x24 PUSH0 REVERT JUMPDEST PUSH0 PUSH1 0x2 DUP3 DIV SWAP1 POP PUSH1 0x1 DUP3 AND DUP1 PUSH2 0x1EDA JUMPI PUSH1 0x7F DUP3 AND SWAP2 POP JUMPDEST PUSH1 0x20 DUP3 LT DUP2 SUB PUSH2 0x1EED JUMPI PUSH2 0x1EEC PUSH2 0x1E96 JUMP JUMPDEST JUMPDEST POP SWAP2 SWAP1 POP JUMP JUMPDEST PUSH32 0x57616C6C6574206E6F7420666F756E6400000000000000000000000000000000 PUSH0 DUP3 ADD MSTORE POP JUMP JUMPDEST PUSH0 PUSH2 0x1F27 PUSH1 0x10 DUP4 PUSH2 0x1932 JUMP JUMPDEST SWAP2 POP PUSH2 0x1F32 DUP3 PUSH2 0x1EF3 JUMP JUMPDEST PUSH1 0x20 DUP3 ADD SWAP1 POP SWAP2 SWAP1 POP JUMP JUMPDEST PUSH0 PUSH1 0x20 DUP3 ADD SWAP1 POP DUP2 DUP2 SUB PUSH0 DUP4 ADD MSTORE PUSH2 0x1F54 DUP2 PUSH2 0x1F1B JUMP JUMPDEST SWAP1 POP SWAP2 SWAP1 POP JUMP JUMPDEST PUSH32 0x54686520757365726E616D652063616E6E6F7420626520656D70747900000000 PUSH0 DUP3 ADD MSTORE POP JUMP JUMPDEST PUSH0 PUSH2 0x1F8F PUSH1 0x1C DUP4 PUSH2 0x1932 JUMP JUMPDEST SWAP2 POP PUSH2 0x1F9A DUP3 PUSH2 0x1F5B JUMP JUMPDEST PUSH1 0x20 DUP3 ADD SWAP1 POP SWAP2 SWAP1 POP JUMP JUMPDEST PUSH0 PUSH1 0x20 DUP3 ADD SWAP1 POP DUP2 DUP2 SUB PUSH0 DUP4 ADD MSTORE PUSH2 0x1FBC DUP2 PUSH2 0x1F83 JUMP JUMPDEST SWAP1 POP SWAP2 SWAP1 POP JUMP JUMPDEST PUSH0 DUP2 SWAP1 POP SWAP3 SWAP2 POP POP JUMP JUMPDEST DUP3 DUP2 DUP4 CALLDATACOPY PUSH0 DUP4 DUP4 ADD MSTORE POP POP POP JUMP JUMPDEST PUSH0 PUSH2 0x1FE6 DUP4 DUP6 PUSH2 0x1FC3 JUMP JUMPDEST SWAP4 POP PUSH2 0x1FF3 DUP4 DUP6 DUP5 PUSH2 0x1FCD JUMP JUMPDEST DUP3 DUP5 ADD SWAP1 POP SWAP4 SWAP3 POP POP POP JUMP JUMPDEST PUSH0 PUSH2 0x200B DUP3 DUP5 DUP7 PUSH2 0x1FDB JUMP JUMPDEST SWAP2 POP DUP2 SWAP1 POP SWAP4 SWAP3 POP POP POP JUMP JUMPDEST PUSH0 DUP2 SWAP1 POP DUP2 PUSH0 MSTORE PUSH1 0x20 PUSH0 KECCAK256 SWAP1 POP SWAP2 SWAP1 POP JUMP JUMPDEST PUSH0 DUP2 SLOAD PUSH2 0x2035 DUP2 PUSH2 0x1EC3 JUMP JUMPDEST PUSH2 0x203F DUP2 DUP7 PUSH2 0x1FC3 JUMP JUMPDEST SWAP5 POP PUSH1 0x1 DUP3 AND PUSH0 DUP2 EQ PUSH2 0x2059 JUMPI PUSH1 0x1 DUP2 EQ PUSH2 0x206E JUMPI PUSH2 0x20A0 JUMP JUMPDEST PUSH1 0xFF NOT DUP4 AND DUP7 MSTORE DUP2 ISZERO ISZERO DUP3 MUL DUP7 ADD SWAP4 POP PUSH2 0x20A0 JUMP JUMPDEST PUSH2 0x2077 DUP6 PUSH2 0x2017 JUMP JUMPDEST PUSH0 JUMPDEST DUP4 DUP2 LT ISZERO PUSH2 0x2098 JUMPI DUP2 SLOAD DUP2 DUP10 ADD MSTORE PUSH1 0x1 DUP3 ADD SWAP2 POP PUSH1 0x20 DUP2 ADD SWAP1 POP PUSH2 0x2079 JUMP JUMPDEST DUP4 DUP9 ADD SWAP6 POP POP POP JUMPDEST POP POP POP SWAP3 SWAP2 POP POP JUMP JUMPDEST PUSH0 PUSH2 0x20B4 DUP3 DUP5 PUSH2 0x2029 JUMP JUMPDEST SWAP2 POP DUP2 SWAP1 POP SWAP3 SWAP2 POP POP JUMP JUMPDEST PUSH32 0x55736572206E6F7420666F756E64000000000000000000000000000000000000 PUSH0 DUP3 ADD MSTORE POP JUMP JUMPDEST PUSH0 PUSH2 0x20F3 PUSH1 0xE DUP4 PUSH2 0x1932 JUMP JUMPDEST SWAP2 POP PUSH2 0x20FE DUP3 PUSH2 0x20BF JUMP JUMPDEST PUSH1 0x20 DUP3 ADD SWAP1 POP SWAP2 SWAP1 POP JUMP JUMPDEST PUSH0 PUSH1 0x20 DUP3 ADD SWAP1 POP DUP2 DUP2 SUB PUSH0 DUP4 ADD MSTORE PUSH2 0x2120 DUP2 PUSH2 0x20E7 JUMP JUMPDEST SWAP1 POP SWAP2 SWAP1 POP JUMP JUMPDEST PUSH32 0x5468652076616C756520746F207472616E73666572206D757374206265206C65 PUSH0 DUP3 ADD MSTORE PUSH32 0x7373207468616E206F7220657175616C20746F207468652063757272656E7420 PUSH1 0x20 DUP3 ADD MSTORE PUSH32 0x62616C616E636500000000000000000000000000000000000000000000000000 PUSH1 0x40 DUP3 ADD MSTORE POP JUMP JUMPDEST PUSH0 PUSH2 0x21A7 PUSH1 0x47 DUP4 PUSH2 0x1932 JUMP JUMPDEST SWAP2 POP PUSH2 0x21B2 DUP3 PUSH2 0x2127 JUMP JUMPDEST PUSH1 0x60 DUP3 ADD SWAP1 POP SWAP2 SWAP1 POP JUMP JUMPDEST PUSH0 PUSH1 0x20 DUP3 ADD SWAP1 POP DUP2 DUP2 SUB PUSH0 DUP4 ADD MSTORE PUSH2 0x21D4 DUP2 PUSH2 0x219B JUMP JUMPDEST SWAP1 POP SWAP2 SWAP1 POP JUMP JUMPDEST PUSH32 0x5468652076616C756520746F2064656372656173652062616C616E6365206D75 PUSH0 DUP3 ADD MSTORE PUSH32 0x73742062652067726561746572207468616E207A65726F000000000000000000 PUSH1 0x20 DUP3 ADD MSTORE POP JUMP JUMPDEST PUSH0 PUSH2 0x2235 PUSH1 0x37 DUP4 PUSH2 0x1932 JUMP JUMPDEST SWAP2 POP PUSH2 0x2240 DUP3 PUSH2 0x21DB JUMP JUMPDEST PUSH1 0x40 DUP3 ADD SWAP1 POP SWAP2 SWAP1 POP JUMP JUMPDEST PUSH0 PUSH1 0x20 DUP3 ADD SWAP1 POP DUP2 DUP2 SUB PUSH0 DUP4 ADD MSTORE PUSH2 0x2262 DUP2 PUSH2 0x2229 JUMP JUMPDEST SWAP1 POP SWAP2 SWAP1 POP JUMP JUMPDEST PUSH32 0x546865206163636F756E7420697320616C726561647920616374697665000000 PUSH0 DUP3 ADD MSTORE POP JUMP JUMPDEST PUSH0 PUSH2 0x229D PUSH1 0x1D DUP4 PUSH2 0x1932 JUMP JUMPDEST SWAP2 POP PUSH2 0x22A8 DUP3 PUSH2 0x2269 JUMP JUMPDEST PUSH1 0x20 DUP3 ADD SWAP1 POP SWAP2 SWAP1 POP JUMP JUMPDEST PUSH0 PUSH1 0x20 DUP3 ADD SWAP1 POP DUP2 DUP2 SUB PUSH0 DUP4 ADD MSTORE PUSH2 0x22CA DUP2 PUSH2 0x2291 JUMP JUMPDEST SWAP1 POP SWAP2 SWAP1 POP JUMP JUMPDEST PUSH32 0x54686973207573657220616C7265616479206578697374732E00000000000000 PUSH0 DUP3 ADD MSTORE POP JUMP JUMPDEST PUSH0 PUSH2 0x2305 PUSH1 0x19 DUP4 PUSH2 0x1932 JUMP JUMPDEST SWAP2 POP PUSH2 0x2310 DUP3 PUSH2 0x22D1 JUMP JUMPDEST PUSH1 0x20 DUP3 ADD SWAP1 POP SWAP2 SWAP1 POP JUMP JUMPDEST PUSH0 PUSH1 0x20 DUP3 ADD SWAP1 POP DUP2 DUP2 SUB PUSH0 DUP4 ADD MSTORE PUSH2 0x2332 DUP2 PUSH2 0x22F9 JUMP JUMPDEST SWAP1 POP SWAP2 SWAP1 POP JUMP JUMPDEST PUSH32 0x4E487B7100000000000000000000000000000000000000000000000000000000 PUSH0 MSTORE PUSH1 0x41 PUSH1 0x4 MSTORE PUSH1 0x24 PUSH0 REVERT JUMPDEST PUSH0 PUSH1 0x20 PUSH1 0x1F DUP4 ADD DIV SWAP1 POP SWAP2 SWAP1 POP JUMP JUMPDEST PUSH0 DUP3 DUP3 SHL SWAP1 POP SWAP3 SWAP2 POP POP JUMP JUMPDEST PUSH0 PUSH1 0x8 DUP4 MUL PUSH2 0x23B0 PUSH32 0xFFFFFFFFFFFFFFFFFFFFFFFFFFFFFFFFFFFFFFFFFFFFFFFFFFFFFFFFFFFFFFFF DUP3 PUSH2 0x2375 JUMP JUMPDEST PUSH2 0x23BA DUP7 DUP4 PUSH2 0x2375 JUMP JUMPDEST SWAP6 POP DUP1 NOT DUP5 AND SWAP4 POP DUP1 DUP7 AND DUP5 OR SWAP3 POP POP POP SWAP4 SWAP3 POP POP POP JUMP JUMPDEST PUSH0 DUP2 SWAP1 POP SWAP2 SWAP1 POP JUMP JUMPDEST PUSH0 PUSH2 0x23F5 PUSH2 0x23F0 PUSH2 0x23EB DUP5 PUSH2 0x1B2E JUMP JUMPDEST PUSH2 0x23D2 JUMP JUMPDEST PUSH2 0x1B2E JUMP JUMPDEST SWAP1 POP SWAP2 SWAP1 POP JUMP JUMPDEST PUSH0 DUP2 SWAP1 POP SWAP2 SWAP1 POP JUMP JUMPDEST PUSH2 0x240E DUP4 PUSH2 0x23DB JUMP JUMPDEST PUSH2 0x2422 PUSH2 0x241A DUP3 PUSH2 0x23FC JUMP JUMPDEST DUP5 DUP5 SLOAD PUSH2 0x2381 JUMP JUMPDEST DUP3 SSTORE POP POP POP POP JUMP JUMPDEST PUSH0 SWAP1 JUMP JUMPDEST PUSH2 0x2436 PUSH2 0x242A JUMP JUMPDEST PUSH2 0x2441 DUP2 DUP5 DUP5 PUSH2 0x2405 JUMP JUMPDEST POP POP POP JUMP JUMPDEST JUMPDEST DUP2 DUP2 LT ISZERO PUSH2 0x2464 JUMPI PUSH2 0x2459 PUSH0 DUP3 PUSH2 0x242E JUMP JUMPDEST PUSH1 0x1 DUP2 ADD SWAP1 POP PUSH2 0x2447 JUMP JUMPDEST POP POP JUMP JUMPDEST PUSH1 0x1F DUP3 GT ISZERO PUSH2 0x24A9 JUMPI PUSH2 0x247A DUP2 PUSH2 0x2017 JUMP JUMPDEST PUSH2 0x2483 DUP5 PUSH2 0x2366 JUMP JUMPDEST DUP2 ADD PUSH1 0x20 DUP6 LT ISZERO PUSH2 0x2492 JUMPI DUP2 SWAP1 POP JUMPDEST PUSH2 0x24A6 PUSH2 0x249E DUP6 PUSH2 0x2366 JUMP JUMPDEST DUP4 ADD DUP3 PUSH2 0x2446 JUMP JUMPDEST POP POP JUMPDEST POP POP POP JUMP JUMPDEST PUSH0 DUP3 DUP3 SHR SWAP1 POP SWAP3 SWAP2 POP POP JUMP JUMPDEST PUSH0 PUSH2 0x24C9 PUSH0 NOT DUP5 PUSH1 0x8 MUL PUSH2 0x24AE JUMP JUMPDEST NOT DUP1 DUP4 AND SWAP2 POP POP SWAP3 SWAP2 POP POP JUMP JUMPDEST PUSH0 PUSH2 0x24E1 DUP4 DUP4 PUSH2 0x24BA JUMP JUMPDEST SWAP2 POP DUP3 PUSH1 0x2 MUL DUP3 OR SWAP1 POP SWAP3 SWAP2 POP POP JUMP JUMPDEST PUSH2 0x24FA DUP3 PUSH2 0x1928 JUMP JUMPDEST PUSH8 0xFFFFFFFFFFFFFFFF DUP2 GT ISZERO PUSH2 0x2513 JUMPI PUSH2 0x2512 PUSH2 0x2339 JUMP JUMPDEST JUMPDEST PUSH2 0x251D DUP3 SLOAD PUSH2 0x1EC3 JUMP JUMPDEST PUSH2 0x2528 DUP3 DUP3 DUP6 PUSH2 0x2468 JUMP JUMPDEST PUSH0 PUSH1 0x20 SWAP1 POP PUSH1 0x1F DUP4 GT PUSH1 0x1 DUP2 EQ PUSH2 0x2559 JUMPI PUSH0 DUP5 ISZERO PUSH2 0x2547 JUMPI DUP3 DUP8 ADD MLOAD SWAP1 POP JUMPDEST PUSH2 0x2551 DUP6 DUP3 PUSH2 0x24D6 JUMP JUMPDEST DUP7 SSTORE POP PUSH2 0x25B8 JUMP JUMPDEST PUSH1 0x1F NOT DUP5 AND PUSH2 0x2567 DUP7 PUSH2 0x2017 JUMP JUMPDEST PUSH0 JUMPDEST DUP3 DUP2 LT ISZERO PUSH2 0x258E JUMPI DUP5 DUP10 ADD MLOAD DUP3 SSTORE PUSH1 0x1 DUP3 ADD SWAP2 POP PUSH1 0x20 DUP6 ADD SWAP5 POP PUSH1 0x20 DUP2 ADD SWAP1 POP PUSH2 0x2569 JUMP JUMPDEST DUP7 DUP4 LT ISZERO PUSH2 0x25AB JUMPI DUP5 DUP10 ADD MLOAD PUSH2 0x25A7 PUSH1 0x1F DUP10 AND DUP3 PUSH2 0x24BA JUMP JUMPDEST DUP4 SSTORE POP JUMPDEST PUSH1 0x1 PUSH1 0x2 DUP9 MUL ADD DUP9 SSTORE POP POP POP JUMPDEST POP POP POP POP POP POP JUMP JUMPDEST PUSH0 PUSH16 0xFFFFFFFFFFFFFFFFFFFFFFFFFFFFFFFF DUP3 AND SWAP1 POP SWAP2 SWAP1 POP JUMP JUMPDEST PUSH0 PUSH2 0x25E5 DUP3 PUSH2 0x25C0 JUMP JUMPDEST SWAP2 POP PUSH16 0xFFFFFFFFFFFFFFFFFFFFFFFFFFFFFFFF DUP3 SUB PUSH2 0x2607 JUMPI PUSH2 0x2606 PUSH2 0x1D61 JUMP JUMPDEST JUMPDEST PUSH1 0x1 DUP3 ADD SWAP1 POP SWAP2 SWAP1 POP JUMP INVALID LOG2 PUSH5 0x6970667358 0x22 SLT KECCAK256 0xB0 AND PUSH14 0xBC582E47632595BB29E3C5332475 0xE9 0xD3 0xC9 PUSH24 0xE0441C6E4424FB6070F16464736F6C634300081800330000 "
				},
				"gasEstimates": {
					"creation": {
						"codeDepositCost": "1960000",
						"executionCost": "2075",
						"totalCost": "1962075"
					},
					"external": {
						"CreateClient(string)": "infinite",
						"DecreaseAvailableBalance()": "infinite",
						"DepositFund()": "infinite",
						"GetClient(string)": "infinite",
						"GetWalletClient(address)": "infinite",
						"InactiveClient()": "31288",
						"IncreaseAvailableBalance()": "infinite",
						"PaymentClient(address)": "infinite",
						"ReactiveClient()": "31226",
						"ToWithdrawFund()": "infinite"
					}
				},
				"methodIdentifiers": {
					"CreateClient(string)": "d265a3f3",
					"DecreaseAvailableBalance()": "8e14980b",
					"DepositFund()": "ab225edc",
					"GetClient(string)": "24e164f7",
					"GetWalletClient(address)": "1a67b98b",
					"InactiveClient()": "d96940e8",
					"IncreaseAvailableBalance()": "cdcb3389",
					"PaymentClient(address)": "593712c9",
					"ReactiveClient()": "abf831a3",
					"ToWithdrawFund()": "03037e5f"
				}
			},
			"storageLayout": {
				"storage": [
					{
						"astId": 3,
						"contract": "contracts/smart-contract_flit.sol:NewClient",
						"label": "incrementValue",
						"offset": 0,
						"slot": "0",
						"type": "t_uint128"
					},
					{
						"astId": 5,
						"contract": "contracts/smart-contract_flit.sol:NewClient",
						"label": "quantityShare",
						"offset": 16,
						"slot": "0",
						"type": "t_uint8"
					},
					{
						"astId": 27,
						"contract": "contracts/smart-contract_flit.sol:NewClient",
						"label": "clients",
						"offset": 0,
						"slot": "1",
						"type": "t_mapping(t_uint256,t_struct(Client)22_storage)"
					},
					{
						"astId": 31,
						"contract": "contracts/smart-contract_flit.sol:NewClient",
						"label": "clientsAddress",
						"offset": 0,
						"slot": "2",
						"type": "t_mapping(t_address,t_uint256)"
					},
					{
						"astId": 35,
						"contract": "contracts/smart-contract_flit.sol:NewClient",
						"label": "clientsUsername",
						"offset": 0,
						"slot": "3",
						"type": "t_mapping(t_string_memory_ptr,t_address)"
					}
				],
				"types": {
					"t_address": {
						"encoding": "inplace",
						"label": "address",
						"numberOfBytes": "20"
					},
					"t_bool": {
						"encoding": "inplace",
						"label": "bool",
						"numberOfBytes": "1"
					},
					"t_int256": {
						"encoding": "inplace",
						"label": "int256",
						"numberOfBytes": "32"
					},
					"t_mapping(t_address,t_uint256)": {
						"encoding": "mapping",
						"key": "t_address",
						"label": "mapping(address => uint256)",
						"numberOfBytes": "32",
						"value": "t_uint256"
					},
					"t_mapping(t_string_memory_ptr,t_address)": {
						"encoding": "mapping",
						"key": "t_string_memory_ptr",
						"label": "mapping(string => address)",
						"numberOfBytes": "32",
						"value": "t_address"
					},
					"t_mapping(t_uint256,t_struct(Client)22_storage)": {
						"encoding": "mapping",
						"key": "t_uint256",
						"label": "mapping(uint256 => struct NewClient.Client)",
						"numberOfBytes": "32",
						"value": "t_struct(Client)22_storage"
					},
					"t_string_memory_ptr": {
						"encoding": "bytes",
						"label": "string",
						"numberOfBytes": "32"
					},
					"t_string_storage": {
						"encoding": "bytes",
						"label": "string",
						"numberOfBytes": "32"
					},
					"t_struct(Client)22_storage": {
						"encoding": "inplace",
						"label": "struct NewClient.Client",
						"members": [
							{
								"astId": 7,
								"contract": "contracts/smart-contract_flit.sol:NewClient",
								"label": "id",
								"offset": 0,
								"slot": "0",
								"type": "t_uint256"
							},
							{
								"astId": 9,
								"contract": "contracts/smart-contract_flit.sol:NewClient",
								"label": "addr",
								"offset": 0,
								"slot": "1",
								"type": "t_address"
							},
							{
								"astId": 11,
								"contract": "contracts/smart-contract_flit.sol:NewClient",
								"label": "username",
								"offset": 0,
								"slot": "2",
								"type": "t_string_storage"
							},
							{
								"astId": 13,
								"contract": "contracts/smart-contract_flit.sol:NewClient",
								"label": "balance",
								"offset": 0,
								"slot": "3",
								"type": "t_int256"
							},
							{
								"astId": 15,
								"contract": "contracts/smart-contract_flit.sol:NewClient",
								"label": "availableBalance",
								"offset": 0,
								"slot": "4",
								"type": "t_int256"
							},
							{
								"astId": 17,
								"contract": "contracts/smart-contract_flit.sol:NewClient",
								"label": "fund",
								"offset": 0,
								"slot": "5",
								"type": "t_int256"
							},
							{
								"astId": 19,
								"contract": "contracts/smart-contract_flit.sol:NewClient",
								"label": "quantityShares",
								"offset": 0,
								"slot": "6",
								"type": "t_uint8"
							},
							{
								"astId": 21,
								"contract": "contracts/smart-contract_flit.sol:NewClient",
								"label": "status",
								"offset": 1,
								"slot": "6",
								"type": "t_bool"
							}
						],
						"numberOfBytes": "224"
					},
					"t_uint128": {
						"encoding": "inplace",
						"label": "uint128",
						"numberOfBytes": "16"
					},
					"t_uint256": {
						"encoding": "inplace",
						"label": "uint256",
						"numberOfBytes": "32"
					},
					"t_uint8": {
						"encoding": "inplace",
						"label": "uint8",
						"numberOfBytes": "1"
					}
				}
			},
			"userdoc": {
				"kind": "user",
				"methods": {},
				"version": 1
			}
		}
	}
}