{
	"contracts/1_registerUser_flit.sol": {
		"NewClient": {
			"abi": [
				{
					"inputs": [
						{
							"internalType": "string",
							"name": "_username",
							"type": "string"
						}
					],
					"name": "CreateClient",
					"outputs": [],
					"stateMutability": "nonpayable",
					"type": "function"
				},
				{
					"inputs": [
						{
							"internalType": "string",
							"name": "_username",
							"type": "string"
						}
					],
					"name": "GetClient",
					"outputs": [
						{
							"internalType": "uint256",
							"name": "",
							"type": "uint256"
						},
						{
							"internalType": "address",
							"name": "",
							"type": "address"
						},
						{
							"internalType": "string",
							"name": "",
							"type": "string"
						}
					],
					"stateMutability": "view",
					"type": "function"
				}
			],
			"devdoc": {
				"kind": "dev",
				"methods": {},
				"version": 1
			},
			"evm": {
				"assembly": "    /* \"contracts/1_registerUser_flit.sol\":62:951  contract NewClient {... */\n  mstore(0x40, 0x80)\n  callvalue\n  dup1\n  iszero\n  tag_1\n  jumpi\n  0x00\n  dup1\n  revert\ntag_1:\n  pop\n  dataSize(sub_0)\n  dup1\n  dataOffset(sub_0)\n  0x00\n  codecopy\n  0x00\n  return\nstop\n\nsub_0: assembly {\n        /* \"contracts/1_registerUser_flit.sol\":62:951  contract NewClient {... */\n      mstore(0x40, 0x80)\n      callvalue\n      dup1\n      iszero\n      tag_1\n      jumpi\n      0x00\n      dup1\n      revert\n    tag_1:\n      pop\n      jumpi(tag_2, lt(calldatasize, 0x04))\n      shr(0xe0, calldataload(0x00))\n      dup1\n      0x24e164f7\n      eq\n      tag_3\n      jumpi\n      dup1\n      0xd265a3f3\n      eq\n      tag_4\n      jumpi\n    tag_2:\n      0x00\n      dup1\n      revert\n        /* \"contracts/1_registerUser_flit.sol\":565:949  function GetClient(string memory _username) public view returns(uint, address, string memory) {... */\n    tag_3:\n      tag_5\n      0x04\n      dup1\n      calldatasize\n      sub\n      dup2\n      add\n      swap1\n      tag_6\n      swap2\n      swap1\n      tag_7\n      jump\t// in\n    tag_6:\n      tag_8\n      jump\t// in\n    tag_5:\n      mload(0x40)\n      tag_9\n      swap4\n      swap3\n      swap2\n      swap1\n      tag_10\n      jump\t// in\n    tag_9:\n      mload(0x40)\n      dup1\n      swap2\n      sub\n      swap1\n      return\n        /* \"contracts/1_registerUser_flit.sol\":351:529  function CreateClient(string memory _username) public {... */\n    tag_4:\n      tag_11\n      0x04\n      dup1\n      calldatasize\n      sub\n      dup2\n      add\n      swap1\n      tag_12\n      swap2\n      swap1\n      tag_7\n      jump\t// in\n    tag_12:\n      tag_13\n      jump\t// in\n    tag_11:\n      stop\n        /* \"contracts/1_registerUser_flit.sol\":565:949  function GetClient(string memory _username) public view returns(uint, address, string memory) {... */\n    tag_8:\n        /* \"contracts/1_registerUser_flit.sol\":629:633  uint */\n      0x00\n        /* \"contracts/1_registerUser_flit.sol\":635:642  address */\n      dup1\n        /* \"contracts/1_registerUser_flit.sol\":644:657  string memory */\n      0x60\n        /* \"contracts/1_registerUser_flit.sol\":673:679  uint i */\n      0x00\n        /* \"contracts/1_registerUser_flit.sol\":669:925  for(uint i = 0; i < incrementIdClient; i++) {... */\n    tag_15:\n        /* \"contracts/1_registerUser_flit.sol\":689:706  incrementIdClient */\n      0x00\n      dup1\n      sload\n      swap1\n      0x0100\n      exp\n      swap1\n      div\n      0xffffffffffffffffffffffffffffffff\n      and\n        /* \"contracts/1_registerUser_flit.sol\":685:706  i < incrementIdClient */\n      0xffffffffffffffffffffffffffffffff\n      and\n        /* \"contracts/1_registerUser_flit.sol\":685:686  i */\n      dup2\n        /* \"contracts/1_registerUser_flit.sol\":685:706  i < incrementIdClient */\n      lt\n        /* \"contracts/1_registerUser_flit.sol\":669:925  for(uint i = 0; i < incrementIdClient; i++) {... */\n      iszero\n      tag_16\n      jumpi\n        /* \"contracts/1_registerUser_flit.sol\":809:818  _username */\n      dup5\n        /* \"contracts/1_registerUser_flit.sol\":792:819  abi.encodePacked(_username) */\n      add(0x20, mload(0x40))\n      tag_18\n      swap2\n      swap1\n      tag_19\n      jump\t// in\n    tag_18:\n      mload(0x40)\n      0x20\n      dup2\n      dup4\n      sub\n      sub\n      dup2\n      mstore\n      swap1\n      0x40\n      mstore\n        /* \"contracts/1_registerUser_flit.sol\":782:820  keccak256(abi.encodePacked(_username)) */\n      dup1\n      mload\n      swap1\n      0x20\n      add\n      keccak256\n        /* \"contracts/1_registerUser_flit.sol\":757:764  clients */\n      0x01\n        /* \"contracts/1_registerUser_flit.sol\":757:767  clients[i] */\n      0x00\n        /* \"contracts/1_registerUser_flit.sol\":765:766  i */\n      dup4\n        /* \"contracts/1_registerUser_flit.sol\":757:767  clients[i] */\n      dup2\n      mstore\n      0x20\n      add\n      swap1\n      dup2\n      mstore\n      0x20\n      add\n      0x00\n      keccak256\n        /* \"contracts/1_registerUser_flit.sol\":757:776  clients[i].username */\n      0x02\n      add\n        /* \"contracts/1_registerUser_flit.sol\":740:777  abi.encodePacked(clients[i].username) */\n      add(0x20, mload(0x40))\n      tag_20\n      swap2\n      swap1\n      tag_21\n      jump\t// in\n    tag_20:\n      mload(0x40)\n      0x20\n      dup2\n      dup4\n      sub\n      sub\n      dup2\n      mstore\n      swap1\n      0x40\n      mstore\n        /* \"contracts/1_registerUser_flit.sol\":730:778  keccak256(abi.encodePacked(clients[i].username)) */\n      dup1\n      mload\n      swap1\n      0x20\n      add\n      keccak256\n        /* \"contracts/1_registerUser_flit.sol\":730:820  keccak256(abi.encodePacked(clients[i].username)) == keccak256(abi.encodePacked(_username)) */\n      sub\n        /* \"contracts/1_registerUser_flit.sol\":727:915  if(keccak256(abi.encodePacked(clients[i].username)) == keccak256(abi.encodePacked(_username))) {... */\n      tag_22\n      jumpi\n        /* \"contracts/1_registerUser_flit.sol\":848:855  clients */\n      0x01\n        /* \"contracts/1_registerUser_flit.sol\":848:858  clients[i] */\n      0x00\n        /* \"contracts/1_registerUser_flit.sol\":856:857  i */\n      dup3\n        /* \"contracts/1_registerUser_flit.sol\":848:858  clients[i] */\n      dup2\n      mstore\n      0x20\n      add\n      swap1\n      dup2\n      mstore\n      0x20\n      add\n      0x00\n      keccak256\n        /* \"contracts/1_registerUser_flit.sol\":848:861  clients[i].id */\n      0x00\n      add\n      sload\n        /* \"contracts/1_registerUser_flit.sol\":863:870  clients */\n      0x01\n        /* \"contracts/1_registerUser_flit.sol\":863:873  clients[i] */\n      0x00\n        /* \"contracts/1_registerUser_flit.sol\":871:872  i */\n      dup4\n        /* \"contracts/1_registerUser_flit.sol\":863:873  clients[i] */\n      dup2\n      mstore\n      0x20\n      add\n      swap1\n      dup2\n      mstore\n      0x20\n      add\n      0x00\n      keccak256\n        /* \"contracts/1_registerUser_flit.sol\":863:878  clients[i].addr */\n      0x01\n      add\n      0x00\n      swap1\n      sload\n      swap1\n      0x0100\n      exp\n      swap1\n      div\n      0xffffffffffffffffffffffffffffffffffffffff\n      and\n        /* \"contracts/1_registerUser_flit.sol\":880:887  clients */\n      0x01\n        /* \"contracts/1_registerUser_flit.sol\":880:890  clients[i] */\n      0x00\n        /* \"contracts/1_registerUser_flit.sol\":888:889  i */\n      dup5\n        /* \"contracts/1_registerUser_flit.sol\":880:890  clients[i] */\n      dup2\n      mstore\n      0x20\n      add\n      swap1\n      dup2\n      mstore\n      0x20\n      add\n      0x00\n      keccak256\n        /* \"contracts/1_registerUser_flit.sol\":880:899  clients[i].username */\n      0x02\n      add\n        /* \"contracts/1_registerUser_flit.sol\":840:900  return (clients[i].id, clients[i].addr, clients[i].username) */\n      dup1\n      dup1\n      sload\n      tag_23\n      swap1\n      tag_24\n      jump\t// in\n    tag_23:\n      dup1\n      0x1f\n      add\n      0x20\n      dup1\n      swap2\n      div\n      mul\n      0x20\n      add\n      mload(0x40)\n      swap1\n      dup2\n      add\n      0x40\n      mstore\n      dup1\n      swap3\n      swap2\n      swap1\n      dup2\n      dup2\n      mstore\n      0x20\n      add\n      dup3\n      dup1\n      sload\n      tag_25\n      swap1\n      tag_24\n      jump\t// in\n    tag_25:\n      dup1\n      iszero\n      tag_26\n      jumpi\n      dup1\n      0x1f\n      lt\n      tag_27\n      jumpi\n      0x0100\n      dup1\n      dup4\n      sload\n      div\n      mul\n      dup4\n      mstore\n      swap2\n      0x20\n      add\n      swap2\n      jump(tag_26)\n    tag_27:\n      dup3\n      add\n      swap2\n      swap1\n      0x00\n      mstore\n      keccak256(0x00, 0x20)\n      swap1\n    tag_28:\n      dup2\n      sload\n      dup2\n      mstore\n      swap1\n      0x01\n      add\n      swap1\n      0x20\n      add\n      dup1\n      dup4\n      gt\n      tag_28\n      jumpi\n      dup3\n      swap1\n      sub\n      0x1f\n      and\n      dup3\n      add\n      swap2\n    tag_26:\n      pop\n      pop\n      pop\n      pop\n      pop\n      swap1\n      pop\n      swap4\n      pop\n      swap4\n      pop\n      swap4\n      pop\n      pop\n      jump(tag_14)\n        /* \"contracts/1_registerUser_flit.sol\":727:915  if(keccak256(abi.encodePacked(clients[i].username)) == keccak256(abi.encodePacked(_username))) {... */\n    tag_22:\n        /* \"contracts/1_registerUser_flit.sol\":708:711  i++ */\n      dup1\n      dup1\n      0x01\n      add\n      swap2\n      pop\n      pop\n        /* \"contracts/1_registerUser_flit.sol\":669:925  for(uint i = 0; i < incrementIdClient; i++) {... */\n      jump(tag_15)\n    tag_16:\n        /* \"contracts/1_registerUser_flit.sol\":934:942  revert() */\n      0x00\n      dup1\n      revert\n        /* \"contracts/1_registerUser_flit.sol\":565:949  function GetClient(string memory _username) public view returns(uint, address, string memory) {... */\n    tag_14:\n      swap2\n      swap4\n      swap1\n      swap3\n      pop\n      jump\t// out\n        /* \"contracts/1_registerUser_flit.sol\":351:529  function CreateClient(string memory _username) public {... */\n    tag_13:\n        /* \"contracts/1_registerUser_flit.sol\":444:492  Client(incrementIdClient, msg.sender, _username) */\n      mload(0x40)\n      dup1\n      0x60\n      add\n      0x40\n      mstore\n      dup1\n        /* \"contracts/1_registerUser_flit.sol\":451:468  incrementIdClient */\n      0x00\n      dup1\n      sload\n      swap1\n      0x0100\n      exp\n      swap1\n      div\n      0xffffffffffffffffffffffffffffffff\n      and\n        /* \"contracts/1_registerUser_flit.sol\":444:492  Client(incrementIdClient, msg.sender, _username) */\n      0xffffffffffffffffffffffffffffffff\n      and\n      dup2\n      mstore\n      0x20\n      add\n        /* \"contracts/1_registerUser_flit.sol\":470:480  msg.sender */\n      caller\n        /* \"contracts/1_registerUser_flit.sol\":444:492  Client(incrementIdClient, msg.sender, _username) */\n      0xffffffffffffffffffffffffffffffffffffffff\n      and\n      dup2\n      mstore\n      0x20\n      add\n        /* \"contracts/1_registerUser_flit.sol\":482:491  _username */\n      dup3\n        /* \"contracts/1_registerUser_flit.sol\":444:492  Client(incrementIdClient, msg.sender, _username) */\n      dup2\n      mstore\n      pop\n        /* \"contracts/1_registerUser_flit.sol\":415:422  clients */\n      0x01\n        /* \"contracts/1_registerUser_flit.sol\":415:441  clients[incrementIdClient] */\n      0x00\n        /* \"contracts/1_registerUser_flit.sol\":423:440  incrementIdClient */\n      dup1\n      0x00\n      swap1\n      sload\n      swap1\n      0x0100\n      exp\n      swap1\n      div\n      0xffffffffffffffffffffffffffffffff\n      and\n        /* \"contracts/1_registerUser_flit.sol\":415:441  clients[incrementIdClient] */\n      0xffffffffffffffffffffffffffffffff\n      and\n      dup2\n      mstore\n      0x20\n      add\n      swap1\n      dup2\n      mstore\n      0x20\n      add\n      0x00\n      keccak256\n        /* \"contracts/1_registerUser_flit.sol\":415:492  clients[incrementIdClient] = Client(incrementIdClient, msg.sender, _username) */\n      0x00\n      dup3\n      add\n      mload\n      dup2\n      0x00\n      add\n      sstore\n      0x20\n      dup3\n      add\n      mload\n      dup2\n      0x01\n      add\n      exp(0x0100, 0x00)\n      dup2\n      sload\n      dup2\n      0xffffffffffffffffffffffffffffffffffffffff\n      mul\n      not\n      and\n      swap1\n      dup4\n      0xffffffffffffffffffffffffffffffffffffffff\n      and\n      mul\n      or\n      swap1\n      sstore\n      pop\n      0x40\n      dup3\n      add\n      mload\n      dup2\n      0x02\n      add\n      swap1\n      dup2\n      tag_30\n      swap2\n      swap1\n      tag_31\n      jump\t// in\n    tag_30:\n      pop\n      swap1\n      pop\n      pop\n        /* \"contracts/1_registerUser_flit.sol\":502:519  incrementIdClient */\n      0x00\n      dup1\n        /* \"contracts/1_registerUser_flit.sol\":502:522  incrementIdClient ++ */\n      dup2\n      dup2\n      swap1\n      sload\n      swap1\n      0x0100\n      exp\n      swap1\n      div\n      0xffffffffffffffffffffffffffffffff\n      and\n      dup1\n      swap3\n      swap2\n      swap1\n      tag_32\n      swap1\n      tag_33\n      jump\t// in\n    tag_32:\n      swap2\n      swap1\n      0x0100\n      exp\n      dup2\n      sload\n      dup2\n      0xffffffffffffffffffffffffffffffff\n      mul\n      not\n      and\n      swap1\n      dup4\n      0xffffffffffffffffffffffffffffffff\n      and\n      mul\n      or\n      swap1\n      sstore\n      pop\n      pop\n        /* \"contracts/1_registerUser_flit.sol\":351:529  function CreateClient(string memory _username) public {... */\n      pop\n      jump\t// out\n        /* \"#utility.yul\":7:82   */\n    tag_34:\n        /* \"#utility.yul\":40:46   */\n      0x00\n        /* \"#utility.yul\":73:75   */\n      0x40\n        /* \"#utility.yul\":67:76   */\n      mload\n        /* \"#utility.yul\":57:76   */\n      swap1\n      pop\n        /* \"#utility.yul\":7:82   */\n      swap1\n      jump\t// out\n        /* \"#utility.yul\":88:205   */\n    tag_35:\n        /* \"#utility.yul\":197:198   */\n      0x00\n        /* \"#utility.yul\":194:195   */\n      dup1\n        /* \"#utility.yul\":187:199   */\n      revert\n        /* \"#utility.yul\":211:328   */\n    tag_36:\n        /* \"#utility.yul\":320:321   */\n      0x00\n        /* \"#utility.yul\":317:318   */\n      dup1\n        /* \"#utility.yul\":310:322   */\n      revert\n        /* \"#utility.yul\":334:451   */\n    tag_37:\n        /* \"#utility.yul\":443:444   */\n      0x00\n        /* \"#utility.yul\":440:441   */\n      dup1\n        /* \"#utility.yul\":433:445   */\n      revert\n        /* \"#utility.yul\":457:574   */\n    tag_38:\n        /* \"#utility.yul\":566:567   */\n      0x00\n        /* \"#utility.yul\":563:564   */\n      dup1\n        /* \"#utility.yul\":556:568   */\n      revert\n        /* \"#utility.yul\":580:682   */\n    tag_39:\n        /* \"#utility.yul\":621:627   */\n      0x00\n        /* \"#utility.yul\":672:674   */\n      0x1f\n        /* \"#utility.yul\":668:675   */\n      not\n        /* \"#utility.yul\":663:665   */\n      0x1f\n        /* \"#utility.yul\":656:661   */\n      dup4\n        /* \"#utility.yul\":652:666   */\n      add\n        /* \"#utility.yul\":648:676   */\n      and\n        /* \"#utility.yul\":638:676   */\n      swap1\n      pop\n        /* \"#utility.yul\":580:682   */\n      swap2\n      swap1\n      pop\n      jump\t// out\n        /* \"#utility.yul\":688:868   */\n    tag_40:\n        /* \"#utility.yul\":736:813   */\n      0x4e487b7100000000000000000000000000000000000000000000000000000000\n        /* \"#utility.yul\":733:734   */\n      0x00\n        /* \"#utility.yul\":726:814   */\n      mstore\n        /* \"#utility.yul\":833:837   */\n      0x41\n        /* \"#utility.yul\":830:831   */\n      0x04\n        /* \"#utility.yul\":823:838   */\n      mstore\n        /* \"#utility.yul\":857:861   */\n      0x24\n        /* \"#utility.yul\":854:855   */\n      0x00\n        /* \"#utility.yul\":847:862   */\n      revert\n        /* \"#utility.yul\":874:1155   */\n    tag_41:\n        /* \"#utility.yul\":957:984   */\n      tag_86\n        /* \"#utility.yul\":979:983   */\n      dup3\n        /* \"#utility.yul\":957:984   */\n      tag_39\n      jump\t// in\n    tag_86:\n        /* \"#utility.yul\":949:955   */\n      dup2\n        /* \"#utility.yul\":945:985   */\n      add\n        /* \"#utility.yul\":1087:1093   */\n      dup2\n        /* \"#utility.yul\":1075:1085   */\n      dup2\n        /* \"#utility.yul\":1072:1094   */\n      lt\n        /* \"#utility.yul\":1051:1069   */\n      0xffffffffffffffff\n        /* \"#utility.yul\":1039:1049   */\n      dup3\n        /* \"#utility.yul\":1036:1070   */\n      gt\n        /* \"#utility.yul\":1033:1095   */\n      or\n        /* \"#utility.yul\":1030:1118   */\n      iszero\n      tag_87\n      jumpi\n        /* \"#utility.yul\":1098:1116   */\n      tag_88\n      tag_40\n      jump\t// in\n    tag_88:\n        /* \"#utility.yul\":1030:1118   */\n    tag_87:\n        /* \"#utility.yul\":1138:1148   */\n      dup1\n        /* \"#utility.yul\":1134:1136   */\n      0x40\n        /* \"#utility.yul\":1127:1149   */\n      mstore\n        /* \"#utility.yul\":917:1155   */\n      pop\n        /* \"#utility.yul\":874:1155   */\n      pop\n      pop\n      jump\t// out\n        /* \"#utility.yul\":1161:1290   */\n    tag_42:\n        /* \"#utility.yul\":1195:1201   */\n      0x00\n        /* \"#utility.yul\":1222:1242   */\n      tag_90\n      tag_34\n      jump\t// in\n    tag_90:\n        /* \"#utility.yul\":1212:1242   */\n      swap1\n      pop\n        /* \"#utility.yul\":1251:1284   */\n      tag_91\n        /* \"#utility.yul\":1279:1283   */\n      dup3\n        /* \"#utility.yul\":1271:1277   */\n      dup3\n        /* \"#utility.yul\":1251:1284   */\n      tag_41\n      jump\t// in\n    tag_91:\n        /* \"#utility.yul\":1161:1290   */\n      swap2\n      swap1\n      pop\n      jump\t// out\n        /* \"#utility.yul\":1296:1604   */\n    tag_43:\n        /* \"#utility.yul\":1358:1362   */\n      0x00\n        /* \"#utility.yul\":1448:1466   */\n      0xffffffffffffffff\n        /* \"#utility.yul\":1440:1446   */\n      dup3\n        /* \"#utility.yul\":1437:1467   */\n      gt\n        /* \"#utility.yul\":1434:1490   */\n      iszero\n      tag_93\n      jumpi\n        /* \"#utility.yul\":1470:1488   */\n      tag_94\n      tag_40\n      jump\t// in\n    tag_94:\n        /* \"#utility.yul\":1434:1490   */\n    tag_93:\n        /* \"#utility.yul\":1508:1537   */\n      tag_95\n        /* \"#utility.yul\":1530:1536   */\n      dup3\n        /* \"#utility.yul\":1508:1537   */\n      tag_39\n      jump\t// in\n    tag_95:\n        /* \"#utility.yul\":1500:1537   */\n      swap1\n      pop\n        /* \"#utility.yul\":1592:1596   */\n      0x20\n        /* \"#utility.yul\":1586:1590   */\n      dup2\n        /* \"#utility.yul\":1582:1597   */\n      add\n        /* \"#utility.yul\":1574:1597   */\n      swap1\n      pop\n        /* \"#utility.yul\":1296:1604   */\n      swap2\n      swap1\n      pop\n      jump\t// out\n        /* \"#utility.yul\":1610:1756   */\n    tag_44:\n        /* \"#utility.yul\":1707:1713   */\n      dup3\n        /* \"#utility.yul\":1702:1705   */\n      dup2\n        /* \"#utility.yul\":1697:1700   */\n      dup4\n        /* \"#utility.yul\":1684:1714   */\n      calldatacopy\n        /* \"#utility.yul\":1748:1749   */\n      0x00\n        /* \"#utility.yul\":1739:1745   */\n      dup4\n        /* \"#utility.yul\":1734:1737   */\n      dup4\n        /* \"#utility.yul\":1730:1746   */\n      add\n        /* \"#utility.yul\":1723:1750   */\n      mstore\n        /* \"#utility.yul\":1610:1756   */\n      pop\n      pop\n      pop\n      jump\t// out\n        /* \"#utility.yul\":1762:2187   */\n    tag_45:\n        /* \"#utility.yul\":1840:1845   */\n      0x00\n        /* \"#utility.yul\":1865:1931   */\n      tag_98\n        /* \"#utility.yul\":1881:1930   */\n      tag_99\n        /* \"#utility.yul\":1923:1929   */\n      dup5\n        /* \"#utility.yul\":1881:1930   */\n      tag_43\n      jump\t// in\n    tag_99:\n        /* \"#utility.yul\":1865:1931   */\n      tag_42\n      jump\t// in\n    tag_98:\n        /* \"#utility.yul\":1856:1931   */\n      swap1\n      pop\n        /* \"#utility.yul\":1954:1960   */\n      dup3\n        /* \"#utility.yul\":1947:1952   */\n      dup2\n        /* \"#utility.yul\":1940:1961   */\n      mstore\n        /* \"#utility.yul\":1992:1996   */\n      0x20\n        /* \"#utility.yul\":1985:1990   */\n      dup2\n        /* \"#utility.yul\":1981:1997   */\n      add\n        /* \"#utility.yul\":2030:2033   */\n      dup5\n        /* \"#utility.yul\":2021:2027   */\n      dup5\n        /* \"#utility.yul\":2016:2019   */\n      dup5\n        /* \"#utility.yul\":2012:2028   */\n      add\n        /* \"#utility.yul\":2009:2034   */\n      gt\n        /* \"#utility.yul\":2006:2118   */\n      iszero\n      tag_100\n      jumpi\n        /* \"#utility.yul\":2037:2116   */\n      tag_101\n      tag_38\n      jump\t// in\n    tag_101:\n        /* \"#utility.yul\":2006:2118   */\n    tag_100:\n        /* \"#utility.yul\":2127:2181   */\n      tag_102\n        /* \"#utility.yul\":2174:2180   */\n      dup5\n        /* \"#utility.yul\":2169:2172   */\n      dup3\n        /* \"#utility.yul\":2164:2167   */\n      dup6\n        /* \"#utility.yul\":2127:2181   */\n      tag_44\n      jump\t// in\n    tag_102:\n        /* \"#utility.yul\":1846:2187   */\n      pop\n        /* \"#utility.yul\":1762:2187   */\n      swap4\n      swap3\n      pop\n      pop\n      pop\n      jump\t// out\n        /* \"#utility.yul\":2207:2547   */\n    tag_46:\n        /* \"#utility.yul\":2263:2268   */\n      0x00\n        /* \"#utility.yul\":2312:2315   */\n      dup3\n        /* \"#utility.yul\":2305:2309   */\n      0x1f\n        /* \"#utility.yul\":2297:2303   */\n      dup4\n        /* \"#utility.yul\":2293:2310   */\n      add\n        /* \"#utility.yul\":2289:2316   */\n      slt\n        /* \"#utility.yul\":2279:2401   */\n      tag_104\n      jumpi\n        /* \"#utility.yul\":2320:2399   */\n      tag_105\n      tag_37\n      jump\t// in\n    tag_105:\n        /* \"#utility.yul\":2279:2401   */\n    tag_104:\n        /* \"#utility.yul\":2437:2443   */\n      dup2\n        /* \"#utility.yul\":2424:2444   */\n      calldataload\n        /* \"#utility.yul\":2462:2541   */\n      tag_106\n        /* \"#utility.yul\":2537:2540   */\n      dup5\n        /* \"#utility.yul\":2529:2535   */\n      dup3\n        /* \"#utility.yul\":2522:2526   */\n      0x20\n        /* \"#utility.yul\":2514:2520   */\n      dup7\n        /* \"#utility.yul\":2510:2527   */\n      add\n        /* \"#utility.yul\":2462:2541   */\n      tag_45\n      jump\t// in\n    tag_106:\n        /* \"#utility.yul\":2453:2541   */\n      swap2\n      pop\n        /* \"#utility.yul\":2269:2547   */\n      pop\n        /* \"#utility.yul\":2207:2547   */\n      swap3\n      swap2\n      pop\n      pop\n      jump\t// out\n        /* \"#utility.yul\":2553:3062   */\n    tag_7:\n        /* \"#utility.yul\":2622:2628   */\n      0x00\n        /* \"#utility.yul\":2671:2673   */\n      0x20\n        /* \"#utility.yul\":2659:2668   */\n      dup3\n        /* \"#utility.yul\":2650:2657   */\n      dup5\n        /* \"#utility.yul\":2646:2669   */\n      sub\n        /* \"#utility.yul\":2642:2674   */\n      slt\n        /* \"#utility.yul\":2639:2758   */\n      iszero\n      tag_108\n      jumpi\n        /* \"#utility.yul\":2677:2756   */\n      tag_109\n      tag_35\n      jump\t// in\n    tag_109:\n        /* \"#utility.yul\":2639:2758   */\n    tag_108:\n        /* \"#utility.yul\":2825:2826   */\n      0x00\n        /* \"#utility.yul\":2814:2823   */\n      dup3\n        /* \"#utility.yul\":2810:2827   */\n      add\n        /* \"#utility.yul\":2797:2828   */\n      calldataload\n        /* \"#utility.yul\":2855:2873   */\n      0xffffffffffffffff\n        /* \"#utility.yul\":2847:2853   */\n      dup2\n        /* \"#utility.yul\":2844:2874   */\n      gt\n        /* \"#utility.yul\":2841:2958   */\n      iszero\n      tag_110\n      jumpi\n        /* \"#utility.yul\":2877:2956   */\n      tag_111\n      tag_36\n      jump\t// in\n    tag_111:\n        /* \"#utility.yul\":2841:2958   */\n    tag_110:\n        /* \"#utility.yul\":2982:3045   */\n      tag_112\n        /* \"#utility.yul\":3037:3044   */\n      dup5\n        /* \"#utility.yul\":3028:3034   */\n      dup3\n        /* \"#utility.yul\":3017:3026   */\n      dup6\n        /* \"#utility.yul\":3013:3035   */\n      add\n        /* \"#utility.yul\":2982:3045   */\n      tag_46\n      jump\t// in\n    tag_112:\n        /* \"#utility.yul\":2972:3045   */\n      swap2\n      pop\n        /* \"#utility.yul\":2768:3055   */\n      pop\n        /* \"#utility.yul\":2553:3062   */\n      swap3\n      swap2\n      pop\n      pop\n      jump\t// out\n        /* \"#utility.yul\":3068:3145   */\n    tag_47:\n        /* \"#utility.yul\":3105:3112   */\n      0x00\n        /* \"#utility.yul\":3134:3139   */\n      dup2\n        /* \"#utility.yul\":3123:3139   */\n      swap1\n      pop\n        /* \"#utility.yul\":3068:3145   */\n      swap2\n      swap1\n      pop\n      jump\t// out\n        /* \"#utility.yul\":3151:3269   */\n    tag_48:\n        /* \"#utility.yul\":3238:3262   */\n      tag_115\n        /* \"#utility.yul\":3256:3261   */\n      dup2\n        /* \"#utility.yul\":3238:3262   */\n      tag_47\n      jump\t// in\n    tag_115:\n        /* \"#utility.yul\":3233:3236   */\n      dup3\n        /* \"#utility.yul\":3226:3263   */\n      mstore\n        /* \"#utility.yul\":3151:3269   */\n      pop\n      pop\n      jump\t// out\n        /* \"#utility.yul\":3275:3401   */\n    tag_49:\n        /* \"#utility.yul\":3312:3319   */\n      0x00\n        /* \"#utility.yul\":3352:3394   */\n      0xffffffffffffffffffffffffffffffffffffffff\n        /* \"#utility.yul\":3345:3350   */\n      dup3\n        /* \"#utility.yul\":3341:3395   */\n      and\n        /* \"#utility.yul\":3330:3395   */\n      swap1\n      pop\n        /* \"#utility.yul\":3275:3401   */\n      swap2\n      swap1\n      pop\n      jump\t// out\n        /* \"#utility.yul\":3407:3503   */\n    tag_50:\n        /* \"#utility.yul\":3444:3451   */\n      0x00\n        /* \"#utility.yul\":3473:3497   */\n      tag_118\n        /* \"#utility.yul\":3491:3496   */\n      dup3\n        /* \"#utility.yul\":3473:3497   */\n      tag_49\n      jump\t// in\n    tag_118:\n        /* \"#utility.yul\":3462:3497   */\n      swap1\n      pop\n        /* \"#utility.yul\":3407:3503   */\n      swap2\n      swap1\n      pop\n      jump\t// out\n        /* \"#utility.yul\":3509:3627   */\n    tag_51:\n        /* \"#utility.yul\":3596:3620   */\n      tag_120\n        /* \"#utility.yul\":3614:3619   */\n      dup2\n        /* \"#utility.yul\":3596:3620   */\n      tag_50\n      jump\t// in\n    tag_120:\n        /* \"#utility.yul\":3591:3594   */\n      dup3\n        /* \"#utility.yul\":3584:3621   */\n      mstore\n        /* \"#utility.yul\":3509:3627   */\n      pop\n      pop\n      jump\t// out\n        /* \"#utility.yul\":3633:3732   */\n    tag_52:\n        /* \"#utility.yul\":3685:3691   */\n      0x00\n        /* \"#utility.yul\":3719:3724   */\n      dup2\n        /* \"#utility.yul\":3713:3725   */\n      mload\n        /* \"#utility.yul\":3703:3725   */\n      swap1\n      pop\n        /* \"#utility.yul\":3633:3732   */\n      swap2\n      swap1\n      pop\n      jump\t// out\n        /* \"#utility.yul\":3738:3907   */\n    tag_53:\n        /* \"#utility.yul\":3822:3833   */\n      0x00\n        /* \"#utility.yul\":3856:3862   */\n      dup3\n        /* \"#utility.yul\":3851:3854   */\n      dup3\n        /* \"#utility.yul\":3844:3863   */\n      mstore\n        /* \"#utility.yul\":3896:3900   */\n      0x20\n        /* \"#utility.yul\":3891:3894   */\n      dup3\n        /* \"#utility.yul\":3887:3901   */\n      add\n        /* \"#utility.yul\":3872:3901   */\n      swap1\n      pop\n        /* \"#utility.yul\":3738:3907   */\n      swap3\n      swap2\n      pop\n      pop\n      jump\t// out\n        /* \"#utility.yul\":3913:4159   */\n    tag_54:\n        /* \"#utility.yul\":3994:3995   */\n      0x00\n        /* \"#utility.yul\":4004:4117   */\n    tag_124:\n        /* \"#utility.yul\":4018:4024   */\n      dup4\n        /* \"#utility.yul\":4015:4016   */\n      dup2\n        /* \"#utility.yul\":4012:4025   */\n      lt\n        /* \"#utility.yul\":4004:4117   */\n      iszero\n      tag_126\n      jumpi\n        /* \"#utility.yul\":4103:4104   */\n      dup1\n        /* \"#utility.yul\":4098:4101   */\n      dup3\n        /* \"#utility.yul\":4094:4105   */\n      add\n        /* \"#utility.yul\":4088:4106   */\n      mload\n        /* \"#utility.yul\":4084:4085   */\n      dup2\n        /* \"#utility.yul\":4079:4082   */\n      dup5\n        /* \"#utility.yul\":4075:4086   */\n      add\n        /* \"#utility.yul\":4068:4107   */\n      mstore\n        /* \"#utility.yul\":4040:4042   */\n      0x20\n        /* \"#utility.yul\":4037:4038   */\n      dup2\n        /* \"#utility.yul\":4033:4043   */\n      add\n        /* \"#utility.yul\":4028:4043   */\n      swap1\n      pop\n        /* \"#utility.yul\":4004:4117   */\n      jump(tag_124)\n    tag_126:\n        /* \"#utility.yul\":4151:4152   */\n      0x00\n        /* \"#utility.yul\":4142:4148   */\n      dup5\n        /* \"#utility.yul\":4137:4140   */\n      dup5\n        /* \"#utility.yul\":4133:4149   */\n      add\n        /* \"#utility.yul\":4126:4153   */\n      mstore\n        /* \"#utility.yul\":3975:4159   */\n      pop\n        /* \"#utility.yul\":3913:4159   */\n      pop\n      pop\n      pop\n      jump\t// out\n        /* \"#utility.yul\":4165:4542   */\n    tag_55:\n        /* \"#utility.yul\":4253:4256   */\n      0x00\n        /* \"#utility.yul\":4281:4320   */\n      tag_128\n        /* \"#utility.yul\":4314:4319   */\n      dup3\n        /* \"#utility.yul\":4281:4320   */\n      tag_52\n      jump\t// in\n    tag_128:\n        /* \"#utility.yul\":4336:4407   */\n      tag_129\n        /* \"#utility.yul\":4400:4406   */\n      dup2\n        /* \"#utility.yul\":4395:4398   */\n      dup6\n        /* \"#utility.yul\":4336:4407   */\n      tag_53\n      jump\t// in\n    tag_129:\n        /* \"#utility.yul\":4329:4407   */\n      swap4\n      pop\n        /* \"#utility.yul\":4416:4481   */\n      tag_130\n        /* \"#utility.yul\":4474:4480   */\n      dup2\n        /* \"#utility.yul\":4469:4472   */\n      dup6\n        /* \"#utility.yul\":4462:4466   */\n      0x20\n        /* \"#utility.yul\":4455:4460   */\n      dup7\n        /* \"#utility.yul\":4451:4467   */\n      add\n        /* \"#utility.yul\":4416:4481   */\n      tag_54\n      jump\t// in\n    tag_130:\n        /* \"#utility.yul\":4506:4535   */\n      tag_131\n        /* \"#utility.yul\":4528:4534   */\n      dup2\n        /* \"#utility.yul\":4506:4535   */\n      tag_39\n      jump\t// in\n    tag_131:\n        /* \"#utility.yul\":4501:4504   */\n      dup5\n        /* \"#utility.yul\":4497:4536   */\n      add\n        /* \"#utility.yul\":4490:4536   */\n      swap2\n      pop\n        /* \"#utility.yul\":4257:4542   */\n      pop\n        /* \"#utility.yul\":4165:4542   */\n      swap3\n      swap2\n      pop\n      pop\n      jump\t// out\n        /* \"#utility.yul\":4548:5081   */\n    tag_10:\n        /* \"#utility.yul\":4717:4721   */\n      0x00\n        /* \"#utility.yul\":4755:4757   */\n      0x60\n        /* \"#utility.yul\":4744:4753   */\n      dup3\n        /* \"#utility.yul\":4740:4758   */\n      add\n        /* \"#utility.yul\":4732:4758   */\n      swap1\n      pop\n        /* \"#utility.yul\":4768:4839   */\n      tag_133\n        /* \"#utility.yul\":4836:4837   */\n      0x00\n        /* \"#utility.yul\":4825:4834   */\n      dup4\n        /* \"#utility.yul\":4821:4838   */\n      add\n        /* \"#utility.yul\":4812:4818   */\n      dup7\n        /* \"#utility.yul\":4768:4839   */\n      tag_48\n      jump\t// in\n    tag_133:\n        /* \"#utility.yul\":4849:4921   */\n      tag_134\n        /* \"#utility.yul\":4917:4919   */\n      0x20\n        /* \"#utility.yul\":4906:4915   */\n      dup4\n        /* \"#utility.yul\":4902:4920   */\n      add\n        /* \"#utility.yul\":4893:4899   */\n      dup6\n        /* \"#utility.yul\":4849:4921   */\n      tag_51\n      jump\t// in\n    tag_134:\n        /* \"#utility.yul\":4968:4977   */\n      dup2\n        /* \"#utility.yul\":4962:4966   */\n      dup2\n        /* \"#utility.yul\":4958:4978   */\n      sub\n        /* \"#utility.yul\":4953:4955   */\n      0x40\n        /* \"#utility.yul\":4942:4951   */\n      dup4\n        /* \"#utility.yul\":4938:4956   */\n      add\n        /* \"#utility.yul\":4931:4979   */\n      mstore\n        /* \"#utility.yul\":4996:5074   */\n      tag_135\n        /* \"#utility.yul\":5069:5073   */\n      dup2\n        /* \"#utility.yul\":5060:5066   */\n      dup5\n        /* \"#utility.yul\":4996:5074   */\n      tag_55\n      jump\t// in\n    tag_135:\n        /* \"#utility.yul\":4988:5074   */\n      swap1\n      pop\n        /* \"#utility.yul\":4548:5081   */\n      swap5\n      swap4\n      pop\n      pop\n      pop\n      pop\n      jump\t// out\n        /* \"#utility.yul\":5087:5235   */\n    tag_56:\n        /* \"#utility.yul\":5189:5200   */\n      0x00\n        /* \"#utility.yul\":5226:5229   */\n      dup2\n        /* \"#utility.yul\":5211:5229   */\n      swap1\n      pop\n        /* \"#utility.yul\":5087:5235   */\n      swap3\n      swap2\n      pop\n      pop\n      jump\t// out\n        /* \"#utility.yul\":5241:5631   */\n    tag_57:\n        /* \"#utility.yul\":5347:5350   */\n      0x00\n        /* \"#utility.yul\":5375:5414   */\n      tag_138\n        /* \"#utility.yul\":5408:5413   */\n      dup3\n        /* \"#utility.yul\":5375:5414   */\n      tag_52\n      jump\t// in\n    tag_138:\n        /* \"#utility.yul\":5430:5519   */\n      tag_139\n        /* \"#utility.yul\":5512:5518   */\n      dup2\n        /* \"#utility.yul\":5507:5510   */\n      dup6\n        /* \"#utility.yul\":5430:5519   */\n      tag_56\n      jump\t// in\n    tag_139:\n        /* \"#utility.yul\":5423:5519   */\n      swap4\n      pop\n        /* \"#utility.yul\":5528:5593   */\n      tag_140\n        /* \"#utility.yul\":5586:5592   */\n      dup2\n        /* \"#utility.yul\":5581:5584   */\n      dup6\n        /* \"#utility.yul\":5574:5578   */\n      0x20\n        /* \"#utility.yul\":5567:5572   */\n      dup7\n        /* \"#utility.yul\":5563:5579   */\n      add\n        /* \"#utility.yul\":5528:5593   */\n      tag_54\n      jump\t// in\n    tag_140:\n        /* \"#utility.yul\":5618:5624   */\n      dup1\n        /* \"#utility.yul\":5613:5616   */\n      dup5\n        /* \"#utility.yul\":5609:5625   */\n      add\n        /* \"#utility.yul\":5602:5625   */\n      swap2\n      pop\n        /* \"#utility.yul\":5351:5631   */\n      pop\n        /* \"#utility.yul\":5241:5631   */\n      swap3\n      swap2\n      pop\n      pop\n      jump\t// out\n        /* \"#utility.yul\":5637:5912   */\n    tag_19:\n        /* \"#utility.yul\":5769:5772   */\n      0x00\n        /* \"#utility.yul\":5791:5886   */\n      tag_142\n        /* \"#utility.yul\":5882:5885   */\n      dup3\n        /* \"#utility.yul\":5873:5879   */\n      dup5\n        /* \"#utility.yul\":5791:5886   */\n      tag_57\n      jump\t// in\n    tag_142:\n        /* \"#utility.yul\":5784:5886   */\n      swap2\n      pop\n        /* \"#utility.yul\":5903:5906   */\n      dup2\n        /* \"#utility.yul\":5896:5906   */\n      swap1\n      pop\n        /* \"#utility.yul\":5637:5912   */\n      swap3\n      swap2\n      pop\n      pop\n      jump\t// out\n        /* \"#utility.yul\":5918:6098   */\n    tag_58:\n        /* \"#utility.yul\":5966:6043   */\n      0x4e487b7100000000000000000000000000000000000000000000000000000000\n        /* \"#utility.yul\":5963:5964   */\n      0x00\n        /* \"#utility.yul\":5956:6044   */\n      mstore\n        /* \"#utility.yul\":6063:6067   */\n      0x22\n        /* \"#utility.yul\":6060:6061   */\n      0x04\n        /* \"#utility.yul\":6053:6068   */\n      mstore\n        /* \"#utility.yul\":6087:6091   */\n      0x24\n        /* \"#utility.yul\":6084:6085   */\n      0x00\n        /* \"#utility.yul\":6077:6092   */\n      revert\n        /* \"#utility.yul\":6104:6424   */\n    tag_24:\n        /* \"#utility.yul\":6148:6154   */\n      0x00\n        /* \"#utility.yul\":6185:6186   */\n      0x02\n        /* \"#utility.yul\":6179:6183   */\n      dup3\n        /* \"#utility.yul\":6175:6187   */\n      div\n        /* \"#utility.yul\":6165:6187   */\n      swap1\n      pop\n        /* \"#utility.yul\":6232:6233   */\n      0x01\n        /* \"#utility.yul\":6226:6230   */\n      dup3\n        /* \"#utility.yul\":6222:6234   */\n      and\n        /* \"#utility.yul\":6253:6271   */\n      dup1\n        /* \"#utility.yul\":6243:6324   */\n      tag_145\n      jumpi\n        /* \"#utility.yul\":6309:6313   */\n      0x7f\n        /* \"#utility.yul\":6301:6307   */\n      dup3\n        /* \"#utility.yul\":6297:6314   */\n      and\n        /* \"#utility.yul\":6287:6314   */\n      swap2\n      pop\n        /* \"#utility.yul\":6243:6324   */\n    tag_145:\n        /* \"#utility.yul\":6371:6373   */\n      0x20\n        /* \"#utility.yul\":6363:6369   */\n      dup3\n        /* \"#utility.yul\":6360:6374   */\n      lt\n        /* \"#utility.yul\":6340:6358   */\n      dup2\n        /* \"#utility.yul\":6337:6375   */\n      sub\n        /* \"#utility.yul\":6334:6418   */\n      tag_146\n      jumpi\n        /* \"#utility.yul\":6390:6408   */\n      tag_147\n      tag_58\n      jump\t// in\n    tag_147:\n        /* \"#utility.yul\":6334:6418   */\n    tag_146:\n        /* \"#utility.yul\":6155:6424   */\n      pop\n        /* \"#utility.yul\":6104:6424   */\n      swap2\n      swap1\n      pop\n      jump\t// out\n        /* \"#utility.yul\":6430:6571   */\n    tag_59:\n        /* \"#utility.yul\":6479:6483   */\n      0x00\n        /* \"#utility.yul\":6502:6505   */\n      dup2\n        /* \"#utility.yul\":6494:6505   */\n      swap1\n      pop\n        /* \"#utility.yul\":6525:6528   */\n      dup2\n        /* \"#utility.yul\":6522:6523   */\n      0x00\n        /* \"#utility.yul\":6515:6529   */\n      mstore\n        /* \"#utility.yul\":6559:6563   */\n      0x20\n        /* \"#utility.yul\":6556:6557   */\n      0x00\n        /* \"#utility.yul\":6546:6564   */\n      keccak256\n        /* \"#utility.yul\":6538:6564   */\n      swap1\n      pop\n        /* \"#utility.yul\":6430:6571   */\n      swap2\n      swap1\n      pop\n      jump\t// out\n        /* \"#utility.yul\":6601:7475   */\n    tag_60:\n        /* \"#utility.yul\":6704:6707   */\n      0x00\n        /* \"#utility.yul\":6741:6746   */\n      dup2\n        /* \"#utility.yul\":6735:6747   */\n      sload\n        /* \"#utility.yul\":6770:6806   */\n      tag_150\n        /* \"#utility.yul\":6796:6805   */\n      dup2\n        /* \"#utility.yul\":6770:6806   */\n      tag_24\n      jump\t// in\n    tag_150:\n        /* \"#utility.yul\":6822:6911   */\n      tag_151\n        /* \"#utility.yul\":6904:6910   */\n      dup2\n        /* \"#utility.yul\":6899:6902   */\n      dup7\n        /* \"#utility.yul\":6822:6911   */\n      tag_56\n      jump\t// in\n    tag_151:\n        /* \"#utility.yul\":6815:6911   */\n      swap5\n      pop\n        /* \"#utility.yul\":6942:6943   */\n      0x01\n        /* \"#utility.yul\":6931:6940   */\n      dup3\n        /* \"#utility.yul\":6927:6944   */\n      and\n        /* \"#utility.yul\":6958:6959   */\n      0x00\n        /* \"#utility.yul\":6953:7119   */\n      dup2\n      eq\n      tag_153\n      jumpi\n        /* \"#utility.yul\":7133:7134   */\n      0x01\n        /* \"#utility.yul\":7128:7469   */\n      dup2\n      eq\n      tag_154\n      jumpi\n        /* \"#utility.yul\":6920:7469   */\n      jump(tag_152)\n        /* \"#utility.yul\":6953:7119   */\n    tag_153:\n        /* \"#utility.yul\":7037:7041   */\n      0xff\n        /* \"#utility.yul\":7033:7042   */\n      not\n        /* \"#utility.yul\":7022:7031   */\n      dup4\n        /* \"#utility.yul\":7018:7043   */\n      and\n        /* \"#utility.yul\":7013:7016   */\n      dup7\n        /* \"#utility.yul\":7006:7044   */\n      mstore\n        /* \"#utility.yul\":7099:7105   */\n      dup2\n        /* \"#utility.yul\":7092:7106   */\n      iszero\n        /* \"#utility.yul\":7085:7107   */\n      iszero\n        /* \"#utility.yul\":7077:7083   */\n      dup3\n        /* \"#utility.yul\":7073:7108   */\n      mul\n        /* \"#utility.yul\":7068:7071   */\n      dup7\n        /* \"#utility.yul\":7064:7109   */\n      add\n        /* \"#utility.yul\":7057:7109   */\n      swap4\n      pop\n        /* \"#utility.yul\":6953:7119   */\n      jump(tag_152)\n        /* \"#utility.yul\":7128:7469   */\n    tag_154:\n        /* \"#utility.yul\":7195:7233   */\n      tag_155\n        /* \"#utility.yul\":7227:7232   */\n      dup6\n        /* \"#utility.yul\":7195:7233   */\n      tag_59\n      jump\t// in\n    tag_155:\n        /* \"#utility.yul\":7255:7256   */\n      0x00\n        /* \"#utility.yul\":7269:7423   */\n    tag_156:\n        /* \"#utility.yul\":7283:7289   */\n      dup4\n        /* \"#utility.yul\":7280:7281   */\n      dup2\n        /* \"#utility.yul\":7277:7290   */\n      lt\n        /* \"#utility.yul\":7269:7423   */\n      iszero\n      tag_158\n      jumpi\n        /* \"#utility.yul\":7357:7364   */\n      dup2\n        /* \"#utility.yul\":7351:7365   */\n      sload\n        /* \"#utility.yul\":7347:7348   */\n      dup2\n        /* \"#utility.yul\":7342:7345   */\n      dup10\n        /* \"#utility.yul\":7338:7349   */\n      add\n        /* \"#utility.yul\":7331:7366   */\n      mstore\n        /* \"#utility.yul\":7407:7408   */\n      0x01\n        /* \"#utility.yul\":7398:7405   */\n      dup3\n        /* \"#utility.yul\":7394:7409   */\n      add\n        /* \"#utility.yul\":7383:7409   */\n      swap2\n      pop\n        /* \"#utility.yul\":7305:7309   */\n      0x20\n        /* \"#utility.yul\":7302:7303   */\n      dup2\n        /* \"#utility.yul\":7298:7310   */\n      add\n        /* \"#utility.yul\":7293:7310   */\n      swap1\n      pop\n        /* \"#utility.yul\":7269:7423   */\n      jump(tag_156)\n    tag_158:\n        /* \"#utility.yul\":7452:7458   */\n      dup4\n        /* \"#utility.yul\":7447:7450   */\n      dup9\n        /* \"#utility.yul\":7443:7459   */\n      add\n        /* \"#utility.yul\":7436:7459   */\n      swap6\n      pop\n        /* \"#utility.yul\":7135:7469   */\n      pop\n      pop\n        /* \"#utility.yul\":6920:7469   */\n    tag_152:\n      pop\n        /* \"#utility.yul\":6708:7475   */\n      pop\n      pop\n        /* \"#utility.yul\":6601:7475   */\n      swap3\n      swap2\n      pop\n      pop\n      jump\t// out\n        /* \"#utility.yul\":7481:7750   */\n    tag_21:\n        /* \"#utility.yul\":7610:7613   */\n      0x00\n        /* \"#utility.yul\":7632:7724   */\n      tag_160\n        /* \"#utility.yul\":7720:7723   */\n      dup3\n        /* \"#utility.yul\":7711:7717   */\n      dup5\n        /* \"#utility.yul\":7632:7724   */\n      tag_60\n      jump\t// in\n    tag_160:\n        /* \"#utility.yul\":7625:7724   */\n      swap2\n      pop\n        /* \"#utility.yul\":7741:7744   */\n      dup2\n        /* \"#utility.yul\":7734:7744   */\n      swap1\n      pop\n        /* \"#utility.yul\":7481:7750   */\n      swap3\n      swap2\n      pop\n      pop\n      jump\t// out\n        /* \"#utility.yul\":7756:7849   */\n    tag_61:\n        /* \"#utility.yul\":7793:7799   */\n      0x00\n        /* \"#utility.yul\":7840:7842   */\n      0x20\n        /* \"#utility.yul\":7835:7837   */\n      0x1f\n        /* \"#utility.yul\":7828:7833   */\n      dup4\n        /* \"#utility.yul\":7824:7838   */\n      add\n        /* \"#utility.yul\":7820:7843   */\n      div\n        /* \"#utility.yul\":7810:7843   */\n      swap1\n      pop\n        /* \"#utility.yul\":7756:7849   */\n      swap2\n      swap1\n      pop\n      jump\t// out\n        /* \"#utility.yul\":7855:7962   */\n    tag_62:\n        /* \"#utility.yul\":7899:7907   */\n      0x00\n        /* \"#utility.yul\":7949:7954   */\n      dup3\n        /* \"#utility.yul\":7943:7947   */\n      dup3\n        /* \"#utility.yul\":7939:7955   */\n      shl\n        /* \"#utility.yul\":7918:7955   */\n      swap1\n      pop\n        /* \"#utility.yul\":7855:7962   */\n      swap3\n      swap2\n      pop\n      pop\n      jump\t// out\n        /* \"#utility.yul\":7968:8361   */\n    tag_63:\n        /* \"#utility.yul\":8037:8043   */\n      0x00\n        /* \"#utility.yul\":8087:8088   */\n      0x08\n        /* \"#utility.yul\":8075:8085   */\n      dup4\n        /* \"#utility.yul\":8071:8089   */\n      mul\n        /* \"#utility.yul\":8110:8207   */\n      tag_164\n        /* \"#utility.yul\":8140:8206   */\n      0xffffffffffffffffffffffffffffffffffffffffffffffffffffffffffffffff\n        /* \"#utility.yul\":8129:8138   */\n      dup3\n        /* \"#utility.yul\":8110:8207   */\n      tag_62\n      jump\t// in\n    tag_164:\n        /* \"#utility.yul\":8228:8267   */\n      tag_165\n        /* \"#utility.yul\":8258:8266   */\n      dup7\n        /* \"#utility.yul\":8247:8256   */\n      dup4\n        /* \"#utility.yul\":8228:8267   */\n      tag_62\n      jump\t// in\n    tag_165:\n        /* \"#utility.yul\":8216:8267   */\n      swap6\n      pop\n        /* \"#utility.yul\":8300:8304   */\n      dup1\n        /* \"#utility.yul\":8296:8305   */\n      not\n        /* \"#utility.yul\":8289:8294   */\n      dup5\n        /* \"#utility.yul\":8285:8306   */\n      and\n        /* \"#utility.yul\":8276:8306   */\n      swap4\n      pop\n        /* \"#utility.yul\":8349:8353   */\n      dup1\n        /* \"#utility.yul\":8339:8347   */\n      dup7\n        /* \"#utility.yul\":8335:8354   */\n      and\n        /* \"#utility.yul\":8328:8333   */\n      dup5\n        /* \"#utility.yul\":8325:8355   */\n      or\n        /* \"#utility.yul\":8315:8355   */\n      swap3\n      pop\n        /* \"#utility.yul\":8044:8361   */\n      pop\n      pop\n        /* \"#utility.yul\":7968:8361   */\n      swap4\n      swap3\n      pop\n      pop\n      pop\n      jump\t// out\n        /* \"#utility.yul\":8367:8427   */\n    tag_64:\n        /* \"#utility.yul\":8395:8398   */\n      0x00\n        /* \"#utility.yul\":8416:8421   */\n      dup2\n        /* \"#utility.yul\":8409:8421   */\n      swap1\n      pop\n        /* \"#utility.yul\":8367:8427   */\n      swap2\n      swap1\n      pop\n      jump\t// out\n        /* \"#utility.yul\":8433:8575   */\n    tag_65:\n        /* \"#utility.yul\":8483:8492   */\n      0x00\n        /* \"#utility.yul\":8516:8569   */\n      tag_168\n        /* \"#utility.yul\":8534:8568   */\n      tag_169\n        /* \"#utility.yul\":8543:8567   */\n      tag_170\n        /* \"#utility.yul\":8561:8566   */\n      dup5\n        /* \"#utility.yul\":8543:8567   */\n      tag_47\n      jump\t// in\n    tag_170:\n        /* \"#utility.yul\":8534:8568   */\n      tag_64\n      jump\t// in\n    tag_169:\n        /* \"#utility.yul\":8516:8569   */\n      tag_47\n      jump\t// in\n    tag_168:\n        /* \"#utility.yul\":8503:8569   */\n      swap1\n      pop\n        /* \"#utility.yul\":8433:8575   */\n      swap2\n      swap1\n      pop\n      jump\t// out\n        /* \"#utility.yul\":8581:8656   */\n    tag_66:\n        /* \"#utility.yul\":8624:8627   */\n      0x00\n        /* \"#utility.yul\":8645:8650   */\n      dup2\n        /* \"#utility.yul\":8638:8650   */\n      swap1\n      pop\n        /* \"#utility.yul\":8581:8656   */\n      swap2\n      swap1\n      pop\n      jump\t// out\n        /* \"#utility.yul\":8662:8931   */\n    tag_67:\n        /* \"#utility.yul\":8772:8811   */\n      tag_173\n        /* \"#utility.yul\":8803:8810   */\n      dup4\n        /* \"#utility.yul\":8772:8811   */\n      tag_65\n      jump\t// in\n    tag_173:\n        /* \"#utility.yul\":8833:8924   */\n      tag_174\n        /* \"#utility.yul\":8882:8923   */\n      tag_175\n        /* \"#utility.yul\":8906:8922   */\n      dup3\n        /* \"#utility.yul\":8882:8923   */\n      tag_66\n      jump\t// in\n    tag_175:\n        /* \"#utility.yul\":8874:8880   */\n      dup5\n        /* \"#utility.yul\":8867:8871   */\n      dup5\n        /* \"#utility.yul\":8861:8872   */\n      sload\n        /* \"#utility.yul\":8833:8924   */\n      tag_63\n      jump\t// in\n    tag_174:\n        /* \"#utility.yul\":8827:8831   */\n      dup3\n        /* \"#utility.yul\":8820:8925   */\n      sstore\n        /* \"#utility.yul\":8738:8931   */\n      pop\n        /* \"#utility.yul\":8662:8931   */\n      pop\n      pop\n      pop\n      jump\t// out\n        /* \"#utility.yul\":8937:9010   */\n    tag_68:\n        /* \"#utility.yul\":8982:8985   */\n      0x00\n        /* \"#utility.yul\":8937:9010   */\n      swap1\n      jump\t// out\n        /* \"#utility.yul\":9016:9205   */\n    tag_69:\n        /* \"#utility.yul\":9093:9125   */\n      tag_178\n      tag_68\n      jump\t// in\n    tag_178:\n        /* \"#utility.yul\":9134:9199   */\n      tag_179\n        /* \"#utility.yul\":9192:9198   */\n      dup2\n        /* \"#utility.yul\":9184:9190   */\n      dup5\n        /* \"#utility.yul\":9178:9182   */\n      dup5\n        /* \"#utility.yul\":9134:9199   */\n      tag_67\n      jump\t// in\n    tag_179:\n        /* \"#utility.yul\":9069:9205   */\n      pop\n        /* \"#utility.yul\":9016:9205   */\n      pop\n      pop\n      jump\t// out\n        /* \"#utility.yul\":9211:9397   */\n    tag_70:\n        /* \"#utility.yul\":9271:9391   */\n    tag_181:\n        /* \"#utility.yul\":9288:9291   */\n      dup2\n        /* \"#utility.yul\":9281:9286   */\n      dup2\n        /* \"#utility.yul\":9278:9292   */\n      lt\n        /* \"#utility.yul\":9271:9391   */\n      iszero\n      tag_183\n      jumpi\n        /* \"#utility.yul\":9342:9381   */\n      tag_184\n        /* \"#utility.yul\":9379:9380   */\n      0x00\n        /* \"#utility.yul\":9372:9377   */\n      dup3\n        /* \"#utility.yul\":9342:9381   */\n      tag_69\n      jump\t// in\n    tag_184:\n        /* \"#utility.yul\":9315:9316   */\n      0x01\n        /* \"#utility.yul\":9308:9313   */\n      dup2\n        /* \"#utility.yul\":9304:9317   */\n      add\n        /* \"#utility.yul\":9295:9317   */\n      swap1\n      pop\n        /* \"#utility.yul\":9271:9391   */\n      jump(tag_181)\n    tag_183:\n        /* \"#utility.yul\":9211:9397   */\n      pop\n      pop\n      jump\t// out\n        /* \"#utility.yul\":9403:9946   */\n    tag_71:\n        /* \"#utility.yul\":9504:9506   */\n      0x1f\n        /* \"#utility.yul\":9499:9502   */\n      dup3\n        /* \"#utility.yul\":9496:9507   */\n      gt\n        /* \"#utility.yul\":9493:9939   */\n      iszero\n      tag_186\n      jumpi\n        /* \"#utility.yul\":9538:9576   */\n      tag_187\n        /* \"#utility.yul\":9570:9575   */\n      dup2\n        /* \"#utility.yul\":9538:9576   */\n      tag_59\n      jump\t// in\n    tag_187:\n        /* \"#utility.yul\":9622:9651   */\n      tag_188\n        /* \"#utility.yul\":9640:9650   */\n      dup5\n        /* \"#utility.yul\":9622:9651   */\n      tag_61\n      jump\t// in\n    tag_188:\n        /* \"#utility.yul\":9612:9620   */\n      dup2\n        /* \"#utility.yul\":9608:9652   */\n      add\n        /* \"#utility.yul\":9805:9807   */\n      0x20\n        /* \"#utility.yul\":9793:9803   */\n      dup6\n        /* \"#utility.yul\":9790:9808   */\n      lt\n        /* \"#utility.yul\":9787:9836   */\n      iszero\n      tag_189\n      jumpi\n        /* \"#utility.yul\":9826:9834   */\n      dup2\n        /* \"#utility.yul\":9811:9834   */\n      swap1\n      pop\n        /* \"#utility.yul\":9787:9836   */\n    tag_189:\n        /* \"#utility.yul\":9849:9929   */\n      tag_190\n        /* \"#utility.yul\":9905:9927   */\n      tag_191\n        /* \"#utility.yul\":9923:9926   */\n      dup6\n        /* \"#utility.yul\":9905:9927   */\n      tag_61\n      jump\t// in\n    tag_191:\n        /* \"#utility.yul\":9895:9903   */\n      dup4\n        /* \"#utility.yul\":9891:9928   */\n      add\n        /* \"#utility.yul\":9878:9889   */\n      dup3\n        /* \"#utility.yul\":9849:9929   */\n      tag_70\n      jump\t// in\n    tag_190:\n        /* \"#utility.yul\":9508:9939   */\n      pop\n      pop\n        /* \"#utility.yul\":9493:9939   */\n    tag_186:\n        /* \"#utility.yul\":9403:9946   */\n      pop\n      pop\n      pop\n      jump\t// out\n        /* \"#utility.yul\":9952:10069   */\n    tag_72:\n        /* \"#utility.yul\":10006:10014   */\n      0x00\n        /* \"#utility.yul\":10056:10061   */\n      dup3\n        /* \"#utility.yul\":10050:10054   */\n      dup3\n        /* \"#utility.yul\":10046:10062   */\n      shr\n        /* \"#utility.yul\":10025:10062   */\n      swap1\n      pop\n        /* \"#utility.yul\":9952:10069   */\n      swap3\n      swap2\n      pop\n      pop\n      jump\t// out\n        /* \"#utility.yul\":10075:10244   */\n    tag_73:\n        /* \"#utility.yul\":10119:10125   */\n      0x00\n        /* \"#utility.yul\":10152:10203   */\n      tag_194\n        /* \"#utility.yul\":10200:10201   */\n      0x00\n        /* \"#utility.yul\":10196:10202   */\n      not\n        /* \"#utility.yul\":10188:10193   */\n      dup5\n        /* \"#utility.yul\":10185:10186   */\n      0x08\n        /* \"#utility.yul\":10181:10194   */\n      mul\n        /* \"#utility.yul\":10152:10203   */\n      tag_72\n      jump\t// in\n    tag_194:\n        /* \"#utility.yul\":10148:10204   */\n      not\n        /* \"#utility.yul\":10233:10237   */\n      dup1\n        /* \"#utility.yul\":10227:10231   */\n      dup4\n        /* \"#utility.yul\":10223:10238   */\n      and\n        /* \"#utility.yul\":10213:10238   */\n      swap2\n      pop\n        /* \"#utility.yul\":10126:10244   */\n      pop\n        /* \"#utility.yul\":10075:10244   */\n      swap3\n      swap2\n      pop\n      pop\n      jump\t// out\n        /* \"#utility.yul\":10249:10544   */\n    tag_74:\n        /* \"#utility.yul\":10325:10329   */\n      0x00\n        /* \"#utility.yul\":10471:10500   */\n      tag_196\n        /* \"#utility.yul\":10496:10499   */\n      dup4\n        /* \"#utility.yul\":10490:10494   */\n      dup4\n        /* \"#utility.yul\":10471:10500   */\n      tag_73\n      jump\t// in\n    tag_196:\n        /* \"#utility.yul\":10463:10500   */\n      swap2\n      pop\n        /* \"#utility.yul\":10533:10536   */\n      dup3\n        /* \"#utility.yul\":10530:10531   */\n      0x02\n        /* \"#utility.yul\":10526:10537   */\n      mul\n        /* \"#utility.yul\":10520:10524   */\n      dup3\n        /* \"#utility.yul\":10517:10538   */\n      or\n        /* \"#utility.yul\":10509:10538   */\n      swap1\n      pop\n        /* \"#utility.yul\":10249:10544   */\n      swap3\n      swap2\n      pop\n      pop\n      jump\t// out\n        /* \"#utility.yul\":10549:11944   */\n    tag_31:\n        /* \"#utility.yul\":10666:10703   */\n      tag_198\n        /* \"#utility.yul\":10699:10702   */\n      dup3\n        /* \"#utility.yul\":10666:10703   */\n      tag_52\n      jump\t// in\n    tag_198:\n        /* \"#utility.yul\":10768:10786   */\n      0xffffffffffffffff\n        /* \"#utility.yul\":10760:10766   */\n      dup2\n        /* \"#utility.yul\":10757:10787   */\n      gt\n        /* \"#utility.yul\":10754:10810   */\n      iszero\n      tag_199\n      jumpi\n        /* \"#utility.yul\":10790:10808   */\n      tag_200\n      tag_40\n      jump\t// in\n    tag_200:\n        /* \"#utility.yul\":10754:10810   */\n    tag_199:\n        /* \"#utility.yul\":10834:10872   */\n      tag_201\n        /* \"#utility.yul\":10866:10870   */\n      dup3\n        /* \"#utility.yul\":10860:10871   */\n      sload\n        /* \"#utility.yul\":10834:10872   */\n      tag_24\n      jump\t// in\n    tag_201:\n        /* \"#utility.yul\":10919:10986   */\n      tag_202\n        /* \"#utility.yul\":10979:10985   */\n      dup3\n        /* \"#utility.yul\":10971:10977   */\n      dup3\n        /* \"#utility.yul\":10965:10969   */\n      dup6\n        /* \"#utility.yul\":10919:10986   */\n      tag_71\n      jump\t// in\n    tag_202:\n        /* \"#utility.yul\":11013:11014   */\n      0x00\n        /* \"#utility.yul\":11037:11041   */\n      0x20\n        /* \"#utility.yul\":11024:11041   */\n      swap1\n      pop\n        /* \"#utility.yul\":11069:11071   */\n      0x1f\n        /* \"#utility.yul\":11061:11067   */\n      dup4\n        /* \"#utility.yul\":11058:11072   */\n      gt\n        /* \"#utility.yul\":11086:11087   */\n      0x01\n        /* \"#utility.yul\":11081:11699   */\n      dup2\n      eq\n      tag_204\n      jumpi\n        /* \"#utility.yul\":11743:11744   */\n      0x00\n        /* \"#utility.yul\":11760:11766   */\n      dup5\n        /* \"#utility.yul\":11757:11834   */\n      iszero\n      tag_205\n      jumpi\n        /* \"#utility.yul\":11809:11818   */\n      dup3\n        /* \"#utility.yul\":11804:11807   */\n      dup8\n        /* \"#utility.yul\":11800:11819   */\n      add\n        /* \"#utility.yul\":11794:11820   */\n      mload\n        /* \"#utility.yul\":11785:11820   */\n      swap1\n      pop\n        /* \"#utility.yul\":11757:11834   */\n    tag_205:\n        /* \"#utility.yul\":11860:11927   */\n      tag_206\n        /* \"#utility.yul\":11920:11926   */\n      dup6\n        /* \"#utility.yul\":11913:11918   */\n      dup3\n        /* \"#utility.yul\":11860:11927   */\n      tag_74\n      jump\t// in\n    tag_206:\n        /* \"#utility.yul\":11854:11858   */\n      dup7\n        /* \"#utility.yul\":11847:11928   */\n      sstore\n        /* \"#utility.yul\":11716:11938   */\n      pop\n        /* \"#utility.yul\":11051:11938   */\n      jump(tag_203)\n        /* \"#utility.yul\":11081:11699   */\n    tag_204:\n        /* \"#utility.yul\":11133:11137   */\n      0x1f\n        /* \"#utility.yul\":11129:11138   */\n      not\n        /* \"#utility.yul\":11121:11127   */\n      dup5\n        /* \"#utility.yul\":11117:11139   */\n      and\n        /* \"#utility.yul\":11167:11204   */\n      tag_207\n        /* \"#utility.yul\":11199:11203   */\n      dup7\n        /* \"#utility.yul\":11167:11204   */\n      tag_59\n      jump\t// in\n    tag_207:\n        /* \"#utility.yul\":11226:11227   */\n      0x00\n        /* \"#utility.yul\":11240:11448   */\n    tag_208:\n        /* \"#utility.yul\":11254:11261   */\n      dup3\n        /* \"#utility.yul\":11251:11252   */\n      dup2\n        /* \"#utility.yul\":11248:11262   */\n      lt\n        /* \"#utility.yul\":11240:11448   */\n      iszero\n      tag_210\n      jumpi\n        /* \"#utility.yul\":11333:11342   */\n      dup5\n        /* \"#utility.yul\":11328:11331   */\n      dup10\n        /* \"#utility.yul\":11324:11343   */\n      add\n        /* \"#utility.yul\":11318:11344   */\n      mload\n        /* \"#utility.yul\":11310:11316   */\n      dup3\n        /* \"#utility.yul\":11303:11345   */\n      sstore\n        /* \"#utility.yul\":11384:11385   */\n      0x01\n        /* \"#utility.yul\":11376:11382   */\n      dup3\n        /* \"#utility.yul\":11372:11386   */\n      add\n        /* \"#utility.yul\":11362:11386   */\n      swap2\n      pop\n        /* \"#utility.yul\":11431:11433   */\n      0x20\n        /* \"#utility.yul\":11420:11429   */\n      dup6\n        /* \"#utility.yul\":11416:11434   */\n      add\n        /* \"#utility.yul\":11403:11434   */\n      swap5\n      pop\n        /* \"#utility.yul\":11277:11281   */\n      0x20\n        /* \"#utility.yul\":11274:11275   */\n      dup2\n        /* \"#utility.yul\":11270:11282   */\n      add\n        /* \"#utility.yul\":11265:11282   */\n      swap1\n      pop\n        /* \"#utility.yul\":11240:11448   */\n      jump(tag_208)\n    tag_210:\n        /* \"#utility.yul\":11476:11482   */\n      dup7\n        /* \"#utility.yul\":11467:11474   */\n      dup4\n        /* \"#utility.yul\":11464:11483   */\n      lt\n        /* \"#utility.yul\":11461:11640   */\n      iszero\n      tag_211\n      jumpi\n        /* \"#utility.yul\":11534:11543   */\n      dup5\n        /* \"#utility.yul\":11529:11532   */\n      dup10\n        /* \"#utility.yul\":11525:11544   */\n      add\n        /* \"#utility.yul\":11519:11545   */\n      mload\n        /* \"#utility.yul\":11577:11625   */\n      tag_212\n        /* \"#utility.yul\":11619:11623   */\n      0x1f\n        /* \"#utility.yul\":11611:11617   */\n      dup10\n        /* \"#utility.yul\":11607:11624   */\n      and\n        /* \"#utility.yul\":11596:11605   */\n      dup3\n        /* \"#utility.yul\":11577:11625   */\n      tag_73\n      jump\t// in\n    tag_212:\n        /* \"#utility.yul\":11569:11575   */\n      dup4\n        /* \"#utility.yul\":11562:11626   */\n      sstore\n        /* \"#utility.yul\":11484:11640   */\n      pop\n        /* \"#utility.yul\":11461:11640   */\n    tag_211:\n        /* \"#utility.yul\":11686:11687   */\n      0x01\n        /* \"#utility.yul\":11682:11683   */\n      0x02\n        /* \"#utility.yul\":11674:11680   */\n      dup9\n        /* \"#utility.yul\":11670:11684   */\n      mul\n        /* \"#utility.yul\":11666:11688   */\n      add\n        /* \"#utility.yul\":11660:11664   */\n      dup9\n        /* \"#utility.yul\":11653:11689   */\n      sstore\n        /* \"#utility.yul\":11088:11699   */\n      pop\n      pop\n      pop\n        /* \"#utility.yul\":11051:11938   */\n    tag_203:\n      pop\n        /* \"#utility.yul\":10641:11944   */\n      pop\n      pop\n      pop\n        /* \"#utility.yul\":10549:11944   */\n      pop\n      pop\n      jump\t// out\n        /* \"#utility.yul\":11950:12130   */\n    tag_75:\n        /* \"#utility.yul\":11998:12075   */\n      0x4e487b7100000000000000000000000000000000000000000000000000000000\n        /* \"#utility.yul\":11995:11996   */\n      0x00\n        /* \"#utility.yul\":11988:12076   */\n      mstore\n        /* \"#utility.yul\":12095:12099   */\n      0x11\n        /* \"#utility.yul\":12092:12093   */\n      0x04\n        /* \"#utility.yul\":12085:12100   */\n      mstore\n        /* \"#utility.yul\":12119:12123   */\n      0x24\n        /* \"#utility.yul\":12116:12117   */\n      0x00\n        /* \"#utility.yul\":12109:12124   */\n      revert\n        /* \"#utility.yul\":12136:12254   */\n    tag_76:\n        /* \"#utility.yul\":12173:12180   */\n      0x00\n        /* \"#utility.yul\":12213:12247   */\n      0xffffffffffffffffffffffffffffffff\n        /* \"#utility.yul\":12206:12211   */\n      dup3\n        /* \"#utility.yul\":12202:12248   */\n      and\n        /* \"#utility.yul\":12191:12248   */\n      swap1\n      pop\n        /* \"#utility.yul\":12136:12254   */\n      swap2\n      swap1\n      pop\n      jump\t// out\n        /* \"#utility.yul\":12260:12461   */\n    tag_33:\n        /* \"#utility.yul\":12299:12302   */\n      0x00\n        /* \"#utility.yul\":12322:12346   */\n      tag_216\n        /* \"#utility.yul\":12340:12345   */\n      dup3\n        /* \"#utility.yul\":12322:12346   */\n      tag_76\n      jump\t// in\n    tag_216:\n        /* \"#utility.yul\":12313:12346   */\n      swap2\n      pop\n        /* \"#utility.yul\":12368:12402   */\n      0xffffffffffffffffffffffffffffffff\n        /* \"#utility.yul\":12361:12366   */\n      dup3\n        /* \"#utility.yul\":12358:12403   */\n      sub\n        /* \"#utility.yul\":12355:12426   */\n      tag_217\n      jumpi\n        /* \"#utility.yul\":12406:12424   */\n      tag_218\n      tag_75\n      jump\t// in\n    tag_218:\n        /* \"#utility.yul\":12355:12426   */\n    tag_217:\n        /* \"#utility.yul\":12453:12454   */\n      0x01\n        /* \"#utility.yul\":12446:12451   */\n      dup3\n        /* \"#utility.yul\":12442:12455   */\n      add\n        /* \"#utility.yul\":12435:12455   */\n      swap1\n      pop\n        /* \"#utility.yul\":12260:12461   */\n      swap2\n      swap1\n      pop\n      jump\t// out\n\n    auxdata: 0xa26469706673582212203521eb8b9eda8ab48c9c227febc3255ca7515b4c87c592bbcf6aa71ad992d4e364736f6c63430008180033\n}\n",
				"bytecode": {
					"linkReferences": {},
					"object": "608060405234801561000f575f80fd5b50610aa08061001d5f395ff3fe608060405234801561000f575f80fd5b5060043610610034575f3560e01c806324e164f714610038578063d265a3f31461006a575b5f80fd5b610052600480360381019061004d91906104e8565b610086565b60405161006193929190610600565b60405180910390f35b610084600480360381019061007f91906104e8565b610231565b005b5f8060605f5b5f8054906101000a90046fffffffffffffffffffffffffffffffff166fffffffffffffffffffffffffffffffff1681101561022657846040516020016100d29190610676565b6040516020818303038152906040528051906020012060015f8381526020019081526020015f2060020160405160200161010c919061077b565b60405160208183030381529060405280519060200120036102195760015f8281526020019081526020015f205f015460015f8381526020019081526020015f206001015f9054906101000a900473ffffffffffffffffffffffffffffffffffffffff1660015f8481526020019081526020015f2060020180805461018f906106b9565b80601f01602080910402602001604051908101604052809291908181526020018280546101bb906106b9565b80156102065780601f106101dd57610100808354040283529160200191610206565b820191905f5260205f20905b8154815290600101906020018083116101e957829003601f168201915b505050505090509350935093505061022a565b808060010191505061008c565b5f80fd5b9193909250565b60405180606001604052805f8054906101000a90046fffffffffffffffffffffffffffffffff166fffffffffffffffffffffffffffffffff1681526020013373ffffffffffffffffffffffffffffffffffffffff1681526020018281525060015f805f9054906101000a90046fffffffffffffffffffffffffffffffff166fffffffffffffffffffffffffffffffff1681526020019081526020015f205f820151815f01556020820151816001015f6101000a81548173ffffffffffffffffffffffffffffffffffffffff021916908373ffffffffffffffffffffffffffffffffffffffff1602179055506040820151816002019081610331919061091c565b509050505f8081819054906101000a90046fffffffffffffffffffffffffffffffff168092919061036190610a33565b91906101000a8154816fffffffffffffffffffffffffffffffff02191690836fffffffffffffffffffffffffffffffff1602179055505050565b5f604051905090565b5f80fd5b5f80fd5b5f80fd5b5f80fd5b5f601f19601f8301169050919050565b7f4e487b71000000000000000000000000000000000000000000000000000000005f52604160045260245ffd5b6103fa826103b4565b810181811067ffffffffffffffff82111715610419576104186103c4565b5b80604052505050565b5f61042b61039b565b905061043782826103f1565b919050565b5f67ffffffffffffffff821115610456576104556103c4565b5b61045f826103b4565b9050602081019050919050565b828183375f83830152505050565b5f61048c6104878461043c565b610422565b9050828152602081018484840111156104a8576104a76103b0565b5b6104b384828561046c565b509392505050565b5f82601f8301126104cf576104ce6103ac565b5b81356104df84826020860161047a565b91505092915050565b5f602082840312156104fd576104fc6103a4565b5b5f82013567ffffffffffffffff81111561051a576105196103a8565b5b610526848285016104bb565b91505092915050565b5f819050919050565b6105418161052f565b82525050565b5f73ffffffffffffffffffffffffffffffffffffffff82169050919050565b5f61057082610547565b9050919050565b61058081610566565b82525050565b5f81519050919050565b5f82825260208201905092915050565b5f5b838110156105bd5780820151818401526020810190506105a2565b5f8484015250505050565b5f6105d282610586565b6105dc8185610590565b93506105ec8185602086016105a0565b6105f5816103b4565b840191505092915050565b5f6060820190506106135f830186610538565b6106206020830185610577565b818103604083015261063281846105c8565b9050949350505050565b5f81905092915050565b5f61065082610586565b61065a818561063c565b935061066a8185602086016105a0565b80840191505092915050565b5f6106818284610646565b915081905092915050565b7f4e487b71000000000000000000000000000000000000000000000000000000005f52602260045260245ffd5b5f60028204905060018216806106d057607f821691505b6020821081036106e3576106e261068c565b5b50919050565b5f819050815f5260205f209050919050565b5f8154610707816106b9565b610711818661063c565b9450600182165f811461072b576001811461074057610772565b60ff1983168652811515820286019350610772565b610749856106e9565b5f5b8381101561076a5781548189015260018201915060208101905061074b565b838801955050505b50505092915050565b5f61078682846106fb565b915081905092915050565b5f6020601f8301049050919050565b5f82821b905092915050565b5f600883026107db7fffffffffffffffffffffffffffffffffffffffffffffffffffffffffffffffff826107a0565b6107e586836107a0565b95508019841693508086168417925050509392505050565b5f819050919050565b5f61082061081b6108168461052f565b6107fd565b61052f565b9050919050565b5f819050919050565b61083983610806565b61084d61084582610827565b8484546107ac565b825550505050565b5f90565b610861610855565b61086c818484610830565b505050565b5b8181101561088f576108845f82610859565b600181019050610872565b5050565b601f8211156108d4576108a5816106e9565b6108ae84610791565b810160208510156108bd578190505b6108d16108c985610791565b830182610871565b50505b505050565b5f82821c905092915050565b5f6108f45f19846008026108d9565b1980831691505092915050565b5f61090c83836108e5565b9150826002028217905092915050565b61092582610586565b67ffffffffffffffff81111561093e5761093d6103c4565b5b61094882546106b9565b610953828285610893565b5f60209050601f831160018114610984575f8415610972578287015190505b61097c8582610901565b8655506109e3565b601f198416610992866106e9565b5f5b828110156109b957848901518255600182019150602085019450602081019050610994565b868310156109d657848901516109d2601f8916826108e5565b8355505b6001600288020188555050505b505050505050565b7f4e487b71000000000000000000000000000000000000000000000000000000005f52601160045260245ffd5b5f6fffffffffffffffffffffffffffffffff82169050919050565b5f610a3d82610a18565b91506fffffffffffffffffffffffffffffffff8203610a5f57610a5e6109eb565b5b60018201905091905056fea26469706673582212203521eb8b9eda8ab48c9c227febc3255ca7515b4c87c592bbcf6aa71ad992d4e364736f6c63430008180033",
					"opcodes": "PUSH1 0x80 PUSH1 0x40 MSTORE CALLVALUE DUP1 ISZERO PUSH2 0xF JUMPI PUSH0 DUP1 REVERT JUMPDEST POP PUSH2 0xAA0 DUP1 PUSH2 0x1D PUSH0 CODECOPY PUSH0 RETURN INVALID PUSH1 0x80 PUSH1 0x40 MSTORE CALLVALUE DUP1 ISZERO PUSH2 0xF JUMPI PUSH0 DUP1 REVERT JUMPDEST POP PUSH1 0x4 CALLDATASIZE LT PUSH2 0x34 JUMPI PUSH0 CALLDATALOAD PUSH1 0xE0 SHR DUP1 PUSH4 0x24E164F7 EQ PUSH2 0x38 JUMPI DUP1 PUSH4 0xD265A3F3 EQ PUSH2 0x6A JUMPI JUMPDEST PUSH0 DUP1 REVERT JUMPDEST PUSH2 0x52 PUSH1 0x4 DUP1 CALLDATASIZE SUB DUP2 ADD SWAP1 PUSH2 0x4D SWAP2 SWAP1 PUSH2 0x4E8 JUMP JUMPDEST PUSH2 0x86 JUMP JUMPDEST PUSH1 0x40 MLOAD PUSH2 0x61 SWAP4 SWAP3 SWAP2 SWAP1 PUSH2 0x600 JUMP JUMPDEST PUSH1 0x40 MLOAD DUP1 SWAP2 SUB SWAP1 RETURN JUMPDEST PUSH2 0x84 PUSH1 0x4 DUP1 CALLDATASIZE SUB DUP2 ADD SWAP1 PUSH2 0x7F SWAP2 SWAP1 PUSH2 0x4E8 JUMP JUMPDEST PUSH2 0x231 JUMP JUMPDEST STOP JUMPDEST PUSH0 DUP1 PUSH1 0x60 PUSH0 JUMPDEST PUSH0 DUP1 SLOAD SWAP1 PUSH2 0x100 EXP SWAP1 DIV PUSH16 0xFFFFFFFFFFFFFFFFFFFFFFFFFFFFFFFF AND PUSH16 0xFFFFFFFFFFFFFFFFFFFFFFFFFFFFFFFF AND DUP2 LT ISZERO PUSH2 0x226 JUMPI DUP5 PUSH1 0x40 MLOAD PUSH1 0x20 ADD PUSH2 0xD2 SWAP2 SWAP1 PUSH2 0x676 JUMP JUMPDEST PUSH1 0x40 MLOAD PUSH1 0x20 DUP2 DUP4 SUB SUB DUP2 MSTORE SWAP1 PUSH1 0x40 MSTORE DUP1 MLOAD SWAP1 PUSH1 0x20 ADD KECCAK256 PUSH1 0x1 PUSH0 DUP4 DUP2 MSTORE PUSH1 0x20 ADD SWAP1 DUP2 MSTORE PUSH1 0x20 ADD PUSH0 KECCAK256 PUSH1 0x2 ADD PUSH1 0x40 MLOAD PUSH1 0x20 ADD PUSH2 0x10C SWAP2 SWAP1 PUSH2 0x77B JUMP JUMPDEST PUSH1 0x40 MLOAD PUSH1 0x20 DUP2 DUP4 SUB SUB DUP2 MSTORE SWAP1 PUSH1 0x40 MSTORE DUP1 MLOAD SWAP1 PUSH1 0x20 ADD KECCAK256 SUB PUSH2 0x219 JUMPI PUSH1 0x1 PUSH0 DUP3 DUP2 MSTORE PUSH1 0x20 ADD SWAP1 DUP2 MSTORE PUSH1 0x20 ADD PUSH0 KECCAK256 PUSH0 ADD SLOAD PUSH1 0x1 PUSH0 DUP4 DUP2 MSTORE PUSH1 0x20 ADD SWAP1 DUP2 MSTORE PUSH1 0x20 ADD PUSH0 KECCAK256 PUSH1 0x1 ADD PUSH0 SWAP1 SLOAD SWAP1 PUSH2 0x100 EXP SWAP1 DIV PUSH20 0xFFFFFFFFFFFFFFFFFFFFFFFFFFFFFFFFFFFFFFFF AND PUSH1 0x1 PUSH0 DUP5 DUP2 MSTORE PUSH1 0x20 ADD SWAP1 DUP2 MSTORE PUSH1 0x20 ADD PUSH0 KECCAK256 PUSH1 0x2 ADD DUP1 DUP1 SLOAD PUSH2 0x18F SWAP1 PUSH2 0x6B9 JUMP JUMPDEST DUP1 PUSH1 0x1F ADD PUSH1 0x20 DUP1 SWAP2 DIV MUL PUSH1 0x20 ADD PUSH1 0x40 MLOAD SWAP1 DUP2 ADD PUSH1 0x40 MSTORE DUP1 SWAP3 SWAP2 SWAP1 DUP2 DUP2 MSTORE PUSH1 0x20 ADD DUP3 DUP1 SLOAD PUSH2 0x1BB SWAP1 PUSH2 0x6B9 JUMP JUMPDEST DUP1 ISZERO PUSH2 0x206 JUMPI DUP1 PUSH1 0x1F LT PUSH2 0x1DD JUMPI PUSH2 0x100 DUP1 DUP4 SLOAD DIV MUL DUP4 MSTORE SWAP2 PUSH1 0x20 ADD SWAP2 PUSH2 0x206 JUMP JUMPDEST DUP3 ADD SWAP2 SWAP1 PUSH0 MSTORE PUSH1 0x20 PUSH0 KECCAK256 SWAP1 JUMPDEST DUP2 SLOAD DUP2 MSTORE SWAP1 PUSH1 0x1 ADD SWAP1 PUSH1 0x20 ADD DUP1 DUP4 GT PUSH2 0x1E9 JUMPI DUP3 SWAP1 SUB PUSH1 0x1F AND DUP3 ADD SWAP2 JUMPDEST POP POP POP POP POP SWAP1 POP SWAP4 POP SWAP4 POP SWAP4 POP POP PUSH2 0x22A JUMP JUMPDEST DUP1 DUP1 PUSH1 0x1 ADD SWAP2 POP POP PUSH2 0x8C JUMP JUMPDEST PUSH0 DUP1 REVERT JUMPDEST SWAP2 SWAP4 SWAP1 SWAP3 POP JUMP JUMPDEST PUSH1 0x40 MLOAD DUP1 PUSH1 0x60 ADD PUSH1 0x40 MSTORE DUP1 PUSH0 DUP1 SLOAD SWAP1 PUSH2 0x100 EXP SWAP1 DIV PUSH16 0xFFFFFFFFFFFFFFFFFFFFFFFFFFFFFFFF AND PUSH16 0xFFFFFFFFFFFFFFFFFFFFFFFFFFFFFFFF AND DUP2 MSTORE PUSH1 0x20 ADD CALLER PUSH20 0xFFFFFFFFFFFFFFFFFFFFFFFFFFFFFFFFFFFFFFFF AND DUP2 MSTORE PUSH1 0x20 ADD DUP3 DUP2 MSTORE POP PUSH1 0x1 PUSH0 DUP1 PUSH0 SWAP1 SLOAD SWAP1 PUSH2 0x100 EXP SWAP1 DIV PUSH16 0xFFFFFFFFFFFFFFFFFFFFFFFFFFFFFFFF AND PUSH16 0xFFFFFFFFFFFFFFFFFFFFFFFFFFFFFFFF AND DUP2 MSTORE PUSH1 0x20 ADD SWAP1 DUP2 MSTORE PUSH1 0x20 ADD PUSH0 KECCAK256 PUSH0 DUP3 ADD MLOAD DUP2 PUSH0 ADD SSTORE PUSH1 0x20 DUP3 ADD MLOAD DUP2 PUSH1 0x1 ADD PUSH0 PUSH2 0x100 EXP DUP2 SLOAD DUP2 PUSH20 0xFFFFFFFFFFFFFFFFFFFFFFFFFFFFFFFFFFFFFFFF MUL NOT AND SWAP1 DUP4 PUSH20 0xFFFFFFFFFFFFFFFFFFFFFFFFFFFFFFFFFFFFFFFF AND MUL OR SWAP1 SSTORE POP PUSH1 0x40 DUP3 ADD MLOAD DUP2 PUSH1 0x2 ADD SWAP1 DUP2 PUSH2 0x331 SWAP2 SWAP1 PUSH2 0x91C JUMP JUMPDEST POP SWAP1 POP POP PUSH0 DUP1 DUP2 DUP2 SWAP1 SLOAD SWAP1 PUSH2 0x100 EXP SWAP1 DIV PUSH16 0xFFFFFFFFFFFFFFFFFFFFFFFFFFFFFFFF AND DUP1 SWAP3 SWAP2 SWAP1 PUSH2 0x361 SWAP1 PUSH2 0xA33 JUMP JUMPDEST SWAP2 SWAP1 PUSH2 0x100 EXP DUP2 SLOAD DUP2 PUSH16 0xFFFFFFFFFFFFFFFFFFFFFFFFFFFFFFFF MUL NOT AND SWAP1 DUP4 PUSH16 0xFFFFFFFFFFFFFFFFFFFFFFFFFFFFFFFF AND MUL OR SWAP1 SSTORE POP POP POP JUMP JUMPDEST PUSH0 PUSH1 0x40 MLOAD SWAP1 POP SWAP1 JUMP JUMPDEST PUSH0 DUP1 REVERT JUMPDEST PUSH0 DUP1 REVERT JUMPDEST PUSH0 DUP1 REVERT JUMPDEST PUSH0 DUP1 REVERT JUMPDEST PUSH0 PUSH1 0x1F NOT PUSH1 0x1F DUP4 ADD AND SWAP1 POP SWAP2 SWAP1 POP JUMP JUMPDEST PUSH32 0x4E487B7100000000000000000000000000000000000000000000000000000000 PUSH0 MSTORE PUSH1 0x41 PUSH1 0x4 MSTORE PUSH1 0x24 PUSH0 REVERT JUMPDEST PUSH2 0x3FA DUP3 PUSH2 0x3B4 JUMP JUMPDEST DUP2 ADD DUP2 DUP2 LT PUSH8 0xFFFFFFFFFFFFFFFF DUP3 GT OR ISZERO PUSH2 0x419 JUMPI PUSH2 0x418 PUSH2 0x3C4 JUMP JUMPDEST JUMPDEST DUP1 PUSH1 0x40 MSTORE POP POP POP JUMP JUMPDEST PUSH0 PUSH2 0x42B PUSH2 0x39B JUMP JUMPDEST SWAP1 POP PUSH2 0x437 DUP3 DUP3 PUSH2 0x3F1 JUMP JUMPDEST SWAP2 SWAP1 POP JUMP JUMPDEST PUSH0 PUSH8 0xFFFFFFFFFFFFFFFF DUP3 GT ISZERO PUSH2 0x456 JUMPI PUSH2 0x455 PUSH2 0x3C4 JUMP JUMPDEST JUMPDEST PUSH2 0x45F DUP3 PUSH2 0x3B4 JUMP JUMPDEST SWAP1 POP PUSH1 0x20 DUP2 ADD SWAP1 POP SWAP2 SWAP1 POP JUMP JUMPDEST DUP3 DUP2 DUP4 CALLDATACOPY PUSH0 DUP4 DUP4 ADD MSTORE POP POP POP JUMP JUMPDEST PUSH0 PUSH2 0x48C PUSH2 0x487 DUP5 PUSH2 0x43C JUMP JUMPDEST PUSH2 0x422 JUMP JUMPDEST SWAP1 POP DUP3 DUP2 MSTORE PUSH1 0x20 DUP2 ADD DUP5 DUP5 DUP5 ADD GT ISZERO PUSH2 0x4A8 JUMPI PUSH2 0x4A7 PUSH2 0x3B0 JUMP JUMPDEST JUMPDEST PUSH2 0x4B3 DUP5 DUP3 DUP6 PUSH2 0x46C JUMP JUMPDEST POP SWAP4 SWAP3 POP POP POP JUMP JUMPDEST PUSH0 DUP3 PUSH1 0x1F DUP4 ADD SLT PUSH2 0x4CF JUMPI PUSH2 0x4CE PUSH2 0x3AC JUMP JUMPDEST JUMPDEST DUP2 CALLDATALOAD PUSH2 0x4DF DUP5 DUP3 PUSH1 0x20 DUP7 ADD PUSH2 0x47A JUMP JUMPDEST SWAP2 POP POP SWAP3 SWAP2 POP POP JUMP JUMPDEST PUSH0 PUSH1 0x20 DUP3 DUP5 SUB SLT ISZERO PUSH2 0x4FD JUMPI PUSH2 0x4FC PUSH2 0x3A4 JUMP JUMPDEST JUMPDEST PUSH0 DUP3 ADD CALLDATALOAD PUSH8 0xFFFFFFFFFFFFFFFF DUP2 GT ISZERO PUSH2 0x51A JUMPI PUSH2 0x519 PUSH2 0x3A8 JUMP JUMPDEST JUMPDEST PUSH2 0x526 DUP5 DUP3 DUP6 ADD PUSH2 0x4BB JUMP JUMPDEST SWAP2 POP POP SWAP3 SWAP2 POP POP JUMP JUMPDEST PUSH0 DUP2 SWAP1 POP SWAP2 SWAP1 POP JUMP JUMPDEST PUSH2 0x541 DUP2 PUSH2 0x52F JUMP JUMPDEST DUP3 MSTORE POP POP JUMP JUMPDEST PUSH0 PUSH20 0xFFFFFFFFFFFFFFFFFFFFFFFFFFFFFFFFFFFFFFFF DUP3 AND SWAP1 POP SWAP2 SWAP1 POP JUMP JUMPDEST PUSH0 PUSH2 0x570 DUP3 PUSH2 0x547 JUMP JUMPDEST SWAP1 POP SWAP2 SWAP1 POP JUMP JUMPDEST PUSH2 0x580 DUP2 PUSH2 0x566 JUMP JUMPDEST DUP3 MSTORE POP POP JUMP JUMPDEST PUSH0 DUP2 MLOAD SWAP1 POP SWAP2 SWAP1 POP JUMP JUMPDEST PUSH0 DUP3 DUP3 MSTORE PUSH1 0x20 DUP3 ADD SWAP1 POP SWAP3 SWAP2 POP POP JUMP JUMPDEST PUSH0 JUMPDEST DUP4 DUP2 LT ISZERO PUSH2 0x5BD JUMPI DUP1 DUP3 ADD MLOAD DUP2 DUP5 ADD MSTORE PUSH1 0x20 DUP2 ADD SWAP1 POP PUSH2 0x5A2 JUMP JUMPDEST PUSH0 DUP5 DUP5 ADD MSTORE POP POP POP POP JUMP JUMPDEST PUSH0 PUSH2 0x5D2 DUP3 PUSH2 0x586 JUMP JUMPDEST PUSH2 0x5DC DUP2 DUP6 PUSH2 0x590 JUMP JUMPDEST SWAP4 POP PUSH2 0x5EC DUP2 DUP6 PUSH1 0x20 DUP7 ADD PUSH2 0x5A0 JUMP JUMPDEST PUSH2 0x5F5 DUP2 PUSH2 0x3B4 JUMP JUMPDEST DUP5 ADD SWAP2 POP POP SWAP3 SWAP2 POP POP JUMP JUMPDEST PUSH0 PUSH1 0x60 DUP3 ADD SWAP1 POP PUSH2 0x613 PUSH0 DUP4 ADD DUP7 PUSH2 0x538 JUMP JUMPDEST PUSH2 0x620 PUSH1 0x20 DUP4 ADD DUP6 PUSH2 0x577 JUMP JUMPDEST DUP2 DUP2 SUB PUSH1 0x40 DUP4 ADD MSTORE PUSH2 0x632 DUP2 DUP5 PUSH2 0x5C8 JUMP JUMPDEST SWAP1 POP SWAP5 SWAP4 POP POP POP POP JUMP JUMPDEST PUSH0 DUP2 SWAP1 POP SWAP3 SWAP2 POP POP JUMP JUMPDEST PUSH0 PUSH2 0x650 DUP3 PUSH2 0x586 JUMP JUMPDEST PUSH2 0x65A DUP2 DUP6 PUSH2 0x63C JUMP JUMPDEST SWAP4 POP PUSH2 0x66A DUP2 DUP6 PUSH1 0x20 DUP7 ADD PUSH2 0x5A0 JUMP JUMPDEST DUP1 DUP5 ADD SWAP2 POP POP SWAP3 SWAP2 POP POP JUMP JUMPDEST PUSH0 PUSH2 0x681 DUP3 DUP5 PUSH2 0x646 JUMP JUMPDEST SWAP2 POP DUP2 SWAP1 POP SWAP3 SWAP2 POP POP JUMP JUMPDEST PUSH32 0x4E487B7100000000000000000000000000000000000000000000000000000000 PUSH0 MSTORE PUSH1 0x22 PUSH1 0x4 MSTORE PUSH1 0x24 PUSH0 REVERT JUMPDEST PUSH0 PUSH1 0x2 DUP3 DIV SWAP1 POP PUSH1 0x1 DUP3 AND DUP1 PUSH2 0x6D0 JUMPI PUSH1 0x7F DUP3 AND SWAP2 POP JUMPDEST PUSH1 0x20 DUP3 LT DUP2 SUB PUSH2 0x6E3 JUMPI PUSH2 0x6E2 PUSH2 0x68C JUMP JUMPDEST JUMPDEST POP SWAP2 SWAP1 POP JUMP JUMPDEST PUSH0 DUP2 SWAP1 POP DUP2 PUSH0 MSTORE PUSH1 0x20 PUSH0 KECCAK256 SWAP1 POP SWAP2 SWAP1 POP JUMP JUMPDEST PUSH0 DUP2 SLOAD PUSH2 0x707 DUP2 PUSH2 0x6B9 JUMP JUMPDEST PUSH2 0x711 DUP2 DUP7 PUSH2 0x63C JUMP JUMPDEST SWAP5 POP PUSH1 0x1 DUP3 AND PUSH0 DUP2 EQ PUSH2 0x72B JUMPI PUSH1 0x1 DUP2 EQ PUSH2 0x740 JUMPI PUSH2 0x772 JUMP JUMPDEST PUSH1 0xFF NOT DUP4 AND DUP7 MSTORE DUP2 ISZERO ISZERO DUP3 MUL DUP7 ADD SWAP4 POP PUSH2 0x772 JUMP JUMPDEST PUSH2 0x749 DUP6 PUSH2 0x6E9 JUMP JUMPDEST PUSH0 JUMPDEST DUP4 DUP2 LT ISZERO PUSH2 0x76A JUMPI DUP2 SLOAD DUP2 DUP10 ADD MSTORE PUSH1 0x1 DUP3 ADD SWAP2 POP PUSH1 0x20 DUP2 ADD SWAP1 POP PUSH2 0x74B JUMP JUMPDEST DUP4 DUP9 ADD SWAP6 POP POP POP JUMPDEST POP POP POP SWAP3 SWAP2 POP POP JUMP JUMPDEST PUSH0 PUSH2 0x786 DUP3 DUP5 PUSH2 0x6FB JUMP JUMPDEST SWAP2 POP DUP2 SWAP1 POP SWAP3 SWAP2 POP POP JUMP JUMPDEST PUSH0 PUSH1 0x20 PUSH1 0x1F DUP4 ADD DIV SWAP1 POP SWAP2 SWAP1 POP JUMP JUMPDEST PUSH0 DUP3 DUP3 SHL SWAP1 POP SWAP3 SWAP2 POP POP JUMP JUMPDEST PUSH0 PUSH1 0x8 DUP4 MUL PUSH2 0x7DB PUSH32 0xFFFFFFFFFFFFFFFFFFFFFFFFFFFFFFFFFFFFFFFFFFFFFFFFFFFFFFFFFFFFFFFF DUP3 PUSH2 0x7A0 JUMP JUMPDEST PUSH2 0x7E5 DUP7 DUP4 PUSH2 0x7A0 JUMP JUMPDEST SWAP6 POP DUP1 NOT DUP5 AND SWAP4 POP DUP1 DUP7 AND DUP5 OR SWAP3 POP POP POP SWAP4 SWAP3 POP POP POP JUMP JUMPDEST PUSH0 DUP2 SWAP1 POP SWAP2 SWAP1 POP JUMP JUMPDEST PUSH0 PUSH2 0x820 PUSH2 0x81B PUSH2 0x816 DUP5 PUSH2 0x52F JUMP JUMPDEST PUSH2 0x7FD JUMP JUMPDEST PUSH2 0x52F JUMP JUMPDEST SWAP1 POP SWAP2 SWAP1 POP JUMP JUMPDEST PUSH0 DUP2 SWAP1 POP SWAP2 SWAP1 POP JUMP JUMPDEST PUSH2 0x839 DUP4 PUSH2 0x806 JUMP JUMPDEST PUSH2 0x84D PUSH2 0x845 DUP3 PUSH2 0x827 JUMP JUMPDEST DUP5 DUP5 SLOAD PUSH2 0x7AC JUMP JUMPDEST DUP3 SSTORE POP POP POP POP JUMP JUMPDEST PUSH0 SWAP1 JUMP JUMPDEST PUSH2 0x861 PUSH2 0x855 JUMP JUMPDEST PUSH2 0x86C DUP2 DUP5 DUP5 PUSH2 0x830 JUMP JUMPDEST POP POP POP JUMP JUMPDEST JUMPDEST DUP2 DUP2 LT ISZERO PUSH2 0x88F JUMPI PUSH2 0x884 PUSH0 DUP3 PUSH2 0x859 JUMP JUMPDEST PUSH1 0x1 DUP2 ADD SWAP1 POP PUSH2 0x872 JUMP JUMPDEST POP POP JUMP JUMPDEST PUSH1 0x1F DUP3 GT ISZERO PUSH2 0x8D4 JUMPI PUSH2 0x8A5 DUP2 PUSH2 0x6E9 JUMP JUMPDEST PUSH2 0x8AE DUP5 PUSH2 0x791 JUMP JUMPDEST DUP2 ADD PUSH1 0x20 DUP6 LT ISZERO PUSH2 0x8BD JUMPI DUP2 SWAP1 POP JUMPDEST PUSH2 0x8D1 PUSH2 0x8C9 DUP6 PUSH2 0x791 JUMP JUMPDEST DUP4 ADD DUP3 PUSH2 0x871 JUMP JUMPDEST POP POP JUMPDEST POP POP POP JUMP JUMPDEST PUSH0 DUP3 DUP3 SHR SWAP1 POP SWAP3 SWAP2 POP POP JUMP JUMPDEST PUSH0 PUSH2 0x8F4 PUSH0 NOT DUP5 PUSH1 0x8 MUL PUSH2 0x8D9 JUMP JUMPDEST NOT DUP1 DUP4 AND SWAP2 POP POP SWAP3 SWAP2 POP POP JUMP JUMPDEST PUSH0 PUSH2 0x90C DUP4 DUP4 PUSH2 0x8E5 JUMP JUMPDEST SWAP2 POP DUP3 PUSH1 0x2 MUL DUP3 OR SWAP1 POP SWAP3 SWAP2 POP POP JUMP JUMPDEST PUSH2 0x925 DUP3 PUSH2 0x586 JUMP JUMPDEST PUSH8 0xFFFFFFFFFFFFFFFF DUP2 GT ISZERO PUSH2 0x93E JUMPI PUSH2 0x93D PUSH2 0x3C4 JUMP JUMPDEST JUMPDEST PUSH2 0x948 DUP3 SLOAD PUSH2 0x6B9 JUMP JUMPDEST PUSH2 0x953 DUP3 DUP3 DUP6 PUSH2 0x893 JUMP JUMPDEST PUSH0 PUSH1 0x20 SWAP1 POP PUSH1 0x1F DUP4 GT PUSH1 0x1 DUP2 EQ PUSH2 0x984 JUMPI PUSH0 DUP5 ISZERO PUSH2 0x972 JUMPI DUP3 DUP8 ADD MLOAD SWAP1 POP JUMPDEST PUSH2 0x97C DUP6 DUP3 PUSH2 0x901 JUMP JUMPDEST DUP7 SSTORE POP PUSH2 0x9E3 JUMP JUMPDEST PUSH1 0x1F NOT DUP5 AND PUSH2 0x992 DUP7 PUSH2 0x6E9 JUMP JUMPDEST PUSH0 JUMPDEST DUP3 DUP2 LT ISZERO PUSH2 0x9B9 JUMPI DUP5 DUP10 ADD MLOAD DUP3 SSTORE PUSH1 0x1 DUP3 ADD SWAP2 POP PUSH1 0x20 DUP6 ADD SWAP5 POP PUSH1 0x20 DUP2 ADD SWAP1 POP PUSH2 0x994 JUMP JUMPDEST DUP7 DUP4 LT ISZERO PUSH2 0x9D6 JUMPI DUP5 DUP10 ADD MLOAD PUSH2 0x9D2 PUSH1 0x1F DUP10 AND DUP3 PUSH2 0x8E5 JUMP JUMPDEST DUP4 SSTORE POP JUMPDEST PUSH1 0x1 PUSH1 0x2 DUP9 MUL ADD DUP9 SSTORE POP POP POP JUMPDEST POP POP POP POP POP POP JUMP JUMPDEST PUSH32 0x4E487B7100000000000000000000000000000000000000000000000000000000 PUSH0 MSTORE PUSH1 0x11 PUSH1 0x4 MSTORE PUSH1 0x24 PUSH0 REVERT JUMPDEST PUSH0 PUSH16 0xFFFFFFFFFFFFFFFFFFFFFFFFFFFFFFFF DUP3 AND SWAP1 POP SWAP2 SWAP1 POP JUMP JUMPDEST PUSH0 PUSH2 0xA3D DUP3 PUSH2 0xA18 JUMP JUMPDEST SWAP2 POP PUSH16 0xFFFFFFFFFFFFFFFFFFFFFFFFFFFFFFFF DUP3 SUB PUSH2 0xA5F JUMPI PUSH2 0xA5E PUSH2 0x9EB JUMP JUMPDEST JUMPDEST PUSH1 0x1 DUP3 ADD SWAP1 POP SWAP2 SWAP1 POP JUMP INVALID LOG2 PUSH5 0x6970667358 0x22 SLT KECCAK256 CALLDATALOAD 0x21 0xEB DUP12 SWAP15 0xDA DUP11 0xB4 DUP13 SWAP13 0x22 PUSH32 0xEBC3255CA7515B4C87C592BBCF6AA71AD992D4E364736F6C6343000818003300 "
				},
				"gasEstimates": {
					"creation": {
						"codeDepositCost": "544000",
						"executionCost": "573",
						"totalCost": "544573"
					},
					"external": {
						"CreateClient(string)": "infinite",
						"GetClient(string)": "infinite"
					}
				},
				"methodIdentifiers": {
					"CreateClient(string)": "d265a3f3",
					"GetClient(string)": "24e164f7"
				}
			},
			"storageLayout": {
				"storage": [
					{
						"astId": 3,
						"contract": "contracts/1_registerUser_flit.sol:NewClient",
						"label": "incrementIdClient",
						"offset": 0,
						"slot": "0",
						"type": "t_uint128"
					},
					{
						"astId": 15,
						"contract": "contracts/1_registerUser_flit.sol:NewClient",
						"label": "clients",
						"offset": 0,
						"slot": "1",
						"type": "t_mapping(t_uint256,t_struct(Client)10_storage)"
					}
				],
				"types": {
					"t_address": {
						"encoding": "inplace",
						"label": "address",
						"numberOfBytes": "20"
					},
					"t_mapping(t_uint256,t_struct(Client)10_storage)": {
						"encoding": "mapping",
						"key": "t_uint256",
						"label": "mapping(uint256 => struct NewClient.Client)",
						"numberOfBytes": "32",
						"value": "t_struct(Client)10_storage"
					},
					"t_string_storage": {
						"encoding": "bytes",
						"label": "string",
						"numberOfBytes": "32"
					},
					"t_struct(Client)10_storage": {
						"encoding": "inplace",
						"label": "struct NewClient.Client",
						"members": [
							{
								"astId": 5,
								"contract": "contracts/1_registerUser_flit.sol:NewClient",
								"label": "id",
								"offset": 0,
								"slot": "0",
								"type": "t_uint256"
							},
							{
								"astId": 7,
								"contract": "contracts/1_registerUser_flit.sol:NewClient",
								"label": "addr",
								"offset": 0,
								"slot": "1",
								"type": "t_address"
							},
							{
								"astId": 9,
								"contract": "contracts/1_registerUser_flit.sol:NewClient",
								"label": "username",
								"offset": 0,
								"slot": "2",
								"type": "t_string_storage"
							}
						],
						"numberOfBytes": "96"
					},
					"t_uint128": {
						"encoding": "inplace",
						"label": "uint128",
						"numberOfBytes": "16"
					},
					"t_uint256": {
						"encoding": "inplace",
						"label": "uint256",
						"numberOfBytes": "32"
					}
				}
			},
			"userdoc": {
				"kind": "user",
				"methods": {},
				"version": 1
			}
		}
	}
}