{
	"contracts/2_walletBalance_flit.sol": {
		"WalletBalance": {
			"abi": [
				{
					"inputs": [
						{
							"internalType": "string",
							"name": "_username",
							"type": "string"
						}
					],
					"name": "getClientInfo",
					"outputs": [
						{
							"internalType": "uint256",
							"name": "",
							"type": "uint256"
						},
						{
							"internalType": "address",
							"name": "",
							"type": "address"
						},
						{
							"internalType": "string",
							"name": "",
							"type": "string"
						}
					],
					"stateMutability": "view",
					"type": "function"
				}
			],
			"devdoc": {
				"kind": "dev",
				"methods": {},
				"version": 1
			},
			"evm": {
				"assembly": "    /* \"contracts/2_walletBalance_flit.sol\":220:638  contract WalletBalance {... */\n  mstore(0x40, 0x80)\n  callvalue\n  dup1\n  iszero\n  tag_1\n  jumpi\n  0x00\n  dup1\n  revert\ntag_1:\n  pop\n  dataSize(sub_0)\n  dup1\n  dataOffset(sub_0)\n  0x00\n  codecopy\n  0x00\n  return\nstop\n\nsub_0: assembly {\n        /* \"contracts/2_walletBalance_flit.sol\":220:638  contract WalletBalance {... */\n      mstore(0x40, 0x80)\n      callvalue\n      dup1\n      iszero\n      tag_1\n      jumpi\n      0x00\n      dup1\n      revert\n    tag_1:\n      pop\n      jumpi(tag_2, lt(calldatasize, 0x04))\n      shr(0xe0, calldataload(0x00))\n      dup1\n      0x94700b0f\n      eq\n      tag_3\n      jumpi\n    tag_2:\n      0x00\n      dup1\n      revert\n        /* \"contracts/2_walletBalance_flit.sol\":419:636  function getClientInfo(string calldata _username) public view returns(uint, address, string memory) {... */\n    tag_3:\n      tag_4\n      0x04\n      dup1\n      calldatasize\n      sub\n      dup2\n      add\n      swap1\n      tag_5\n      swap2\n      swap1\n      tag_6\n      jump\t// in\n    tag_5:\n      tag_7\n      jump\t// in\n    tag_4:\n      mload(0x40)\n      tag_8\n      swap4\n      swap3\n      swap2\n      swap1\n      tag_9\n      jump\t// in\n    tag_8:\n      mload(0x40)\n      dup1\n      swap2\n      sub\n      swap1\n      return\n    tag_7:\n        /* \"contracts/2_walletBalance_flit.sol\":489:493  uint */\n      0x00\n        /* \"contracts/2_walletBalance_flit.sol\":495:502  address */\n      dup1\n        /* \"contracts/2_walletBalance_flit.sol\":504:517  string memory */\n      0x60\n        /* \"contracts/2_walletBalance_flit.sol\":536:542  client */\n      0x00\n      dup1\n      sload\n      swap1\n      0x0100\n      exp\n      swap1\n      div\n      0xffffffffffffffffffffffffffffffffffffffff\n      and\n        /* \"contracts/2_walletBalance_flit.sol\":536:552  client.GetClient */\n      0xffffffffffffffffffffffffffffffffffffffff\n      and\n      0x24e164f7\n        /* \"contracts/2_walletBalance_flit.sol\":553:562  _username */\n      dup7\n      dup7\n        /* \"contracts/2_walletBalance_flit.sol\":536:563  client.GetClient(_username) */\n      mload(0x40)\n      dup4\n      0xffffffff\n      and\n      0xe0\n      shl\n      dup2\n      mstore\n      0x04\n      add\n      tag_11\n      swap3\n      swap2\n      swap1\n      tag_12\n      jump\t// in\n    tag_11:\n      0x00\n      mload(0x40)\n      dup1\n      dup4\n      sub\n      dup2\n      dup7\n      gas\n      staticcall\n      iszero\n      dup1\n      iszero\n      tag_14\n      jumpi\n      returndatasize\n      0x00\n      dup1\n      returndatacopy\n      revert(0x00, returndatasize)\n    tag_14:\n      pop\n      pop\n      pop\n      pop\n      mload(0x40)\n      returndatasize\n      0x00\n      dup3\n      returndatacopy\n      returndatasize\n      not(0x1f)\n      0x1f\n      dup3\n      add\n      and\n      dup3\n      add\n      dup1\n      0x40\n      mstore\n      pop\n      dup2\n      add\n      swap1\n      tag_15\n      swap2\n      swap1\n      tag_16\n      jump\t// in\n    tag_15:\n        /* \"contracts/2_walletBalance_flit.sol\":529:563  return client.GetClient(_username) */\n      swap3\n      pop\n      swap3\n      pop\n      swap3\n      pop\n        /* \"contracts/2_walletBalance_flit.sol\":419:636  function getClientInfo(string calldata _username) public view returns(uint, address, string memory) {... */\n      swap3\n      pop\n      swap3\n      pop\n      swap3\n      jump\t// out\n        /* \"#utility.yul\":7:82   */\n    tag_17:\n        /* \"#utility.yul\":40:46   */\n      0x00\n        /* \"#utility.yul\":73:75   */\n      0x40\n        /* \"#utility.yul\":67:76   */\n      mload\n        /* \"#utility.yul\":57:76   */\n      swap1\n      pop\n        /* \"#utility.yul\":7:82   */\n      swap1\n      jump\t// out\n        /* \"#utility.yul\":88:205   */\n    tag_18:\n        /* \"#utility.yul\":197:198   */\n      0x00\n        /* \"#utility.yul\":194:195   */\n      dup1\n        /* \"#utility.yul\":187:199   */\n      revert\n        /* \"#utility.yul\":211:328   */\n    tag_19:\n        /* \"#utility.yul\":320:321   */\n      0x00\n        /* \"#utility.yul\":317:318   */\n      dup1\n        /* \"#utility.yul\":310:322   */\n      revert\n        /* \"#utility.yul\":334:451   */\n    tag_20:\n        /* \"#utility.yul\":443:444   */\n      0x00\n        /* \"#utility.yul\":440:441   */\n      dup1\n        /* \"#utility.yul\":433:445   */\n      revert\n        /* \"#utility.yul\":457:574   */\n    tag_21:\n        /* \"#utility.yul\":566:567   */\n      0x00\n        /* \"#utility.yul\":563:564   */\n      dup1\n        /* \"#utility.yul\":556:568   */\n      revert\n        /* \"#utility.yul\":580:697   */\n    tag_22:\n        /* \"#utility.yul\":689:690   */\n      0x00\n        /* \"#utility.yul\":686:687   */\n      dup1\n        /* \"#utility.yul\":679:691   */\n      revert\n        /* \"#utility.yul\":717:1270   */\n    tag_23:\n        /* \"#utility.yul\":775:783   */\n      0x00\n        /* \"#utility.yul\":785:791   */\n      dup1\n        /* \"#utility.yul\":835:838   */\n      dup4\n        /* \"#utility.yul\":828:832   */\n      0x1f\n        /* \"#utility.yul\":820:826   */\n      dup5\n        /* \"#utility.yul\":816:833   */\n      add\n        /* \"#utility.yul\":812:839   */\n      slt\n        /* \"#utility.yul\":802:924   */\n      tag_55\n      jumpi\n        /* \"#utility.yul\":843:922   */\n      tag_56\n      tag_20\n      jump\t// in\n    tag_56:\n        /* \"#utility.yul\":802:924   */\n    tag_55:\n        /* \"#utility.yul\":956:962   */\n      dup3\n        /* \"#utility.yul\":943:963   */\n      calldataload\n        /* \"#utility.yul\":933:963   */\n      swap1\n      pop\n        /* \"#utility.yul\":986:1004   */\n      0xffffffffffffffff\n        /* \"#utility.yul\":978:984   */\n      dup2\n        /* \"#utility.yul\":975:1005   */\n      gt\n        /* \"#utility.yul\":972:1089   */\n      iszero\n      tag_57\n      jumpi\n        /* \"#utility.yul\":1008:1087   */\n      tag_58\n      tag_21\n      jump\t// in\n    tag_58:\n        /* \"#utility.yul\":972:1089   */\n    tag_57:\n        /* \"#utility.yul\":1122:1126   */\n      0x20\n        /* \"#utility.yul\":1114:1120   */\n      dup4\n        /* \"#utility.yul\":1110:1127   */\n      add\n        /* \"#utility.yul\":1098:1127   */\n      swap2\n      pop\n        /* \"#utility.yul\":1176:1179   */\n      dup4\n        /* \"#utility.yul\":1168:1172   */\n      0x01\n        /* \"#utility.yul\":1160:1166   */\n      dup3\n        /* \"#utility.yul\":1156:1173   */\n      mul\n        /* \"#utility.yul\":1146:1154   */\n      dup4\n        /* \"#utility.yul\":1142:1174   */\n      add\n        /* \"#utility.yul\":1139:1180   */\n      gt\n        /* \"#utility.yul\":1136:1264   */\n      iszero\n      tag_59\n      jumpi\n        /* \"#utility.yul\":1183:1262   */\n      tag_60\n      tag_22\n      jump\t// in\n    tag_60:\n        /* \"#utility.yul\":1136:1264   */\n    tag_59:\n        /* \"#utility.yul\":717:1270   */\n      swap3\n      pop\n      swap3\n      swap1\n      pop\n      jump\t// out\n        /* \"#utility.yul\":1276:1805   */\n    tag_6:\n        /* \"#utility.yul\":1347:1353   */\n      0x00\n        /* \"#utility.yul\":1355:1361   */\n      dup1\n        /* \"#utility.yul\":1404:1406   */\n      0x20\n        /* \"#utility.yul\":1392:1401   */\n      dup4\n        /* \"#utility.yul\":1383:1390   */\n      dup6\n        /* \"#utility.yul\":1379:1402   */\n      sub\n        /* \"#utility.yul\":1375:1407   */\n      slt\n        /* \"#utility.yul\":1372:1491   */\n      iszero\n      tag_62\n      jumpi\n        /* \"#utility.yul\":1410:1489   */\n      tag_63\n      tag_18\n      jump\t// in\n    tag_63:\n        /* \"#utility.yul\":1372:1491   */\n    tag_62:\n        /* \"#utility.yul\":1558:1559   */\n      0x00\n        /* \"#utility.yul\":1547:1556   */\n      dup4\n        /* \"#utility.yul\":1543:1560   */\n      add\n        /* \"#utility.yul\":1530:1561   */\n      calldataload\n        /* \"#utility.yul\":1588:1606   */\n      0xffffffffffffffff\n        /* \"#utility.yul\":1580:1586   */\n      dup2\n        /* \"#utility.yul\":1577:1607   */\n      gt\n        /* \"#utility.yul\":1574:1691   */\n      iszero\n      tag_64\n      jumpi\n        /* \"#utility.yul\":1610:1689   */\n      tag_65\n      tag_19\n      jump\t// in\n    tag_65:\n        /* \"#utility.yul\":1574:1691   */\n    tag_64:\n        /* \"#utility.yul\":1723:1788   */\n      tag_66\n        /* \"#utility.yul\":1780:1787   */\n      dup6\n        /* \"#utility.yul\":1771:1777   */\n      dup3\n        /* \"#utility.yul\":1760:1769   */\n      dup7\n        /* \"#utility.yul\":1756:1778   */\n      add\n        /* \"#utility.yul\":1723:1788   */\n      tag_23\n      jump\t// in\n    tag_66:\n        /* \"#utility.yul\":1705:1788   */\n      swap3\n      pop\n      swap3\n      pop\n        /* \"#utility.yul\":1501:1798   */\n      pop\n        /* \"#utility.yul\":1276:1805   */\n      swap3\n      pop\n      swap3\n      swap1\n      pop\n      jump\t// out\n        /* \"#utility.yul\":1811:1888   */\n    tag_24:\n        /* \"#utility.yul\":1848:1855   */\n      0x00\n        /* \"#utility.yul\":1877:1882   */\n      dup2\n        /* \"#utility.yul\":1866:1882   */\n      swap1\n      pop\n        /* \"#utility.yul\":1811:1888   */\n      swap2\n      swap1\n      pop\n      jump\t// out\n        /* \"#utility.yul\":1894:2012   */\n    tag_25:\n        /* \"#utility.yul\":1981:2005   */\n      tag_69\n        /* \"#utility.yul\":1999:2004   */\n      dup2\n        /* \"#utility.yul\":1981:2005   */\n      tag_24\n      jump\t// in\n    tag_69:\n        /* \"#utility.yul\":1976:1979   */\n      dup3\n        /* \"#utility.yul\":1969:2006   */\n      mstore\n        /* \"#utility.yul\":1894:2012   */\n      pop\n      pop\n      jump\t// out\n        /* \"#utility.yul\":2018:2144   */\n    tag_26:\n        /* \"#utility.yul\":2055:2062   */\n      0x00\n        /* \"#utility.yul\":2095:2137   */\n      0xffffffffffffffffffffffffffffffffffffffff\n        /* \"#utility.yul\":2088:2093   */\n      dup3\n        /* \"#utility.yul\":2084:2138   */\n      and\n        /* \"#utility.yul\":2073:2138   */\n      swap1\n      pop\n        /* \"#utility.yul\":2018:2144   */\n      swap2\n      swap1\n      pop\n      jump\t// out\n        /* \"#utility.yul\":2150:2246   */\n    tag_27:\n        /* \"#utility.yul\":2187:2194   */\n      0x00\n        /* \"#utility.yul\":2216:2240   */\n      tag_72\n        /* \"#utility.yul\":2234:2239   */\n      dup3\n        /* \"#utility.yul\":2216:2240   */\n      tag_26\n      jump\t// in\n    tag_72:\n        /* \"#utility.yul\":2205:2240   */\n      swap1\n      pop\n        /* \"#utility.yul\":2150:2246   */\n      swap2\n      swap1\n      pop\n      jump\t// out\n        /* \"#utility.yul\":2252:2370   */\n    tag_28:\n        /* \"#utility.yul\":2339:2363   */\n      tag_74\n        /* \"#utility.yul\":2357:2362   */\n      dup2\n        /* \"#utility.yul\":2339:2363   */\n      tag_27\n      jump\t// in\n    tag_74:\n        /* \"#utility.yul\":2334:2337   */\n      dup3\n        /* \"#utility.yul\":2327:2364   */\n      mstore\n        /* \"#utility.yul\":2252:2370   */\n      pop\n      pop\n      jump\t// out\n        /* \"#utility.yul\":2376:2475   */\n    tag_29:\n        /* \"#utility.yul\":2428:2434   */\n      0x00\n        /* \"#utility.yul\":2462:2467   */\n      dup2\n        /* \"#utility.yul\":2456:2468   */\n      mload\n        /* \"#utility.yul\":2446:2468   */\n      swap1\n      pop\n        /* \"#utility.yul\":2376:2475   */\n      swap2\n      swap1\n      pop\n      jump\t// out\n        /* \"#utility.yul\":2481:2650   */\n    tag_30:\n        /* \"#utility.yul\":2565:2576   */\n      0x00\n        /* \"#utility.yul\":2599:2605   */\n      dup3\n        /* \"#utility.yul\":2594:2597   */\n      dup3\n        /* \"#utility.yul\":2587:2606   */\n      mstore\n        /* \"#utility.yul\":2639:2643   */\n      0x20\n        /* \"#utility.yul\":2634:2637   */\n      dup3\n        /* \"#utility.yul\":2630:2644   */\n      add\n        /* \"#utility.yul\":2615:2644   */\n      swap1\n      pop\n        /* \"#utility.yul\":2481:2650   */\n      swap3\n      swap2\n      pop\n      pop\n      jump\t// out\n        /* \"#utility.yul\":2656:2902   */\n    tag_31:\n        /* \"#utility.yul\":2737:2738   */\n      0x00\n        /* \"#utility.yul\":2747:2860   */\n    tag_78:\n        /* \"#utility.yul\":2761:2767   */\n      dup4\n        /* \"#utility.yul\":2758:2759   */\n      dup2\n        /* \"#utility.yul\":2755:2768   */\n      lt\n        /* \"#utility.yul\":2747:2860   */\n      iszero\n      tag_80\n      jumpi\n        /* \"#utility.yul\":2846:2847   */\n      dup1\n        /* \"#utility.yul\":2841:2844   */\n      dup3\n        /* \"#utility.yul\":2837:2848   */\n      add\n        /* \"#utility.yul\":2831:2849   */\n      mload\n        /* \"#utility.yul\":2827:2828   */\n      dup2\n        /* \"#utility.yul\":2822:2825   */\n      dup5\n        /* \"#utility.yul\":2818:2829   */\n      add\n        /* \"#utility.yul\":2811:2850   */\n      mstore\n        /* \"#utility.yul\":2783:2785   */\n      0x20\n        /* \"#utility.yul\":2780:2781   */\n      dup2\n        /* \"#utility.yul\":2776:2786   */\n      add\n        /* \"#utility.yul\":2771:2786   */\n      swap1\n      pop\n        /* \"#utility.yul\":2747:2860   */\n      jump(tag_78)\n    tag_80:\n        /* \"#utility.yul\":2894:2895   */\n      0x00\n        /* \"#utility.yul\":2885:2891   */\n      dup5\n        /* \"#utility.yul\":2880:2883   */\n      dup5\n        /* \"#utility.yul\":2876:2892   */\n      add\n        /* \"#utility.yul\":2869:2896   */\n      mstore\n        /* \"#utility.yul\":2718:2902   */\n      pop\n        /* \"#utility.yul\":2656:2902   */\n      pop\n      pop\n      pop\n      jump\t// out\n        /* \"#utility.yul\":2908:3010   */\n    tag_32:\n        /* \"#utility.yul\":2949:2955   */\n      0x00\n        /* \"#utility.yul\":3000:3002   */\n      0x1f\n        /* \"#utility.yul\":2996:3003   */\n      not\n        /* \"#utility.yul\":2991:2993   */\n      0x1f\n        /* \"#utility.yul\":2984:2989   */\n      dup4\n        /* \"#utility.yul\":2980:2994   */\n      add\n        /* \"#utility.yul\":2976:3004   */\n      and\n        /* \"#utility.yul\":2966:3004   */\n      swap1\n      pop\n        /* \"#utility.yul\":2908:3010   */\n      swap2\n      swap1\n      pop\n      jump\t// out\n        /* \"#utility.yul\":3016:3393   */\n    tag_33:\n        /* \"#utility.yul\":3104:3107   */\n      0x00\n        /* \"#utility.yul\":3132:3171   */\n      tag_83\n        /* \"#utility.yul\":3165:3170   */\n      dup3\n        /* \"#utility.yul\":3132:3171   */\n      tag_29\n      jump\t// in\n    tag_83:\n        /* \"#utility.yul\":3187:3258   */\n      tag_84\n        /* \"#utility.yul\":3251:3257   */\n      dup2\n        /* \"#utility.yul\":3246:3249   */\n      dup6\n        /* \"#utility.yul\":3187:3258   */\n      tag_30\n      jump\t// in\n    tag_84:\n        /* \"#utility.yul\":3180:3258   */\n      swap4\n      pop\n        /* \"#utility.yul\":3267:3332   */\n      tag_85\n        /* \"#utility.yul\":3325:3331   */\n      dup2\n        /* \"#utility.yul\":3320:3323   */\n      dup6\n        /* \"#utility.yul\":3313:3317   */\n      0x20\n        /* \"#utility.yul\":3306:3311   */\n      dup7\n        /* \"#utility.yul\":3302:3318   */\n      add\n        /* \"#utility.yul\":3267:3332   */\n      tag_31\n      jump\t// in\n    tag_85:\n        /* \"#utility.yul\":3357:3386   */\n      tag_86\n        /* \"#utility.yul\":3379:3385   */\n      dup2\n        /* \"#utility.yul\":3357:3386   */\n      tag_32\n      jump\t// in\n    tag_86:\n        /* \"#utility.yul\":3352:3355   */\n      dup5\n        /* \"#utility.yul\":3348:3387   */\n      add\n        /* \"#utility.yul\":3341:3387   */\n      swap2\n      pop\n        /* \"#utility.yul\":3108:3393   */\n      pop\n        /* \"#utility.yul\":3016:3393   */\n      swap3\n      swap2\n      pop\n      pop\n      jump\t// out\n        /* \"#utility.yul\":3399:3932   */\n    tag_9:\n        /* \"#utility.yul\":3568:3572   */\n      0x00\n        /* \"#utility.yul\":3606:3608   */\n      0x60\n        /* \"#utility.yul\":3595:3604   */\n      dup3\n        /* \"#utility.yul\":3591:3609   */\n      add\n        /* \"#utility.yul\":3583:3609   */\n      swap1\n      pop\n        /* \"#utility.yul\":3619:3690   */\n      tag_88\n        /* \"#utility.yul\":3687:3688   */\n      0x00\n        /* \"#utility.yul\":3676:3685   */\n      dup4\n        /* \"#utility.yul\":3672:3689   */\n      add\n        /* \"#utility.yul\":3663:3669   */\n      dup7\n        /* \"#utility.yul\":3619:3690   */\n      tag_25\n      jump\t// in\n    tag_88:\n        /* \"#utility.yul\":3700:3772   */\n      tag_89\n        /* \"#utility.yul\":3768:3770   */\n      0x20\n        /* \"#utility.yul\":3757:3766   */\n      dup4\n        /* \"#utility.yul\":3753:3771   */\n      add\n        /* \"#utility.yul\":3744:3750   */\n      dup6\n        /* \"#utility.yul\":3700:3772   */\n      tag_28\n      jump\t// in\n    tag_89:\n        /* \"#utility.yul\":3819:3828   */\n      dup2\n        /* \"#utility.yul\":3813:3817   */\n      dup2\n        /* \"#utility.yul\":3809:3829   */\n      sub\n        /* \"#utility.yul\":3804:3806   */\n      0x40\n        /* \"#utility.yul\":3793:3802   */\n      dup4\n        /* \"#utility.yul\":3789:3807   */\n      add\n        /* \"#utility.yul\":3782:3830   */\n      mstore\n        /* \"#utility.yul\":3847:3925   */\n      tag_90\n        /* \"#utility.yul\":3920:3924   */\n      dup2\n        /* \"#utility.yul\":3911:3917   */\n      dup5\n        /* \"#utility.yul\":3847:3925   */\n      tag_33\n      jump\t// in\n    tag_90:\n        /* \"#utility.yul\":3839:3925   */\n      swap1\n      pop\n        /* \"#utility.yul\":3399:3932   */\n      swap5\n      swap4\n      pop\n      pop\n      pop\n      pop\n      jump\t// out\n        /* \"#utility.yul\":3938:4084   */\n    tag_34:\n        /* \"#utility.yul\":4035:4041   */\n      dup3\n        /* \"#utility.yul\":4030:4033   */\n      dup2\n        /* \"#utility.yul\":4025:4028   */\n      dup4\n        /* \"#utility.yul\":4012:4042   */\n      calldatacopy\n        /* \"#utility.yul\":4076:4077   */\n      0x00\n        /* \"#utility.yul\":4067:4073   */\n      dup4\n        /* \"#utility.yul\":4062:4065   */\n      dup4\n        /* \"#utility.yul\":4058:4074   */\n      add\n        /* \"#utility.yul\":4051:4078   */\n      mstore\n        /* \"#utility.yul\":3938:4084   */\n      pop\n      pop\n      pop\n      jump\t// out\n        /* \"#utility.yul\":4114:4431   */\n    tag_35:\n        /* \"#utility.yul\":4212:4215   */\n      0x00\n        /* \"#utility.yul\":4233:4304   */\n      tag_93\n        /* \"#utility.yul\":4297:4303   */\n      dup4\n        /* \"#utility.yul\":4292:4295   */\n      dup6\n        /* \"#utility.yul\":4233:4304   */\n      tag_30\n      jump\t// in\n    tag_93:\n        /* \"#utility.yul\":4226:4304   */\n      swap4\n      pop\n        /* \"#utility.yul\":4314:4370   */\n      tag_94\n        /* \"#utility.yul\":4363:4369   */\n      dup4\n        /* \"#utility.yul\":4358:4361   */\n      dup6\n        /* \"#utility.yul\":4351:4356   */\n      dup5\n        /* \"#utility.yul\":4314:4370   */\n      tag_34\n      jump\t// in\n    tag_94:\n        /* \"#utility.yul\":4395:4424   */\n      tag_95\n        /* \"#utility.yul\":4417:4423   */\n      dup4\n        /* \"#utility.yul\":4395:4424   */\n      tag_32\n      jump\t// in\n    tag_95:\n        /* \"#utility.yul\":4390:4393   */\n      dup5\n        /* \"#utility.yul\":4386:4425   */\n      add\n        /* \"#utility.yul\":4379:4425   */\n      swap1\n      pop\n        /* \"#utility.yul\":4114:4431   */\n      swap4\n      swap3\n      pop\n      pop\n      pop\n      jump\t// out\n        /* \"#utility.yul\":4437:4770   */\n    tag_12:\n        /* \"#utility.yul\":4560:4564   */\n      0x00\n        /* \"#utility.yul\":4598:4600   */\n      0x20\n        /* \"#utility.yul\":4587:4596   */\n      dup3\n        /* \"#utility.yul\":4583:4601   */\n      add\n        /* \"#utility.yul\":4575:4601   */\n      swap1\n      pop\n        /* \"#utility.yul\":4647:4656   */\n      dup2\n        /* \"#utility.yul\":4641:4645   */\n      dup2\n        /* \"#utility.yul\":4637:4657   */\n      sub\n        /* \"#utility.yul\":4633:4634   */\n      0x00\n        /* \"#utility.yul\":4622:4631   */\n      dup4\n        /* \"#utility.yul\":4618:4635   */\n      add\n        /* \"#utility.yul\":4611:4658   */\n      mstore\n        /* \"#utility.yul\":4675:4763   */\n      tag_97\n        /* \"#utility.yul\":4758:4762   */\n      dup2\n        /* \"#utility.yul\":4749:4755   */\n      dup5\n        /* \"#utility.yul\":4741:4747   */\n      dup7\n        /* \"#utility.yul\":4675:4763   */\n      tag_35\n      jump\t// in\n    tag_97:\n        /* \"#utility.yul\":4667:4763   */\n      swap1\n      pop\n        /* \"#utility.yul\":4437:4770   */\n      swap4\n      swap3\n      pop\n      pop\n      pop\n      jump\t// out\n        /* \"#utility.yul\":4776:4898   */\n    tag_36:\n        /* \"#utility.yul\":4849:4873   */\n      tag_99\n        /* \"#utility.yul\":4867:4872   */\n      dup2\n        /* \"#utility.yul\":4849:4873   */\n      tag_24\n      jump\t// in\n    tag_99:\n        /* \"#utility.yul\":4842:4847   */\n      dup2\n        /* \"#utility.yul\":4839:4874   */\n      eq\n        /* \"#utility.yul\":4829:4892   */\n      tag_100\n      jumpi\n        /* \"#utility.yul\":4888:4889   */\n      0x00\n        /* \"#utility.yul\":4885:4886   */\n      dup1\n        /* \"#utility.yul\":4878:4890   */\n      revert\n        /* \"#utility.yul\":4829:4892   */\n    tag_100:\n        /* \"#utility.yul\":4776:4898   */\n      pop\n      jump\t// out\n        /* \"#utility.yul\":4904:5047   */\n    tag_37:\n        /* \"#utility.yul\":4961:4966   */\n      0x00\n        /* \"#utility.yul\":4992:4998   */\n      dup2\n        /* \"#utility.yul\":4986:4999   */\n      mload\n        /* \"#utility.yul\":4977:4999   */\n      swap1\n      pop\n        /* \"#utility.yul\":5008:5041   */\n      tag_102\n        /* \"#utility.yul\":5035:5040   */\n      dup2\n        /* \"#utility.yul\":5008:5041   */\n      tag_36\n      jump\t// in\n    tag_102:\n        /* \"#utility.yul\":4904:5047   */\n      swap3\n      swap2\n      pop\n      pop\n      jump\t// out\n        /* \"#utility.yul\":5053:5175   */\n    tag_38:\n        /* \"#utility.yul\":5126:5150   */\n      tag_104\n        /* \"#utility.yul\":5144:5149   */\n      dup2\n        /* \"#utility.yul\":5126:5150   */\n      tag_27\n      jump\t// in\n    tag_104:\n        /* \"#utility.yul\":5119:5124   */\n      dup2\n        /* \"#utility.yul\":5116:5151   */\n      eq\n        /* \"#utility.yul\":5106:5169   */\n      tag_105\n      jumpi\n        /* \"#utility.yul\":5165:5166   */\n      0x00\n        /* \"#utility.yul\":5162:5163   */\n      dup1\n        /* \"#utility.yul\":5155:5167   */\n      revert\n        /* \"#utility.yul\":5106:5169   */\n    tag_105:\n        /* \"#utility.yul\":5053:5175   */\n      pop\n      jump\t// out\n        /* \"#utility.yul\":5181:5324   */\n    tag_39:\n        /* \"#utility.yul\":5238:5243   */\n      0x00\n        /* \"#utility.yul\":5269:5275   */\n      dup2\n        /* \"#utility.yul\":5263:5276   */\n      mload\n        /* \"#utility.yul\":5254:5276   */\n      swap1\n      pop\n        /* \"#utility.yul\":5285:5318   */\n      tag_107\n        /* \"#utility.yul\":5312:5317   */\n      dup2\n        /* \"#utility.yul\":5285:5318   */\n      tag_38\n      jump\t// in\n    tag_107:\n        /* \"#utility.yul\":5181:5324   */\n      swap3\n      swap2\n      pop\n      pop\n      jump\t// out\n        /* \"#utility.yul\":5330:5447   */\n    tag_40:\n        /* \"#utility.yul\":5439:5440   */\n      0x00\n        /* \"#utility.yul\":5436:5437   */\n      dup1\n        /* \"#utility.yul\":5429:5441   */\n      revert\n        /* \"#utility.yul\":5453:5633   */\n    tag_41:\n        /* \"#utility.yul\":5501:5578   */\n      0x4e487b7100000000000000000000000000000000000000000000000000000000\n        /* \"#utility.yul\":5498:5499   */\n      0x00\n        /* \"#utility.yul\":5491:5579   */\n      mstore\n        /* \"#utility.yul\":5598:5602   */\n      0x41\n        /* \"#utility.yul\":5595:5596   */\n      0x04\n        /* \"#utility.yul\":5588:5603   */\n      mstore\n        /* \"#utility.yul\":5622:5626   */\n      0x24\n        /* \"#utility.yul\":5619:5620   */\n      0x00\n        /* \"#utility.yul\":5612:5627   */\n      revert\n        /* \"#utility.yul\":5639:5920   */\n    tag_42:\n        /* \"#utility.yul\":5722:5749   */\n      tag_111\n        /* \"#utility.yul\":5744:5748   */\n      dup3\n        /* \"#utility.yul\":5722:5749   */\n      tag_32\n      jump\t// in\n    tag_111:\n        /* \"#utility.yul\":5714:5720   */\n      dup2\n        /* \"#utility.yul\":5710:5750   */\n      add\n        /* \"#utility.yul\":5852:5858   */\n      dup2\n        /* \"#utility.yul\":5840:5850   */\n      dup2\n        /* \"#utility.yul\":5837:5859   */\n      lt\n        /* \"#utility.yul\":5816:5834   */\n      0xffffffffffffffff\n        /* \"#utility.yul\":5804:5814   */\n      dup3\n        /* \"#utility.yul\":5801:5835   */\n      gt\n        /* \"#utility.yul\":5798:5860   */\n      or\n        /* \"#utility.yul\":5795:5883   */\n      iszero\n      tag_112\n      jumpi\n        /* \"#utility.yul\":5863:5881   */\n      tag_113\n      tag_41\n      jump\t// in\n    tag_113:\n        /* \"#utility.yul\":5795:5883   */\n    tag_112:\n        /* \"#utility.yul\":5903:5913   */\n      dup1\n        /* \"#utility.yul\":5899:5901   */\n      0x40\n        /* \"#utility.yul\":5892:5914   */\n      mstore\n        /* \"#utility.yul\":5682:5920   */\n      pop\n        /* \"#utility.yul\":5639:5920   */\n      pop\n      pop\n      jump\t// out\n        /* \"#utility.yul\":5926:6055   */\n    tag_43:\n        /* \"#utility.yul\":5960:5966   */\n      0x00\n        /* \"#utility.yul\":5987:6007   */\n      tag_115\n      tag_17\n      jump\t// in\n    tag_115:\n        /* \"#utility.yul\":5977:6007   */\n      swap1\n      pop\n        /* \"#utility.yul\":6016:6049   */\n      tag_116\n        /* \"#utility.yul\":6044:6048   */\n      dup3\n        /* \"#utility.yul\":6036:6042   */\n      dup3\n        /* \"#utility.yul\":6016:6049   */\n      tag_42\n      jump\t// in\n    tag_116:\n        /* \"#utility.yul\":5926:6055   */\n      swap2\n      swap1\n      pop\n      jump\t// out\n        /* \"#utility.yul\":6061:6369   */\n    tag_44:\n        /* \"#utility.yul\":6123:6127   */\n      0x00\n        /* \"#utility.yul\":6213:6231   */\n      0xffffffffffffffff\n        /* \"#utility.yul\":6205:6211   */\n      dup3\n        /* \"#utility.yul\":6202:6232   */\n      gt\n        /* \"#utility.yul\":6199:6255   */\n      iszero\n      tag_118\n      jumpi\n        /* \"#utility.yul\":6235:6253   */\n      tag_119\n      tag_41\n      jump\t// in\n    tag_119:\n        /* \"#utility.yul\":6199:6255   */\n    tag_118:\n        /* \"#utility.yul\":6273:6302   */\n      tag_120\n        /* \"#utility.yul\":6295:6301   */\n      dup3\n        /* \"#utility.yul\":6273:6302   */\n      tag_32\n      jump\t// in\n    tag_120:\n        /* \"#utility.yul\":6265:6302   */\n      swap1\n      pop\n        /* \"#utility.yul\":6357:6361   */\n      0x20\n        /* \"#utility.yul\":6351:6355   */\n      dup2\n        /* \"#utility.yul\":6347:6362   */\n      add\n        /* \"#utility.yul\":6339:6362   */\n      swap1\n      pop\n        /* \"#utility.yul\":6061:6369   */\n      swap2\n      swap1\n      pop\n      jump\t// out\n        /* \"#utility.yul\":6375:6809   */\n    tag_45:\n        /* \"#utility.yul\":6464:6469   */\n      0x00\n        /* \"#utility.yul\":6489:6555   */\n      tag_122\n        /* \"#utility.yul\":6505:6554   */\n      tag_123\n        /* \"#utility.yul\":6547:6553   */\n      dup5\n        /* \"#utility.yul\":6505:6554   */\n      tag_44\n      jump\t// in\n    tag_123:\n        /* \"#utility.yul\":6489:6555   */\n      tag_43\n      jump\t// in\n    tag_122:\n        /* \"#utility.yul\":6480:6555   */\n      swap1\n      pop\n        /* \"#utility.yul\":6578:6584   */\n      dup3\n        /* \"#utility.yul\":6571:6576   */\n      dup2\n        /* \"#utility.yul\":6564:6585   */\n      mstore\n        /* \"#utility.yul\":6616:6620   */\n      0x20\n        /* \"#utility.yul\":6609:6614   */\n      dup2\n        /* \"#utility.yul\":6605:6621   */\n      add\n        /* \"#utility.yul\":6654:6657   */\n      dup5\n        /* \"#utility.yul\":6645:6651   */\n      dup5\n        /* \"#utility.yul\":6640:6643   */\n      dup5\n        /* \"#utility.yul\":6636:6652   */\n      add\n        /* \"#utility.yul\":6633:6658   */\n      gt\n        /* \"#utility.yul\":6630:6742   */\n      iszero\n      tag_124\n      jumpi\n        /* \"#utility.yul\":6661:6740   */\n      tag_125\n      tag_40\n      jump\t// in\n    tag_125:\n        /* \"#utility.yul\":6630:6742   */\n    tag_124:\n        /* \"#utility.yul\":6751:6803   */\n      tag_126\n        /* \"#utility.yul\":6796:6802   */\n      dup5\n        /* \"#utility.yul\":6791:6794   */\n      dup3\n        /* \"#utility.yul\":6786:6789   */\n      dup6\n        /* \"#utility.yul\":6751:6803   */\n      tag_31\n      jump\t// in\n    tag_126:\n        /* \"#utility.yul\":6470:6809   */\n      pop\n        /* \"#utility.yul\":6375:6809   */\n      swap4\n      swap3\n      pop\n      pop\n      pop\n      jump\t// out\n        /* \"#utility.yul\":6829:7184   */\n    tag_46:\n        /* \"#utility.yul\":6896:6901   */\n      0x00\n        /* \"#utility.yul\":6945:6948   */\n      dup3\n        /* \"#utility.yul\":6938:6942   */\n      0x1f\n        /* \"#utility.yul\":6930:6936   */\n      dup4\n        /* \"#utility.yul\":6926:6943   */\n      add\n        /* \"#utility.yul\":6922:6949   */\n      slt\n        /* \"#utility.yul\":6912:7034   */\n      tag_128\n      jumpi\n        /* \"#utility.yul\":6953:7032   */\n      tag_129\n      tag_20\n      jump\t// in\n    tag_129:\n        /* \"#utility.yul\":6912:7034   */\n    tag_128:\n        /* \"#utility.yul\":7063:7069   */\n      dup2\n        /* \"#utility.yul\":7057:7070   */\n      mload\n        /* \"#utility.yul\":7088:7178   */\n      tag_130\n        /* \"#utility.yul\":7174:7177   */\n      dup5\n        /* \"#utility.yul\":7166:7172   */\n      dup3\n        /* \"#utility.yul\":7159:7163   */\n      0x20\n        /* \"#utility.yul\":7151:7157   */\n      dup7\n        /* \"#utility.yul\":7147:7164   */\n      add\n        /* \"#utility.yul\":7088:7178   */\n      tag_45\n      jump\t// in\n    tag_130:\n        /* \"#utility.yul\":7079:7178   */\n      swap2\n      pop\n        /* \"#utility.yul\":6902:7184   */\n      pop\n        /* \"#utility.yul\":6829:7184   */\n      swap3\n      swap2\n      pop\n      pop\n      jump\t// out\n        /* \"#utility.yul\":7190:8026   */\n    tag_16:\n        /* \"#utility.yul\":7288:7294   */\n      0x00\n        /* \"#utility.yul\":7296:7302   */\n      dup1\n        /* \"#utility.yul\":7304:7310   */\n      0x00\n        /* \"#utility.yul\":7353:7355   */\n      0x60\n        /* \"#utility.yul\":7341:7350   */\n      dup5\n        /* \"#utility.yul\":7332:7339   */\n      dup7\n        /* \"#utility.yul\":7328:7351   */\n      sub\n        /* \"#utility.yul\":7324:7356   */\n      slt\n        /* \"#utility.yul\":7321:7440   */\n      iszero\n      tag_132\n      jumpi\n        /* \"#utility.yul\":7359:7438   */\n      tag_133\n      tag_18\n      jump\t// in\n    tag_133:\n        /* \"#utility.yul\":7321:7440   */\n    tag_132:\n        /* \"#utility.yul\":7479:7480   */\n      0x00\n        /* \"#utility.yul\":7504:7568   */\n      tag_134\n        /* \"#utility.yul\":7560:7567   */\n      dup7\n        /* \"#utility.yul\":7551:7557   */\n      dup3\n        /* \"#utility.yul\":7540:7549   */\n      dup8\n        /* \"#utility.yul\":7536:7558   */\n      add\n        /* \"#utility.yul\":7504:7568   */\n      tag_37\n      jump\t// in\n    tag_134:\n        /* \"#utility.yul\":7494:7568   */\n      swap4\n      pop\n        /* \"#utility.yul\":7450:7578   */\n      pop\n        /* \"#utility.yul\":7617:7619   */\n      0x20\n        /* \"#utility.yul\":7643:7707   */\n      tag_135\n        /* \"#utility.yul\":7699:7706   */\n      dup7\n        /* \"#utility.yul\":7690:7696   */\n      dup3\n        /* \"#utility.yul\":7679:7688   */\n      dup8\n        /* \"#utility.yul\":7675:7697   */\n      add\n        /* \"#utility.yul\":7643:7707   */\n      tag_39\n      jump\t// in\n    tag_135:\n        /* \"#utility.yul\":7633:7707   */\n      swap3\n      pop\n        /* \"#utility.yul\":7588:7717   */\n      pop\n        /* \"#utility.yul\":7777:7779   */\n      0x40\n        /* \"#utility.yul\":7766:7775   */\n      dup5\n        /* \"#utility.yul\":7762:7780   */\n      add\n        /* \"#utility.yul\":7756:7781   */\n      mload\n        /* \"#utility.yul\":7808:7826   */\n      0xffffffffffffffff\n        /* \"#utility.yul\":7800:7806   */\n      dup2\n        /* \"#utility.yul\":7797:7827   */\n      gt\n        /* \"#utility.yul\":7794:7911   */\n      iszero\n      tag_136\n      jumpi\n        /* \"#utility.yul\":7830:7909   */\n      tag_137\n      tag_19\n      jump\t// in\n    tag_137:\n        /* \"#utility.yul\":7794:7911   */\n    tag_136:\n        /* \"#utility.yul\":7935:8009   */\n      tag_138\n        /* \"#utility.yul\":8001:8008   */\n      dup7\n        /* \"#utility.yul\":7992:7998   */\n      dup3\n        /* \"#utility.yul\":7981:7990   */\n      dup8\n        /* \"#utility.yul\":7977:7999   */\n      add\n        /* \"#utility.yul\":7935:8009   */\n      tag_46\n      jump\t// in\n    tag_138:\n        /* \"#utility.yul\":7925:8009   */\n      swap2\n      pop\n        /* \"#utility.yul\":7727:8019   */\n      pop\n        /* \"#utility.yul\":7190:8026   */\n      swap3\n      pop\n      swap3\n      pop\n      swap3\n      jump\t// out\n\n    auxdata: 0xa2646970667358221220fc9b30185616f103c39b4a58d49ba2e93ff64b17256836ee961e2868075b174764736f6c63430008180033\n}\n",
				"bytecode": {
					"linkReferences": {},
					"object": "608060405234801561000f575f80fd5b506105528061001d5f395ff3fe608060405234801561000f575f80fd5b5060043610610029575f3560e01c806394700b0f1461002d575b5f80fd5b6100476004803603810190610042919061017e565b61005f565b604051610056939291906102aa565b60405180910390f35b5f8060605f8054906101000a900473ffffffffffffffffffffffffffffffffffffffff1673ffffffffffffffffffffffffffffffffffffffff166324e164f786866040518363ffffffff1660e01b81526004016100bd929190610320565b5f60405180830381865afa1580156100d7573d5f803e3d5ffd5b505050506040513d5f823e3d601f19601f820116820180604052508101906100ff91906104b0565b9250925092509250925092565b5f604051905090565b5f80fd5b5f80fd5b5f80fd5b5f80fd5b5f80fd5b5f8083601f84011261013e5761013d61011d565b5b8235905067ffffffffffffffff81111561015b5761015a610121565b5b60208301915083600182028301111561017757610176610125565b5b9250929050565b5f806020838503121561019457610193610115565b5b5f83013567ffffffffffffffff8111156101b1576101b0610119565b5b6101bd85828601610129565b92509250509250929050565b5f819050919050565b6101db816101c9565b82525050565b5f73ffffffffffffffffffffffffffffffffffffffff82169050919050565b5f61020a826101e1565b9050919050565b61021a81610200565b82525050565b5f81519050919050565b5f82825260208201905092915050565b5f5b8381101561025757808201518184015260208101905061023c565b5f8484015250505050565b5f601f19601f8301169050919050565b5f61027c82610220565b610286818561022a565b935061029681856020860161023a565b61029f81610262565b840191505092915050565b5f6060820190506102bd5f8301866101d2565b6102ca6020830185610211565b81810360408301526102dc8184610272565b9050949350505050565b828183375f83830152505050565b5f6102ff838561022a565b935061030c8385846102e6565b61031583610262565b840190509392505050565b5f6020820190508181035f8301526103398184866102f4565b90509392505050565b61034b816101c9565b8114610355575f80fd5b50565b5f8151905061036681610342565b92915050565b61037581610200565b811461037f575f80fd5b50565b5f815190506103908161036c565b92915050565b5f80fd5b7f4e487b71000000000000000000000000000000000000000000000000000000005f52604160045260245ffd5b6103d082610262565b810181811067ffffffffffffffff821117156103ef576103ee61039a565b5b80604052505050565b5f61040161010c565b905061040d82826103c7565b919050565b5f67ffffffffffffffff82111561042c5761042b61039a565b5b61043582610262565b9050602081019050919050565b5f61045461044f84610412565b6103f8565b9050828152602081018484840111156104705761046f610396565b5b61047b84828561023a565b509392505050565b5f82601f8301126104975761049661011d565b5b81516104a7848260208601610442565b91505092915050565b5f805f606084860312156104c7576104c6610115565b5b5f6104d486828701610358565b93505060206104e586828701610382565b925050604084015167ffffffffffffffff81111561050657610505610119565b5b61051286828701610483565b915050925092509256fea2646970667358221220fc9b30185616f103c39b4a58d49ba2e93ff64b17256836ee961e2868075b174764736f6c63430008180033",
					"opcodes": "PUSH1 0x80 PUSH1 0x40 MSTORE CALLVALUE DUP1 ISZERO PUSH2 0xF JUMPI PUSH0 DUP1 REVERT JUMPDEST POP PUSH2 0x552 DUP1 PUSH2 0x1D PUSH0 CODECOPY PUSH0 RETURN INVALID PUSH1 0x80 PUSH1 0x40 MSTORE CALLVALUE DUP1 ISZERO PUSH2 0xF JUMPI PUSH0 DUP1 REVERT JUMPDEST POP PUSH1 0x4 CALLDATASIZE LT PUSH2 0x29 JUMPI PUSH0 CALLDATALOAD PUSH1 0xE0 SHR DUP1 PUSH4 0x94700B0F EQ PUSH2 0x2D JUMPI JUMPDEST PUSH0 DUP1 REVERT JUMPDEST PUSH2 0x47 PUSH1 0x4 DUP1 CALLDATASIZE SUB DUP2 ADD SWAP1 PUSH2 0x42 SWAP2 SWAP1 PUSH2 0x17E JUMP JUMPDEST PUSH2 0x5F JUMP JUMPDEST PUSH1 0x40 MLOAD PUSH2 0x56 SWAP4 SWAP3 SWAP2 SWAP1 PUSH2 0x2AA JUMP JUMPDEST PUSH1 0x40 MLOAD DUP1 SWAP2 SUB SWAP1 RETURN JUMPDEST PUSH0 DUP1 PUSH1 0x60 PUSH0 DUP1 SLOAD SWAP1 PUSH2 0x100 EXP SWAP1 DIV PUSH20 0xFFFFFFFFFFFFFFFFFFFFFFFFFFFFFFFFFFFFFFFF AND PUSH20 0xFFFFFFFFFFFFFFFFFFFFFFFFFFFFFFFFFFFFFFFF AND PUSH4 0x24E164F7 DUP7 DUP7 PUSH1 0x40 MLOAD DUP4 PUSH4 0xFFFFFFFF AND PUSH1 0xE0 SHL DUP2 MSTORE PUSH1 0x4 ADD PUSH2 0xBD SWAP3 SWAP2 SWAP1 PUSH2 0x320 JUMP JUMPDEST PUSH0 PUSH1 0x40 MLOAD DUP1 DUP4 SUB DUP2 DUP7 GAS STATICCALL ISZERO DUP1 ISZERO PUSH2 0xD7 JUMPI RETURNDATASIZE PUSH0 DUP1 RETURNDATACOPY RETURNDATASIZE PUSH0 REVERT JUMPDEST POP POP POP POP PUSH1 0x40 MLOAD RETURNDATASIZE PUSH0 DUP3 RETURNDATACOPY RETURNDATASIZE PUSH1 0x1F NOT PUSH1 0x1F DUP3 ADD AND DUP3 ADD DUP1 PUSH1 0x40 MSTORE POP DUP2 ADD SWAP1 PUSH2 0xFF SWAP2 SWAP1 PUSH2 0x4B0 JUMP JUMPDEST SWAP3 POP SWAP3 POP SWAP3 POP SWAP3 POP SWAP3 POP SWAP3 JUMP JUMPDEST PUSH0 PUSH1 0x40 MLOAD SWAP1 POP SWAP1 JUMP JUMPDEST PUSH0 DUP1 REVERT JUMPDEST PUSH0 DUP1 REVERT JUMPDEST PUSH0 DUP1 REVERT JUMPDEST PUSH0 DUP1 REVERT JUMPDEST PUSH0 DUP1 REVERT JUMPDEST PUSH0 DUP1 DUP4 PUSH1 0x1F DUP5 ADD SLT PUSH2 0x13E JUMPI PUSH2 0x13D PUSH2 0x11D JUMP JUMPDEST JUMPDEST DUP3 CALLDATALOAD SWAP1 POP PUSH8 0xFFFFFFFFFFFFFFFF DUP2 GT ISZERO PUSH2 0x15B JUMPI PUSH2 0x15A PUSH2 0x121 JUMP JUMPDEST JUMPDEST PUSH1 0x20 DUP4 ADD SWAP2 POP DUP4 PUSH1 0x1 DUP3 MUL DUP4 ADD GT ISZERO PUSH2 0x177 JUMPI PUSH2 0x176 PUSH2 0x125 JUMP JUMPDEST JUMPDEST SWAP3 POP SWAP3 SWAP1 POP JUMP JUMPDEST PUSH0 DUP1 PUSH1 0x20 DUP4 DUP6 SUB SLT ISZERO PUSH2 0x194 JUMPI PUSH2 0x193 PUSH2 0x115 JUMP JUMPDEST JUMPDEST PUSH0 DUP4 ADD CALLDATALOAD PUSH8 0xFFFFFFFFFFFFFFFF DUP2 GT ISZERO PUSH2 0x1B1 JUMPI PUSH2 0x1B0 PUSH2 0x119 JUMP JUMPDEST JUMPDEST PUSH2 0x1BD DUP6 DUP3 DUP7 ADD PUSH2 0x129 JUMP JUMPDEST SWAP3 POP SWAP3 POP POP SWAP3 POP SWAP3 SWAP1 POP JUMP JUMPDEST PUSH0 DUP2 SWAP1 POP SWAP2 SWAP1 POP JUMP JUMPDEST PUSH2 0x1DB DUP2 PUSH2 0x1C9 JUMP JUMPDEST DUP3 MSTORE POP POP JUMP JUMPDEST PUSH0 PUSH20 0xFFFFFFFFFFFFFFFFFFFFFFFFFFFFFFFFFFFFFFFF DUP3 AND SWAP1 POP SWAP2 SWAP1 POP JUMP JUMPDEST PUSH0 PUSH2 0x20A DUP3 PUSH2 0x1E1 JUMP JUMPDEST SWAP1 POP SWAP2 SWAP1 POP JUMP JUMPDEST PUSH2 0x21A DUP2 PUSH2 0x200 JUMP JUMPDEST DUP3 MSTORE POP POP JUMP JUMPDEST PUSH0 DUP2 MLOAD SWAP1 POP SWAP2 SWAP1 POP JUMP JUMPDEST PUSH0 DUP3 DUP3 MSTORE PUSH1 0x20 DUP3 ADD SWAP1 POP SWAP3 SWAP2 POP POP JUMP JUMPDEST PUSH0 JUMPDEST DUP4 DUP2 LT ISZERO PUSH2 0x257 JUMPI DUP1 DUP3 ADD MLOAD DUP2 DUP5 ADD MSTORE PUSH1 0x20 DUP2 ADD SWAP1 POP PUSH2 0x23C JUMP JUMPDEST PUSH0 DUP5 DUP5 ADD MSTORE POP POP POP POP JUMP JUMPDEST PUSH0 PUSH1 0x1F NOT PUSH1 0x1F DUP4 ADD AND SWAP1 POP SWAP2 SWAP1 POP JUMP JUMPDEST PUSH0 PUSH2 0x27C DUP3 PUSH2 0x220 JUMP JUMPDEST PUSH2 0x286 DUP2 DUP6 PUSH2 0x22A JUMP JUMPDEST SWAP4 POP PUSH2 0x296 DUP2 DUP6 PUSH1 0x20 DUP7 ADD PUSH2 0x23A JUMP JUMPDEST PUSH2 0x29F DUP2 PUSH2 0x262 JUMP JUMPDEST DUP5 ADD SWAP2 POP POP SWAP3 SWAP2 POP POP JUMP JUMPDEST PUSH0 PUSH1 0x60 DUP3 ADD SWAP1 POP PUSH2 0x2BD PUSH0 DUP4 ADD DUP7 PUSH2 0x1D2 JUMP JUMPDEST PUSH2 0x2CA PUSH1 0x20 DUP4 ADD DUP6 PUSH2 0x211 JUMP JUMPDEST DUP2 DUP2 SUB PUSH1 0x40 DUP4 ADD MSTORE PUSH2 0x2DC DUP2 DUP5 PUSH2 0x272 JUMP JUMPDEST SWAP1 POP SWAP5 SWAP4 POP POP POP POP JUMP JUMPDEST DUP3 DUP2 DUP4 CALLDATACOPY PUSH0 DUP4 DUP4 ADD MSTORE POP POP POP JUMP JUMPDEST PUSH0 PUSH2 0x2FF DUP4 DUP6 PUSH2 0x22A JUMP JUMPDEST SWAP4 POP PUSH2 0x30C DUP4 DUP6 DUP5 PUSH2 0x2E6 JUMP JUMPDEST PUSH2 0x315 DUP4 PUSH2 0x262 JUMP JUMPDEST DUP5 ADD SWAP1 POP SWAP4 SWAP3 POP POP POP JUMP JUMPDEST PUSH0 PUSH1 0x20 DUP3 ADD SWAP1 POP DUP2 DUP2 SUB PUSH0 DUP4 ADD MSTORE PUSH2 0x339 DUP2 DUP5 DUP7 PUSH2 0x2F4 JUMP JUMPDEST SWAP1 POP SWAP4 SWAP3 POP POP POP JUMP JUMPDEST PUSH2 0x34B DUP2 PUSH2 0x1C9 JUMP JUMPDEST DUP2 EQ PUSH2 0x355 JUMPI PUSH0 DUP1 REVERT JUMPDEST POP JUMP JUMPDEST PUSH0 DUP2 MLOAD SWAP1 POP PUSH2 0x366 DUP2 PUSH2 0x342 JUMP JUMPDEST SWAP3 SWAP2 POP POP JUMP JUMPDEST PUSH2 0x375 DUP2 PUSH2 0x200 JUMP JUMPDEST DUP2 EQ PUSH2 0x37F JUMPI PUSH0 DUP1 REVERT JUMPDEST POP JUMP JUMPDEST PUSH0 DUP2 MLOAD SWAP1 POP PUSH2 0x390 DUP2 PUSH2 0x36C JUMP JUMPDEST SWAP3 SWAP2 POP POP JUMP JUMPDEST PUSH0 DUP1 REVERT JUMPDEST PUSH32 0x4E487B7100000000000000000000000000000000000000000000000000000000 PUSH0 MSTORE PUSH1 0x41 PUSH1 0x4 MSTORE PUSH1 0x24 PUSH0 REVERT JUMPDEST PUSH2 0x3D0 DUP3 PUSH2 0x262 JUMP JUMPDEST DUP2 ADD DUP2 DUP2 LT PUSH8 0xFFFFFFFFFFFFFFFF DUP3 GT OR ISZERO PUSH2 0x3EF JUMPI PUSH2 0x3EE PUSH2 0x39A JUMP JUMPDEST JUMPDEST DUP1 PUSH1 0x40 MSTORE POP POP POP JUMP JUMPDEST PUSH0 PUSH2 0x401 PUSH2 0x10C JUMP JUMPDEST SWAP1 POP PUSH2 0x40D DUP3 DUP3 PUSH2 0x3C7 JUMP JUMPDEST SWAP2 SWAP1 POP JUMP JUMPDEST PUSH0 PUSH8 0xFFFFFFFFFFFFFFFF DUP3 GT ISZERO PUSH2 0x42C JUMPI PUSH2 0x42B PUSH2 0x39A JUMP JUMPDEST JUMPDEST PUSH2 0x435 DUP3 PUSH2 0x262 JUMP JUMPDEST SWAP1 POP PUSH1 0x20 DUP2 ADD SWAP1 POP SWAP2 SWAP1 POP JUMP JUMPDEST PUSH0 PUSH2 0x454 PUSH2 0x44F DUP5 PUSH2 0x412 JUMP JUMPDEST PUSH2 0x3F8 JUMP JUMPDEST SWAP1 POP DUP3 DUP2 MSTORE PUSH1 0x20 DUP2 ADD DUP5 DUP5 DUP5 ADD GT ISZERO PUSH2 0x470 JUMPI PUSH2 0x46F PUSH2 0x396 JUMP JUMPDEST JUMPDEST PUSH2 0x47B DUP5 DUP3 DUP6 PUSH2 0x23A JUMP JUMPDEST POP SWAP4 SWAP3 POP POP POP JUMP JUMPDEST PUSH0 DUP3 PUSH1 0x1F DUP4 ADD SLT PUSH2 0x497 JUMPI PUSH2 0x496 PUSH2 0x11D JUMP JUMPDEST JUMPDEST DUP2 MLOAD PUSH2 0x4A7 DUP5 DUP3 PUSH1 0x20 DUP7 ADD PUSH2 0x442 JUMP JUMPDEST SWAP2 POP POP SWAP3 SWAP2 POP POP JUMP JUMPDEST PUSH0 DUP1 PUSH0 PUSH1 0x60 DUP5 DUP7 SUB SLT ISZERO PUSH2 0x4C7 JUMPI PUSH2 0x4C6 PUSH2 0x115 JUMP JUMPDEST JUMPDEST PUSH0 PUSH2 0x4D4 DUP7 DUP3 DUP8 ADD PUSH2 0x358 JUMP JUMPDEST SWAP4 POP POP PUSH1 0x20 PUSH2 0x4E5 DUP7 DUP3 DUP8 ADD PUSH2 0x382 JUMP JUMPDEST SWAP3 POP POP PUSH1 0x40 DUP5 ADD MLOAD PUSH8 0xFFFFFFFFFFFFFFFF DUP2 GT ISZERO PUSH2 0x506 JUMPI PUSH2 0x505 PUSH2 0x119 JUMP JUMPDEST JUMPDEST PUSH2 0x512 DUP7 DUP3 DUP8 ADD PUSH2 0x483 JUMP JUMPDEST SWAP2 POP POP SWAP3 POP SWAP3 POP SWAP3 JUMP INVALID LOG2 PUSH5 0x6970667358 0x22 SLT KECCAK256 0xFC SWAP12 ADDRESS XOR JUMP AND CALL SUB 0xC3 SWAP12 BLOBBASEFEE PC 0xD4 SWAP12 LOG2 0xE9 EXTCODEHASH 0xF6 0x4B OR 0x25 PUSH9 0x36EE961E2868075B17 SELFBALANCE PUSH5 0x736F6C6343 STOP ADDMOD XOR STOP CALLER "
				},
				"gasEstimates": {
					"creation": {
						"codeDepositCost": "272400",
						"executionCost": "310",
						"totalCost": "272710"
					},
					"external": {
						"getClientInfo(string)": "infinite"
					}
				},
				"methodIdentifiers": {
					"getClientInfo(string)": "94700b0f"
				}
			},
			"storageLayout": {
				"storage": [
					{
						"astId": 101,
						"contract": "contracts/2_walletBalance_flit.sol:WalletBalance",
						"label": "client",
						"offset": 0,
						"slot": "0",
						"type": "t_contract(NewClient)95"
					}
				],
				"types": {
					"t_contract(NewClient)95": {
						"encoding": "inplace",
						"label": "contract NewClient",
						"numberOfBytes": "20"
					}
				}
			},
			"userdoc": {
				"kind": "user",
				"methods": {},
				"version": 1
			}
		}
	}
}