{
	"contracts/task-contract.sol": {
		"TaskContract": {
			"abi": [
				{
					"inputs": [
						{
							"internalType": "string",
							"name": "_name",
							"type": "string"
						},
						{
							"internalType": "string",
							"name": "_description",
							"type": "string"
						}
					],
					"name": "CreateTask",
					"outputs": [],
					"stateMutability": "nonpayable",
					"type": "function"
				},
				{
					"inputs": [
						{
							"internalType": "uint256",
							"name": "_id",
							"type": "uint256"
						}
					],
					"name": "DeleteTask",
					"outputs": [],
					"stateMutability": "nonpayable",
					"type": "function"
				},
				{
					"inputs": [
						{
							"internalType": "uint256",
							"name": "_id",
							"type": "uint256"
						}
					],
					"name": "ReadTask",
					"outputs": [
						{
							"internalType": "uint256",
							"name": "",
							"type": "uint256"
						},
						{
							"internalType": "string",
							"name": "",
							"type": "string"
						},
						{
							"internalType": "string",
							"name": "",
							"type": "string"
						}
					],
					"stateMutability": "view",
					"type": "function"
				},
				{
					"inputs": [
						{
							"internalType": "uint256",
							"name": "_id",
							"type": "uint256"
						},
						{
							"internalType": "string",
							"name": "_name",
							"type": "string"
						},
						{
							"internalType": "string",
							"name": "_description",
							"type": "string"
						}
					],
					"name": "UpdateTask",
					"outputs": [],
					"stateMutability": "nonpayable",
					"type": "function"
				}
			],
			"devdoc": {
				"kind": "dev",
				"methods": {},
				"version": 1
			},
			"evm": {
				"assembly": "    /* \"contracts/task-contract.sol\":62:1834  contract TaskContract {... */\n  mstore(0x40, 0x80)\n  callvalue\n  dup1\n  iszero\n  tag_1\n  jumpi\n  0x00\n  dup1\n  revert\ntag_1:\n  pop\n  dataSize(sub_0)\n  dup1\n  dataOffset(sub_0)\n  0x00\n  codecopy\n  0x00\n  return\nstop\n\nsub_0: assembly {\n        /* \"contracts/task-contract.sol\":62:1834  contract TaskContract {... */\n      mstore(0x40, 0x80)\n      callvalue\n      dup1\n      iszero\n      tag_1\n      jumpi\n      0x00\n      dup1\n      revert\n    tag_1:\n      pop\n      jumpi(tag_2, lt(calldatasize, 0x04))\n      shr(0xe0, calldataload(0x00))\n      dup1\n      0x4e7097a3\n      eq\n      tag_3\n      jumpi\n      dup1\n      0x8092b80a\n      eq\n      tag_4\n      jumpi\n      dup1\n      0x8c2dccd1\n      eq\n      tag_5\n      jumpi\n      dup1\n      0xdf144328\n      eq\n      tag_6\n      jumpi\n    tag_2:\n      0x00\n      dup1\n      revert\n        /* \"contracts/task-contract.sol\":1168:1496  function ReadTask(uint _id) public view returns(uint, string memory, string memory) { //\"memory\" solo va a estar guardado el string un tiempo, en el tiempo de ejecución, no se va a guardar en la blockchain... */\n    tag_3:\n      tag_7\n      0x04\n      dup1\n      calldatasize\n      sub\n      dup2\n      add\n      swap1\n      tag_8\n      swap2\n      swap1\n      tag_9\n      jump\t// in\n    tag_8:\n      tag_10\n      jump\t// in\n    tag_7:\n      mload(0x40)\n      tag_11\n      swap4\n      swap3\n      swap2\n      swap1\n      tag_12\n      jump\t// in\n    tag_11:\n      mload(0x40)\n      dup1\n      swap2\n      sub\n      swap1\n      return\n        /* \"contracts/task-contract.sol\":367:596  function CreateTask(string memory _name, string memory _description) public { //Función pública para crear una tarea y sumarle +1 al índice... */\n    tag_4:\n      tag_13\n      0x04\n      dup1\n      calldatasize\n      sub\n      dup2\n      add\n      swap1\n      tag_14\n      swap2\n      swap1\n      tag_15\n      jump\t// in\n    tag_14:\n      tag_16\n      jump\t// in\n    tag_13:\n      stop\n        /* \"contracts/task-contract.sol\":1722:1832  function DeleteTask(uint _id) public {... */\n    tag_5:\n      tag_17\n      0x04\n      dup1\n      calldatasize\n      sub\n      dup2\n      add\n      swap1\n      tag_18\n      swap2\n      swap1\n      tag_9\n      jump\t// in\n    tag_18:\n      tag_19\n      jump\t// in\n    tag_17:\n      stop\n        /* \"contracts/task-contract.sol\":1502:1716  function UpdateTask(uint _id, string memory _name, string memory _description) public {... */\n    tag_6:\n      tag_20\n      0x04\n      dup1\n      calldatasize\n      sub\n      dup2\n      add\n      swap1\n      tag_21\n      swap2\n      swap1\n      tag_22\n      jump\t// in\n    tag_21:\n      tag_23\n      jump\t// in\n    tag_20:\n      stop\n        /* \"contracts/task-contract.sol\":1168:1496  function ReadTask(uint _id) public view returns(uint, string memory, string memory) { //\"memory\" solo va a estar guardado el string un tiempo, en el tiempo de ejecución, no se va a guardar en la blockchain... */\n    tag_10:\n        /* \"contracts/task-contract.sol\":1216:1220  uint */\n      0x00\n        /* \"contracts/task-contract.sol\":1222:1235  string memory */\n      0x60\n        /* \"contracts/task-contract.sol\":1237:1250  string memory */\n      dup1\n        /* \"contracts/task-contract.sol\":1383:1393  uint index */\n      0x00\n        /* \"contracts/task-contract.sol\":1396:1410  FindIndex(_id) */\n      tag_25\n        /* \"contracts/task-contract.sol\":1406:1409  _id */\n      dup6\n        /* \"contracts/task-contract.sol\":1396:1405  FindIndex */\n      tag_26\n        /* \"contracts/task-contract.sol\":1396:1410  FindIndex(_id) */\n      jump\t// in\n    tag_25:\n        /* \"contracts/task-contract.sol\":1383:1410  uint index = FindIndex(_id) */\n      swap1\n      pop\n        /* \"contracts/task-contract.sol\":1428:1433  tasks */\n      0x01\n        /* \"contracts/task-contract.sol\":1434:1439  index */\n      dup2\n        /* \"contracts/task-contract.sol\":1428:1440  tasks[index] */\n      dup2\n      sload\n      dup2\n      lt\n      tag_27\n      jumpi\n      tag_28\n      tag_29\n      jump\t// in\n    tag_28:\n    tag_27:\n      swap1\n      0x00\n      mstore\n      keccak256(0x00, 0x20)\n      swap1\n      0x03\n      mul\n      add\n        /* \"contracts/task-contract.sol\":1428:1443  tasks[index].id */\n      0x00\n      add\n      sload\n        /* \"contracts/task-contract.sol\":1445:1450  tasks */\n      0x01\n        /* \"contracts/task-contract.sol\":1451:1456  index */\n      dup3\n        /* \"contracts/task-contract.sol\":1445:1457  tasks[index] */\n      dup2\n      sload\n      dup2\n      lt\n      tag_31\n      jumpi\n      tag_32\n      tag_29\n      jump\t// in\n    tag_32:\n    tag_31:\n      swap1\n      0x00\n      mstore\n      keccak256(0x00, 0x20)\n      swap1\n      0x03\n      mul\n      add\n        /* \"contracts/task-contract.sol\":1445:1462  tasks[index].name */\n      0x01\n      add\n        /* \"contracts/task-contract.sol\":1464:1469  tasks */\n      0x01\n        /* \"contracts/task-contract.sol\":1470:1475  index */\n      dup4\n        /* \"contracts/task-contract.sol\":1464:1476  tasks[index] */\n      dup2\n      sload\n      dup2\n      lt\n      tag_34\n      jumpi\n      tag_35\n      tag_29\n      jump\t// in\n    tag_35:\n    tag_34:\n      swap1\n      0x00\n      mstore\n      keccak256(0x00, 0x20)\n      swap1\n      0x03\n      mul\n      add\n        /* \"contracts/task-contract.sol\":1464:1488  tasks[index].description */\n      0x02\n      add\n        /* \"contracts/task-contract.sol\":1420:1489  return (tasks[index].id, tasks[index].name, tasks[index].description) */\n      dup2\n      dup1\n      sload\n      tag_37\n      swap1\n      tag_38\n      jump\t// in\n    tag_37:\n      dup1\n      0x1f\n      add\n      0x20\n      dup1\n      swap2\n      div\n      mul\n      0x20\n      add\n      mload(0x40)\n      swap1\n      dup2\n      add\n      0x40\n      mstore\n      dup1\n      swap3\n      swap2\n      swap1\n      dup2\n      dup2\n      mstore\n      0x20\n      add\n      dup3\n      dup1\n      sload\n      tag_39\n      swap1\n      tag_38\n      jump\t// in\n    tag_39:\n      dup1\n      iszero\n      tag_40\n      jumpi\n      dup1\n      0x1f\n      lt\n      tag_41\n      jumpi\n      0x0100\n      dup1\n      dup4\n      sload\n      div\n      mul\n      dup4\n      mstore\n      swap2\n      0x20\n      add\n      swap2\n      jump(tag_40)\n    tag_41:\n      dup3\n      add\n      swap2\n      swap1\n      0x00\n      mstore\n      keccak256(0x00, 0x20)\n      swap1\n    tag_42:\n      dup2\n      sload\n      dup2\n      mstore\n      swap1\n      0x01\n      add\n      swap1\n      0x20\n      add\n      dup1\n      dup4\n      gt\n      tag_42\n      jumpi\n      dup3\n      swap1\n      sub\n      0x1f\n      and\n      dup3\n      add\n      swap2\n    tag_40:\n      pop\n      pop\n      pop\n      pop\n      pop\n      swap2\n      pop\n      dup1\n      dup1\n      sload\n      tag_43\n      swap1\n      tag_38\n      jump\t// in\n    tag_43:\n      dup1\n      0x1f\n      add\n      0x20\n      dup1\n      swap2\n      div\n      mul\n      0x20\n      add\n      mload(0x40)\n      swap1\n      dup2\n      add\n      0x40\n      mstore\n      dup1\n      swap3\n      swap2\n      swap1\n      dup2\n      dup2\n      mstore\n      0x20\n      add\n      dup3\n      dup1\n      sload\n      tag_44\n      swap1\n      tag_38\n      jump\t// in\n    tag_44:\n      dup1\n      iszero\n      tag_45\n      jumpi\n      dup1\n      0x1f\n      lt\n      tag_46\n      jumpi\n      0x0100\n      dup1\n      dup4\n      sload\n      div\n      mul\n      dup4\n      mstore\n      swap2\n      0x20\n      add\n      swap2\n      jump(tag_45)\n    tag_46:\n      dup3\n      add\n      swap2\n      swap1\n      0x00\n      mstore\n      keccak256(0x00, 0x20)\n      swap1\n    tag_47:\n      dup2\n      sload\n      dup2\n      mstore\n      swap1\n      0x01\n      add\n      swap1\n      0x20\n      add\n      dup1\n      dup4\n      gt\n      tag_47\n      jumpi\n      dup3\n      swap1\n      sub\n      0x1f\n      and\n      dup3\n      add\n      swap2\n    tag_45:\n      pop\n      pop\n      pop\n      pop\n      pop\n      swap1\n      pop\n      swap4\n      pop\n      swap4\n      pop\n      swap4\n      pop\n      pop\n        /* \"contracts/task-contract.sol\":1168:1496  function ReadTask(uint _id) public view returns(uint, string memory, string memory) { //\"memory\" solo va a estar guardado el string un tiempo, en el tiempo de ejecución, no se va a guardar en la blockchain... */\n      swap2\n      swap4\n      swap1\n      swap3\n      pop\n      jump\t// out\n        /* \"contracts/task-contract.sol\":367:596  function CreateTask(string memory _name, string memory _description) public { //Función pública para crear una tarea y sumarle +1 al índice... */\n    tag_16:\n        /* \"contracts/task-contract.sol\":518:523  tasks */\n      0x01\n        /* \"contracts/task-contract.sol\":529:562  Task(nextId, _name, _description) */\n      mload(0x40)\n      dup1\n      0x60\n      add\n      0x40\n      mstore\n      dup1\n        /* \"contracts/task-contract.sol\":534:540  nextId */\n      sload(0x00)\n        /* \"contracts/task-contract.sol\":529:562  Task(nextId, _name, _description) */\n      dup2\n      mstore\n      0x20\n      add\n        /* \"contracts/task-contract.sol\":542:547  _name */\n      dup5\n        /* \"contracts/task-contract.sol\":529:562  Task(nextId, _name, _description) */\n      dup2\n      mstore\n      0x20\n      add\n        /* \"contracts/task-contract.sol\":549:561  _description */\n      dup4\n        /* \"contracts/task-contract.sol\":529:562  Task(nextId, _name, _description) */\n      dup2\n      mstore\n      pop\n        /* \"contracts/task-contract.sol\":518:563  tasks.push(Task(nextId, _name, _description)) */\n      swap1\n      dup1\n      0x01\n      dup2\n      sload\n      add\n      dup1\n      dup3\n      sstore\n      dup1\n      swap2\n      pop\n      pop\n      0x01\n      swap1\n      sub\n      swap1\n      0x00\n      mstore\n      keccak256(0x00, 0x20)\n      swap1\n      0x03\n      mul\n      add\n      0x00\n      swap1\n      swap2\n      swap1\n      swap2\n      swap1\n      swap2\n      pop\n      0x00\n      dup3\n      add\n      mload\n      dup2\n      0x00\n      add\n      sstore\n      0x20\n      dup3\n      add\n      mload\n      dup2\n      0x01\n      add\n      swap1\n      dup2\n      tag_50\n      swap2\n      swap1\n      tag_51\n      jump\t// in\n    tag_50:\n      pop\n      0x40\n      dup3\n      add\n      mload\n      dup2\n      0x02\n      add\n      swap1\n      dup2\n      tag_52\n      swap2\n      swap1\n      tag_51\n      jump\t// in\n    tag_52:\n      pop\n      pop\n      pop\n        /* \"contracts/task-contract.sol\":573:579  nextId */\n      0x00\n      dup1\n        /* \"contracts/task-contract.sol\":573:581  nextId++ */\n      dup2\n      sload\n      dup1\n      swap3\n      swap2\n      swap1\n      tag_53\n      swap1\n      tag_54\n      jump\t// in\n    tag_53:\n      swap2\n      swap1\n      pop\n      sstore\n      pop\n        /* \"contracts/task-contract.sol\":367:596  function CreateTask(string memory _name, string memory _description) public { //Función pública para crear una tarea y sumarle +1 al índice... */\n      pop\n      pop\n      jump\t// out\n        /* \"contracts/task-contract.sol\":1722:1832  function DeleteTask(uint _id) public {... */\n    tag_19:\n        /* \"contracts/task-contract.sol\":1769:1779  uint index */\n      0x00\n        /* \"contracts/task-contract.sol\":1782:1796  FindIndex(_id) */\n      tag_56\n        /* \"contracts/task-contract.sol\":1792:1795  _id */\n      dup3\n        /* \"contracts/task-contract.sol\":1782:1791  FindIndex */\n      tag_26\n        /* \"contracts/task-contract.sol\":1782:1796  FindIndex(_id) */\n      jump\t// in\n    tag_56:\n        /* \"contracts/task-contract.sol\":1769:1796  uint index = FindIndex(_id) */\n      swap1\n      pop\n        /* \"contracts/task-contract.sol\":1813:1818  tasks */\n      0x01\n        /* \"contracts/task-contract.sol\":1819:1824  index */\n      dup2\n        /* \"contracts/task-contract.sol\":1813:1825  tasks[index] */\n      dup2\n      sload\n      dup2\n      lt\n      tag_57\n      jumpi\n      tag_58\n      tag_29\n      jump\t// in\n    tag_58:\n    tag_57:\n      swap1\n      0x00\n      mstore\n      keccak256(0x00, 0x20)\n      swap1\n      0x03\n      mul\n      add\n      0x00\n        /* \"contracts/task-contract.sol\":1806:1825  delete tasks[index] */\n      dup1\n      dup3\n      add\n      0x00\n      swap1\n      sstore\n      0x01\n      dup3\n      add\n      0x00\n      tag_60\n      swap2\n      swap1\n      tag_61\n      jump\t// in\n    tag_60:\n      0x02\n      dup3\n      add\n      0x00\n      tag_62\n      swap2\n      swap1\n      tag_61\n      jump\t// in\n    tag_62:\n      pop\n      pop\n        /* \"contracts/task-contract.sol\":1759:1832  {... */\n      pop\n        /* \"contracts/task-contract.sol\":1722:1832  function DeleteTask(uint _id) public {... */\n      pop\n      jump\t// out\n        /* \"contracts/task-contract.sol\":1502:1716  function UpdateTask(uint _id, string memory _name, string memory _description) public {... */\n    tag_23:\n        /* \"contracts/task-contract.sol\":1598:1608  uint index */\n      0x00\n        /* \"contracts/task-contract.sol\":1611:1625  FindIndex(_id) */\n      tag_64\n        /* \"contracts/task-contract.sol\":1621:1624  _id */\n      dup5\n        /* \"contracts/task-contract.sol\":1611:1620  FindIndex */\n      tag_26\n        /* \"contracts/task-contract.sol\":1611:1625  FindIndex(_id) */\n      jump\t// in\n    tag_64:\n        /* \"contracts/task-contract.sol\":1598:1625  uint index = FindIndex(_id) */\n      swap1\n      pop\n        /* \"contracts/task-contract.sol\":1655:1660  _name */\n      dup3\n        /* \"contracts/task-contract.sol\":1635:1640  tasks */\n      0x01\n        /* \"contracts/task-contract.sol\":1641:1646  index */\n      dup3\n        /* \"contracts/task-contract.sol\":1635:1647  tasks[index] */\n      dup2\n      sload\n      dup2\n      lt\n      tag_65\n      jumpi\n      tag_66\n      tag_29\n      jump\t// in\n    tag_66:\n    tag_65:\n      swap1\n      0x00\n      mstore\n      keccak256(0x00, 0x20)\n      swap1\n      0x03\n      mul\n      add\n        /* \"contracts/task-contract.sol\":1635:1652  tasks[index].name */\n      0x01\n      add\n        /* \"contracts/task-contract.sol\":1635:1660  tasks[index].name = _name */\n      swap1\n      dup2\n      tag_68\n      swap2\n      swap1\n      tag_51\n      jump\t// in\n    tag_68:\n      pop\n        /* \"contracts/task-contract.sol\":1697:1709  _description */\n      dup2\n        /* \"contracts/task-contract.sol\":1670:1675  tasks */\n      0x01\n        /* \"contracts/task-contract.sol\":1676:1681  index */\n      dup3\n        /* \"contracts/task-contract.sol\":1670:1682  tasks[index] */\n      dup2\n      sload\n      dup2\n      lt\n      tag_69\n      jumpi\n      tag_70\n      tag_29\n      jump\t// in\n    tag_70:\n    tag_69:\n      swap1\n      0x00\n      mstore\n      keccak256(0x00, 0x20)\n      swap1\n      0x03\n      mul\n      add\n        /* \"contracts/task-contract.sol\":1670:1694  tasks[index].description */\n      0x02\n      add\n        /* \"contracts/task-contract.sol\":1670:1709  tasks[index].description = _description */\n      swap1\n      dup2\n      tag_72\n      swap2\n      swap1\n      tag_51\n      jump\t// in\n    tag_72:\n      pop\n        /* \"contracts/task-contract.sol\":1588:1716  {... */\n      pop\n        /* \"contracts/task-contract.sol\":1502:1716  function UpdateTask(uint _id, string memory _name, string memory _description) public {... */\n      pop\n      pop\n      pop\n      jump\t// out\n        /* \"contracts/task-contract.sol\":808:1162  function FindIndex(uint _id) internal view returns(uint) {... */\n    tag_26:\n        /* \"contracts/task-contract.sol\":859:863  uint */\n      0x00\n        /* \"contracts/task-contract.sol\":879:885  uint i */\n      dup1\n        /* \"contracts/task-contract.sol\":888:889  0 */\n      0x00\n        /* \"contracts/task-contract.sol\":879:889  uint i = 0 */\n      swap1\n      pop\n        /* \"contracts/task-contract.sol\":875:1002  for(uint i = 0; i < tasks.length; i++) {... */\n    tag_74:\n        /* \"contracts/task-contract.sol\":895:900  tasks */\n      0x01\n        /* \"contracts/task-contract.sol\":895:907  tasks.length */\n      dup1\n      sload\n      swap1\n      pop\n        /* \"contracts/task-contract.sol\":891:892  i */\n      dup2\n        /* \"contracts/task-contract.sol\":891:907  i < tasks.length */\n      lt\n        /* \"contracts/task-contract.sol\":875:1002  for(uint i = 0; i < tasks.length; i++) {... */\n      iszero\n      tag_75\n      jumpi\n        /* \"contracts/task-contract.sol\":946:949  _id */\n      dup3\n        /* \"contracts/task-contract.sol\":931:936  tasks */\n      0x01\n        /* \"contracts/task-contract.sol\":937:938  i */\n      dup3\n        /* \"contracts/task-contract.sol\":931:939  tasks[i] */\n      dup2\n      sload\n      dup2\n      lt\n      tag_77\n      jumpi\n      tag_78\n      tag_29\n      jump\t// in\n    tag_78:\n    tag_77:\n      swap1\n      0x00\n      mstore\n      keccak256(0x00, 0x20)\n      swap1\n      0x03\n      mul\n      add\n        /* \"contracts/task-contract.sol\":931:942  tasks[i].id */\n      0x00\n      add\n      sload\n        /* \"contracts/task-contract.sol\":931:949  tasks[i].id == _id */\n      sub\n        /* \"contracts/task-contract.sol\":928:992  if(tasks[i].id == _id) {... */\n      tag_80\n      jumpi\n        /* \"contracts/task-contract.sol\":976:977  i */\n      dup1\n        /* \"contracts/task-contract.sol\":969:977  return i */\n      swap2\n      pop\n      pop\n      jump(tag_73)\n        /* \"contracts/task-contract.sol\":928:992  if(tasks[i].id == _id) {... */\n    tag_80:\n        /* \"contracts/task-contract.sol\":909:912  i++ */\n      dup1\n      dup1\n      0x01\n      add\n      swap2\n      pop\n      pop\n        /* \"contracts/task-contract.sol\":875:1002  for(uint i = 0; i < tasks.length; i++) {... */\n      jump(tag_74)\n    tag_75:\n      pop\n        /* \"contracts/task-contract.sol\":1011:1035  revert(\"Task not found\") */\n      mload(0x40)\n      0x08c379a000000000000000000000000000000000000000000000000000000000\n      dup2\n      mstore\n      0x04\n      add\n      tag_81\n      swap1\n      tag_82\n      jump\t// in\n    tag_81:\n      mload(0x40)\n      dup1\n      swap2\n      sub\n      swap1\n      revert\n        /* \"contracts/task-contract.sol\":808:1162  function FindIndex(uint _id) internal view returns(uint) {... */\n    tag_73:\n      swap2\n      swap1\n      pop\n      jump\t// out\n    tag_61:\n      pop\n      dup1\n      sload\n      tag_83\n      swap1\n      tag_38\n      jump\t// in\n    tag_83:\n      0x00\n      dup3\n      sstore\n      dup1\n      0x1f\n      lt\n      tag_85\n      jumpi\n      pop\n      jump(tag_84)\n    tag_85:\n      0x1f\n      add\n      0x20\n      swap1\n      div\n      swap1\n      0x00\n      mstore\n      keccak256(0x00, 0x20)\n      swap1\n      dup2\n      add\n      swap1\n      tag_86\n      swap2\n      swap1\n      tag_87\n      jump\t// in\n    tag_86:\n    tag_84:\n      pop\n      jump\t// out\n    tag_87:\n    tag_88:\n      dup1\n      dup3\n      gt\n      iszero\n      tag_89\n      jumpi\n      0x00\n      dup2\n      0x00\n      swap1\n      sstore\n      pop\n      0x01\n      add\n      jump(tag_88)\n    tag_89:\n      pop\n      swap1\n      jump\t// out\n        /* \"#utility.yul\":7:82   */\n    tag_90:\n        /* \"#utility.yul\":40:46   */\n      0x00\n        /* \"#utility.yul\":73:75   */\n      0x40\n        /* \"#utility.yul\":67:76   */\n      mload\n        /* \"#utility.yul\":57:76   */\n      swap1\n      pop\n        /* \"#utility.yul\":7:82   */\n      swap1\n      jump\t// out\n        /* \"#utility.yul\":88:205   */\n    tag_91:\n        /* \"#utility.yul\":197:198   */\n      0x00\n        /* \"#utility.yul\":194:195   */\n      dup1\n        /* \"#utility.yul\":187:199   */\n      revert\n        /* \"#utility.yul\":211:328   */\n    tag_92:\n        /* \"#utility.yul\":320:321   */\n      0x00\n        /* \"#utility.yul\":317:318   */\n      dup1\n        /* \"#utility.yul\":310:322   */\n      revert\n        /* \"#utility.yul\":334:411   */\n    tag_93:\n        /* \"#utility.yul\":371:378   */\n      0x00\n        /* \"#utility.yul\":400:405   */\n      dup2\n        /* \"#utility.yul\":389:405   */\n      swap1\n      pop\n        /* \"#utility.yul\":334:411   */\n      swap2\n      swap1\n      pop\n      jump\t// out\n        /* \"#utility.yul\":417:539   */\n    tag_94:\n        /* \"#utility.yul\":490:514   */\n      tag_136\n        /* \"#utility.yul\":508:513   */\n      dup2\n        /* \"#utility.yul\":490:514   */\n      tag_93\n      jump\t// in\n    tag_136:\n        /* \"#utility.yul\":483:488   */\n      dup2\n        /* \"#utility.yul\":480:515   */\n      eq\n        /* \"#utility.yul\":470:533   */\n      tag_137\n      jumpi\n        /* \"#utility.yul\":529:530   */\n      0x00\n        /* \"#utility.yul\":526:527   */\n      dup1\n        /* \"#utility.yul\":519:531   */\n      revert\n        /* \"#utility.yul\":470:533   */\n    tag_137:\n        /* \"#utility.yul\":417:539   */\n      pop\n      jump\t// out\n        /* \"#utility.yul\":545:684   */\n    tag_95:\n        /* \"#utility.yul\":591:596   */\n      0x00\n        /* \"#utility.yul\":629:635   */\n      dup2\n        /* \"#utility.yul\":616:636   */\n      calldataload\n        /* \"#utility.yul\":607:636   */\n      swap1\n      pop\n        /* \"#utility.yul\":645:678   */\n      tag_139\n        /* \"#utility.yul\":672:677   */\n      dup2\n        /* \"#utility.yul\":645:678   */\n      tag_94\n      jump\t// in\n    tag_139:\n        /* \"#utility.yul\":545:684   */\n      swap3\n      swap2\n      pop\n      pop\n      jump\t// out\n        /* \"#utility.yul\":690:1019   */\n    tag_9:\n        /* \"#utility.yul\":749:755   */\n      0x00\n        /* \"#utility.yul\":798:800   */\n      0x20\n        /* \"#utility.yul\":786:795   */\n      dup3\n        /* \"#utility.yul\":777:784   */\n      dup5\n        /* \"#utility.yul\":773:796   */\n      sub\n        /* \"#utility.yul\":769:801   */\n      slt\n        /* \"#utility.yul\":766:885   */\n      iszero\n      tag_141\n      jumpi\n        /* \"#utility.yul\":804:883   */\n      tag_142\n      tag_91\n      jump\t// in\n    tag_142:\n        /* \"#utility.yul\":766:885   */\n    tag_141:\n        /* \"#utility.yul\":924:925   */\n      0x00\n        /* \"#utility.yul\":949:1002   */\n      tag_143\n        /* \"#utility.yul\":994:1001   */\n      dup5\n        /* \"#utility.yul\":985:991   */\n      dup3\n        /* \"#utility.yul\":974:983   */\n      dup6\n        /* \"#utility.yul\":970:992   */\n      add\n        /* \"#utility.yul\":949:1002   */\n      tag_95\n      jump\t// in\n    tag_143:\n        /* \"#utility.yul\":939:1002   */\n      swap2\n      pop\n        /* \"#utility.yul\":895:1012   */\n      pop\n        /* \"#utility.yul\":690:1019   */\n      swap3\n      swap2\n      pop\n      pop\n      jump\t// out\n        /* \"#utility.yul\":1025:1143   */\n    tag_96:\n        /* \"#utility.yul\":1112:1136   */\n      tag_145\n        /* \"#utility.yul\":1130:1135   */\n      dup2\n        /* \"#utility.yul\":1112:1136   */\n      tag_93\n      jump\t// in\n    tag_145:\n        /* \"#utility.yul\":1107:1110   */\n      dup3\n        /* \"#utility.yul\":1100:1137   */\n      mstore\n        /* \"#utility.yul\":1025:1143   */\n      pop\n      pop\n      jump\t// out\n        /* \"#utility.yul\":1149:1248   */\n    tag_97:\n        /* \"#utility.yul\":1201:1207   */\n      0x00\n        /* \"#utility.yul\":1235:1240   */\n      dup2\n        /* \"#utility.yul\":1229:1241   */\n      mload\n        /* \"#utility.yul\":1219:1241   */\n      swap1\n      pop\n        /* \"#utility.yul\":1149:1248   */\n      swap2\n      swap1\n      pop\n      jump\t// out\n        /* \"#utility.yul\":1254:1423   */\n    tag_98:\n        /* \"#utility.yul\":1338:1349   */\n      0x00\n        /* \"#utility.yul\":1372:1378   */\n      dup3\n        /* \"#utility.yul\":1367:1370   */\n      dup3\n        /* \"#utility.yul\":1360:1379   */\n      mstore\n        /* \"#utility.yul\":1412:1416   */\n      0x20\n        /* \"#utility.yul\":1407:1410   */\n      dup3\n        /* \"#utility.yul\":1403:1417   */\n      add\n        /* \"#utility.yul\":1388:1417   */\n      swap1\n      pop\n        /* \"#utility.yul\":1254:1423   */\n      swap3\n      swap2\n      pop\n      pop\n      jump\t// out\n        /* \"#utility.yul\":1429:1675   */\n    tag_99:\n        /* \"#utility.yul\":1510:1511   */\n      0x00\n        /* \"#utility.yul\":1520:1633   */\n    tag_149:\n        /* \"#utility.yul\":1534:1540   */\n      dup4\n        /* \"#utility.yul\":1531:1532   */\n      dup2\n        /* \"#utility.yul\":1528:1541   */\n      lt\n        /* \"#utility.yul\":1520:1633   */\n      iszero\n      tag_151\n      jumpi\n        /* \"#utility.yul\":1619:1620   */\n      dup1\n        /* \"#utility.yul\":1614:1617   */\n      dup3\n        /* \"#utility.yul\":1610:1621   */\n      add\n        /* \"#utility.yul\":1604:1622   */\n      mload\n        /* \"#utility.yul\":1600:1601   */\n      dup2\n        /* \"#utility.yul\":1595:1598   */\n      dup5\n        /* \"#utility.yul\":1591:1602   */\n      add\n        /* \"#utility.yul\":1584:1623   */\n      mstore\n        /* \"#utility.yul\":1556:1558   */\n      0x20\n        /* \"#utility.yul\":1553:1554   */\n      dup2\n        /* \"#utility.yul\":1549:1559   */\n      add\n        /* \"#utility.yul\":1544:1559   */\n      swap1\n      pop\n        /* \"#utility.yul\":1520:1633   */\n      jump(tag_149)\n    tag_151:\n        /* \"#utility.yul\":1667:1668   */\n      0x00\n        /* \"#utility.yul\":1658:1664   */\n      dup5\n        /* \"#utility.yul\":1653:1656   */\n      dup5\n        /* \"#utility.yul\":1649:1665   */\n      add\n        /* \"#utility.yul\":1642:1669   */\n      mstore\n        /* \"#utility.yul\":1491:1675   */\n      pop\n        /* \"#utility.yul\":1429:1675   */\n      pop\n      pop\n      pop\n      jump\t// out\n        /* \"#utility.yul\":1681:1783   */\n    tag_100:\n        /* \"#utility.yul\":1722:1728   */\n      0x00\n        /* \"#utility.yul\":1773:1775   */\n      0x1f\n        /* \"#utility.yul\":1769:1776   */\n      not\n        /* \"#utility.yul\":1764:1766   */\n      0x1f\n        /* \"#utility.yul\":1757:1762   */\n      dup4\n        /* \"#utility.yul\":1753:1767   */\n      add\n        /* \"#utility.yul\":1749:1777   */\n      and\n        /* \"#utility.yul\":1739:1777   */\n      swap1\n      pop\n        /* \"#utility.yul\":1681:1783   */\n      swap2\n      swap1\n      pop\n      jump\t// out\n        /* \"#utility.yul\":1789:2166   */\n    tag_101:\n        /* \"#utility.yul\":1877:1880   */\n      0x00\n        /* \"#utility.yul\":1905:1944   */\n      tag_154\n        /* \"#utility.yul\":1938:1943   */\n      dup3\n        /* \"#utility.yul\":1905:1944   */\n      tag_97\n      jump\t// in\n    tag_154:\n        /* \"#utility.yul\":1960:2031   */\n      tag_155\n        /* \"#utility.yul\":2024:2030   */\n      dup2\n        /* \"#utility.yul\":2019:2022   */\n      dup6\n        /* \"#utility.yul\":1960:2031   */\n      tag_98\n      jump\t// in\n    tag_155:\n        /* \"#utility.yul\":1953:2031   */\n      swap4\n      pop\n        /* \"#utility.yul\":2040:2105   */\n      tag_156\n        /* \"#utility.yul\":2098:2104   */\n      dup2\n        /* \"#utility.yul\":2093:2096   */\n      dup6\n        /* \"#utility.yul\":2086:2090   */\n      0x20\n        /* \"#utility.yul\":2079:2084   */\n      dup7\n        /* \"#utility.yul\":2075:2091   */\n      add\n        /* \"#utility.yul\":2040:2105   */\n      tag_99\n      jump\t// in\n    tag_156:\n        /* \"#utility.yul\":2130:2159   */\n      tag_157\n        /* \"#utility.yul\":2152:2158   */\n      dup2\n        /* \"#utility.yul\":2130:2159   */\n      tag_100\n      jump\t// in\n    tag_157:\n        /* \"#utility.yul\":2125:2128   */\n      dup5\n        /* \"#utility.yul\":2121:2160   */\n      add\n        /* \"#utility.yul\":2114:2160   */\n      swap2\n      pop\n        /* \"#utility.yul\":1881:2166   */\n      pop\n        /* \"#utility.yul\":1789:2166   */\n      swap3\n      swap2\n      pop\n      pop\n      jump\t// out\n        /* \"#utility.yul\":2172:2796   */\n    tag_12:\n        /* \"#utility.yul\":2361:2365   */\n      0x00\n        /* \"#utility.yul\":2399:2401   */\n      0x60\n        /* \"#utility.yul\":2388:2397   */\n      dup3\n        /* \"#utility.yul\":2384:2402   */\n      add\n        /* \"#utility.yul\":2376:2402   */\n      swap1\n      pop\n        /* \"#utility.yul\":2412:2483   */\n      tag_159\n        /* \"#utility.yul\":2480:2481   */\n      0x00\n        /* \"#utility.yul\":2469:2478   */\n      dup4\n        /* \"#utility.yul\":2465:2482   */\n      add\n        /* \"#utility.yul\":2456:2462   */\n      dup7\n        /* \"#utility.yul\":2412:2483   */\n      tag_96\n      jump\t// in\n    tag_159:\n        /* \"#utility.yul\":2530:2539   */\n      dup2\n        /* \"#utility.yul\":2524:2528   */\n      dup2\n        /* \"#utility.yul\":2520:2540   */\n      sub\n        /* \"#utility.yul\":2515:2517   */\n      0x20\n        /* \"#utility.yul\":2504:2513   */\n      dup4\n        /* \"#utility.yul\":2500:2518   */\n      add\n        /* \"#utility.yul\":2493:2541   */\n      mstore\n        /* \"#utility.yul\":2558:2636   */\n      tag_160\n        /* \"#utility.yul\":2631:2635   */\n      dup2\n        /* \"#utility.yul\":2622:2628   */\n      dup6\n        /* \"#utility.yul\":2558:2636   */\n      tag_101\n      jump\t// in\n    tag_160:\n        /* \"#utility.yul\":2550:2636   */\n      swap1\n      pop\n        /* \"#utility.yul\":2683:2692   */\n      dup2\n        /* \"#utility.yul\":2677:2681   */\n      dup2\n        /* \"#utility.yul\":2673:2693   */\n      sub\n        /* \"#utility.yul\":2668:2670   */\n      0x40\n        /* \"#utility.yul\":2657:2666   */\n      dup4\n        /* \"#utility.yul\":2653:2671   */\n      add\n        /* \"#utility.yul\":2646:2694   */\n      mstore\n        /* \"#utility.yul\":2711:2789   */\n      tag_161\n        /* \"#utility.yul\":2784:2788   */\n      dup2\n        /* \"#utility.yul\":2775:2781   */\n      dup5\n        /* \"#utility.yul\":2711:2789   */\n      tag_101\n      jump\t// in\n    tag_161:\n        /* \"#utility.yul\":2703:2789   */\n      swap1\n      pop\n        /* \"#utility.yul\":2172:2796   */\n      swap5\n      swap4\n      pop\n      pop\n      pop\n      pop\n      jump\t// out\n        /* \"#utility.yul\":2802:2919   */\n    tag_102:\n        /* \"#utility.yul\":2911:2912   */\n      0x00\n        /* \"#utility.yul\":2908:2909   */\n      dup1\n        /* \"#utility.yul\":2901:2913   */\n      revert\n        /* \"#utility.yul\":2925:3042   */\n    tag_103:\n        /* \"#utility.yul\":3034:3035   */\n      0x00\n        /* \"#utility.yul\":3031:3032   */\n      dup1\n        /* \"#utility.yul\":3024:3036   */\n      revert\n        /* \"#utility.yul\":3048:3228   */\n    tag_104:\n        /* \"#utility.yul\":3096:3173   */\n      0x4e487b7100000000000000000000000000000000000000000000000000000000\n        /* \"#utility.yul\":3093:3094   */\n      0x00\n        /* \"#utility.yul\":3086:3174   */\n      mstore\n        /* \"#utility.yul\":3193:3197   */\n      0x41\n        /* \"#utility.yul\":3190:3191   */\n      0x04\n        /* \"#utility.yul\":3183:3198   */\n      mstore\n        /* \"#utility.yul\":3217:3221   */\n      0x24\n        /* \"#utility.yul\":3214:3215   */\n      0x00\n        /* \"#utility.yul\":3207:3222   */\n      revert\n        /* \"#utility.yul\":3234:3515   */\n    tag_105:\n        /* \"#utility.yul\":3317:3344   */\n      tag_166\n        /* \"#utility.yul\":3339:3343   */\n      dup3\n        /* \"#utility.yul\":3317:3344   */\n      tag_100\n      jump\t// in\n    tag_166:\n        /* \"#utility.yul\":3309:3315   */\n      dup2\n        /* \"#utility.yul\":3305:3345   */\n      add\n        /* \"#utility.yul\":3447:3453   */\n      dup2\n        /* \"#utility.yul\":3435:3445   */\n      dup2\n        /* \"#utility.yul\":3432:3454   */\n      lt\n        /* \"#utility.yul\":3411:3429   */\n      0xffffffffffffffff\n        /* \"#utility.yul\":3399:3409   */\n      dup3\n        /* \"#utility.yul\":3396:3430   */\n      gt\n        /* \"#utility.yul\":3393:3455   */\n      or\n        /* \"#utility.yul\":3390:3478   */\n      iszero\n      tag_167\n      jumpi\n        /* \"#utility.yul\":3458:3476   */\n      tag_168\n      tag_104\n      jump\t// in\n    tag_168:\n        /* \"#utility.yul\":3390:3478   */\n    tag_167:\n        /* \"#utility.yul\":3498:3508   */\n      dup1\n        /* \"#utility.yul\":3494:3496   */\n      0x40\n        /* \"#utility.yul\":3487:3509   */\n      mstore\n        /* \"#utility.yul\":3277:3515   */\n      pop\n        /* \"#utility.yul\":3234:3515   */\n      pop\n      pop\n      jump\t// out\n        /* \"#utility.yul\":3521:3650   */\n    tag_106:\n        /* \"#utility.yul\":3555:3561   */\n      0x00\n        /* \"#utility.yul\":3582:3602   */\n      tag_170\n      tag_90\n      jump\t// in\n    tag_170:\n        /* \"#utility.yul\":3572:3602   */\n      swap1\n      pop\n        /* \"#utility.yul\":3611:3644   */\n      tag_171\n        /* \"#utility.yul\":3639:3643   */\n      dup3\n        /* \"#utility.yul\":3631:3637   */\n      dup3\n        /* \"#utility.yul\":3611:3644   */\n      tag_105\n      jump\t// in\n    tag_171:\n        /* \"#utility.yul\":3521:3650   */\n      swap2\n      swap1\n      pop\n      jump\t// out\n        /* \"#utility.yul\":3656:3964   */\n    tag_107:\n        /* \"#utility.yul\":3718:3722   */\n      0x00\n        /* \"#utility.yul\":3808:3826   */\n      0xffffffffffffffff\n        /* \"#utility.yul\":3800:3806   */\n      dup3\n        /* \"#utility.yul\":3797:3827   */\n      gt\n        /* \"#utility.yul\":3794:3850   */\n      iszero\n      tag_173\n      jumpi\n        /* \"#utility.yul\":3830:3848   */\n      tag_174\n      tag_104\n      jump\t// in\n    tag_174:\n        /* \"#utility.yul\":3794:3850   */\n    tag_173:\n        /* \"#utility.yul\":3868:3897   */\n      tag_175\n        /* \"#utility.yul\":3890:3896   */\n      dup3\n        /* \"#utility.yul\":3868:3897   */\n      tag_100\n      jump\t// in\n    tag_175:\n        /* \"#utility.yul\":3860:3897   */\n      swap1\n      pop\n        /* \"#utility.yul\":3952:3956   */\n      0x20\n        /* \"#utility.yul\":3946:3950   */\n      dup2\n        /* \"#utility.yul\":3942:3957   */\n      add\n        /* \"#utility.yul\":3934:3957   */\n      swap1\n      pop\n        /* \"#utility.yul\":3656:3964   */\n      swap2\n      swap1\n      pop\n      jump\t// out\n        /* \"#utility.yul\":3970:4116   */\n    tag_108:\n        /* \"#utility.yul\":4067:4073   */\n      dup3\n        /* \"#utility.yul\":4062:4065   */\n      dup2\n        /* \"#utility.yul\":4057:4060   */\n      dup4\n        /* \"#utility.yul\":4044:4074   */\n      calldatacopy\n        /* \"#utility.yul\":4108:4109   */\n      0x00\n        /* \"#utility.yul\":4099:4105   */\n      dup4\n        /* \"#utility.yul\":4094:4097   */\n      dup4\n        /* \"#utility.yul\":4090:4106   */\n      add\n        /* \"#utility.yul\":4083:4110   */\n      mstore\n        /* \"#utility.yul\":3970:4116   */\n      pop\n      pop\n      pop\n      jump\t// out\n        /* \"#utility.yul\":4122:4547   */\n    tag_109:\n        /* \"#utility.yul\":4200:4205   */\n      0x00\n        /* \"#utility.yul\":4225:4291   */\n      tag_178\n        /* \"#utility.yul\":4241:4290   */\n      tag_179\n        /* \"#utility.yul\":4283:4289   */\n      dup5\n        /* \"#utility.yul\":4241:4290   */\n      tag_107\n      jump\t// in\n    tag_179:\n        /* \"#utility.yul\":4225:4291   */\n      tag_106\n      jump\t// in\n    tag_178:\n        /* \"#utility.yul\":4216:4291   */\n      swap1\n      pop\n        /* \"#utility.yul\":4314:4320   */\n      dup3\n        /* \"#utility.yul\":4307:4312   */\n      dup2\n        /* \"#utility.yul\":4300:4321   */\n      mstore\n        /* \"#utility.yul\":4352:4356   */\n      0x20\n        /* \"#utility.yul\":4345:4350   */\n      dup2\n        /* \"#utility.yul\":4341:4357   */\n      add\n        /* \"#utility.yul\":4390:4393   */\n      dup5\n        /* \"#utility.yul\":4381:4387   */\n      dup5\n        /* \"#utility.yul\":4376:4379   */\n      dup5\n        /* \"#utility.yul\":4372:4388   */\n      add\n        /* \"#utility.yul\":4369:4394   */\n      gt\n        /* \"#utility.yul\":4366:4478   */\n      iszero\n      tag_180\n      jumpi\n        /* \"#utility.yul\":4397:4476   */\n      tag_181\n      tag_103\n      jump\t// in\n    tag_181:\n        /* \"#utility.yul\":4366:4478   */\n    tag_180:\n        /* \"#utility.yul\":4487:4541   */\n      tag_182\n        /* \"#utility.yul\":4534:4540   */\n      dup5\n        /* \"#utility.yul\":4529:4532   */\n      dup3\n        /* \"#utility.yul\":4524:4527   */\n      dup6\n        /* \"#utility.yul\":4487:4541   */\n      tag_108\n      jump\t// in\n    tag_182:\n        /* \"#utility.yul\":4206:4547   */\n      pop\n        /* \"#utility.yul\":4122:4547   */\n      swap4\n      swap3\n      pop\n      pop\n      pop\n      jump\t// out\n        /* \"#utility.yul\":4567:4907   */\n    tag_110:\n        /* \"#utility.yul\":4623:4628   */\n      0x00\n        /* \"#utility.yul\":4672:4675   */\n      dup3\n        /* \"#utility.yul\":4665:4669   */\n      0x1f\n        /* \"#utility.yul\":4657:4663   */\n      dup4\n        /* \"#utility.yul\":4653:4670   */\n      add\n        /* \"#utility.yul\":4649:4676   */\n      slt\n        /* \"#utility.yul\":4639:4761   */\n      tag_184\n      jumpi\n        /* \"#utility.yul\":4680:4759   */\n      tag_185\n      tag_102\n      jump\t// in\n    tag_185:\n        /* \"#utility.yul\":4639:4761   */\n    tag_184:\n        /* \"#utility.yul\":4797:4803   */\n      dup2\n        /* \"#utility.yul\":4784:4804   */\n      calldataload\n        /* \"#utility.yul\":4822:4901   */\n      tag_186\n        /* \"#utility.yul\":4897:4900   */\n      dup5\n        /* \"#utility.yul\":4889:4895   */\n      dup3\n        /* \"#utility.yul\":4882:4886   */\n      0x20\n        /* \"#utility.yul\":4874:4880   */\n      dup7\n        /* \"#utility.yul\":4870:4887   */\n      add\n        /* \"#utility.yul\":4822:4901   */\n      tag_109\n      jump\t// in\n    tag_186:\n        /* \"#utility.yul\":4813:4901   */\n      swap2\n      pop\n        /* \"#utility.yul\":4629:4907   */\n      pop\n        /* \"#utility.yul\":4567:4907   */\n      swap3\n      swap2\n      pop\n      pop\n      jump\t// out\n        /* \"#utility.yul\":4913:5747   */\n    tag_15:\n        /* \"#utility.yul\":5001:5007   */\n      0x00\n        /* \"#utility.yul\":5009:5015   */\n      dup1\n        /* \"#utility.yul\":5058:5060   */\n      0x40\n        /* \"#utility.yul\":5046:5055   */\n      dup4\n        /* \"#utility.yul\":5037:5044   */\n      dup6\n        /* \"#utility.yul\":5033:5056   */\n      sub\n        /* \"#utility.yul\":5029:5061   */\n      slt\n        /* \"#utility.yul\":5026:5145   */\n      iszero\n      tag_188\n      jumpi\n        /* \"#utility.yul\":5064:5143   */\n      tag_189\n      tag_91\n      jump\t// in\n    tag_189:\n        /* \"#utility.yul\":5026:5145   */\n    tag_188:\n        /* \"#utility.yul\":5212:5213   */\n      0x00\n        /* \"#utility.yul\":5201:5210   */\n      dup4\n        /* \"#utility.yul\":5197:5214   */\n      add\n        /* \"#utility.yul\":5184:5215   */\n      calldataload\n        /* \"#utility.yul\":5242:5260   */\n      0xffffffffffffffff\n        /* \"#utility.yul\":5234:5240   */\n      dup2\n        /* \"#utility.yul\":5231:5261   */\n      gt\n        /* \"#utility.yul\":5228:5345   */\n      iszero\n      tag_190\n      jumpi\n        /* \"#utility.yul\":5264:5343   */\n      tag_191\n      tag_92\n      jump\t// in\n    tag_191:\n        /* \"#utility.yul\":5228:5345   */\n    tag_190:\n        /* \"#utility.yul\":5369:5432   */\n      tag_192\n        /* \"#utility.yul\":5424:5431   */\n      dup6\n        /* \"#utility.yul\":5415:5421   */\n      dup3\n        /* \"#utility.yul\":5404:5413   */\n      dup7\n        /* \"#utility.yul\":5400:5422   */\n      add\n        /* \"#utility.yul\":5369:5432   */\n      tag_110\n      jump\t// in\n    tag_192:\n        /* \"#utility.yul\":5359:5432   */\n      swap3\n      pop\n        /* \"#utility.yul\":5155:5442   */\n      pop\n        /* \"#utility.yul\":5509:5511   */\n      0x20\n        /* \"#utility.yul\":5498:5507   */\n      dup4\n        /* \"#utility.yul\":5494:5512   */\n      add\n        /* \"#utility.yul\":5481:5513   */\n      calldataload\n        /* \"#utility.yul\":5540:5558   */\n      0xffffffffffffffff\n        /* \"#utility.yul\":5532:5538   */\n      dup2\n        /* \"#utility.yul\":5529:5559   */\n      gt\n        /* \"#utility.yul\":5526:5643   */\n      iszero\n      tag_193\n      jumpi\n        /* \"#utility.yul\":5562:5641   */\n      tag_194\n      tag_92\n      jump\t// in\n    tag_194:\n        /* \"#utility.yul\":5526:5643   */\n    tag_193:\n        /* \"#utility.yul\":5667:5730   */\n      tag_195\n        /* \"#utility.yul\":5722:5729   */\n      dup6\n        /* \"#utility.yul\":5713:5719   */\n      dup3\n        /* \"#utility.yul\":5702:5711   */\n      dup7\n        /* \"#utility.yul\":5698:5720   */\n      add\n        /* \"#utility.yul\":5667:5730   */\n      tag_110\n      jump\t// in\n    tag_195:\n        /* \"#utility.yul\":5657:5730   */\n      swap2\n      pop\n        /* \"#utility.yul\":5452:5740   */\n      pop\n        /* \"#utility.yul\":4913:5747   */\n      swap3\n      pop\n      swap3\n      swap1\n      pop\n      jump\t// out\n        /* \"#utility.yul\":5753:6732   */\n    tag_22:\n        /* \"#utility.yul\":5850:5856   */\n      0x00\n        /* \"#utility.yul\":5858:5864   */\n      dup1\n        /* \"#utility.yul\":5866:5872   */\n      0x00\n        /* \"#utility.yul\":5915:5917   */\n      0x60\n        /* \"#utility.yul\":5903:5912   */\n      dup5\n        /* \"#utility.yul\":5894:5901   */\n      dup7\n        /* \"#utility.yul\":5890:5913   */\n      sub\n        /* \"#utility.yul\":5886:5918   */\n      slt\n        /* \"#utility.yul\":5883:6002   */\n      iszero\n      tag_197\n      jumpi\n        /* \"#utility.yul\":5921:6000   */\n      tag_198\n      tag_91\n      jump\t// in\n    tag_198:\n        /* \"#utility.yul\":5883:6002   */\n    tag_197:\n        /* \"#utility.yul\":6041:6042   */\n      0x00\n        /* \"#utility.yul\":6066:6119   */\n      tag_199\n        /* \"#utility.yul\":6111:6118   */\n      dup7\n        /* \"#utility.yul\":6102:6108   */\n      dup3\n        /* \"#utility.yul\":6091:6100   */\n      dup8\n        /* \"#utility.yul\":6087:6109   */\n      add\n        /* \"#utility.yul\":6066:6119   */\n      tag_95\n      jump\t// in\n    tag_199:\n        /* \"#utility.yul\":6056:6119   */\n      swap4\n      pop\n        /* \"#utility.yul\":6012:6129   */\n      pop\n        /* \"#utility.yul\":6196:6198   */\n      0x20\n        /* \"#utility.yul\":6185:6194   */\n      dup5\n        /* \"#utility.yul\":6181:6199   */\n      add\n        /* \"#utility.yul\":6168:6200   */\n      calldataload\n        /* \"#utility.yul\":6227:6245   */\n      0xffffffffffffffff\n        /* \"#utility.yul\":6219:6225   */\n      dup2\n        /* \"#utility.yul\":6216:6246   */\n      gt\n        /* \"#utility.yul\":6213:6330   */\n      iszero\n      tag_200\n      jumpi\n        /* \"#utility.yul\":6249:6328   */\n      tag_201\n      tag_92\n      jump\t// in\n    tag_201:\n        /* \"#utility.yul\":6213:6330   */\n    tag_200:\n        /* \"#utility.yul\":6354:6417   */\n      tag_202\n        /* \"#utility.yul\":6409:6416   */\n      dup7\n        /* \"#utility.yul\":6400:6406   */\n      dup3\n        /* \"#utility.yul\":6389:6398   */\n      dup8\n        /* \"#utility.yul\":6385:6407   */\n      add\n        /* \"#utility.yul\":6354:6417   */\n      tag_110\n      jump\t// in\n    tag_202:\n        /* \"#utility.yul\":6344:6417   */\n      swap3\n      pop\n        /* \"#utility.yul\":6139:6427   */\n      pop\n        /* \"#utility.yul\":6494:6496   */\n      0x40\n        /* \"#utility.yul\":6483:6492   */\n      dup5\n        /* \"#utility.yul\":6479:6497   */\n      add\n        /* \"#utility.yul\":6466:6498   */\n      calldataload\n        /* \"#utility.yul\":6525:6543   */\n      0xffffffffffffffff\n        /* \"#utility.yul\":6517:6523   */\n      dup2\n        /* \"#utility.yul\":6514:6544   */\n      gt\n        /* \"#utility.yul\":6511:6628   */\n      iszero\n      tag_203\n      jumpi\n        /* \"#utility.yul\":6547:6626   */\n      tag_204\n      tag_92\n      jump\t// in\n    tag_204:\n        /* \"#utility.yul\":6511:6628   */\n    tag_203:\n        /* \"#utility.yul\":6652:6715   */\n      tag_205\n        /* \"#utility.yul\":6707:6714   */\n      dup7\n        /* \"#utility.yul\":6698:6704   */\n      dup3\n        /* \"#utility.yul\":6687:6696   */\n      dup8\n        /* \"#utility.yul\":6683:6705   */\n      add\n        /* \"#utility.yul\":6652:6715   */\n      tag_110\n      jump\t// in\n    tag_205:\n        /* \"#utility.yul\":6642:6715   */\n      swap2\n      pop\n        /* \"#utility.yul\":6437:6725   */\n      pop\n        /* \"#utility.yul\":5753:6732   */\n      swap3\n      pop\n      swap3\n      pop\n      swap3\n      jump\t// out\n        /* \"#utility.yul\":6738:6918   */\n    tag_29:\n        /* \"#utility.yul\":6786:6863   */\n      0x4e487b7100000000000000000000000000000000000000000000000000000000\n        /* \"#utility.yul\":6783:6784   */\n      0x00\n        /* \"#utility.yul\":6776:6864   */\n      mstore\n        /* \"#utility.yul\":6883:6887   */\n      0x32\n        /* \"#utility.yul\":6880:6881   */\n      0x04\n        /* \"#utility.yul\":6873:6888   */\n      mstore\n        /* \"#utility.yul\":6907:6911   */\n      0x24\n        /* \"#utility.yul\":6904:6905   */\n      0x00\n        /* \"#utility.yul\":6897:6912   */\n      revert\n        /* \"#utility.yul\":6924:7104   */\n    tag_111:\n        /* \"#utility.yul\":6972:7049   */\n      0x4e487b7100000000000000000000000000000000000000000000000000000000\n        /* \"#utility.yul\":6969:6970   */\n      0x00\n        /* \"#utility.yul\":6962:7050   */\n      mstore\n        /* \"#utility.yul\":7069:7073   */\n      0x22\n        /* \"#utility.yul\":7066:7067   */\n      0x04\n        /* \"#utility.yul\":7059:7074   */\n      mstore\n        /* \"#utility.yul\":7093:7097   */\n      0x24\n        /* \"#utility.yul\":7090:7091   */\n      0x00\n        /* \"#utility.yul\":7083:7098   */\n      revert\n        /* \"#utility.yul\":7110:7430   */\n    tag_38:\n        /* \"#utility.yul\":7154:7160   */\n      0x00\n        /* \"#utility.yul\":7191:7192   */\n      0x02\n        /* \"#utility.yul\":7185:7189   */\n      dup3\n        /* \"#utility.yul\":7181:7193   */\n      div\n        /* \"#utility.yul\":7171:7193   */\n      swap1\n      pop\n        /* \"#utility.yul\":7238:7239   */\n      0x01\n        /* \"#utility.yul\":7232:7236   */\n      dup3\n        /* \"#utility.yul\":7228:7240   */\n      and\n        /* \"#utility.yul\":7259:7277   */\n      dup1\n        /* \"#utility.yul\":7249:7330   */\n      tag_209\n      jumpi\n        /* \"#utility.yul\":7315:7319   */\n      0x7f\n        /* \"#utility.yul\":7307:7313   */\n      dup3\n        /* \"#utility.yul\":7303:7320   */\n      and\n        /* \"#utility.yul\":7293:7320   */\n      swap2\n      pop\n        /* \"#utility.yul\":7249:7330   */\n    tag_209:\n        /* \"#utility.yul\":7377:7379   */\n      0x20\n        /* \"#utility.yul\":7369:7375   */\n      dup3\n        /* \"#utility.yul\":7366:7380   */\n      lt\n        /* \"#utility.yul\":7346:7364   */\n      dup2\n        /* \"#utility.yul\":7343:7381   */\n      sub\n        /* \"#utility.yul\":7340:7424   */\n      tag_210\n      jumpi\n        /* \"#utility.yul\":7396:7414   */\n      tag_211\n      tag_111\n      jump\t// in\n    tag_211:\n        /* \"#utility.yul\":7340:7424   */\n    tag_210:\n        /* \"#utility.yul\":7161:7430   */\n      pop\n        /* \"#utility.yul\":7110:7430   */\n      swap2\n      swap1\n      pop\n      jump\t// out\n        /* \"#utility.yul\":7436:7577   */\n    tag_112:\n        /* \"#utility.yul\":7485:7489   */\n      0x00\n        /* \"#utility.yul\":7508:7511   */\n      dup2\n        /* \"#utility.yul\":7500:7511   */\n      swap1\n      pop\n        /* \"#utility.yul\":7531:7534   */\n      dup2\n        /* \"#utility.yul\":7528:7529   */\n      0x00\n        /* \"#utility.yul\":7521:7535   */\n      mstore\n        /* \"#utility.yul\":7565:7569   */\n      0x20\n        /* \"#utility.yul\":7562:7563   */\n      0x00\n        /* \"#utility.yul\":7552:7570   */\n      keccak256\n        /* \"#utility.yul\":7544:7570   */\n      swap1\n      pop\n        /* \"#utility.yul\":7436:7577   */\n      swap2\n      swap1\n      pop\n      jump\t// out\n        /* \"#utility.yul\":7583:7676   */\n    tag_113:\n        /* \"#utility.yul\":7620:7626   */\n      0x00\n        /* \"#utility.yul\":7667:7669   */\n      0x20\n        /* \"#utility.yul\":7662:7664   */\n      0x1f\n        /* \"#utility.yul\":7655:7660   */\n      dup4\n        /* \"#utility.yul\":7651:7665   */\n      add\n        /* \"#utility.yul\":7647:7670   */\n      div\n        /* \"#utility.yul\":7637:7670   */\n      swap1\n      pop\n        /* \"#utility.yul\":7583:7676   */\n      swap2\n      swap1\n      pop\n      jump\t// out\n        /* \"#utility.yul\":7682:7789   */\n    tag_114:\n        /* \"#utility.yul\":7726:7734   */\n      0x00\n        /* \"#utility.yul\":7776:7781   */\n      dup3\n        /* \"#utility.yul\":7770:7774   */\n      dup3\n        /* \"#utility.yul\":7766:7782   */\n      shl\n        /* \"#utility.yul\":7745:7782   */\n      swap1\n      pop\n        /* \"#utility.yul\":7682:7789   */\n      swap3\n      swap2\n      pop\n      pop\n      jump\t// out\n        /* \"#utility.yul\":7795:8188   */\n    tag_115:\n        /* \"#utility.yul\":7864:7870   */\n      0x00\n        /* \"#utility.yul\":7914:7915   */\n      0x08\n        /* \"#utility.yul\":7902:7912   */\n      dup4\n        /* \"#utility.yul\":7898:7916   */\n      mul\n        /* \"#utility.yul\":7937:8034   */\n      tag_216\n        /* \"#utility.yul\":7967:8033   */\n      0xffffffffffffffffffffffffffffffffffffffffffffffffffffffffffffffff\n        /* \"#utility.yul\":7956:7965   */\n      dup3\n        /* \"#utility.yul\":7937:8034   */\n      tag_114\n      jump\t// in\n    tag_216:\n        /* \"#utility.yul\":8055:8094   */\n      tag_217\n        /* \"#utility.yul\":8085:8093   */\n      dup7\n        /* \"#utility.yul\":8074:8083   */\n      dup4\n        /* \"#utility.yul\":8055:8094   */\n      tag_114\n      jump\t// in\n    tag_217:\n        /* \"#utility.yul\":8043:8094   */\n      swap6\n      pop\n        /* \"#utility.yul\":8127:8131   */\n      dup1\n        /* \"#utility.yul\":8123:8132   */\n      not\n        /* \"#utility.yul\":8116:8121   */\n      dup5\n        /* \"#utility.yul\":8112:8133   */\n      and\n        /* \"#utility.yul\":8103:8133   */\n      swap4\n      pop\n        /* \"#utility.yul\":8176:8180   */\n      dup1\n        /* \"#utility.yul\":8166:8174   */\n      dup7\n        /* \"#utility.yul\":8162:8181   */\n      and\n        /* \"#utility.yul\":8155:8160   */\n      dup5\n        /* \"#utility.yul\":8152:8182   */\n      or\n        /* \"#utility.yul\":8142:8182   */\n      swap3\n      pop\n        /* \"#utility.yul\":7871:8188   */\n      pop\n      pop\n        /* \"#utility.yul\":7795:8188   */\n      swap4\n      swap3\n      pop\n      pop\n      pop\n      jump\t// out\n        /* \"#utility.yul\":8194:8254   */\n    tag_116:\n        /* \"#utility.yul\":8222:8225   */\n      0x00\n        /* \"#utility.yul\":8243:8248   */\n      dup2\n        /* \"#utility.yul\":8236:8248   */\n      swap1\n      pop\n        /* \"#utility.yul\":8194:8254   */\n      swap2\n      swap1\n      pop\n      jump\t// out\n        /* \"#utility.yul\":8260:8402   */\n    tag_117:\n        /* \"#utility.yul\":8310:8319   */\n      0x00\n        /* \"#utility.yul\":8343:8396   */\n      tag_220\n        /* \"#utility.yul\":8361:8395   */\n      tag_221\n        /* \"#utility.yul\":8370:8394   */\n      tag_222\n        /* \"#utility.yul\":8388:8393   */\n      dup5\n        /* \"#utility.yul\":8370:8394   */\n      tag_93\n      jump\t// in\n    tag_222:\n        /* \"#utility.yul\":8361:8395   */\n      tag_116\n      jump\t// in\n    tag_221:\n        /* \"#utility.yul\":8343:8396   */\n      tag_93\n      jump\t// in\n    tag_220:\n        /* \"#utility.yul\":8330:8396   */\n      swap1\n      pop\n        /* \"#utility.yul\":8260:8402   */\n      swap2\n      swap1\n      pop\n      jump\t// out\n        /* \"#utility.yul\":8408:8483   */\n    tag_118:\n        /* \"#utility.yul\":8451:8454   */\n      0x00\n        /* \"#utility.yul\":8472:8477   */\n      dup2\n        /* \"#utility.yul\":8465:8477   */\n      swap1\n      pop\n        /* \"#utility.yul\":8408:8483   */\n      swap2\n      swap1\n      pop\n      jump\t// out\n        /* \"#utility.yul\":8489:8758   */\n    tag_119:\n        /* \"#utility.yul\":8599:8638   */\n      tag_225\n        /* \"#utility.yul\":8630:8637   */\n      dup4\n        /* \"#utility.yul\":8599:8638   */\n      tag_117\n      jump\t// in\n    tag_225:\n        /* \"#utility.yul\":8660:8751   */\n      tag_226\n        /* \"#utility.yul\":8709:8750   */\n      tag_227\n        /* \"#utility.yul\":8733:8749   */\n      dup3\n        /* \"#utility.yul\":8709:8750   */\n      tag_118\n      jump\t// in\n    tag_227:\n        /* \"#utility.yul\":8701:8707   */\n      dup5\n        /* \"#utility.yul\":8694:8698   */\n      dup5\n        /* \"#utility.yul\":8688:8699   */\n      sload\n        /* \"#utility.yul\":8660:8751   */\n      tag_115\n      jump\t// in\n    tag_226:\n        /* \"#utility.yul\":8654:8658   */\n      dup3\n        /* \"#utility.yul\":8647:8752   */\n      sstore\n        /* \"#utility.yul\":8565:8758   */\n      pop\n        /* \"#utility.yul\":8489:8758   */\n      pop\n      pop\n      pop\n      jump\t// out\n        /* \"#utility.yul\":8764:8837   */\n    tag_120:\n        /* \"#utility.yul\":8809:8812   */\n      0x00\n        /* \"#utility.yul\":8764:8837   */\n      swap1\n      jump\t// out\n        /* \"#utility.yul\":8843:9032   */\n    tag_121:\n        /* \"#utility.yul\":8920:8952   */\n      tag_230\n      tag_120\n      jump\t// in\n    tag_230:\n        /* \"#utility.yul\":8961:9026   */\n      tag_231\n        /* \"#utility.yul\":9019:9025   */\n      dup2\n        /* \"#utility.yul\":9011:9017   */\n      dup5\n        /* \"#utility.yul\":9005:9009   */\n      dup5\n        /* \"#utility.yul\":8961:9026   */\n      tag_119\n      jump\t// in\n    tag_231:\n        /* \"#utility.yul\":8896:9032   */\n      pop\n        /* \"#utility.yul\":8843:9032   */\n      pop\n      pop\n      jump\t// out\n        /* \"#utility.yul\":9038:9224   */\n    tag_122:\n        /* \"#utility.yul\":9098:9218   */\n    tag_233:\n        /* \"#utility.yul\":9115:9118   */\n      dup2\n        /* \"#utility.yul\":9108:9113   */\n      dup2\n        /* \"#utility.yul\":9105:9119   */\n      lt\n        /* \"#utility.yul\":9098:9218   */\n      iszero\n      tag_235\n      jumpi\n        /* \"#utility.yul\":9169:9208   */\n      tag_236\n        /* \"#utility.yul\":9206:9207   */\n      0x00\n        /* \"#utility.yul\":9199:9204   */\n      dup3\n        /* \"#utility.yul\":9169:9208   */\n      tag_121\n      jump\t// in\n    tag_236:\n        /* \"#utility.yul\":9142:9143   */\n      0x01\n        /* \"#utility.yul\":9135:9140   */\n      dup2\n        /* \"#utility.yul\":9131:9144   */\n      add\n        /* \"#utility.yul\":9122:9144   */\n      swap1\n      pop\n        /* \"#utility.yul\":9098:9218   */\n      jump(tag_233)\n    tag_235:\n        /* \"#utility.yul\":9038:9224   */\n      pop\n      pop\n      jump\t// out\n        /* \"#utility.yul\":9230:9773   */\n    tag_123:\n        /* \"#utility.yul\":9331:9333   */\n      0x1f\n        /* \"#utility.yul\":9326:9329   */\n      dup3\n        /* \"#utility.yul\":9323:9334   */\n      gt\n        /* \"#utility.yul\":9320:9766   */\n      iszero\n      tag_238\n      jumpi\n        /* \"#utility.yul\":9365:9403   */\n      tag_239\n        /* \"#utility.yul\":9397:9402   */\n      dup2\n        /* \"#utility.yul\":9365:9403   */\n      tag_112\n      jump\t// in\n    tag_239:\n        /* \"#utility.yul\":9449:9478   */\n      tag_240\n        /* \"#utility.yul\":9467:9477   */\n      dup5\n        /* \"#utility.yul\":9449:9478   */\n      tag_113\n      jump\t// in\n    tag_240:\n        /* \"#utility.yul\":9439:9447   */\n      dup2\n        /* \"#utility.yul\":9435:9479   */\n      add\n        /* \"#utility.yul\":9632:9634   */\n      0x20\n        /* \"#utility.yul\":9620:9630   */\n      dup6\n        /* \"#utility.yul\":9617:9635   */\n      lt\n        /* \"#utility.yul\":9614:9663   */\n      iszero\n      tag_241\n      jumpi\n        /* \"#utility.yul\":9653:9661   */\n      dup2\n        /* \"#utility.yul\":9638:9661   */\n      swap1\n      pop\n        /* \"#utility.yul\":9614:9663   */\n    tag_241:\n        /* \"#utility.yul\":9676:9756   */\n      tag_242\n        /* \"#utility.yul\":9732:9754   */\n      tag_243\n        /* \"#utility.yul\":9750:9753   */\n      dup6\n        /* \"#utility.yul\":9732:9754   */\n      tag_113\n      jump\t// in\n    tag_243:\n        /* \"#utility.yul\":9722:9730   */\n      dup4\n        /* \"#utility.yul\":9718:9755   */\n      add\n        /* \"#utility.yul\":9705:9716   */\n      dup3\n        /* \"#utility.yul\":9676:9756   */\n      tag_122\n      jump\t// in\n    tag_242:\n        /* \"#utility.yul\":9335:9766   */\n      pop\n      pop\n        /* \"#utility.yul\":9320:9766   */\n    tag_238:\n        /* \"#utility.yul\":9230:9773   */\n      pop\n      pop\n      pop\n      jump\t// out\n        /* \"#utility.yul\":9779:9896   */\n    tag_124:\n        /* \"#utility.yul\":9833:9841   */\n      0x00\n        /* \"#utility.yul\":9883:9888   */\n      dup3\n        /* \"#utility.yul\":9877:9881   */\n      dup3\n        /* \"#utility.yul\":9873:9889   */\n      shr\n        /* \"#utility.yul\":9852:9889   */\n      swap1\n      pop\n        /* \"#utility.yul\":9779:9896   */\n      swap3\n      swap2\n      pop\n      pop\n      jump\t// out\n        /* \"#utility.yul\":9902:10071   */\n    tag_125:\n        /* \"#utility.yul\":9946:9952   */\n      0x00\n        /* \"#utility.yul\":9979:10030   */\n      tag_246\n        /* \"#utility.yul\":10027:10028   */\n      0x00\n        /* \"#utility.yul\":10023:10029   */\n      not\n        /* \"#utility.yul\":10015:10020   */\n      dup5\n        /* \"#utility.yul\":10012:10013   */\n      0x08\n        /* \"#utility.yul\":10008:10021   */\n      mul\n        /* \"#utility.yul\":9979:10030   */\n      tag_124\n      jump\t// in\n    tag_246:\n        /* \"#utility.yul\":9975:10031   */\n      not\n        /* \"#utility.yul\":10060:10064   */\n      dup1\n        /* \"#utility.yul\":10054:10058   */\n      dup4\n        /* \"#utility.yul\":10050:10065   */\n      and\n        /* \"#utility.yul\":10040:10065   */\n      swap2\n      pop\n        /* \"#utility.yul\":9953:10071   */\n      pop\n        /* \"#utility.yul\":9902:10071   */\n      swap3\n      swap2\n      pop\n      pop\n      jump\t// out\n        /* \"#utility.yul\":10076:10371   */\n    tag_126:\n        /* \"#utility.yul\":10152:10156   */\n      0x00\n        /* \"#utility.yul\":10298:10327   */\n      tag_248\n        /* \"#utility.yul\":10323:10326   */\n      dup4\n        /* \"#utility.yul\":10317:10321   */\n      dup4\n        /* \"#utility.yul\":10298:10327   */\n      tag_125\n      jump\t// in\n    tag_248:\n        /* \"#utility.yul\":10290:10327   */\n      swap2\n      pop\n        /* \"#utility.yul\":10360:10363   */\n      dup3\n        /* \"#utility.yul\":10357:10358   */\n      0x02\n        /* \"#utility.yul\":10353:10364   */\n      mul\n        /* \"#utility.yul\":10347:10351   */\n      dup3\n        /* \"#utility.yul\":10344:10365   */\n      or\n        /* \"#utility.yul\":10336:10365   */\n      swap1\n      pop\n        /* \"#utility.yul\":10076:10371   */\n      swap3\n      swap2\n      pop\n      pop\n      jump\t// out\n        /* \"#utility.yul\":10376:11771   */\n    tag_51:\n        /* \"#utility.yul\":10493:10530   */\n      tag_250\n        /* \"#utility.yul\":10526:10529   */\n      dup3\n        /* \"#utility.yul\":10493:10530   */\n      tag_97\n      jump\t// in\n    tag_250:\n        /* \"#utility.yul\":10595:10613   */\n      0xffffffffffffffff\n        /* \"#utility.yul\":10587:10593   */\n      dup2\n        /* \"#utility.yul\":10584:10614   */\n      gt\n        /* \"#utility.yul\":10581:10637   */\n      iszero\n      tag_251\n      jumpi\n        /* \"#utility.yul\":10617:10635   */\n      tag_252\n      tag_104\n      jump\t// in\n    tag_252:\n        /* \"#utility.yul\":10581:10637   */\n    tag_251:\n        /* \"#utility.yul\":10661:10699   */\n      tag_253\n        /* \"#utility.yul\":10693:10697   */\n      dup3\n        /* \"#utility.yul\":10687:10698   */\n      sload\n        /* \"#utility.yul\":10661:10699   */\n      tag_38\n      jump\t// in\n    tag_253:\n        /* \"#utility.yul\":10746:10813   */\n      tag_254\n        /* \"#utility.yul\":10806:10812   */\n      dup3\n        /* \"#utility.yul\":10798:10804   */\n      dup3\n        /* \"#utility.yul\":10792:10796   */\n      dup6\n        /* \"#utility.yul\":10746:10813   */\n      tag_123\n      jump\t// in\n    tag_254:\n        /* \"#utility.yul\":10840:10841   */\n      0x00\n        /* \"#utility.yul\":10864:10868   */\n      0x20\n        /* \"#utility.yul\":10851:10868   */\n      swap1\n      pop\n        /* \"#utility.yul\":10896:10898   */\n      0x1f\n        /* \"#utility.yul\":10888:10894   */\n      dup4\n        /* \"#utility.yul\":10885:10899   */\n      gt\n        /* \"#utility.yul\":10913:10914   */\n      0x01\n        /* \"#utility.yul\":10908:11526   */\n      dup2\n      eq\n      tag_256\n      jumpi\n        /* \"#utility.yul\":11570:11571   */\n      0x00\n        /* \"#utility.yul\":11587:11593   */\n      dup5\n        /* \"#utility.yul\":11584:11661   */\n      iszero\n      tag_257\n      jumpi\n        /* \"#utility.yul\":11636:11645   */\n      dup3\n        /* \"#utility.yul\":11631:11634   */\n      dup8\n        /* \"#utility.yul\":11627:11646   */\n      add\n        /* \"#utility.yul\":11621:11647   */\n      mload\n        /* \"#utility.yul\":11612:11647   */\n      swap1\n      pop\n        /* \"#utility.yul\":11584:11661   */\n    tag_257:\n        /* \"#utility.yul\":11687:11754   */\n      tag_258\n        /* \"#utility.yul\":11747:11753   */\n      dup6\n        /* \"#utility.yul\":11740:11745   */\n      dup3\n        /* \"#utility.yul\":11687:11754   */\n      tag_126\n      jump\t// in\n    tag_258:\n        /* \"#utility.yul\":11681:11685   */\n      dup7\n        /* \"#utility.yul\":11674:11755   */\n      sstore\n        /* \"#utility.yul\":11543:11765   */\n      pop\n        /* \"#utility.yul\":10878:11765   */\n      jump(tag_255)\n        /* \"#utility.yul\":10908:11526   */\n    tag_256:\n        /* \"#utility.yul\":10960:10964   */\n      0x1f\n        /* \"#utility.yul\":10956:10965   */\n      not\n        /* \"#utility.yul\":10948:10954   */\n      dup5\n        /* \"#utility.yul\":10944:10966   */\n      and\n        /* \"#utility.yul\":10994:11031   */\n      tag_259\n        /* \"#utility.yul\":11026:11030   */\n      dup7\n        /* \"#utility.yul\":10994:11031   */\n      tag_112\n      jump\t// in\n    tag_259:\n        /* \"#utility.yul\":11053:11054   */\n      0x00\n        /* \"#utility.yul\":11067:11275   */\n    tag_260:\n        /* \"#utility.yul\":11081:11088   */\n      dup3\n        /* \"#utility.yul\":11078:11079   */\n      dup2\n        /* \"#utility.yul\":11075:11089   */\n      lt\n        /* \"#utility.yul\":11067:11275   */\n      iszero\n      tag_262\n      jumpi\n        /* \"#utility.yul\":11160:11169   */\n      dup5\n        /* \"#utility.yul\":11155:11158   */\n      dup10\n        /* \"#utility.yul\":11151:11170   */\n      add\n        /* \"#utility.yul\":11145:11171   */\n      mload\n        /* \"#utility.yul\":11137:11143   */\n      dup3\n        /* \"#utility.yul\":11130:11172   */\n      sstore\n        /* \"#utility.yul\":11211:11212   */\n      0x01\n        /* \"#utility.yul\":11203:11209   */\n      dup3\n        /* \"#utility.yul\":11199:11213   */\n      add\n        /* \"#utility.yul\":11189:11213   */\n      swap2\n      pop\n        /* \"#utility.yul\":11258:11260   */\n      0x20\n        /* \"#utility.yul\":11247:11256   */\n      dup6\n        /* \"#utility.yul\":11243:11261   */\n      add\n        /* \"#utility.yul\":11230:11261   */\n      swap5\n      pop\n        /* \"#utility.yul\":11104:11108   */\n      0x20\n        /* \"#utility.yul\":11101:11102   */\n      dup2\n        /* \"#utility.yul\":11097:11109   */\n      add\n        /* \"#utility.yul\":11092:11109   */\n      swap1\n      pop\n        /* \"#utility.yul\":11067:11275   */\n      jump(tag_260)\n    tag_262:\n        /* \"#utility.yul\":11303:11309   */\n      dup7\n        /* \"#utility.yul\":11294:11301   */\n      dup4\n        /* \"#utility.yul\":11291:11310   */\n      lt\n        /* \"#utility.yul\":11288:11467   */\n      iszero\n      tag_263\n      jumpi\n        /* \"#utility.yul\":11361:11370   */\n      dup5\n        /* \"#utility.yul\":11356:11359   */\n      dup10\n        /* \"#utility.yul\":11352:11371   */\n      add\n        /* \"#utility.yul\":11346:11372   */\n      mload\n        /* \"#utility.yul\":11404:11452   */\n      tag_264\n        /* \"#utility.yul\":11446:11450   */\n      0x1f\n        /* \"#utility.yul\":11438:11444   */\n      dup10\n        /* \"#utility.yul\":11434:11451   */\n      and\n        /* \"#utility.yul\":11423:11432   */\n      dup3\n        /* \"#utility.yul\":11404:11452   */\n      tag_125\n      jump\t// in\n    tag_264:\n        /* \"#utility.yul\":11396:11402   */\n      dup4\n        /* \"#utility.yul\":11389:11453   */\n      sstore\n        /* \"#utility.yul\":11311:11467   */\n      pop\n        /* \"#utility.yul\":11288:11467   */\n    tag_263:\n        /* \"#utility.yul\":11513:11514   */\n      0x01\n        /* \"#utility.yul\":11509:11510   */\n      0x02\n        /* \"#utility.yul\":11501:11507   */\n      dup9\n        /* \"#utility.yul\":11497:11511   */\n      mul\n        /* \"#utility.yul\":11493:11515   */\n      add\n        /* \"#utility.yul\":11487:11491   */\n      dup9\n        /* \"#utility.yul\":11480:11516   */\n      sstore\n        /* \"#utility.yul\":10915:11526   */\n      pop\n      pop\n      pop\n        /* \"#utility.yul\":10878:11765   */\n    tag_255:\n      pop\n        /* \"#utility.yul\":10468:11771   */\n      pop\n      pop\n      pop\n        /* \"#utility.yul\":10376:11771   */\n      pop\n      pop\n      jump\t// out\n        /* \"#utility.yul\":11777:11957   */\n    tag_127:\n        /* \"#utility.yul\":11825:11902   */\n      0x4e487b7100000000000000000000000000000000000000000000000000000000\n        /* \"#utility.yul\":11822:11823   */\n      0x00\n        /* \"#utility.yul\":11815:11903   */\n      mstore\n        /* \"#utility.yul\":11922:11926   */\n      0x11\n        /* \"#utility.yul\":11919:11920   */\n      0x04\n        /* \"#utility.yul\":11912:11927   */\n      mstore\n        /* \"#utility.yul\":11946:11950   */\n      0x24\n        /* \"#utility.yul\":11943:11944   */\n      0x00\n        /* \"#utility.yul\":11936:11951   */\n      revert\n        /* \"#utility.yul\":11963:12196   */\n    tag_54:\n        /* \"#utility.yul\":12002:12005   */\n      0x00\n        /* \"#utility.yul\":12025:12049   */\n      tag_267\n        /* \"#utility.yul\":12043:12048   */\n      dup3\n        /* \"#utility.yul\":12025:12049   */\n      tag_93\n      jump\t// in\n    tag_267:\n        /* \"#utility.yul\":12016:12049   */\n      swap2\n      pop\n        /* \"#utility.yul\":12071:12137   */\n      0xffffffffffffffffffffffffffffffffffffffffffffffffffffffffffffffff\n        /* \"#utility.yul\":12064:12069   */\n      dup3\n        /* \"#utility.yul\":12061:12138   */\n      sub\n        /* \"#utility.yul\":12058:12161   */\n      tag_268\n      jumpi\n        /* \"#utility.yul\":12141:12159   */\n      tag_269\n      tag_127\n      jump\t// in\n    tag_269:\n        /* \"#utility.yul\":12058:12161   */\n    tag_268:\n        /* \"#utility.yul\":12188:12189   */\n      0x01\n        /* \"#utility.yul\":12181:12186   */\n      dup3\n        /* \"#utility.yul\":12177:12190   */\n      add\n        /* \"#utility.yul\":12170:12190   */\n      swap1\n      pop\n        /* \"#utility.yul\":11963:12196   */\n      swap2\n      swap1\n      pop\n      jump\t// out\n        /* \"#utility.yul\":12202:12366   */\n    tag_128:\n        /* \"#utility.yul\":12342:12358   */\n      0x5461736b206e6f7420666f756e64000000000000000000000000000000000000\n        /* \"#utility.yul\":12338:12339   */\n      0x00\n        /* \"#utility.yul\":12330:12336   */\n      dup3\n        /* \"#utility.yul\":12326:12340   */\n      add\n        /* \"#utility.yul\":12319:12359   */\n      mstore\n        /* \"#utility.yul\":12202:12366   */\n      pop\n      jump\t// out\n        /* \"#utility.yul\":12372:12738   */\n    tag_129:\n        /* \"#utility.yul\":12514:12517   */\n      0x00\n        /* \"#utility.yul\":12535:12602   */\n      tag_272\n        /* \"#utility.yul\":12599:12601   */\n      0x0e\n        /* \"#utility.yul\":12594:12597   */\n      dup4\n        /* \"#utility.yul\":12535:12602   */\n      tag_98\n      jump\t// in\n    tag_272:\n        /* \"#utility.yul\":12528:12602   */\n      swap2\n      pop\n        /* \"#utility.yul\":12611:12704   */\n      tag_273\n        /* \"#utility.yul\":12700:12703   */\n      dup3\n        /* \"#utility.yul\":12611:12704   */\n      tag_128\n      jump\t// in\n    tag_273:\n        /* \"#utility.yul\":12729:12731   */\n      0x20\n        /* \"#utility.yul\":12724:12727   */\n      dup3\n        /* \"#utility.yul\":12720:12732   */\n      add\n        /* \"#utility.yul\":12713:12732   */\n      swap1\n      pop\n        /* \"#utility.yul\":12372:12738   */\n      swap2\n      swap1\n      pop\n      jump\t// out\n        /* \"#utility.yul\":12744:13163   */\n    tag_82:\n        /* \"#utility.yul\":12910:12914   */\n      0x00\n        /* \"#utility.yul\":12948:12950   */\n      0x20\n        /* \"#utility.yul\":12937:12946   */\n      dup3\n        /* \"#utility.yul\":12933:12951   */\n      add\n        /* \"#utility.yul\":12925:12951   */\n      swap1\n      pop\n        /* \"#utility.yul\":12997:13006   */\n      dup2\n        /* \"#utility.yul\":12991:12995   */\n      dup2\n        /* \"#utility.yul\":12987:13007   */\n      sub\n        /* \"#utility.yul\":12983:12984   */\n      0x00\n        /* \"#utility.yul\":12972:12981   */\n      dup4\n        /* \"#utility.yul\":12968:12985   */\n      add\n        /* \"#utility.yul\":12961:13008   */\n      mstore\n        /* \"#utility.yul\":13025:13156   */\n      tag_275\n        /* \"#utility.yul\":13151:13155   */\n      dup2\n        /* \"#utility.yul\":13025:13156   */\n      tag_129\n      jump\t// in\n    tag_275:\n        /* \"#utility.yul\":13017:13156   */\n      swap1\n      pop\n        /* \"#utility.yul\":12744:13163   */\n      swap2\n      swap1\n      pop\n      jump\t// out\n\n    auxdata: 0xa264697066735822122053a3f196d65f4e5eb5b9d60043d9b0f083b779bdaa2ccba1d945966b5f082acf64736f6c63430008180033\n}\n",
				"bytecode": {
					"linkReferences": {},
					"object": "608060405234801561000f575f80fd5b50610c368061001d5f395ff3fe608060405234801561000f575f80fd5b506004361061004a575f3560e01c80634e7097a31461004e5780638092b80a146100805780638c2dccd11461009c578063df144328146100b8575b5f80fd5b610068600480360381019061006391906104fd565b6100d4565b604051610077939291906105c1565b60405180910390f35b61009a60048036038101906100959190610730565b61026f565b005b6100b660048036038101906100b191906104fd565b610303565b005b6100d260048036038101906100cd91906107a6565b61035a565b005b5f6060805f6100e2856103ce565b9050600181815481106100f8576100f761082e565b5b905f5260205f2090600302015f01546001828154811061011b5761011a61082e565b5b905f5260205f2090600302016001016001838154811061013e5761013d61082e565b5b905f5260205f20906003020160020181805461015990610888565b80601f016020809104026020016040519081016040528092919081815260200182805461018590610888565b80156101d05780601f106101a7576101008083540402835291602001916101d0565b820191905f5260205f20905b8154815290600101906020018083116101b357829003601f168201915b505050505091508080546101e390610888565b80601f016020809104026020016040519081016040528092919081815260200182805461020f90610888565b801561025a5780601f106102315761010080835404028352916020019161025a565b820191905f5260205f20905b81548152906001019060200180831161023d57829003601f168201915b50505050509050935093509350509193909250565b600160405180606001604052805f54815260200184815260200183815250908060018154018082558091505060019003905f5260205f2090600302015f909190919091505f820151815f015560208201518160010190816102d09190610a55565b5060408201518160020190816102e69190610a55565b5050505f808154809291906102fa90610b51565b91905055505050565b5f61030d826103ce565b9050600181815481106103235761032261082e565b5b905f5260205f2090600302015f8082015f9055600182015f6103459190610461565b600282015f6103549190610461565b50505050565b5f610364846103ce565b9050826001828154811061037b5761037a61082e565b5b905f5260205f20906003020160010190816103969190610a55565b5081600182815481106103ac576103ab61082e565b5b905f5260205f20906003020160020190816103c79190610a55565b5050505050565b5f805f90505b6001805490508110156104205782600182815481106103f6576103f561082e565b5b905f5260205f2090600302015f015403610413578091505061045c565b80806001019150506103d4565b506040517f08c379a000000000000000000000000000000000000000000000000000000000815260040161045390610be2565b60405180910390fd5b919050565b50805461046d90610888565b5f825580601f1061047e575061049b565b601f0160209004905f5260205f209081019061049a919061049e565b5b50565b5b808211156104b5575f815f90555060010161049f565b5090565b5f604051905090565b5f80fd5b5f80fd5b5f819050919050565b6104dc816104ca565b81146104e6575f80fd5b50565b5f813590506104f7816104d3565b92915050565b5f60208284031215610512576105116104c2565b5b5f61051f848285016104e9565b91505092915050565b610531816104ca565b82525050565b5f81519050919050565b5f82825260208201905092915050565b5f5b8381101561056e578082015181840152602081019050610553565b5f8484015250505050565b5f601f19601f8301169050919050565b5f61059382610537565b61059d8185610541565b93506105ad818560208601610551565b6105b681610579565b840191505092915050565b5f6060820190506105d45f830186610528565b81810360208301526105e68185610589565b905081810360408301526105fa8184610589565b9050949350505050565b5f80fd5b5f80fd5b7f4e487b71000000000000000000000000000000000000000000000000000000005f52604160045260245ffd5b61064282610579565b810181811067ffffffffffffffff821117156106615761066061060c565b5b80604052505050565b5f6106736104b9565b905061067f8282610639565b919050565b5f67ffffffffffffffff82111561069e5761069d61060c565b5b6106a782610579565b9050602081019050919050565b828183375f83830152505050565b5f6106d46106cf84610684565b61066a565b9050828152602081018484840111156106f0576106ef610608565b5b6106fb8482856106b4565b509392505050565b5f82601f83011261071757610716610604565b5b81356107278482602086016106c2565b91505092915050565b5f8060408385031215610746576107456104c2565b5b5f83013567ffffffffffffffff811115610763576107626104c6565b5b61076f85828601610703565b925050602083013567ffffffffffffffff8111156107905761078f6104c6565b5b61079c85828601610703565b9150509250929050565b5f805f606084860312156107bd576107bc6104c2565b5b5f6107ca868287016104e9565b935050602084013567ffffffffffffffff8111156107eb576107ea6104c6565b5b6107f786828701610703565b925050604084013567ffffffffffffffff811115610818576108176104c6565b5b61082486828701610703565b9150509250925092565b7f4e487b71000000000000000000000000000000000000000000000000000000005f52603260045260245ffd5b7f4e487b71000000000000000000000000000000000000000000000000000000005f52602260045260245ffd5b5f600282049050600182168061089f57607f821691505b6020821081036108b2576108b161085b565b5b50919050565b5f819050815f5260205f209050919050565b5f6020601f8301049050919050565b5f82821b905092915050565b5f600883026109147fffffffffffffffffffffffffffffffffffffffffffffffffffffffffffffffff826108d9565b61091e86836108d9565b95508019841693508086168417925050509392505050565b5f819050919050565b5f61095961095461094f846104ca565b610936565b6104ca565b9050919050565b5f819050919050565b6109728361093f565b61098661097e82610960565b8484546108e5565b825550505050565b5f90565b61099a61098e565b6109a5818484610969565b505050565b5b818110156109c8576109bd5f82610992565b6001810190506109ab565b5050565b601f821115610a0d576109de816108b8565b6109e7846108ca565b810160208510156109f6578190505b610a0a610a02856108ca565b8301826109aa565b50505b505050565b5f82821c905092915050565b5f610a2d5f1984600802610a12565b1980831691505092915050565b5f610a458383610a1e565b9150826002028217905092915050565b610a5e82610537565b67ffffffffffffffff811115610a7757610a7661060c565b5b610a818254610888565b610a8c8282856109cc565b5f60209050601f831160018114610abd575f8415610aab578287015190505b610ab58582610a3a565b865550610b1c565b601f198416610acb866108b8565b5f5b82811015610af257848901518255600182019150602085019450602081019050610acd565b86831015610b0f5784890151610b0b601f891682610a1e565b8355505b6001600288020188555050505b505050505050565b7f4e487b71000000000000000000000000000000000000000000000000000000005f52601160045260245ffd5b5f610b5b826104ca565b91507fffffffffffffffffffffffffffffffffffffffffffffffffffffffffffffffff8203610b8d57610b8c610b24565b5b600182019050919050565b7f5461736b206e6f7420666f756e640000000000000000000000000000000000005f82015250565b5f610bcc600e83610541565b9150610bd782610b98565b602082019050919050565b5f6020820190508181035f830152610bf981610bc0565b905091905056fea264697066735822122053a3f196d65f4e5eb5b9d60043d9b0f083b779bdaa2ccba1d945966b5f082acf64736f6c63430008180033",
					"opcodes": "PUSH1 0x80 PUSH1 0x40 MSTORE CALLVALUE DUP1 ISZERO PUSH2 0xF JUMPI PUSH0 DUP1 REVERT JUMPDEST POP PUSH2 0xC36 DUP1 PUSH2 0x1D PUSH0 CODECOPY PUSH0 RETURN INVALID PUSH1 0x80 PUSH1 0x40 MSTORE CALLVALUE DUP1 ISZERO PUSH2 0xF JUMPI PUSH0 DUP1 REVERT JUMPDEST POP PUSH1 0x4 CALLDATASIZE LT PUSH2 0x4A JUMPI PUSH0 CALLDATALOAD PUSH1 0xE0 SHR DUP1 PUSH4 0x4E7097A3 EQ PUSH2 0x4E JUMPI DUP1 PUSH4 0x8092B80A EQ PUSH2 0x80 JUMPI DUP1 PUSH4 0x8C2DCCD1 EQ PUSH2 0x9C JUMPI DUP1 PUSH4 0xDF144328 EQ PUSH2 0xB8 JUMPI JUMPDEST PUSH0 DUP1 REVERT JUMPDEST PUSH2 0x68 PUSH1 0x4 DUP1 CALLDATASIZE SUB DUP2 ADD SWAP1 PUSH2 0x63 SWAP2 SWAP1 PUSH2 0x4FD JUMP JUMPDEST PUSH2 0xD4 JUMP JUMPDEST PUSH1 0x40 MLOAD PUSH2 0x77 SWAP4 SWAP3 SWAP2 SWAP1 PUSH2 0x5C1 JUMP JUMPDEST PUSH1 0x40 MLOAD DUP1 SWAP2 SUB SWAP1 RETURN JUMPDEST PUSH2 0x9A PUSH1 0x4 DUP1 CALLDATASIZE SUB DUP2 ADD SWAP1 PUSH2 0x95 SWAP2 SWAP1 PUSH2 0x730 JUMP JUMPDEST PUSH2 0x26F JUMP JUMPDEST STOP JUMPDEST PUSH2 0xB6 PUSH1 0x4 DUP1 CALLDATASIZE SUB DUP2 ADD SWAP1 PUSH2 0xB1 SWAP2 SWAP1 PUSH2 0x4FD JUMP JUMPDEST PUSH2 0x303 JUMP JUMPDEST STOP JUMPDEST PUSH2 0xD2 PUSH1 0x4 DUP1 CALLDATASIZE SUB DUP2 ADD SWAP1 PUSH2 0xCD SWAP2 SWAP1 PUSH2 0x7A6 JUMP JUMPDEST PUSH2 0x35A JUMP JUMPDEST STOP JUMPDEST PUSH0 PUSH1 0x60 DUP1 PUSH0 PUSH2 0xE2 DUP6 PUSH2 0x3CE JUMP JUMPDEST SWAP1 POP PUSH1 0x1 DUP2 DUP2 SLOAD DUP2 LT PUSH2 0xF8 JUMPI PUSH2 0xF7 PUSH2 0x82E JUMP JUMPDEST JUMPDEST SWAP1 PUSH0 MSTORE PUSH1 0x20 PUSH0 KECCAK256 SWAP1 PUSH1 0x3 MUL ADD PUSH0 ADD SLOAD PUSH1 0x1 DUP3 DUP2 SLOAD DUP2 LT PUSH2 0x11B JUMPI PUSH2 0x11A PUSH2 0x82E JUMP JUMPDEST JUMPDEST SWAP1 PUSH0 MSTORE PUSH1 0x20 PUSH0 KECCAK256 SWAP1 PUSH1 0x3 MUL ADD PUSH1 0x1 ADD PUSH1 0x1 DUP4 DUP2 SLOAD DUP2 LT PUSH2 0x13E JUMPI PUSH2 0x13D PUSH2 0x82E JUMP JUMPDEST JUMPDEST SWAP1 PUSH0 MSTORE PUSH1 0x20 PUSH0 KECCAK256 SWAP1 PUSH1 0x3 MUL ADD PUSH1 0x2 ADD DUP2 DUP1 SLOAD PUSH2 0x159 SWAP1 PUSH2 0x888 JUMP JUMPDEST DUP1 PUSH1 0x1F ADD PUSH1 0x20 DUP1 SWAP2 DIV MUL PUSH1 0x20 ADD PUSH1 0x40 MLOAD SWAP1 DUP2 ADD PUSH1 0x40 MSTORE DUP1 SWAP3 SWAP2 SWAP1 DUP2 DUP2 MSTORE PUSH1 0x20 ADD DUP3 DUP1 SLOAD PUSH2 0x185 SWAP1 PUSH2 0x888 JUMP JUMPDEST DUP1 ISZERO PUSH2 0x1D0 JUMPI DUP1 PUSH1 0x1F LT PUSH2 0x1A7 JUMPI PUSH2 0x100 DUP1 DUP4 SLOAD DIV MUL DUP4 MSTORE SWAP2 PUSH1 0x20 ADD SWAP2 PUSH2 0x1D0 JUMP JUMPDEST DUP3 ADD SWAP2 SWAP1 PUSH0 MSTORE PUSH1 0x20 PUSH0 KECCAK256 SWAP1 JUMPDEST DUP2 SLOAD DUP2 MSTORE SWAP1 PUSH1 0x1 ADD SWAP1 PUSH1 0x20 ADD DUP1 DUP4 GT PUSH2 0x1B3 JUMPI DUP3 SWAP1 SUB PUSH1 0x1F AND DUP3 ADD SWAP2 JUMPDEST POP POP POP POP POP SWAP2 POP DUP1 DUP1 SLOAD PUSH2 0x1E3 SWAP1 PUSH2 0x888 JUMP JUMPDEST DUP1 PUSH1 0x1F ADD PUSH1 0x20 DUP1 SWAP2 DIV MUL PUSH1 0x20 ADD PUSH1 0x40 MLOAD SWAP1 DUP2 ADD PUSH1 0x40 MSTORE DUP1 SWAP3 SWAP2 SWAP1 DUP2 DUP2 MSTORE PUSH1 0x20 ADD DUP3 DUP1 SLOAD PUSH2 0x20F SWAP1 PUSH2 0x888 JUMP JUMPDEST DUP1 ISZERO PUSH2 0x25A JUMPI DUP1 PUSH1 0x1F LT PUSH2 0x231 JUMPI PUSH2 0x100 DUP1 DUP4 SLOAD DIV MUL DUP4 MSTORE SWAP2 PUSH1 0x20 ADD SWAP2 PUSH2 0x25A JUMP JUMPDEST DUP3 ADD SWAP2 SWAP1 PUSH0 MSTORE PUSH1 0x20 PUSH0 KECCAK256 SWAP1 JUMPDEST DUP2 SLOAD DUP2 MSTORE SWAP1 PUSH1 0x1 ADD SWAP1 PUSH1 0x20 ADD DUP1 DUP4 GT PUSH2 0x23D JUMPI DUP3 SWAP1 SUB PUSH1 0x1F AND DUP3 ADD SWAP2 JUMPDEST POP POP POP POP POP SWAP1 POP SWAP4 POP SWAP4 POP SWAP4 POP POP SWAP2 SWAP4 SWAP1 SWAP3 POP JUMP JUMPDEST PUSH1 0x1 PUSH1 0x40 MLOAD DUP1 PUSH1 0x60 ADD PUSH1 0x40 MSTORE DUP1 PUSH0 SLOAD DUP2 MSTORE PUSH1 0x20 ADD DUP5 DUP2 MSTORE PUSH1 0x20 ADD DUP4 DUP2 MSTORE POP SWAP1 DUP1 PUSH1 0x1 DUP2 SLOAD ADD DUP1 DUP3 SSTORE DUP1 SWAP2 POP POP PUSH1 0x1 SWAP1 SUB SWAP1 PUSH0 MSTORE PUSH1 0x20 PUSH0 KECCAK256 SWAP1 PUSH1 0x3 MUL ADD PUSH0 SWAP1 SWAP2 SWAP1 SWAP2 SWAP1 SWAP2 POP PUSH0 DUP3 ADD MLOAD DUP2 PUSH0 ADD SSTORE PUSH1 0x20 DUP3 ADD MLOAD DUP2 PUSH1 0x1 ADD SWAP1 DUP2 PUSH2 0x2D0 SWAP2 SWAP1 PUSH2 0xA55 JUMP JUMPDEST POP PUSH1 0x40 DUP3 ADD MLOAD DUP2 PUSH1 0x2 ADD SWAP1 DUP2 PUSH2 0x2E6 SWAP2 SWAP1 PUSH2 0xA55 JUMP JUMPDEST POP POP POP PUSH0 DUP1 DUP2 SLOAD DUP1 SWAP3 SWAP2 SWAP1 PUSH2 0x2FA SWAP1 PUSH2 0xB51 JUMP JUMPDEST SWAP2 SWAP1 POP SSTORE POP POP POP JUMP JUMPDEST PUSH0 PUSH2 0x30D DUP3 PUSH2 0x3CE JUMP JUMPDEST SWAP1 POP PUSH1 0x1 DUP2 DUP2 SLOAD DUP2 LT PUSH2 0x323 JUMPI PUSH2 0x322 PUSH2 0x82E JUMP JUMPDEST JUMPDEST SWAP1 PUSH0 MSTORE PUSH1 0x20 PUSH0 KECCAK256 SWAP1 PUSH1 0x3 MUL ADD PUSH0 DUP1 DUP3 ADD PUSH0 SWAP1 SSTORE PUSH1 0x1 DUP3 ADD PUSH0 PUSH2 0x345 SWAP2 SWAP1 PUSH2 0x461 JUMP JUMPDEST PUSH1 0x2 DUP3 ADD PUSH0 PUSH2 0x354 SWAP2 SWAP1 PUSH2 0x461 JUMP JUMPDEST POP POP POP POP JUMP JUMPDEST PUSH0 PUSH2 0x364 DUP5 PUSH2 0x3CE JUMP JUMPDEST SWAP1 POP DUP3 PUSH1 0x1 DUP3 DUP2 SLOAD DUP2 LT PUSH2 0x37B JUMPI PUSH2 0x37A PUSH2 0x82E JUMP JUMPDEST JUMPDEST SWAP1 PUSH0 MSTORE PUSH1 0x20 PUSH0 KECCAK256 SWAP1 PUSH1 0x3 MUL ADD PUSH1 0x1 ADD SWAP1 DUP2 PUSH2 0x396 SWAP2 SWAP1 PUSH2 0xA55 JUMP JUMPDEST POP DUP2 PUSH1 0x1 DUP3 DUP2 SLOAD DUP2 LT PUSH2 0x3AC JUMPI PUSH2 0x3AB PUSH2 0x82E JUMP JUMPDEST JUMPDEST SWAP1 PUSH0 MSTORE PUSH1 0x20 PUSH0 KECCAK256 SWAP1 PUSH1 0x3 MUL ADD PUSH1 0x2 ADD SWAP1 DUP2 PUSH2 0x3C7 SWAP2 SWAP1 PUSH2 0xA55 JUMP JUMPDEST POP POP POP POP POP JUMP JUMPDEST PUSH0 DUP1 PUSH0 SWAP1 POP JUMPDEST PUSH1 0x1 DUP1 SLOAD SWAP1 POP DUP2 LT ISZERO PUSH2 0x420 JUMPI DUP3 PUSH1 0x1 DUP3 DUP2 SLOAD DUP2 LT PUSH2 0x3F6 JUMPI PUSH2 0x3F5 PUSH2 0x82E JUMP JUMPDEST JUMPDEST SWAP1 PUSH0 MSTORE PUSH1 0x20 PUSH0 KECCAK256 SWAP1 PUSH1 0x3 MUL ADD PUSH0 ADD SLOAD SUB PUSH2 0x413 JUMPI DUP1 SWAP2 POP POP PUSH2 0x45C JUMP JUMPDEST DUP1 DUP1 PUSH1 0x1 ADD SWAP2 POP POP PUSH2 0x3D4 JUMP JUMPDEST POP PUSH1 0x40 MLOAD PUSH32 0x8C379A000000000000000000000000000000000000000000000000000000000 DUP2 MSTORE PUSH1 0x4 ADD PUSH2 0x453 SWAP1 PUSH2 0xBE2 JUMP JUMPDEST PUSH1 0x40 MLOAD DUP1 SWAP2 SUB SWAP1 REVERT JUMPDEST SWAP2 SWAP1 POP JUMP JUMPDEST POP DUP1 SLOAD PUSH2 0x46D SWAP1 PUSH2 0x888 JUMP JUMPDEST PUSH0 DUP3 SSTORE DUP1 PUSH1 0x1F LT PUSH2 0x47E JUMPI POP PUSH2 0x49B JUMP JUMPDEST PUSH1 0x1F ADD PUSH1 0x20 SWAP1 DIV SWAP1 PUSH0 MSTORE PUSH1 0x20 PUSH0 KECCAK256 SWAP1 DUP2 ADD SWAP1 PUSH2 0x49A SWAP2 SWAP1 PUSH2 0x49E JUMP JUMPDEST JUMPDEST POP JUMP JUMPDEST JUMPDEST DUP1 DUP3 GT ISZERO PUSH2 0x4B5 JUMPI PUSH0 DUP2 PUSH0 SWAP1 SSTORE POP PUSH1 0x1 ADD PUSH2 0x49F JUMP JUMPDEST POP SWAP1 JUMP JUMPDEST PUSH0 PUSH1 0x40 MLOAD SWAP1 POP SWAP1 JUMP JUMPDEST PUSH0 DUP1 REVERT JUMPDEST PUSH0 DUP1 REVERT JUMPDEST PUSH0 DUP2 SWAP1 POP SWAP2 SWAP1 POP JUMP JUMPDEST PUSH2 0x4DC DUP2 PUSH2 0x4CA JUMP JUMPDEST DUP2 EQ PUSH2 0x4E6 JUMPI PUSH0 DUP1 REVERT JUMPDEST POP JUMP JUMPDEST PUSH0 DUP2 CALLDATALOAD SWAP1 POP PUSH2 0x4F7 DUP2 PUSH2 0x4D3 JUMP JUMPDEST SWAP3 SWAP2 POP POP JUMP JUMPDEST PUSH0 PUSH1 0x20 DUP3 DUP5 SUB SLT ISZERO PUSH2 0x512 JUMPI PUSH2 0x511 PUSH2 0x4C2 JUMP JUMPDEST JUMPDEST PUSH0 PUSH2 0x51F DUP5 DUP3 DUP6 ADD PUSH2 0x4E9 JUMP JUMPDEST SWAP2 POP POP SWAP3 SWAP2 POP POP JUMP JUMPDEST PUSH2 0x531 DUP2 PUSH2 0x4CA JUMP JUMPDEST DUP3 MSTORE POP POP JUMP JUMPDEST PUSH0 DUP2 MLOAD SWAP1 POP SWAP2 SWAP1 POP JUMP JUMPDEST PUSH0 DUP3 DUP3 MSTORE PUSH1 0x20 DUP3 ADD SWAP1 POP SWAP3 SWAP2 POP POP JUMP JUMPDEST PUSH0 JUMPDEST DUP4 DUP2 LT ISZERO PUSH2 0x56E JUMPI DUP1 DUP3 ADD MLOAD DUP2 DUP5 ADD MSTORE PUSH1 0x20 DUP2 ADD SWAP1 POP PUSH2 0x553 JUMP JUMPDEST PUSH0 DUP5 DUP5 ADD MSTORE POP POP POP POP JUMP JUMPDEST PUSH0 PUSH1 0x1F NOT PUSH1 0x1F DUP4 ADD AND SWAP1 POP SWAP2 SWAP1 POP JUMP JUMPDEST PUSH0 PUSH2 0x593 DUP3 PUSH2 0x537 JUMP JUMPDEST PUSH2 0x59D DUP2 DUP6 PUSH2 0x541 JUMP JUMPDEST SWAP4 POP PUSH2 0x5AD DUP2 DUP6 PUSH1 0x20 DUP7 ADD PUSH2 0x551 JUMP JUMPDEST PUSH2 0x5B6 DUP2 PUSH2 0x579 JUMP JUMPDEST DUP5 ADD SWAP2 POP POP SWAP3 SWAP2 POP POP JUMP JUMPDEST PUSH0 PUSH1 0x60 DUP3 ADD SWAP1 POP PUSH2 0x5D4 PUSH0 DUP4 ADD DUP7 PUSH2 0x528 JUMP JUMPDEST DUP2 DUP2 SUB PUSH1 0x20 DUP4 ADD MSTORE PUSH2 0x5E6 DUP2 DUP6 PUSH2 0x589 JUMP JUMPDEST SWAP1 POP DUP2 DUP2 SUB PUSH1 0x40 DUP4 ADD MSTORE PUSH2 0x5FA DUP2 DUP5 PUSH2 0x589 JUMP JUMPDEST SWAP1 POP SWAP5 SWAP4 POP POP POP POP JUMP JUMPDEST PUSH0 DUP1 REVERT JUMPDEST PUSH0 DUP1 REVERT JUMPDEST PUSH32 0x4E487B7100000000000000000000000000000000000000000000000000000000 PUSH0 MSTORE PUSH1 0x41 PUSH1 0x4 MSTORE PUSH1 0x24 PUSH0 REVERT JUMPDEST PUSH2 0x642 DUP3 PUSH2 0x579 JUMP JUMPDEST DUP2 ADD DUP2 DUP2 LT PUSH8 0xFFFFFFFFFFFFFFFF DUP3 GT OR ISZERO PUSH2 0x661 JUMPI PUSH2 0x660 PUSH2 0x60C JUMP JUMPDEST JUMPDEST DUP1 PUSH1 0x40 MSTORE POP POP POP JUMP JUMPDEST PUSH0 PUSH2 0x673 PUSH2 0x4B9 JUMP JUMPDEST SWAP1 POP PUSH2 0x67F DUP3 DUP3 PUSH2 0x639 JUMP JUMPDEST SWAP2 SWAP1 POP JUMP JUMPDEST PUSH0 PUSH8 0xFFFFFFFFFFFFFFFF DUP3 GT ISZERO PUSH2 0x69E JUMPI PUSH2 0x69D PUSH2 0x60C JUMP JUMPDEST JUMPDEST PUSH2 0x6A7 DUP3 PUSH2 0x579 JUMP JUMPDEST SWAP1 POP PUSH1 0x20 DUP2 ADD SWAP1 POP SWAP2 SWAP1 POP JUMP JUMPDEST DUP3 DUP2 DUP4 CALLDATACOPY PUSH0 DUP4 DUP4 ADD MSTORE POP POP POP JUMP JUMPDEST PUSH0 PUSH2 0x6D4 PUSH2 0x6CF DUP5 PUSH2 0x684 JUMP JUMPDEST PUSH2 0x66A JUMP JUMPDEST SWAP1 POP DUP3 DUP2 MSTORE PUSH1 0x20 DUP2 ADD DUP5 DUP5 DUP5 ADD GT ISZERO PUSH2 0x6F0 JUMPI PUSH2 0x6EF PUSH2 0x608 JUMP JUMPDEST JUMPDEST PUSH2 0x6FB DUP5 DUP3 DUP6 PUSH2 0x6B4 JUMP JUMPDEST POP SWAP4 SWAP3 POP POP POP JUMP JUMPDEST PUSH0 DUP3 PUSH1 0x1F DUP4 ADD SLT PUSH2 0x717 JUMPI PUSH2 0x716 PUSH2 0x604 JUMP JUMPDEST JUMPDEST DUP2 CALLDATALOAD PUSH2 0x727 DUP5 DUP3 PUSH1 0x20 DUP7 ADD PUSH2 0x6C2 JUMP JUMPDEST SWAP2 POP POP SWAP3 SWAP2 POP POP JUMP JUMPDEST PUSH0 DUP1 PUSH1 0x40 DUP4 DUP6 SUB SLT ISZERO PUSH2 0x746 JUMPI PUSH2 0x745 PUSH2 0x4C2 JUMP JUMPDEST JUMPDEST PUSH0 DUP4 ADD CALLDATALOAD PUSH8 0xFFFFFFFFFFFFFFFF DUP2 GT ISZERO PUSH2 0x763 JUMPI PUSH2 0x762 PUSH2 0x4C6 JUMP JUMPDEST JUMPDEST PUSH2 0x76F DUP6 DUP3 DUP7 ADD PUSH2 0x703 JUMP JUMPDEST SWAP3 POP POP PUSH1 0x20 DUP4 ADD CALLDATALOAD PUSH8 0xFFFFFFFFFFFFFFFF DUP2 GT ISZERO PUSH2 0x790 JUMPI PUSH2 0x78F PUSH2 0x4C6 JUMP JUMPDEST JUMPDEST PUSH2 0x79C DUP6 DUP3 DUP7 ADD PUSH2 0x703 JUMP JUMPDEST SWAP2 POP POP SWAP3 POP SWAP3 SWAP1 POP JUMP JUMPDEST PUSH0 DUP1 PUSH0 PUSH1 0x60 DUP5 DUP7 SUB SLT ISZERO PUSH2 0x7BD JUMPI PUSH2 0x7BC PUSH2 0x4C2 JUMP JUMPDEST JUMPDEST PUSH0 PUSH2 0x7CA DUP7 DUP3 DUP8 ADD PUSH2 0x4E9 JUMP JUMPDEST SWAP4 POP POP PUSH1 0x20 DUP5 ADD CALLDATALOAD PUSH8 0xFFFFFFFFFFFFFFFF DUP2 GT ISZERO PUSH2 0x7EB JUMPI PUSH2 0x7EA PUSH2 0x4C6 JUMP JUMPDEST JUMPDEST PUSH2 0x7F7 DUP7 DUP3 DUP8 ADD PUSH2 0x703 JUMP JUMPDEST SWAP3 POP POP PUSH1 0x40 DUP5 ADD CALLDATALOAD PUSH8 0xFFFFFFFFFFFFFFFF DUP2 GT ISZERO PUSH2 0x818 JUMPI PUSH2 0x817 PUSH2 0x4C6 JUMP JUMPDEST JUMPDEST PUSH2 0x824 DUP7 DUP3 DUP8 ADD PUSH2 0x703 JUMP JUMPDEST SWAP2 POP POP SWAP3 POP SWAP3 POP SWAP3 JUMP JUMPDEST PUSH32 0x4E487B7100000000000000000000000000000000000000000000000000000000 PUSH0 MSTORE PUSH1 0x32 PUSH1 0x4 MSTORE PUSH1 0x24 PUSH0 REVERT JUMPDEST PUSH32 0x4E487B7100000000000000000000000000000000000000000000000000000000 PUSH0 MSTORE PUSH1 0x22 PUSH1 0x4 MSTORE PUSH1 0x24 PUSH0 REVERT JUMPDEST PUSH0 PUSH1 0x2 DUP3 DIV SWAP1 POP PUSH1 0x1 DUP3 AND DUP1 PUSH2 0x89F JUMPI PUSH1 0x7F DUP3 AND SWAP2 POP JUMPDEST PUSH1 0x20 DUP3 LT DUP2 SUB PUSH2 0x8B2 JUMPI PUSH2 0x8B1 PUSH2 0x85B JUMP JUMPDEST JUMPDEST POP SWAP2 SWAP1 POP JUMP JUMPDEST PUSH0 DUP2 SWAP1 POP DUP2 PUSH0 MSTORE PUSH1 0x20 PUSH0 KECCAK256 SWAP1 POP SWAP2 SWAP1 POP JUMP JUMPDEST PUSH0 PUSH1 0x20 PUSH1 0x1F DUP4 ADD DIV SWAP1 POP SWAP2 SWAP1 POP JUMP JUMPDEST PUSH0 DUP3 DUP3 SHL SWAP1 POP SWAP3 SWAP2 POP POP JUMP JUMPDEST PUSH0 PUSH1 0x8 DUP4 MUL PUSH2 0x914 PUSH32 0xFFFFFFFFFFFFFFFFFFFFFFFFFFFFFFFFFFFFFFFFFFFFFFFFFFFFFFFFFFFFFFFF DUP3 PUSH2 0x8D9 JUMP JUMPDEST PUSH2 0x91E DUP7 DUP4 PUSH2 0x8D9 JUMP JUMPDEST SWAP6 POP DUP1 NOT DUP5 AND SWAP4 POP DUP1 DUP7 AND DUP5 OR SWAP3 POP POP POP SWAP4 SWAP3 POP POP POP JUMP JUMPDEST PUSH0 DUP2 SWAP1 POP SWAP2 SWAP1 POP JUMP JUMPDEST PUSH0 PUSH2 0x959 PUSH2 0x954 PUSH2 0x94F DUP5 PUSH2 0x4CA JUMP JUMPDEST PUSH2 0x936 JUMP JUMPDEST PUSH2 0x4CA JUMP JUMPDEST SWAP1 POP SWAP2 SWAP1 POP JUMP JUMPDEST PUSH0 DUP2 SWAP1 POP SWAP2 SWAP1 POP JUMP JUMPDEST PUSH2 0x972 DUP4 PUSH2 0x93F JUMP JUMPDEST PUSH2 0x986 PUSH2 0x97E DUP3 PUSH2 0x960 JUMP JUMPDEST DUP5 DUP5 SLOAD PUSH2 0x8E5 JUMP JUMPDEST DUP3 SSTORE POP POP POP POP JUMP JUMPDEST PUSH0 SWAP1 JUMP JUMPDEST PUSH2 0x99A PUSH2 0x98E JUMP JUMPDEST PUSH2 0x9A5 DUP2 DUP5 DUP5 PUSH2 0x969 JUMP JUMPDEST POP POP POP JUMP JUMPDEST JUMPDEST DUP2 DUP2 LT ISZERO PUSH2 0x9C8 JUMPI PUSH2 0x9BD PUSH0 DUP3 PUSH2 0x992 JUMP JUMPDEST PUSH1 0x1 DUP2 ADD SWAP1 POP PUSH2 0x9AB JUMP JUMPDEST POP POP JUMP JUMPDEST PUSH1 0x1F DUP3 GT ISZERO PUSH2 0xA0D JUMPI PUSH2 0x9DE DUP2 PUSH2 0x8B8 JUMP JUMPDEST PUSH2 0x9E7 DUP5 PUSH2 0x8CA JUMP JUMPDEST DUP2 ADD PUSH1 0x20 DUP6 LT ISZERO PUSH2 0x9F6 JUMPI DUP2 SWAP1 POP JUMPDEST PUSH2 0xA0A PUSH2 0xA02 DUP6 PUSH2 0x8CA JUMP JUMPDEST DUP4 ADD DUP3 PUSH2 0x9AA JUMP JUMPDEST POP POP JUMPDEST POP POP POP JUMP JUMPDEST PUSH0 DUP3 DUP3 SHR SWAP1 POP SWAP3 SWAP2 POP POP JUMP JUMPDEST PUSH0 PUSH2 0xA2D PUSH0 NOT DUP5 PUSH1 0x8 MUL PUSH2 0xA12 JUMP JUMPDEST NOT DUP1 DUP4 AND SWAP2 POP POP SWAP3 SWAP2 POP POP JUMP JUMPDEST PUSH0 PUSH2 0xA45 DUP4 DUP4 PUSH2 0xA1E JUMP JUMPDEST SWAP2 POP DUP3 PUSH1 0x2 MUL DUP3 OR SWAP1 POP SWAP3 SWAP2 POP POP JUMP JUMPDEST PUSH2 0xA5E DUP3 PUSH2 0x537 JUMP JUMPDEST PUSH8 0xFFFFFFFFFFFFFFFF DUP2 GT ISZERO PUSH2 0xA77 JUMPI PUSH2 0xA76 PUSH2 0x60C JUMP JUMPDEST JUMPDEST PUSH2 0xA81 DUP3 SLOAD PUSH2 0x888 JUMP JUMPDEST PUSH2 0xA8C DUP3 DUP3 DUP6 PUSH2 0x9CC JUMP JUMPDEST PUSH0 PUSH1 0x20 SWAP1 POP PUSH1 0x1F DUP4 GT PUSH1 0x1 DUP2 EQ PUSH2 0xABD JUMPI PUSH0 DUP5 ISZERO PUSH2 0xAAB JUMPI DUP3 DUP8 ADD MLOAD SWAP1 POP JUMPDEST PUSH2 0xAB5 DUP6 DUP3 PUSH2 0xA3A JUMP JUMPDEST DUP7 SSTORE POP PUSH2 0xB1C JUMP JUMPDEST PUSH1 0x1F NOT DUP5 AND PUSH2 0xACB DUP7 PUSH2 0x8B8 JUMP JUMPDEST PUSH0 JUMPDEST DUP3 DUP2 LT ISZERO PUSH2 0xAF2 JUMPI DUP5 DUP10 ADD MLOAD DUP3 SSTORE PUSH1 0x1 DUP3 ADD SWAP2 POP PUSH1 0x20 DUP6 ADD SWAP5 POP PUSH1 0x20 DUP2 ADD SWAP1 POP PUSH2 0xACD JUMP JUMPDEST DUP7 DUP4 LT ISZERO PUSH2 0xB0F JUMPI DUP5 DUP10 ADD MLOAD PUSH2 0xB0B PUSH1 0x1F DUP10 AND DUP3 PUSH2 0xA1E JUMP JUMPDEST DUP4 SSTORE POP JUMPDEST PUSH1 0x1 PUSH1 0x2 DUP9 MUL ADD DUP9 SSTORE POP POP POP JUMPDEST POP POP POP POP POP POP JUMP JUMPDEST PUSH32 0x4E487B7100000000000000000000000000000000000000000000000000000000 PUSH0 MSTORE PUSH1 0x11 PUSH1 0x4 MSTORE PUSH1 0x24 PUSH0 REVERT JUMPDEST PUSH0 PUSH2 0xB5B DUP3 PUSH2 0x4CA JUMP JUMPDEST SWAP2 POP PUSH32 0xFFFFFFFFFFFFFFFFFFFFFFFFFFFFFFFFFFFFFFFFFFFFFFFFFFFFFFFFFFFFFFFF DUP3 SUB PUSH2 0xB8D JUMPI PUSH2 0xB8C PUSH2 0xB24 JUMP JUMPDEST JUMPDEST PUSH1 0x1 DUP3 ADD SWAP1 POP SWAP2 SWAP1 POP JUMP JUMPDEST PUSH32 0x5461736B206E6F7420666F756E64000000000000000000000000000000000000 PUSH0 DUP3 ADD MSTORE POP JUMP JUMPDEST PUSH0 PUSH2 0xBCC PUSH1 0xE DUP4 PUSH2 0x541 JUMP JUMPDEST SWAP2 POP PUSH2 0xBD7 DUP3 PUSH2 0xB98 JUMP JUMPDEST PUSH1 0x20 DUP3 ADD SWAP1 POP SWAP2 SWAP1 POP JUMP JUMPDEST PUSH0 PUSH1 0x20 DUP3 ADD SWAP1 POP DUP2 DUP2 SUB PUSH0 DUP4 ADD MSTORE PUSH2 0xBF9 DUP2 PUSH2 0xBC0 JUMP JUMPDEST SWAP1 POP SWAP2 SWAP1 POP JUMP INVALID LOG2 PUSH5 0x6970667358 0x22 SLT KECCAK256 MSTORE8 LOG3 CALL SWAP7 0xD6 PUSH0 0x4E MCOPY 0xB5 0xB9 0xD6 STOP NUMBER 0xD9 0xB0 CREATE DUP4 0xB7 PUSH26 0xBDAA2CCBA1D945966B5F082ACF64736F6C634300081800330000 "
				},
				"gasEstimates": {
					"creation": {
						"codeDepositCost": "625200",
						"executionCost": "655",
						"totalCost": "625855"
					},
					"external": {
						"CreateTask(string,string)": "infinite",
						"DeleteTask(uint256)": "infinite",
						"ReadTask(uint256)": "infinite",
						"UpdateTask(uint256,string,string)": "infinite"
					},
					"internal": {
						"FindIndex(uint256)": "infinite"
					}
				},
				"methodIdentifiers": {
					"CreateTask(string,string)": "8092b80a",
					"DeleteTask(uint256)": "8c2dccd1",
					"ReadTask(uint256)": "4e7097a3",
					"UpdateTask(uint256,string,string)": "df144328"
				}
			},
			"storageLayout": {
				"storage": [
					{
						"astId": 3,
						"contract": "contracts/task-contract.sol:TaskContract",
						"label": "nextId",
						"offset": 0,
						"slot": "0",
						"type": "t_uint256"
					},
					{
						"astId": 14,
						"contract": "contracts/task-contract.sol:TaskContract",
						"label": "tasks",
						"offset": 0,
						"slot": "1",
						"type": "t_array(t_struct(Task)10_storage)dyn_storage"
					}
				],
				"types": {
					"t_array(t_struct(Task)10_storage)dyn_storage": {
						"base": "t_struct(Task)10_storage",
						"encoding": "dynamic_array",
						"label": "struct TaskContract.Task[]",
						"numberOfBytes": "32"
					},
					"t_string_storage": {
						"encoding": "bytes",
						"label": "string",
						"numberOfBytes": "32"
					},
					"t_struct(Task)10_storage": {
						"encoding": "inplace",
						"label": "struct TaskContract.Task",
						"members": [
							{
								"astId": 5,
								"contract": "contracts/task-contract.sol:TaskContract",
								"label": "id",
								"offset": 0,
								"slot": "0",
								"type": "t_uint256"
							},
							{
								"astId": 7,
								"contract": "contracts/task-contract.sol:TaskContract",
								"label": "name",
								"offset": 0,
								"slot": "1",
								"type": "t_string_storage"
							},
							{
								"astId": 9,
								"contract": "contracts/task-contract.sol:TaskContract",
								"label": "description",
								"offset": 0,
								"slot": "2",
								"type": "t_string_storage"
							}
						],
						"numberOfBytes": "96"
					},
					"t_uint256": {
						"encoding": "inplace",
						"label": "uint256",
						"numberOfBytes": "32"
					}
				}
			},
			"userdoc": {
				"kind": "user",
				"methods": {},
				"version": 1
			}
		}
	}
}