{
	"data": {
		"bytecode": {
			"linkReferences": {},
			"object": "60806040525f600360016101000a81548160ff021916908315150217905550348015610029575f80fd5b50611007806100375f395ff3fe608060405260043610610079575f3560e01c8063929f81931161004d578063929f819314610109578063a15eb0a614610145578063ea2f992e14610161578063f5b7850a1461017d57610079565b80620c43971461007d5780634fb5bcbf146100a75780635bb23e3b146100c357806385d6c7c0146100df575b5f80fd5b348015610088575f80fd5b506100916101a7565b60405161009e91906107b9565b60405180910390f35b6100c160048036038101906100bc9190610865565b6101bb565b005b6100dd60048036038101906100d891906108c2565b610334565b005b3480156100ea575f80fd5b506100f36103d8565b60405161010091906107b9565b60405180910390f35b348015610114575f80fd5b5061012f600480360381019061012a9190610943565b6103ed565b60405161013c91906107b9565b60405180910390f35b61015f600480360381019061015a9190610865565b61042d565b005b61017b60048036038101906101769190610865565b6105a6565b005b348015610188575f80fd5b50610191610788565b60405161019e91906107b9565b60405180910390f35b5f805f9054906101000a9004600f0b905090565b82826040516020016101ce9291906109aa565b6040516020818303038152906040528051906020012060026040516020016101f69190610ab1565b604051602081830303815290604052805190602001201461024c576040517f08c379a000000000000000000000000000000000000000000000000000000000815260040161024390610b21565b60405180910390fd5b805f808282829054906101000a9004600f0b6102689190610b6c565b92506101000a8154816fffffffffffffffffffffffffffffffff0219169083600f0b6fffffffffffffffffffffffffffffffff160217905550805f60108282829054906101000a9004600f0b6102be9190610b6c565b92506101000a8154816fffffffffffffffffffffffffffffffff0219169083600f0b6fffffffffffffffffffffffffffffffff16021790555060035f81819054906101000a90045f0b8092919061031490610bde565b91906101000a81548160ff02191690835f0b60ff16021790555050505050565b60405160200161034390610c29565b60405160208183030381529060405280519060200120828260405160200161036c9291906109aa565b60405160208183030381529060405280519060200120036103c2576040517f08c379a00000000000000000000000000000000000000000000000000000000081526004016103b990610b21565b60405180910390fd5b8181600291826103d3929190610e08565b505050565b5f8060109054906101000a9004600f0b905090565b5f60018260ff168154811061040557610404610ed5565b5b905f5260205f2090600291828204019190066010029054906101000a9004600f0b9050919050565b82826040516020016104409291906109aa565b6040516020818303038152906040528051906020012060026040516020016104689190610ab1565b60405160208183030381529060405280519060200120146104be576040517f08c379a00000000000000000000000000000000000000000000000000000000081526004016104b590610b21565b60405180910390fd5b805f808282829054906101000a9004600f0b6104da9190610f02565b92506101000a8154816fffffffffffffffffffffffffffffffff0219169083600f0b6fffffffffffffffffffffffffffffffff160217905550805f60108282829054906101000a9004600f0b6105309190610f02565b92506101000a8154816fffffffffffffffffffffffffffffffff0219169083600f0b6fffffffffffffffffffffffffffffffff16021790555060035f81819054906101000a90045f0b8092919061058690610bde565b91906101000a81548160ff02191690835f0b60ff16021790555050505050565b82826040516020016105b99291906109aa565b6040516020818303038152906040528051906020012060026040516020016105e19190610ab1565b6040516020818303038152906040528051906020012014610637576040517f08c379a000000000000000000000000000000000000000000000000000000000815260040161062e90610b21565b60405180910390fd5b5f60109054906101000a9004600f0b600f0b81600f0b131561068e576040517f08c379a000000000000000000000000000000000000000000000000000000000815260040161068590610fb3565b60405180910390fd5b600181908060018154018082558091505060019003905f5260205f2090600291828204019190066010029091909190916101000a8154816fffffffffffffffffffffffffffffffff0219169083600f0b6fffffffffffffffffffffffffffffffff160217905550805f60108282829054906101000a9004600f0b6107129190610b6c565b92506101000a8154816fffffffffffffffffffffffffffffffff0219169083600f0b6fffffffffffffffffffffffffffffffff16021790555060035f81819054906101000a90045f0b8092919061076890610bde565b91906101000a81548160ff02191690835f0b60ff16021790555050505050565b5f60035f9054906101000a90045f0b5f0b905090565b5f81600f0b9050919050565b6107b38161079e565b82525050565b5f6020820190506107cc5f8301846107aa565b92915050565b5f80fd5b5f80fd5b5f80fd5b5f80fd5b5f80fd5b5f8083601f8401126107fb576107fa6107da565b5b8235905067ffffffffffffffff811115610818576108176107de565b5b602083019150836001820283011115610834576108336107e2565b5b9250929050565b6108448161079e565b811461084e575f80fd5b50565b5f8135905061085f8161083b565b92915050565b5f805f6040848603121561087c5761087b6107d2565b5b5f84013567ffffffffffffffff811115610899576108986107d6565b5b6108a5868287016107e6565b935093505060206108b886828701610851565b9150509250925092565b5f80602083850312156108d8576108d76107d2565b5b5f83013567ffffffffffffffff8111156108f5576108f46107d6565b5b610901858286016107e6565b92509250509250929050565b5f60ff82169050919050565b6109228161090d565b811461092c575f80fd5b50565b5f8135905061093d81610919565b92915050565b5f60208284031215610958576109576107d2565b5b5f6109658482850161092f565b91505092915050565b5f81905092915050565b828183375f83830152505050565b5f610991838561096e565b935061099e838584610978565b82840190509392505050565b5f6109b6828486610986565b91508190509392505050565b7f4e487b71000000000000000000000000000000000000000000000000000000005f52602260045260245ffd5b5f6002820490506001821680610a0657607f821691505b602082108103610a1957610a186109c2565b5b50919050565b5f819050815f5260205f209050919050565b5f8154610a3d816109ef565b610a47818661096e565b9450600182165f8114610a615760018114610a7657610aa8565b60ff1983168652811515820286019350610aa8565b610a7f85610a1f565b5f5b83811015610aa057815481890152600182019150602081019050610a81565b838801955050505b50505092915050565b5f610abc8284610a31565b915081905092915050565b5f82825260208201905092915050565b7f50617373776f726420696e636f727265637400000000000000000000000000005f82015250565b5f610b0b601283610ac7565b9150610b1682610ad7565b602082019050919050565b5f6020820190508181035f830152610b3881610aff565b9050919050565b7f4e487b71000000000000000000000000000000000000000000000000000000005f52601160045260245ffd5b5f610b768261079e565b9150610b818361079e565b925082820390506f7fffffffffffffffffffffffffffffff81137fffffffffffffffffffffffffffffffff8000000000000000000000000000000082121715610bcd57610bcc610b3f565b5b92915050565b5f815f0b9050919050565b5f610be882610bd3565b9150607f8203610bfb57610bfa610b3f565b5b600182019050919050565b50565b5f610c145f8361096e565b9150610c1f82610c06565b5f82019050919050565b5f610c3382610c09565b9150819050919050565b5f82905092915050565b7f4e487b71000000000000000000000000000000000000000000000000000000005f52604160045260245ffd5b5f6020601f8301049050919050565b5f82821b905092915050565b5f60088302610cbe7fffffffffffffffffffffffffffffffffffffffffffffffffffffffffffffffff82610c83565b610cc88683610c83565b95508019841693508086168417925050509392505050565b5f819050919050565b5f819050919050565b5f610d0c610d07610d0284610ce0565b610ce9565b610ce0565b9050919050565b5f819050919050565b610d2583610cf2565b610d39610d3182610d13565b848454610c8f565b825550505050565b5f90565b610d4d610d41565b610d58818484610d1c565b505050565b5b81811015610d7b57610d705f82610d45565b600181019050610d5e565b5050565b601f821115610dc057610d9181610a1f565b610d9a84610c74565b81016020851015610da9578190505b610dbd610db585610c74565b830182610d5d565b50505b505050565b5f82821c905092915050565b5f610de05f1984600802610dc5565b1980831691505092915050565b5f610df88383610dd1565b9150826002028217905092915050565b610e128383610c3d565b67ffffffffffffffff811115610e2b57610e2a610c47565b5b610e3582546109ef565b610e40828285610d7f565b5f601f831160018114610e6d575f8415610e5b578287013590505b610e658582610ded565b865550610ecc565b601f198416610e7b86610a1f565b5f5b82811015610ea257848901358255600182019150602085019450602081019050610e7d565b86831015610ebf5784890135610ebb601f891682610dd1565b8355505b6001600288020188555050505b50505050505050565b7f4e487b71000000000000000000000000000000000000000000000000000000005f52603260045260245ffd5b5f610f0c8261079e565b9150610f178361079e565b925082820190507fffffffffffffffffffffffffffffffff8000000000000000000000000000000081126f7fffffffffffffffffffffffffffffff82131715610f6357610f62610b3f565b5b92915050565b7f496e73756669636369656e7420666f756e6473000000000000000000000000005f82015250565b5f610f9d601383610ac7565b9150610fa882610f69565b602082019050919050565b5f6020820190508181035f830152610fca81610f91565b905091905056fea2646970667358221220dacd9b3b23d64c1cdc227a8331d30334f286b96300dd2c6902457de398fad37e64736f6c63430008180033",
			"opcodes": "PUSH1 0x80 PUSH1 0x40 MSTORE PUSH0 PUSH1 0x3 PUSH1 0x1 PUSH2 0x100 EXP DUP2 SLOAD DUP2 PUSH1 0xFF MUL NOT AND SWAP1 DUP4 ISZERO ISZERO MUL OR SWAP1 SSTORE POP CALLVALUE DUP1 ISZERO PUSH2 0x29 JUMPI PUSH0 DUP1 REVERT JUMPDEST POP PUSH2 0x1007 DUP1 PUSH2 0x37 PUSH0 CODECOPY PUSH0 RETURN INVALID PUSH1 0x80 PUSH1 0x40 MSTORE PUSH1 0x4 CALLDATASIZE LT PUSH2 0x79 JUMPI PUSH0 CALLDATALOAD PUSH1 0xE0 SHR DUP1 PUSH4 0x929F8193 GT PUSH2 0x4D JUMPI DUP1 PUSH4 0x929F8193 EQ PUSH2 0x109 JUMPI DUP1 PUSH4 0xA15EB0A6 EQ PUSH2 0x145 JUMPI DUP1 PUSH4 0xEA2F992E EQ PUSH2 0x161 JUMPI DUP1 PUSH4 0xF5B7850A EQ PUSH2 0x17D JUMPI PUSH2 0x79 JUMP JUMPDEST DUP1 PUSH3 0xC4397 EQ PUSH2 0x7D JUMPI DUP1 PUSH4 0x4FB5BCBF EQ PUSH2 0xA7 JUMPI DUP1 PUSH4 0x5BB23E3B EQ PUSH2 0xC3 JUMPI DUP1 PUSH4 0x85D6C7C0 EQ PUSH2 0xDF JUMPI JUMPDEST PUSH0 DUP1 REVERT JUMPDEST CALLVALUE DUP1 ISZERO PUSH2 0x88 JUMPI PUSH0 DUP1 REVERT JUMPDEST POP PUSH2 0x91 PUSH2 0x1A7 JUMP JUMPDEST PUSH1 0x40 MLOAD PUSH2 0x9E SWAP2 SWAP1 PUSH2 0x7B9 JUMP JUMPDEST PUSH1 0x40 MLOAD DUP1 SWAP2 SUB SWAP1 RETURN JUMPDEST PUSH2 0xC1 PUSH1 0x4 DUP1 CALLDATASIZE SUB DUP2 ADD SWAP1 PUSH2 0xBC SWAP2 SWAP1 PUSH2 0x865 JUMP JUMPDEST PUSH2 0x1BB JUMP JUMPDEST STOP JUMPDEST PUSH2 0xDD PUSH1 0x4 DUP1 CALLDATASIZE SUB DUP2 ADD SWAP1 PUSH2 0xD8 SWAP2 SWAP1 PUSH2 0x8C2 JUMP JUMPDEST PUSH2 0x334 JUMP JUMPDEST STOP JUMPDEST CALLVALUE DUP1 ISZERO PUSH2 0xEA JUMPI PUSH0 DUP1 REVERT JUMPDEST POP PUSH2 0xF3 PUSH2 0x3D8 JUMP JUMPDEST PUSH1 0x40 MLOAD PUSH2 0x100 SWAP2 SWAP1 PUSH2 0x7B9 JUMP JUMPDEST PUSH1 0x40 MLOAD DUP1 SWAP2 SUB SWAP1 RETURN JUMPDEST CALLVALUE DUP1 ISZERO PUSH2 0x114 JUMPI PUSH0 DUP1 REVERT JUMPDEST POP PUSH2 0x12F PUSH1 0x4 DUP1 CALLDATASIZE SUB DUP2 ADD SWAP1 PUSH2 0x12A SWAP2 SWAP1 PUSH2 0x943 JUMP JUMPDEST PUSH2 0x3ED JUMP JUMPDEST PUSH1 0x40 MLOAD PUSH2 0x13C SWAP2 SWAP1 PUSH2 0x7B9 JUMP JUMPDEST PUSH1 0x40 MLOAD DUP1 SWAP2 SUB SWAP1 RETURN JUMPDEST PUSH2 0x15F PUSH1 0x4 DUP1 CALLDATASIZE SUB DUP2 ADD SWAP1 PUSH2 0x15A SWAP2 SWAP1 PUSH2 0x865 JUMP JUMPDEST PUSH2 0x42D JUMP JUMPDEST STOP JUMPDEST PUSH2 0x17B PUSH1 0x4 DUP1 CALLDATASIZE SUB DUP2 ADD SWAP1 PUSH2 0x176 SWAP2 SWAP1 PUSH2 0x865 JUMP JUMPDEST PUSH2 0x5A6 JUMP JUMPDEST STOP JUMPDEST CALLVALUE DUP1 ISZERO PUSH2 0x188 JUMPI PUSH0 DUP1 REVERT JUMPDEST POP PUSH2 0x191 PUSH2 0x788 JUMP JUMPDEST PUSH1 0x40 MLOAD PUSH2 0x19E SWAP2 SWAP1 PUSH2 0x7B9 JUMP JUMPDEST PUSH1 0x40 MLOAD DUP1 SWAP2 SUB SWAP1 RETURN JUMPDEST PUSH0 DUP1 PUSH0 SWAP1 SLOAD SWAP1 PUSH2 0x100 EXP SWAP1 DIV PUSH1 0xF SIGNEXTEND SWAP1 POP SWAP1 JUMP JUMPDEST DUP3 DUP3 PUSH1 0x40 MLOAD PUSH1 0x20 ADD PUSH2 0x1CE SWAP3 SWAP2 SWAP1 PUSH2 0x9AA JUMP JUMPDEST PUSH1 0x40 MLOAD PUSH1 0x20 DUP2 DUP4 SUB SUB DUP2 MSTORE SWAP1 PUSH1 0x40 MSTORE DUP1 MLOAD SWAP1 PUSH1 0x20 ADD KECCAK256 PUSH1 0x2 PUSH1 0x40 MLOAD PUSH1 0x20 ADD PUSH2 0x1F6 SWAP2 SWAP1 PUSH2 0xAB1 JUMP JUMPDEST PUSH1 0x40 MLOAD PUSH1 0x20 DUP2 DUP4 SUB SUB DUP2 MSTORE SWAP1 PUSH1 0x40 MSTORE DUP1 MLOAD SWAP1 PUSH1 0x20 ADD KECCAK256 EQ PUSH2 0x24C JUMPI PUSH1 0x40 MLOAD PUSH32 0x8C379A000000000000000000000000000000000000000000000000000000000 DUP2 MSTORE PUSH1 0x4 ADD PUSH2 0x243 SWAP1 PUSH2 0xB21 JUMP JUMPDEST PUSH1 0x40 MLOAD DUP1 SWAP2 SUB SWAP1 REVERT JUMPDEST DUP1 PUSH0 DUP1 DUP3 DUP3 DUP3 SWAP1 SLOAD SWAP1 PUSH2 0x100 EXP SWAP1 DIV PUSH1 0xF SIGNEXTEND PUSH2 0x268 SWAP2 SWAP1 PUSH2 0xB6C JUMP JUMPDEST SWAP3 POP PUSH2 0x100 EXP DUP2 SLOAD DUP2 PUSH16 0xFFFFFFFFFFFFFFFFFFFFFFFFFFFFFFFF MUL NOT AND SWAP1 DUP4 PUSH1 0xF SIGNEXTEND PUSH16 0xFFFFFFFFFFFFFFFFFFFFFFFFFFFFFFFF AND MUL OR SWAP1 SSTORE POP DUP1 PUSH0 PUSH1 0x10 DUP3 DUP3 DUP3 SWAP1 SLOAD SWAP1 PUSH2 0x100 EXP SWAP1 DIV PUSH1 0xF SIGNEXTEND PUSH2 0x2BE SWAP2 SWAP1 PUSH2 0xB6C JUMP JUMPDEST SWAP3 POP PUSH2 0x100 EXP DUP2 SLOAD DUP2 PUSH16 0xFFFFFFFFFFFFFFFFFFFFFFFFFFFFFFFF MUL NOT AND SWAP1 DUP4 PUSH1 0xF SIGNEXTEND PUSH16 0xFFFFFFFFFFFFFFFFFFFFFFFFFFFFFFFF AND MUL OR SWAP1 SSTORE POP PUSH1 0x3 PUSH0 DUP2 DUP2 SWAP1 SLOAD SWAP1 PUSH2 0x100 EXP SWAP1 DIV PUSH0 SIGNEXTEND DUP1 SWAP3 SWAP2 SWAP1 PUSH2 0x314 SWAP1 PUSH2 0xBDE JUMP JUMPDEST SWAP2 SWAP1 PUSH2 0x100 EXP DUP2 SLOAD DUP2 PUSH1 0xFF MUL NOT AND SWAP1 DUP4 PUSH0 SIGNEXTEND PUSH1 0xFF AND MUL OR SWAP1 SSTORE POP POP POP POP POP JUMP JUMPDEST PUSH1 0x40 MLOAD PUSH1 0x20 ADD PUSH2 0x343 SWAP1 PUSH2 0xC29 JUMP JUMPDEST PUSH1 0x40 MLOAD PUSH1 0x20 DUP2 DUP4 SUB SUB DUP2 MSTORE SWAP1 PUSH1 0x40 MSTORE DUP1 MLOAD SWAP1 PUSH1 0x20 ADD KECCAK256 DUP3 DUP3 PUSH1 0x40 MLOAD PUSH1 0x20 ADD PUSH2 0x36C SWAP3 SWAP2 SWAP1 PUSH2 0x9AA JUMP JUMPDEST PUSH1 0x40 MLOAD PUSH1 0x20 DUP2 DUP4 SUB SUB DUP2 MSTORE SWAP1 PUSH1 0x40 MSTORE DUP1 MLOAD SWAP1 PUSH1 0x20 ADD KECCAK256 SUB PUSH2 0x3C2 JUMPI PUSH1 0x40 MLOAD PUSH32 0x8C379A000000000000000000000000000000000000000000000000000000000 DUP2 MSTORE PUSH1 0x4 ADD PUSH2 0x3B9 SWAP1 PUSH2 0xB21 JUMP JUMPDEST PUSH1 0x40 MLOAD DUP1 SWAP2 SUB SWAP1 REVERT JUMPDEST DUP2 DUP2 PUSH1 0x2 SWAP2 DUP3 PUSH2 0x3D3 SWAP3 SWAP2 SWAP1 PUSH2 0xE08 JUMP JUMPDEST POP POP POP JUMP JUMPDEST PUSH0 DUP1 PUSH1 0x10 SWAP1 SLOAD SWAP1 PUSH2 0x100 EXP SWAP1 DIV PUSH1 0xF SIGNEXTEND SWAP1 POP SWAP1 JUMP JUMPDEST PUSH0 PUSH1 0x1 DUP3 PUSH1 0xFF AND DUP2 SLOAD DUP2 LT PUSH2 0x405 JUMPI PUSH2 0x404 PUSH2 0xED5 JUMP JUMPDEST JUMPDEST SWAP1 PUSH0 MSTORE PUSH1 0x20 PUSH0 KECCAK256 SWAP1 PUSH1 0x2 SWAP2 DUP3 DUP3 DIV ADD SWAP2 SWAP1 MOD PUSH1 0x10 MUL SWAP1 SLOAD SWAP1 PUSH2 0x100 EXP SWAP1 DIV PUSH1 0xF SIGNEXTEND SWAP1 POP SWAP2 SWAP1 POP JUMP JUMPDEST DUP3 DUP3 PUSH1 0x40 MLOAD PUSH1 0x20 ADD PUSH2 0x440 SWAP3 SWAP2 SWAP1 PUSH2 0x9AA JUMP JUMPDEST PUSH1 0x40 MLOAD PUSH1 0x20 DUP2 DUP4 SUB SUB DUP2 MSTORE SWAP1 PUSH1 0x40 MSTORE DUP1 MLOAD SWAP1 PUSH1 0x20 ADD KECCAK256 PUSH1 0x2 PUSH1 0x40 MLOAD PUSH1 0x20 ADD PUSH2 0x468 SWAP2 SWAP1 PUSH2 0xAB1 JUMP JUMPDEST PUSH1 0x40 MLOAD PUSH1 0x20 DUP2 DUP4 SUB SUB DUP2 MSTORE SWAP1 PUSH1 0x40 MSTORE DUP1 MLOAD SWAP1 PUSH1 0x20 ADD KECCAK256 EQ PUSH2 0x4BE JUMPI PUSH1 0x40 MLOAD PUSH32 0x8C379A000000000000000000000000000000000000000000000000000000000 DUP2 MSTORE PUSH1 0x4 ADD PUSH2 0x4B5 SWAP1 PUSH2 0xB21 JUMP JUMPDEST PUSH1 0x40 MLOAD DUP1 SWAP2 SUB SWAP1 REVERT JUMPDEST DUP1 PUSH0 DUP1 DUP3 DUP3 DUP3 SWAP1 SLOAD SWAP1 PUSH2 0x100 EXP SWAP1 DIV PUSH1 0xF SIGNEXTEND PUSH2 0x4DA SWAP2 SWAP1 PUSH2 0xF02 JUMP JUMPDEST SWAP3 POP PUSH2 0x100 EXP DUP2 SLOAD DUP2 PUSH16 0xFFFFFFFFFFFFFFFFFFFFFFFFFFFFFFFF MUL NOT AND SWAP1 DUP4 PUSH1 0xF SIGNEXTEND PUSH16 0xFFFFFFFFFFFFFFFFFFFFFFFFFFFFFFFF AND MUL OR SWAP1 SSTORE POP DUP1 PUSH0 PUSH1 0x10 DUP3 DUP3 DUP3 SWAP1 SLOAD SWAP1 PUSH2 0x100 EXP SWAP1 DIV PUSH1 0xF SIGNEXTEND PUSH2 0x530 SWAP2 SWAP1 PUSH2 0xF02 JUMP JUMPDEST SWAP3 POP PUSH2 0x100 EXP DUP2 SLOAD DUP2 PUSH16 0xFFFFFFFFFFFFFFFFFFFFFFFFFFFFFFFF MUL NOT AND SWAP1 DUP4 PUSH1 0xF SIGNEXTEND PUSH16 0xFFFFFFFFFFFFFFFFFFFFFFFFFFFFFFFF AND MUL OR SWAP1 SSTORE POP PUSH1 0x3 PUSH0 DUP2 DUP2 SWAP1 SLOAD SWAP1 PUSH2 0x100 EXP SWAP1 DIV PUSH0 SIGNEXTEND DUP1 SWAP3 SWAP2 SWAP1 PUSH2 0x586 SWAP1 PUSH2 0xBDE JUMP JUMPDEST SWAP2 SWAP1 PUSH2 0x100 EXP DUP2 SLOAD DUP2 PUSH1 0xFF MUL NOT AND SWAP1 DUP4 PUSH0 SIGNEXTEND PUSH1 0xFF AND MUL OR SWAP1 SSTORE POP POP POP POP POP JUMP JUMPDEST DUP3 DUP3 PUSH1 0x40 MLOAD PUSH1 0x20 ADD PUSH2 0x5B9 SWAP3 SWAP2 SWAP1 PUSH2 0x9AA JUMP JUMPDEST PUSH1 0x40 MLOAD PUSH1 0x20 DUP2 DUP4 SUB SUB DUP2 MSTORE SWAP1 PUSH1 0x40 MSTORE DUP1 MLOAD SWAP1 PUSH1 0x20 ADD KECCAK256 PUSH1 0x2 PUSH1 0x40 MLOAD PUSH1 0x20 ADD PUSH2 0x5E1 SWAP2 SWAP1 PUSH2 0xAB1 JUMP JUMPDEST PUSH1 0x40 MLOAD PUSH1 0x20 DUP2 DUP4 SUB SUB DUP2 MSTORE SWAP1 PUSH1 0x40 MSTORE DUP1 MLOAD SWAP1 PUSH1 0x20 ADD KECCAK256 EQ PUSH2 0x637 JUMPI PUSH1 0x40 MLOAD PUSH32 0x8C379A000000000000000000000000000000000000000000000000000000000 DUP2 MSTORE PUSH1 0x4 ADD PUSH2 0x62E SWAP1 PUSH2 0xB21 JUMP JUMPDEST PUSH1 0x40 MLOAD DUP1 SWAP2 SUB SWAP1 REVERT JUMPDEST PUSH0 PUSH1 0x10 SWAP1 SLOAD SWAP1 PUSH2 0x100 EXP SWAP1 DIV PUSH1 0xF SIGNEXTEND PUSH1 0xF SIGNEXTEND DUP2 PUSH1 0xF SIGNEXTEND SGT ISZERO PUSH2 0x68E JUMPI PUSH1 0x40 MLOAD PUSH32 0x8C379A000000000000000000000000000000000000000000000000000000000 DUP2 MSTORE PUSH1 0x4 ADD PUSH2 0x685 SWAP1 PUSH2 0xFB3 JUMP JUMPDEST PUSH1 0x40 MLOAD DUP1 SWAP2 SUB SWAP1 REVERT JUMPDEST PUSH1 0x1 DUP2 SWAP1 DUP1 PUSH1 0x1 DUP2 SLOAD ADD DUP1 DUP3 SSTORE DUP1 SWAP2 POP POP PUSH1 0x1 SWAP1 SUB SWAP1 PUSH0 MSTORE PUSH1 0x20 PUSH0 KECCAK256 SWAP1 PUSH1 0x2 SWAP2 DUP3 DUP3 DIV ADD SWAP2 SWAP1 MOD PUSH1 0x10 MUL SWAP1 SWAP2 SWAP1 SWAP2 SWAP1 SWAP2 PUSH2 0x100 EXP DUP2 SLOAD DUP2 PUSH16 0xFFFFFFFFFFFFFFFFFFFFFFFFFFFFFFFF MUL NOT AND SWAP1 DUP4 PUSH1 0xF SIGNEXTEND PUSH16 0xFFFFFFFFFFFFFFFFFFFFFFFFFFFFFFFF AND MUL OR SWAP1 SSTORE POP DUP1 PUSH0 PUSH1 0x10 DUP3 DUP3 DUP3 SWAP1 SLOAD SWAP1 PUSH2 0x100 EXP SWAP1 DIV PUSH1 0xF SIGNEXTEND PUSH2 0x712 SWAP2 SWAP1 PUSH2 0xB6C JUMP JUMPDEST SWAP3 POP PUSH2 0x100 EXP DUP2 SLOAD DUP2 PUSH16 0xFFFFFFFFFFFFFFFFFFFFFFFFFFFFFFFF MUL NOT AND SWAP1 DUP4 PUSH1 0xF SIGNEXTEND PUSH16 0xFFFFFFFFFFFFFFFFFFFFFFFFFFFFFFFF AND MUL OR SWAP1 SSTORE POP PUSH1 0x3 PUSH0 DUP2 DUP2 SWAP1 SLOAD SWAP1 PUSH2 0x100 EXP SWAP1 DIV PUSH0 SIGNEXTEND DUP1 SWAP3 SWAP2 SWAP1 PUSH2 0x768 SWAP1 PUSH2 0xBDE JUMP JUMPDEST SWAP2 SWAP1 PUSH2 0x100 EXP DUP2 SLOAD DUP2 PUSH1 0xFF MUL NOT AND SWAP1 DUP4 PUSH0 SIGNEXTEND PUSH1 0xFF AND MUL OR SWAP1 SSTORE POP POP POP POP POP JUMP JUMPDEST PUSH0 PUSH1 0x3 PUSH0 SWAP1 SLOAD SWAP1 PUSH2 0x100 EXP SWAP1 DIV PUSH0 SIGNEXTEND PUSH0 SIGNEXTEND SWAP1 POP SWAP1 JUMP JUMPDEST PUSH0 DUP2 PUSH1 0xF SIGNEXTEND SWAP1 POP SWAP2 SWAP1 POP JUMP JUMPDEST PUSH2 0x7B3 DUP2 PUSH2 0x79E JUMP JUMPDEST DUP3 MSTORE POP POP JUMP JUMPDEST PUSH0 PUSH1 0x20 DUP3 ADD SWAP1 POP PUSH2 0x7CC PUSH0 DUP4 ADD DUP5 PUSH2 0x7AA JUMP JUMPDEST SWAP3 SWAP2 POP POP JUMP JUMPDEST PUSH0 DUP1 REVERT JUMPDEST PUSH0 DUP1 REVERT JUMPDEST PUSH0 DUP1 REVERT JUMPDEST PUSH0 DUP1 REVERT JUMPDEST PUSH0 DUP1 REVERT JUMPDEST PUSH0 DUP1 DUP4 PUSH1 0x1F DUP5 ADD SLT PUSH2 0x7FB JUMPI PUSH2 0x7FA PUSH2 0x7DA JUMP JUMPDEST JUMPDEST DUP3 CALLDATALOAD SWAP1 POP PUSH8 0xFFFFFFFFFFFFFFFF DUP2 GT ISZERO PUSH2 0x818 JUMPI PUSH2 0x817 PUSH2 0x7DE JUMP JUMPDEST JUMPDEST PUSH1 0x20 DUP4 ADD SWAP2 POP DUP4 PUSH1 0x1 DUP3 MUL DUP4 ADD GT ISZERO PUSH2 0x834 JUMPI PUSH2 0x833 PUSH2 0x7E2 JUMP JUMPDEST JUMPDEST SWAP3 POP SWAP3 SWAP1 POP JUMP JUMPDEST PUSH2 0x844 DUP2 PUSH2 0x79E JUMP JUMPDEST DUP2 EQ PUSH2 0x84E JUMPI PUSH0 DUP1 REVERT JUMPDEST POP JUMP JUMPDEST PUSH0 DUP2 CALLDATALOAD SWAP1 POP PUSH2 0x85F DUP2 PUSH2 0x83B JUMP JUMPDEST SWAP3 SWAP2 POP POP JUMP JUMPDEST PUSH0 DUP1 PUSH0 PUSH1 0x40 DUP5 DUP7 SUB SLT ISZERO PUSH2 0x87C JUMPI PUSH2 0x87B PUSH2 0x7D2 JUMP JUMPDEST JUMPDEST PUSH0 DUP5 ADD CALLDATALOAD PUSH8 0xFFFFFFFFFFFFFFFF DUP2 GT ISZERO PUSH2 0x899 JUMPI PUSH2 0x898 PUSH2 0x7D6 JUMP JUMPDEST JUMPDEST PUSH2 0x8A5 DUP7 DUP3 DUP8 ADD PUSH2 0x7E6 JUMP JUMPDEST SWAP4 POP SWAP4 POP POP PUSH1 0x20 PUSH2 0x8B8 DUP7 DUP3 DUP8 ADD PUSH2 0x851 JUMP JUMPDEST SWAP2 POP POP SWAP3 POP SWAP3 POP SWAP3 JUMP JUMPDEST PUSH0 DUP1 PUSH1 0x20 DUP4 DUP6 SUB SLT ISZERO PUSH2 0x8D8 JUMPI PUSH2 0x8D7 PUSH2 0x7D2 JUMP JUMPDEST JUMPDEST PUSH0 DUP4 ADD CALLDATALOAD PUSH8 0xFFFFFFFFFFFFFFFF DUP2 GT ISZERO PUSH2 0x8F5 JUMPI PUSH2 0x8F4 PUSH2 0x7D6 JUMP JUMPDEST JUMPDEST PUSH2 0x901 DUP6 DUP3 DUP7 ADD PUSH2 0x7E6 JUMP JUMPDEST SWAP3 POP SWAP3 POP POP SWAP3 POP SWAP3 SWAP1 POP JUMP JUMPDEST PUSH0 PUSH1 0xFF DUP3 AND SWAP1 POP SWAP2 SWAP1 POP JUMP JUMPDEST PUSH2 0x922 DUP2 PUSH2 0x90D JUMP JUMPDEST DUP2 EQ PUSH2 0x92C JUMPI PUSH0 DUP1 REVERT JUMPDEST POP JUMP JUMPDEST PUSH0 DUP2 CALLDATALOAD SWAP1 POP PUSH2 0x93D DUP2 PUSH2 0x919 JUMP JUMPDEST SWAP3 SWAP2 POP POP JUMP JUMPDEST PUSH0 PUSH1 0x20 DUP3 DUP5 SUB SLT ISZERO PUSH2 0x958 JUMPI PUSH2 0x957 PUSH2 0x7D2 JUMP JUMPDEST JUMPDEST PUSH0 PUSH2 0x965 DUP5 DUP3 DUP6 ADD PUSH2 0x92F JUMP JUMPDEST SWAP2 POP POP SWAP3 SWAP2 POP POP JUMP JUMPDEST PUSH0 DUP2 SWAP1 POP SWAP3 SWAP2 POP POP JUMP JUMPDEST DUP3 DUP2 DUP4 CALLDATACOPY PUSH0 DUP4 DUP4 ADD MSTORE POP POP POP JUMP JUMPDEST PUSH0 PUSH2 0x991 DUP4 DUP6 PUSH2 0x96E JUMP JUMPDEST SWAP4 POP PUSH2 0x99E DUP4 DUP6 DUP5 PUSH2 0x978 JUMP JUMPDEST DUP3 DUP5 ADD SWAP1 POP SWAP4 SWAP3 POP POP POP JUMP JUMPDEST PUSH0 PUSH2 0x9B6 DUP3 DUP5 DUP7 PUSH2 0x986 JUMP JUMPDEST SWAP2 POP DUP2 SWAP1 POP SWAP4 SWAP3 POP POP POP JUMP JUMPDEST PUSH32 0x4E487B7100000000000000000000000000000000000000000000000000000000 PUSH0 MSTORE PUSH1 0x22 PUSH1 0x4 MSTORE PUSH1 0x24 PUSH0 REVERT JUMPDEST PUSH0 PUSH1 0x2 DUP3 DIV SWAP1 POP PUSH1 0x1 DUP3 AND DUP1 PUSH2 0xA06 JUMPI PUSH1 0x7F DUP3 AND SWAP2 POP JUMPDEST PUSH1 0x20 DUP3 LT DUP2 SUB PUSH2 0xA19 JUMPI PUSH2 0xA18 PUSH2 0x9C2 JUMP JUMPDEST JUMPDEST POP SWAP2 SWAP1 POP JUMP JUMPDEST PUSH0 DUP2 SWAP1 POP DUP2 PUSH0 MSTORE PUSH1 0x20 PUSH0 KECCAK256 SWAP1 POP SWAP2 SWAP1 POP JUMP JUMPDEST PUSH0 DUP2 SLOAD PUSH2 0xA3D DUP2 PUSH2 0x9EF JUMP JUMPDEST PUSH2 0xA47 DUP2 DUP7 PUSH2 0x96E JUMP JUMPDEST SWAP5 POP PUSH1 0x1 DUP3 AND PUSH0 DUP2 EQ PUSH2 0xA61 JUMPI PUSH1 0x1 DUP2 EQ PUSH2 0xA76 JUMPI PUSH2 0xAA8 JUMP JUMPDEST PUSH1 0xFF NOT DUP4 AND DUP7 MSTORE DUP2 ISZERO ISZERO DUP3 MUL DUP7 ADD SWAP4 POP PUSH2 0xAA8 JUMP JUMPDEST PUSH2 0xA7F DUP6 PUSH2 0xA1F JUMP JUMPDEST PUSH0 JUMPDEST DUP4 DUP2 LT ISZERO PUSH2 0xAA0 JUMPI DUP2 SLOAD DUP2 DUP10 ADD MSTORE PUSH1 0x1 DUP3 ADD SWAP2 POP PUSH1 0x20 DUP2 ADD SWAP1 POP PUSH2 0xA81 JUMP JUMPDEST DUP4 DUP9 ADD SWAP6 POP POP POP JUMPDEST POP POP POP SWAP3 SWAP2 POP POP JUMP JUMPDEST PUSH0 PUSH2 0xABC DUP3 DUP5 PUSH2 0xA31 JUMP JUMPDEST SWAP2 POP DUP2 SWAP1 POP SWAP3 SWAP2 POP POP JUMP JUMPDEST PUSH0 DUP3 DUP3 MSTORE PUSH1 0x20 DUP3 ADD SWAP1 POP SWAP3 SWAP2 POP POP JUMP JUMPDEST PUSH32 0x50617373776F726420696E636F72726563740000000000000000000000000000 PUSH0 DUP3 ADD MSTORE POP JUMP JUMPDEST PUSH0 PUSH2 0xB0B PUSH1 0x12 DUP4 PUSH2 0xAC7 JUMP JUMPDEST SWAP2 POP PUSH2 0xB16 DUP3 PUSH2 0xAD7 JUMP JUMPDEST PUSH1 0x20 DUP3 ADD SWAP1 POP SWAP2 SWAP1 POP JUMP JUMPDEST PUSH0 PUSH1 0x20 DUP3 ADD SWAP1 POP DUP2 DUP2 SUB PUSH0 DUP4 ADD MSTORE PUSH2 0xB38 DUP2 PUSH2 0xAFF JUMP JUMPDEST SWAP1 POP SWAP2 SWAP1 POP JUMP JUMPDEST PUSH32 0x4E487B7100000000000000000000000000000000000000000000000000000000 PUSH0 MSTORE PUSH1 0x11 PUSH1 0x4 MSTORE PUSH1 0x24 PUSH0 REVERT JUMPDEST PUSH0 PUSH2 0xB76 DUP3 PUSH2 0x79E JUMP JUMPDEST SWAP2 POP PUSH2 0xB81 DUP4 PUSH2 0x79E JUMP JUMPDEST SWAP3 POP DUP3 DUP3 SUB SWAP1 POP PUSH16 0x7FFFFFFFFFFFFFFFFFFFFFFFFFFFFFFF DUP2 SGT PUSH32 0xFFFFFFFFFFFFFFFFFFFFFFFFFFFFFFFF80000000000000000000000000000000 DUP3 SLT OR ISZERO PUSH2 0xBCD JUMPI PUSH2 0xBCC PUSH2 0xB3F JUMP JUMPDEST JUMPDEST SWAP3 SWAP2 POP POP JUMP JUMPDEST PUSH0 DUP2 PUSH0 SIGNEXTEND SWAP1 POP SWAP2 SWAP1 POP JUMP JUMPDEST PUSH0 PUSH2 0xBE8 DUP3 PUSH2 0xBD3 JUMP JUMPDEST SWAP2 POP PUSH1 0x7F DUP3 SUB PUSH2 0xBFB JUMPI PUSH2 0xBFA PUSH2 0xB3F JUMP JUMPDEST JUMPDEST PUSH1 0x1 DUP3 ADD SWAP1 POP SWAP2 SWAP1 POP JUMP JUMPDEST POP JUMP JUMPDEST PUSH0 PUSH2 0xC14 PUSH0 DUP4 PUSH2 0x96E JUMP JUMPDEST SWAP2 POP PUSH2 0xC1F DUP3 PUSH2 0xC06 JUMP JUMPDEST PUSH0 DUP3 ADD SWAP1 POP SWAP2 SWAP1 POP JUMP JUMPDEST PUSH0 PUSH2 0xC33 DUP3 PUSH2 0xC09 JUMP JUMPDEST SWAP2 POP DUP2 SWAP1 POP SWAP2 SWAP1 POP JUMP JUMPDEST PUSH0 DUP3 SWAP1 POP SWAP3 SWAP2 POP POP JUMP JUMPDEST PUSH32 0x4E487B7100000000000000000000000000000000000000000000000000000000 PUSH0 MSTORE PUSH1 0x41 PUSH1 0x4 MSTORE PUSH1 0x24 PUSH0 REVERT JUMPDEST PUSH0 PUSH1 0x20 PUSH1 0x1F DUP4 ADD DIV SWAP1 POP SWAP2 SWAP1 POP JUMP JUMPDEST PUSH0 DUP3 DUP3 SHL SWAP1 POP SWAP3 SWAP2 POP POP JUMP JUMPDEST PUSH0 PUSH1 0x8 DUP4 MUL PUSH2 0xCBE PUSH32 0xFFFFFFFFFFFFFFFFFFFFFFFFFFFFFFFFFFFFFFFFFFFFFFFFFFFFFFFFFFFFFFFF DUP3 PUSH2 0xC83 JUMP JUMPDEST PUSH2 0xCC8 DUP7 DUP4 PUSH2 0xC83 JUMP JUMPDEST SWAP6 POP DUP1 NOT DUP5 AND SWAP4 POP DUP1 DUP7 AND DUP5 OR SWAP3 POP POP POP SWAP4 SWAP3 POP POP POP JUMP JUMPDEST PUSH0 DUP2 SWAP1 POP SWAP2 SWAP1 POP JUMP JUMPDEST PUSH0 DUP2 SWAP1 POP SWAP2 SWAP1 POP JUMP JUMPDEST PUSH0 PUSH2 0xD0C PUSH2 0xD07 PUSH2 0xD02 DUP5 PUSH2 0xCE0 JUMP JUMPDEST PUSH2 0xCE9 JUMP JUMPDEST PUSH2 0xCE0 JUMP JUMPDEST SWAP1 POP SWAP2 SWAP1 POP JUMP JUMPDEST PUSH0 DUP2 SWAP1 POP SWAP2 SWAP1 POP JUMP JUMPDEST PUSH2 0xD25 DUP4 PUSH2 0xCF2 JUMP JUMPDEST PUSH2 0xD39 PUSH2 0xD31 DUP3 PUSH2 0xD13 JUMP JUMPDEST DUP5 DUP5 SLOAD PUSH2 0xC8F JUMP JUMPDEST DUP3 SSTORE POP POP POP POP JUMP JUMPDEST PUSH0 SWAP1 JUMP JUMPDEST PUSH2 0xD4D PUSH2 0xD41 JUMP JUMPDEST PUSH2 0xD58 DUP2 DUP5 DUP5 PUSH2 0xD1C JUMP JUMPDEST POP POP POP JUMP JUMPDEST JUMPDEST DUP2 DUP2 LT ISZERO PUSH2 0xD7B JUMPI PUSH2 0xD70 PUSH0 DUP3 PUSH2 0xD45 JUMP JUMPDEST PUSH1 0x1 DUP2 ADD SWAP1 POP PUSH2 0xD5E JUMP JUMPDEST POP POP JUMP JUMPDEST PUSH1 0x1F DUP3 GT ISZERO PUSH2 0xDC0 JUMPI PUSH2 0xD91 DUP2 PUSH2 0xA1F JUMP JUMPDEST PUSH2 0xD9A DUP5 PUSH2 0xC74 JUMP JUMPDEST DUP2 ADD PUSH1 0x20 DUP6 LT ISZERO PUSH2 0xDA9 JUMPI DUP2 SWAP1 POP JUMPDEST PUSH2 0xDBD PUSH2 0xDB5 DUP6 PUSH2 0xC74 JUMP JUMPDEST DUP4 ADD DUP3 PUSH2 0xD5D JUMP JUMPDEST POP POP JUMPDEST POP POP POP JUMP JUMPDEST PUSH0 DUP3 DUP3 SHR SWAP1 POP SWAP3 SWAP2 POP POP JUMP JUMPDEST PUSH0 PUSH2 0xDE0 PUSH0 NOT DUP5 PUSH1 0x8 MUL PUSH2 0xDC5 JUMP JUMPDEST NOT DUP1 DUP4 AND SWAP2 POP POP SWAP3 SWAP2 POP POP JUMP JUMPDEST PUSH0 PUSH2 0xDF8 DUP4 DUP4 PUSH2 0xDD1 JUMP JUMPDEST SWAP2 POP DUP3 PUSH1 0x2 MUL DUP3 OR SWAP1 POP SWAP3 SWAP2 POP POP JUMP JUMPDEST PUSH2 0xE12 DUP4 DUP4 PUSH2 0xC3D JUMP JUMPDEST PUSH8 0xFFFFFFFFFFFFFFFF DUP2 GT ISZERO PUSH2 0xE2B JUMPI PUSH2 0xE2A PUSH2 0xC47 JUMP JUMPDEST JUMPDEST PUSH2 0xE35 DUP3 SLOAD PUSH2 0x9EF JUMP JUMPDEST PUSH2 0xE40 DUP3 DUP3 DUP6 PUSH2 0xD7F JUMP JUMPDEST PUSH0 PUSH1 0x1F DUP4 GT PUSH1 0x1 DUP2 EQ PUSH2 0xE6D JUMPI PUSH0 DUP5 ISZERO PUSH2 0xE5B JUMPI DUP3 DUP8 ADD CALLDATALOAD SWAP1 POP JUMPDEST PUSH2 0xE65 DUP6 DUP3 PUSH2 0xDED JUMP JUMPDEST DUP7 SSTORE POP PUSH2 0xECC JUMP JUMPDEST PUSH1 0x1F NOT DUP5 AND PUSH2 0xE7B DUP7 PUSH2 0xA1F JUMP JUMPDEST PUSH0 JUMPDEST DUP3 DUP2 LT ISZERO PUSH2 0xEA2 JUMPI DUP5 DUP10 ADD CALLDATALOAD DUP3 SSTORE PUSH1 0x1 DUP3 ADD SWAP2 POP PUSH1 0x20 DUP6 ADD SWAP5 POP PUSH1 0x20 DUP2 ADD SWAP1 POP PUSH2 0xE7D JUMP JUMPDEST DUP7 DUP4 LT ISZERO PUSH2 0xEBF JUMPI DUP5 DUP10 ADD CALLDATALOAD PUSH2 0xEBB PUSH1 0x1F DUP10 AND DUP3 PUSH2 0xDD1 JUMP JUMPDEST DUP4 SSTORE POP JUMPDEST PUSH1 0x1 PUSH1 0x2 DUP9 MUL ADD DUP9 SSTORE POP POP POP JUMPDEST POP POP POP POP POP POP POP JUMP JUMPDEST PUSH32 0x4E487B7100000000000000000000000000000000000000000000000000000000 PUSH0 MSTORE PUSH1 0x32 PUSH1 0x4 MSTORE PUSH1 0x24 PUSH0 REVERT JUMPDEST PUSH0 PUSH2 0xF0C DUP3 PUSH2 0x79E JUMP JUMPDEST SWAP2 POP PUSH2 0xF17 DUP4 PUSH2 0x79E JUMP JUMPDEST SWAP3 POP DUP3 DUP3 ADD SWAP1 POP PUSH32 0xFFFFFFFFFFFFFFFFFFFFFFFFFFFFFFFF80000000000000000000000000000000 DUP2 SLT PUSH16 0x7FFFFFFFFFFFFFFFFFFFFFFFFFFFFFFF DUP3 SGT OR ISZERO PUSH2 0xF63 JUMPI PUSH2 0xF62 PUSH2 0xB3F JUMP JUMPDEST JUMPDEST SWAP3 SWAP2 POP POP JUMP JUMPDEST PUSH32 0x496E73756669636369656E7420666F756E647300000000000000000000000000 PUSH0 DUP3 ADD MSTORE POP JUMP JUMPDEST PUSH0 PUSH2 0xF9D PUSH1 0x13 DUP4 PUSH2 0xAC7 JUMP JUMPDEST SWAP2 POP PUSH2 0xFA8 DUP3 PUSH2 0xF69 JUMP JUMPDEST PUSH1 0x20 DUP3 ADD SWAP1 POP SWAP2 SWAP1 POP JUMP JUMPDEST PUSH0 PUSH1 0x20 DUP3 ADD SWAP1 POP DUP2 DUP2 SUB PUSH0 DUP4 ADD MSTORE PUSH2 0xFCA DUP2 PUSH2 0xF91 JUMP JUMPDEST SWAP1 POP SWAP2 SWAP1 POP JUMP INVALID LOG2 PUSH5 0x6970667358 0x22 SLT KECCAK256 0xDA 0xCD SWAP12 EXTCODESIZE 0x23 0xD6 0x4C SHR 0xDC 0x22 PUSH27 0x8331D30334F286B96300DD2C6902457DE398FAD37E64736F6C6343 STOP ADDMOD XOR STOP CALLER "
		},
		"gasEstimates": {
			"creation": {
				"codeDepositCost": "820600",
				"executionCost": "25171",
				"totalCost": "845771"
			},
			"external": {
				"AvailableBalance()": "2595",
				"DecreaseBalance(string,int128)": "infinite",
				"IncreaseBalance(string,int128)": "infinite",
				"NewPocket(string,int128)": "infinite",
				"QuantityShares()": "2549",
				"SetPassword(string)": "infinite",
				"TotalBalance()": "2478",
				"checkPocket(uint8)": "6565"
			}
		},
		"methodIdentifiers": {
			"AvailableBalance()": "85d6c7c0",
			"DecreaseBalance(string,int128)": "4fb5bcbf",
			"IncreaseBalance(string,int128)": "a15eb0a6",
			"NewPocket(string,int128)": "ea2f992e",
			"QuantityShares()": "f5b7850a",
			"SetPassword(string)": "5bb23e3b",
			"TotalBalance()": "000c4397",
			"checkPocket(uint8)": "929f8193"
		}
	},
	"abi": [
		{
			"inputs": [],
			"name": "AvailableBalance",
			"outputs": [
				{
					"internalType": "int128",
					"name": "_availableBalance",
					"type": "int128"
				}
			],
			"stateMutability": "view",
			"type": "function"
		},
		{
			"inputs": [
				{
					"internalType": "string",
					"name": "_Password",
					"type": "string"
				},
				{
					"internalType": "int128",
					"name": "value",
					"type": "int128"
				}
			],
			"name": "DecreaseBalance",
			"outputs": [],
			"stateMutability": "payable",
			"type": "function"
		},
		{
			"inputs": [
				{
					"internalType": "string",
					"name": "_Password",
					"type": "string"
				},
				{
					"internalType": "int128",
					"name": "value",
					"type": "int128"
				}
			],
			"name": "IncreaseBalance",
			"outputs": [],
			"stateMutability": "payable",
			"type": "function"
		},
		{
			"inputs": [
				{
					"internalType": "string",
					"name": "_Password",
					"type": "string"
				},
				{
					"internalType": "int128",
					"name": "value",
					"type": "int128"
				}
			],
			"name": "NewPocket",
			"outputs": [],
			"stateMutability": "payable",
			"type": "function"
		},
		{
			"inputs": [],
			"name": "QuantityShares",
			"outputs": [
				{
					"internalType": "int128",
					"name": "_quantityShares",
					"type": "int128"
				}
			],
			"stateMutability": "view",
			"type": "function"
		},
		{
			"inputs": [
				{
					"internalType": "string",
					"name": "_Password",
					"type": "string"
				}
			],
			"name": "SetPassword",
			"outputs": [],
			"stateMutability": "payable",
			"type": "function"
		},
		{
			"inputs": [],
			"name": "TotalBalance",
			"outputs": [
				{
					"internalType": "int128",
					"name": "_Balance",
					"type": "int128"
				}
			],
			"stateMutability": "view",
			"type": "function"
		},
		{
			"inputs": [
				{
					"internalType": "uint8",
					"name": "index",
					"type": "uint8"
				}
			],
			"name": "checkPocket",
			"outputs": [
				{
					"internalType": "int128",
					"name": "_pocketBalance",
					"type": "int128"
				}
			],
			"stateMutability": "view",
			"type": "function"
		}
	]
}